{
    "contractAddress": "0x610178dA211FEF7D417bC0e6FeD39F05609AD788",
    "_format": "hh-sol-artifact-1",
    "contractName": "Auction",
    "sourceName": "contracts/Auction.sol",
    "abi": [
        {
            "inputs": [
                {
                    "internalType": "uint256",
                    "name": "_feePercent",
                    "type": "uint256"
                }
            ],
            "stateMutability": "nonpayable",
            "type": "constructor"
        },
        {
            "anonymous": false,
            "inputs": [
                {
                    "indexed": true,
                    "internalType": "address",
                    "name": "topBidder",
                    "type": "address"
                },
                {
                    "indexed": false,
                    "internalType": "uint256",
                    "name": "topBid",
                    "type": "uint256"
                }
            ],
            "name": "Bid",
            "type": "event"
        },
        {
            "anonymous": false,
            "inputs": [
                {
                    "indexed": true,
                    "internalType": "uint256",
                    "name": "itemId",
                    "type": "uint256"
                },
                {
                    "indexed": false,
                    "internalType": "uint256",
                    "name": "_startPrice",
                    "type": "uint256"
                },
                {
                    "indexed": false,
                    "internalType": "uint256",
                    "name": "_startAt",
                    "type": "uint256"
                },
                {
                    "indexed": false,
                    "internalType": "uint256",
                    "name": "_endAt",
                    "type": "uint256"
                },
                {
                    "indexed": false,
                    "internalType": "address",
                    "name": "_nft",
                    "type": "address"
                },
                {
                    "indexed": false,
                    "internalType": "uint256",
                    "name": "_tokenId",
                    "type": "uint256"
                },
                {
                    "indexed": true,
                    "internalType": "address",
                    "name": "seller",
                    "type": "address"
                }
            ],
            "name": "Enrolled",
            "type": "event"
        },
        {
            "anonymous": false,
            "inputs": [
                {
                    "indexed": true,
                    "internalType": "uint256",
                    "name": "itemId",
                    "type": "uint256"
                },
                {
                    "indexed": false,
                    "internalType": "uint256",
                    "name": "_startPrice",
                    "type": "uint256"
                },
                {
                    "indexed": false,
                    "internalType": "uint256",
                    "name": "_startAt",
                    "type": "uint256"
                },
                {
                    "indexed": false,
                    "internalType": "uint256",
                    "name": "_endAt",
                    "type": "uint256"
                },
                {
                    "indexed": false,
                    "internalType": "address",
                    "name": "_nft",
                    "type": "address"
                },
                {
                    "indexed": false,
                    "internalType": "uint256",
                    "name": "_tokenId",
                    "type": "uint256"
                },
                {
                    "indexed": true,
                    "internalType": "address",
                    "name": "seller",
                    "type": "address"
                }
            ],
            "name": "Started",
            "type": "event"
        },
        {
            "anonymous": false,
            "inputs": [
                {
                    "indexed": true,
                    "internalType": "address",
                    "name": "bidder",
                    "type": "address"
                },
                {
                    "indexed": false,
                    "internalType": "uint256",
                    "name": "amount",
                    "type": "uint256"
                }
            ],
            "name": "Withdraw",
            "type": "event"
        },
        {
            "inputs": [],
            "name": "ItemCounter",
            "outputs": [
                {
                    "internalType": "uint256",
                    "name": "_value",
                    "type": "uint256"
                }
            ],
            "stateMutability": "view",
            "type": "function"
        },
        {
            "inputs": [
                {
                    "internalType": "uint256",
                    "name": "_itemId",
                    "type": "uint256"
                }
            ],
            "name": "bid",
            "outputs": [],
            "stateMutability": "payable",
            "type": "function"
        },
        {
            "inputs": [
                {
                    "internalType": "uint256",
                    "name": "_startPrice",
                    "type": "uint256"
                },
                {
                    "internalType": "uint256",
                    "name": "_startAt",
                    "type": "uint256"
                },
                {
                    "internalType": "uint256",
                    "name": "_endAt",
                    "type": "uint256"
                },
                {
                    "internalType": "contract IERC721",
                    "name": "_nft",
                    "type": "address"
                },
                {
                    "internalType": "uint256",
                    "name": "_tokenId",
                    "type": "uint256"
                }
            ],
            "name": "enroll",
            "outputs": [],
            "stateMutability": "nonpayable",
            "type": "function"
        },
        {
            "inputs": [],
            "name": "feeAccount",
            "outputs": [
                {
                    "internalType": "address payable",
                    "name": "",
                    "type": "address"
                }
            ],
            "stateMutability": "view",
            "type": "function"
        },
        {
            "inputs": [],
            "name": "feePercent",
            "outputs": [
                {
                    "internalType": "uint256",
                    "name": "",
                    "type": "uint256"
                }
            ],
            "stateMutability": "view",
            "type": "function"
        },
        {
            "inputs": [
                {
                    "internalType": "uint256",
                    "name": "",
                    "type": "uint256"
                }
            ],
            "name": "items",
            "outputs": [
                {
                    "internalType": "uint256",
                    "name": "startPrice",
                    "type": "uint256"
                },
                {
                    "internalType": "uint256",
                    "name": "startAt",
                    "type": "uint256"
                },
                {
                    "internalType": "uint256",
                    "name": "endAt",
                    "type": "uint256"
                },
                {
                    "internalType": "uint256",
                    "name": "tokenId",
                    "type": "uint256"
                },
                {
                    "internalType": "address payable",
                    "name": "seller",
                    "type": "address"
                },
                {
                    "internalType": "address",
                    "name": "topBidder",
                    "type": "address"
                },
                {
                    "internalType": "uint256",
                    "name": "topBid",
                    "type": "uint256"
                },
                {
                    "internalType": "enum Auction.StatusType",
                    "name": "status",
                    "type": "uint8"
                },
                {
                    "internalType": "contract IERC721",
                    "name": "nft",
                    "type": "address"
                }
            ],
            "stateMutability": "view",
            "type": "function"
        },
        {
            "inputs": [
                {
                    "internalType": "uint256",
                    "name": "",
                    "type": "uint256"
                },
                {
                    "internalType": "address",
                    "name": "",
                    "type": "address"
                }
            ],
            "name": "pendingBids",
            "outputs": [
                {
                    "internalType": "uint256",
                    "name": "",
                    "type": "uint256"
                }
            ],
            "stateMutability": "view",
            "type": "function"
        },
        {
            "inputs": [
                {
                    "internalType": "uint256",
                    "name": "_itemId",
                    "type": "uint256"
                }
            ],
            "name": "withdraw",
            "outputs": [],
            "stateMutability": "nonpayable",
            "type": "function"
        }
    ],
    "bytecode": "0x60c06040523480156200001157600080fd5b506040516200187a3803806200187a8339818101604052810190620000379190620000c2565b60016000819055508060a081815250503373ffffffffffffffffffffffffffffffffffffffff1660808173ffffffffffffffffffffffffffffffffffffffff168152505050620000f4565b600080fd5b6000819050919050565b6200009c8162000087565b8114620000a857600080fd5b50565b600081519050620000bc8162000091565b92915050565b600060208284031215620000db57620000da62000082565b5b6000620000eb84828501620000ab565b91505092915050565b60805160a0516117606200011a6000396000610c7b0152600061078a01526117606000f3fe60806040526004361061007b5760003560e01c80637fd6f15c1161004e5780637fd6f15c146101195780638024656a14610144578063bfb231d214610181578063f958aada146101c65761007b565b80632e1a7d4d14610080578063454a2ab3146100a957806365e17c9d146100c55780636f6a7574146100f0575b600080fd5b34801561008c57600080fd5b506100a760048036038101906100a29190610de8565b6101f1565b005b6100c360048036038101906100be9190610de8565b610332565b005b3480156100d157600080fd5b506100da610788565b6040516100e79190610e56565b60405180910390f35b3480156100fc57600080fd5b5061011760048036038101906101129190610ec1565b6107ac565b005b34801561012557600080fd5b5061012e610c79565b60405161013b9190610f4b565b60405180910390f35b34801561015057600080fd5b5061016b60048036038101906101669190610f92565b610c9d565b6040516101789190610f4b565b60405180910390f35b34801561018d57600080fd5b506101a860048036038101906101a39190610de8565b610cc2565b6040516101bd999897969594939291906110b7565b60405180910390f35b3480156101d257600080fd5b506101db610d7d565b6040516101e89190610f4b565b60405180910390f35b60006003600083815260200190815260200160002060003373ffffffffffffffffffffffffffffffffffffffff1673ffffffffffffffffffffffffffffffffffffffff168152602001908152602001600020549050600081141561028a576040517f08c379a0000000000000000000000000000000000000000000000000000000008152600401610281906111a1565b60405180910390fd5b60006003600084815260200190815260200160002060003373ffffffffffffffffffffffffffffffffffffffff1673ffffffffffffffffffffffffffffffffffffffff168152602001908152602001600020819055503373ffffffffffffffffffffffffffffffffffffffff167f884edad9ce6fa2440d8a54cc123490eb96d2768479d49ff9c7366125a9424364826040516103269190610f4b565b60405180910390a25050565b60026000541415610378576040517f08c379a000000000000000000000000000000000000000000000000000000000815260040161036f9061120d565b60405180910390fd5b60026000819055506000600260008381526020019081526020016000209050806006015434116103dd576040517f08c379a00000000000000000000000000000000000000000000000000000000081526004016103d490611279565b60405180910390fd5b600060028111156103f1576103f0610fe1565b5b8160070160009054906101000a900460ff16600281111561041557610414610fe1565b5b14806104565750600160028111156104305761042f610fe1565b5b8160070160009054906101000a900460ff16600281111561045457610453610fe1565b5b145b610495576040517f08c379a000000000000000000000000000000000000000000000000000000000815260040161048c906112e5565b60405180910390fd5b80600101544210156104dc576040517f08c379a00000000000000000000000000000000000000000000000000000000081526004016104d390611351565b60405180910390fd5b80600201544210610522576040517f08c379a0000000000000000000000000000000000000000000000000000000008152600401610519906113bd565b60405180910390fd5b6000600281111561053657610535610fe1565b5b8160070160009054906101000a900460ff16600281111561055a57610559610fe1565b5b148061056a575080600101544210155b156105a15760018160070160006101000a81548160ff0219169083600281111561059757610596610fe1565b5b021790555061077c565b600160028111156105b5576105b4610fe1565b5b8160070160009054906101000a900460ff1660028111156105d9576105d8610fe1565b5b14806105e9575080600201544210155b156106205760028160070160006101000a81548160ff0219169083600281111561061657610615610fe1565b5b021790555061077b565b600073ffffffffffffffffffffffffffffffffffffffff168160050160009054906101000a900473ffffffffffffffffffffffffffffffffffffffff1673ffffffffffffffffffffffffffffffffffffffff16146106e057346003600084815260200190815260200160002060003373ffffffffffffffffffffffffffffffffffffffff1673ffffffffffffffffffffffffffffffffffffffff16815260200190815260200160002060008282546106d8919061140c565b925050819055505b338160050160006101000a81548173ffffffffffffffffffffffffffffffffffffffff021916908373ffffffffffffffffffffffffffffffffffffffff1602179055503481600601819055503373ffffffffffffffffffffffffffffffffffffffff167fe684a55f31b79eca403df938249029212a5925ec6be8012e099b45bc1019e5d2346040516107729190610f4b565b60405180910390a25b5b50600160008190555050565b7f000000000000000000000000000000000000000000000000000000000000000081565b600260005414156107f2576040517f08c379a00000000000000000000000000000000000000000000000000000000081526004016107e99061120d565b60405180910390fd5b60026000819055508173ffffffffffffffffffffffffffffffffffffffff16636352211e826040518263ffffffff1660e01b81526004016108339190610f4b565b602060405180830381865afa158015610850573d6000803e3d6000fd5b505050506040513d601f19601f820116820180604052508101906108749190611477565b73ffffffffffffffffffffffffffffffffffffffff163373ffffffffffffffffffffffffffffffffffffffff16146108e1576040517f08c379a00000000000000000000000000000000000000000000000000000000081526004016108d8906114f0565b60405180910390fd5b828410610923576040517f08c379a000000000000000000000000000000000000000000000000000000000815260040161091a90611582565b60405180910390fd5b834210610965576040517f08c379a000000000000000000000000000000000000000000000000000000000815260040161095c90611614565b60405180910390fd5b8242106109a7576040517f08c379a000000000000000000000000000000000000000000000000000000000815260040161099e90611680565b60405180910390fd5b6109b16001610d89565b60006109bd6001610d9f565b90506040518061012001604052808781526020018681526020018581526020018381526020013373ffffffffffffffffffffffffffffffffffffffff168152602001600073ffffffffffffffffffffffffffffffffffffffff16815260200187815260200160006002811115610a3657610a35610fe1565b5b81526020018473ffffffffffffffffffffffffffffffffffffffff16815250600260008381526020019081526020016000206000820151816000015560208201518160010155604082015181600201556060820151816003015560808201518160040160006101000a81548173ffffffffffffffffffffffffffffffffffffffff021916908373ffffffffffffffffffffffffffffffffffffffff16021790555060a08201518160050160006101000a81548173ffffffffffffffffffffffffffffffffffffffff021916908373ffffffffffffffffffffffffffffffffffffffff16021790555060c0820151816006015560e08201518160070160006101000a81548160ff02191690836002811115610b5357610b52610fe1565b5b02179055506101008201518160070160016101000a81548173ffffffffffffffffffffffffffffffffffffffff021916908373ffffffffffffffffffffffffffffffffffffffff1602179055509050508273ffffffffffffffffffffffffffffffffffffffff166323b872dd3330856040518463ffffffff1660e01b8152600401610be0939291906116a0565b600060405180830381600087803b158015610bfa57600080fd5b505af1158015610c0e573d6000803e3d6000fd5b505050503373ffffffffffffffffffffffffffffffffffffffff16817ffb68e8ce278dc3eb0d21d543a9f5651ddf4d5de5035a6f1a98f67ab5cb4041a88888888888604051610c619594939291906116d7565b60405180910390a35060016000819055505050505050565b7f000000000000000000000000000000000000000000000000000000000000000081565b6003602052816000526040600020602052806000526040600020600091509150505481565b60026020528060005260406000206000915090508060000154908060010154908060020154908060030154908060040160009054906101000a900473ffffffffffffffffffffffffffffffffffffffff16908060050160009054906101000a900473ffffffffffffffffffffffffffffffffffffffff16908060060154908060070160009054906101000a900460ff16908060070160019054906101000a900473ffffffffffffffffffffffffffffffffffffffff16905089565b60018060000154905081565b6001816000016000828254019250508190555050565b600081600001549050919050565b600080fd5b6000819050919050565b610dc581610db2565b8114610dd057600080fd5b50565b600081359050610de281610dbc565b92915050565b600060208284031215610dfe57610dfd610dad565b5b6000610e0c84828501610dd3565b91505092915050565b600073ffffffffffffffffffffffffffffffffffffffff82169050919050565b6000610e4082610e15565b9050919050565b610e5081610e35565b82525050565b6000602082019050610e6b6000830184610e47565b92915050565b6000610e7c82610e15565b9050919050565b6000610e8e82610e71565b9050919050565b610e9e81610e83565b8114610ea957600080fd5b50565b600081359050610ebb81610e95565b92915050565b600080600080600060a08688031215610edd57610edc610dad565b5b6000610eeb88828901610dd3565b9550506020610efc88828901610dd3565b9450506040610f0d88828901610dd3565b9350506060610f1e88828901610eac565b9250506080610f2f88828901610dd3565b9150509295509295909350565b610f4581610db2565b82525050565b6000602082019050610f606000830184610f3c565b92915050565b610f6f81610e71565b8114610f7a57600080fd5b50565b600081359050610f8c81610f66565b92915050565b60008060408385031215610fa957610fa8610dad565b5b6000610fb785828601610dd3565b9250506020610fc885828601610f7d565b9150509250929050565b610fdb81610e71565b82525050565b7f4e487b7100000000000000000000000000000000000000000000000000000000600052602160045260246000fd5b6003811061102157611020610fe1565b5b50565b600081905061103282611010565b919050565b600061104282611024565b9050919050565b61105281611037565b82525050565b6000819050919050565b600061107d61107861107384610e15565b611058565b610e15565b9050919050565b600061108f82611062565b9050919050565b60006110a182611084565b9050919050565b6110b181611096565b82525050565b6000610120820190506110cd600083018c610f3c565b6110da602083018b610f3c565b6110e7604083018a610f3c565b6110f46060830189610f3c565b6111016080830188610e47565b61110e60a0830187610fd2565b61111b60c0830186610f3c565b61112860e0830185611049565b6111366101008301846110a8565b9a9950505050505050505050565b600082825260208201905092915050565b7f4e6f7468696e6720746f20776974686472617700000000000000000000000000600082015250565b600061118b601383611144565b915061119682611155565b602082019050919050565b600060208201905081810360008301526111ba8161117e565b9050919050565b7f5265656e7472616e637947756172643a207265656e7472616e742063616c6c00600082015250565b60006111f7601f83611144565b9150611202826111c1565b602082019050919050565b60006020820190508181036000830152611226816111ea565b9050919050565b7f536d616c6c6572207468616e20746f7020626964207072696365000000000000600082015250565b6000611263601a83611144565b915061126e8261122d565b602082019050919050565b6000602082019050818103600083015261129281611256565b9050919050565b7f49742069736e277420656e726f6c6c6564000000000000000000000000000000600082015250565b60006112cf601183611144565b91506112da82611299565b602082019050919050565b600060208201905081810360008301526112fe816112c2565b9050919050565b7f41756374696f6e2069736e277420737461727465642079657400000000000000600082015250565b600061133b601983611144565b915061134682611305565b602082019050919050565b6000602082019050818103600083015261136a8161132e565b9050919050565b7f41756374696f6e20697320656e64656400000000000000000000000000000000600082015250565b60006113a7601083611144565b91506113b282611371565b602082019050919050565b600060208201905081810360008301526113d68161139a565b9050919050565b7f4e487b7100000000000000000000000000000000000000000000000000000000600052601160045260246000fd5b600061141782610db2565b915061142283610db2565b9250827fffffffffffffffffffffffffffffffffffffffffffffffffffffffffffffffff03821115611457576114566113dd565b5b828201905092915050565b60008151905061147181610f66565b92915050565b60006020828403121561148d5761148c610dad565b5b600061149b84828501611462565b91505092915050565b7f4f6e6c79206f776e65722063616e20656e726f6c6c206e667400000000000000600082015250565b60006114da601983611144565b91506114e5826114a4565b602082019050919050565b60006020820190508181036000830152611509816114cd565b9050919050565b7f456e642074696d652073686f756c64206265206c61746572207468616e20737460008201527f6172742074696d65000000000000000000000000000000000000000000000000602082015250565b600061156c602883611144565b915061157782611510565b604082019050919050565b6000602082019050818103600083015261159b8161155f565b9050919050565b7f43616e6e6f74207365742073746172742074696d65206173207061737420746960008201527f6d65000000000000000000000000000000000000000000000000000000000000602082015250565b60006115fe602283611144565b9150611609826115a2565b604082019050919050565b6000602082019050818103600083015261162d816115f1565b9050919050565b7f43616e6e6f742073657420656e642074696d6520617320706173742074696d65600082015250565b600061166a602083611144565b915061167582611634565b602082019050919050565b600060208201905081810360008301526116998161165d565b9050919050565b60006060820190506116b56000830186610fd2565b6116c26020830185610fd2565b6116cf6040830184610f3c565b949350505050565b600060a0820190506116ec6000830188610f3c565b6116f96020830187610f3c565b6117066040830186610f3c565b6117136060830185610fd2565b6117206080830184610f3c565b969550505050505056fea26469706673582212202b233bf29d8257f87ded51ff0e49d9c688af498ac623c654374ffe9505d3a5c764736f6c634300080a0033",
    "linkReferences": {},
    "deployedLinkReferences": {}
}