{
    "contractAddress": "0x610178dA211FEF7D417bC0e6FeD39F05609AD788",
    "_format": "hh-sol-artifact-1",
    "contractName": "Auction",
    "sourceName": "contracts/Auction.sol",
    "abi": [
        {
            "inputs": [
                {
                    "internalType": "uint256",
                    "name": "_feePercent",
                    "type": "uint256"
                }
            ],
            "stateMutability": "nonpayable",
            "type": "constructor"
        },
        {
            "anonymous": false,
            "inputs": [
                {
                    "indexed": true,
                    "internalType": "uint256",
                    "name": "itemId",
                    "type": "uint256"
                },
                {
                    "indexed": true,
                    "internalType": "address",
                    "name": "topBidder",
                    "type": "address"
                },
                {
                    "indexed": false,
                    "internalType": "uint256",
                    "name": "topBid",
                    "type": "uint256"
                }
            ],
            "name": "Bid",
            "type": "event"
        },
        {
            "anonymous": false,
            "inputs": [
                {
                    "indexed": true,
                    "internalType": "uint256",
                    "name": "itemId",
                    "type": "uint256"
                },
                {
                    "indexed": true,
                    "internalType": "address",
                    "name": "seller",
                    "type": "address"
                }
            ],
            "name": "Cancel",
            "type": "event"
        },
        {
            "anonymous": false,
            "inputs": [
                {
                    "indexed": true,
                    "internalType": "uint256",
                    "name": "itemId",
                    "type": "uint256"
                },
                {
                    "indexed": true,
                    "internalType": "address",
                    "name": "buyer",
                    "type": "address"
                },
                {
                    "indexed": false,
                    "internalType": "uint256",
                    "name": "buyingPrice",
                    "type": "uint256"
                }
            ],
            "name": "End",
            "type": "event"
        },
        {
            "anonymous": false,
            "inputs": [
                {
                    "indexed": true,
                    "internalType": "uint256",
                    "name": "itemId",
                    "type": "uint256"
                },
                {
                    "indexed": false,
                    "internalType": "uint256",
                    "name": "_startPrice",
                    "type": "uint256"
                },
                {
                    "indexed": false,
                    "internalType": "address",
                    "name": "_nft",
                    "type": "address"
                },
                {
                    "indexed": false,
                    "internalType": "uint256",
                    "name": "_tokenId",
                    "type": "uint256"
                },
                {
                    "indexed": true,
                    "internalType": "address",
                    "name": "seller",
                    "type": "address"
                }
            ],
            "name": "Enrolled",
            "type": "event"
        },
        {
            "anonymous": false,
            "inputs": [
                {
                    "indexed": true,
                    "internalType": "address",
                    "name": "previousOwner",
                    "type": "address"
                },
                {
                    "indexed": true,
                    "internalType": "address",
                    "name": "newOwner",
                    "type": "address"
                }
            ],
            "name": "OwnershipTransferred",
            "type": "event"
        },
        {
            "anonymous": false,
            "inputs": [
                {
                    "indexed": true,
                    "internalType": "uint256",
                    "name": "itemId",
                    "type": "uint256"
                },
                {
                    "indexed": true,
                    "internalType": "address",
                    "name": "bidder",
                    "type": "address"
                },
                {
                    "indexed": false,
                    "internalType": "uint256",
                    "name": "balance",
                    "type": "uint256"
                }
            ],
            "name": "Withdraw",
            "type": "event"
        },
        {
            "inputs": [
                {
                    "internalType": "uint256",
                    "name": "_itemId",
                    "type": "uint256"
                }
            ],
            "name": "bid",
            "outputs": [],
            "stateMutability": "payable",
            "type": "function"
        },
        {
            "inputs": [
                {
                    "internalType": "uint256",
                    "name": "_price",
                    "type": "uint256"
                }
            ],
            "name": "calPriceWithFee",
            "outputs": [
                {
                    "internalType": "uint256",
                    "name": "",
                    "type": "uint256"
                }
            ],
            "stateMutability": "view",
            "type": "function"
        },
        {
            "inputs": [
                {
                    "internalType": "uint256",
                    "name": "_itemId",
                    "type": "uint256"
                }
            ],
            "name": "cancel",
            "outputs": [],
            "stateMutability": "nonpayable",
            "type": "function"
        },
        {
            "inputs": [
                {
                    "internalType": "uint256",
                    "name": "_itemId",
                    "type": "uint256"
                }
            ],
            "name": "end",
            "outputs": [],
            "stateMutability": "nonpayable",
            "type": "function"
        },
        {
            "inputs": [
                {
                    "internalType": "uint256",
                    "name": "_startPrice",
                    "type": "uint256"
                },
                {
                    "internalType": "uint256",
                    "name": "_endAt",
                    "type": "uint256"
                },
                {
                    "internalType": "contract IERC721",
                    "name": "_nft",
                    "type": "address"
                },
                {
                    "internalType": "uint256",
                    "name": "_tokenId",
                    "type": "uint256"
                }
            ],
            "name": "enroll",
            "outputs": [],
            "stateMutability": "nonpayable",
            "type": "function"
        },
        {
            "inputs": [],
            "name": "feeAccount",
            "outputs": [
                {
                    "internalType": "address payable",
                    "name": "",
                    "type": "address"
                }
            ],
            "stateMutability": "view",
            "type": "function"
        },
        {
            "inputs": [],
            "name": "feePercent",
            "outputs": [
                {
                    "internalType": "uint256",
                    "name": "",
                    "type": "uint256"
                }
            ],
            "stateMutability": "view",
            "type": "function"
        },
        {
            "inputs": [
                {
                    "internalType": "uint256",
                    "name": "_itemId",
                    "type": "uint256"
                }
            ],
            "name": "forceCancel",
            "outputs": [],
            "stateMutability": "nonpayable",
            "type": "function"
        },
        {
            "inputs": [
                {
                    "internalType": "uint256",
                    "name": "_itemId",
                    "type": "uint256"
                }
            ],
            "name": "forceEnd",
            "outputs": [],
            "stateMutability": "nonpayable",
            "type": "function"
        },
        {
            "inputs": [],
            "name": "getBlockTimestamp",
            "outputs": [
                {
                    "internalType": "uint256",
                    "name": "",
                    "type": "uint256"
                }
            ],
            "stateMutability": "view",
            "type": "function"
        },
        {
            "inputs": [
                {
                    "internalType": "uint256",
                    "name": "_price",
                    "type": "uint256"
                }
            ],
            "name": "getFee",
            "outputs": [
                {
                    "internalType": "uint256",
                    "name": "",
                    "type": "uint256"
                }
            ],
            "stateMutability": "view",
            "type": "function"
        },
        {
            "inputs": [],
            "name": "itemCounter",
            "outputs": [
                {
                    "internalType": "uint256",
                    "name": "_value",
                    "type": "uint256"
                }
            ],
            "stateMutability": "view",
            "type": "function"
        },
        {
            "inputs": [
                {
                    "internalType": "uint256",
                    "name": "",
                    "type": "uint256"
                }
            ],
            "name": "items",
            "outputs": [
                {
                    "internalType": "uint256",
                    "name": "startPrice",
                    "type": "uint256"
                },
                {
                    "internalType": "uint256",
                    "name": "startAt",
                    "type": "uint256"
                },
                {
                    "internalType": "uint256",
                    "name": "endAt",
                    "type": "uint256"
                },
                {
                    "internalType": "uint256",
                    "name": "tokenId",
                    "type": "uint256"
                },
                {
                    "internalType": "address payable",
                    "name": "seller",
                    "type": "address"
                },
                {
                    "internalType": "address",
                    "name": "topBidder",
                    "type": "address"
                },
                {
                    "internalType": "uint256",
                    "name": "topBid",
                    "type": "uint256"
                },
                {
                    "internalType": "enum Auction.StatusType",
                    "name": "status",
                    "type": "uint8"
                },
                {
                    "internalType": "contract IERC721",
                    "name": "nft",
                    "type": "address"
                }
            ],
            "stateMutability": "view",
            "type": "function"
        },
        {
            "inputs": [],
            "name": "minBidAmount",
            "outputs": [
                {
                    "internalType": "uint256",
                    "name": "",
                    "type": "uint256"
                }
            ],
            "stateMutability": "view",
            "type": "function"
        },
        {
            "inputs": [],
            "name": "owner",
            "outputs": [
                {
                    "internalType": "address",
                    "name": "",
                    "type": "address"
                }
            ],
            "stateMutability": "view",
            "type": "function"
        },
        {
            "inputs": [
                {
                    "internalType": "uint256",
                    "name": "",
                    "type": "uint256"
                },
                {
                    "internalType": "address",
                    "name": "",
                    "type": "address"
                }
            ],
            "name": "pendingBids",
            "outputs": [
                {
                    "internalType": "uint256",
                    "name": "",
                    "type": "uint256"
                }
            ],
            "stateMutability": "view",
            "type": "function"
        },
        {
            "inputs": [
                {
                    "internalType": "uint256",
                    "name": "_priceWithFee",
                    "type": "uint256"
                }
            ],
            "name": "removeFee",
            "outputs": [
                {
                    "internalType": "uint256",
                    "name": "",
                    "type": "uint256"
                }
            ],
            "stateMutability": "view",
            "type": "function"
        },
        {
            "inputs": [],
            "name": "renounceOwnership",
            "outputs": [],
            "stateMutability": "nonpayable",
            "type": "function"
        },
        {
            "inputs": [
                {
                    "internalType": "address",
                    "name": "newOwner",
                    "type": "address"
                }
            ],
            "name": "transferOwnership",
            "outputs": [],
            "stateMutability": "nonpayable",
            "type": "function"
        },
        {
            "inputs": [
                {
                    "internalType": "uint256",
                    "name": "_itemId",
                    "type": "uint256"
                }
            ],
            "name": "withdraw",
            "outputs": [],
            "stateMutability": "nonpayable",
            "type": "function"
        }
    ],
    "bytecode": "0x60c06040523480156200001157600080fd5b50604051620038e6380380620038e6833981810160405281019062000037919062000193565b60016000819055506200005f62000053620000ae60201b60201c565b620000b660201b60201c565b8060a081815250503373ffffffffffffffffffffffffffffffffffffffff1660808173ffffffffffffffffffffffffffffffffffffffff1660601b815250506103e860038190555050620001e3565b600033905090565b6000600160009054906101000a900473ffffffffffffffffffffffffffffffffffffffff16905081600160006101000a81548173ffffffffffffffffffffffffffffffffffffffff021916908373ffffffffffffffffffffffffffffffffffffffff1602179055508173ffffffffffffffffffffffffffffffffffffffff168173ffffffffffffffffffffffffffffffffffffffff167f8be0079c531659141344cd1fd0a4f28419497f9722a3daafe3b4186f6b6457e060405160405180910390a35050565b6000815190506200018d81620001c9565b92915050565b600060208284031215620001a657600080fd5b6000620001b6848285016200017c565b91505092915050565b6000819050919050565b620001d481620001bf565b8114620001e057600080fd5b50565b60805160601c60a0516136b76200022f600039600081816108d80152818161161101528181611fea015261267c01526000818161089c015281816115510152611fae01526136b76000f3fe60806040526004361061011f5760003560e01c8063796b89b9116100a0578063e373eeac11610064578063e373eeac146103d0578063f152b5bd146103f9578063f2fde38b14610422578063f438f0191461044b578063fcee45f4146104745761011f565b8063796b89b9146102cd5780637fd6f15c146102f85780638024656a146103235780638da5cb5b14610360578063bfb231d21461038b5761011f565b8063499a2818116100e7578063499a2818146101e657806355c2c7c21461022357806365e17c9d146102605780636d6d00ed1461028b578063715018a6146102b65761011f565b80630ad24528146101245780632e1a7d4d1461014d57806340e58ee514610176578063454a2ab31461019f57806349751788146101bb575b600080fd5b34801561013057600080fd5b5061014b6004803603810190610146919061284f565b6104b1565b005b34801561015957600080fd5b50610174600480360381019061016f919061284f565b610afb565b005b34801561018257600080fd5b5061019d6004803603810190610198919061284f565b610d87565b005b6101b960048036038101906101b4919061284f565b611133565b005b3480156101c757600080fd5b506101d061150f565b6040516101dd9190612ecb565b60405180910390f35b3480156101f257600080fd5b5061020d6004803603810190610208919061284f565b611515565b60405161021a9190612ecb565b60405180910390f35b34801561022f57600080fd5b5061024a6004803603810190610245919061284f565b611532565b6040516102579190612ecb565b60405180910390f35b34801561026c57600080fd5b5061027561154f565b6040516102829190612c02565b60405180910390f35b34801561029757600080fd5b506102a0611573565b6040516102ad9190612ecb565b60405180910390f35b3480156102c257600080fd5b506102cb61157f565b005b3480156102d957600080fd5b506102e2611607565b6040516102ef9190612ecb565b60405180910390f35b34801561030457600080fd5b5061030d61160f565b60405161031a9190612ecb565b60405180910390f35b34801561032f57600080fd5b5061034a60048036038101906103459190612878565b611633565b6040516103579190612ecb565b60405180910390f35b34801561036c57600080fd5b50610375611658565b6040516103829190612be7565b60405180910390f35b34801561039757600080fd5b506103b260048036038101906103ad919061284f565b611682565b6040516103c799989796959493929190612f1d565b60405180910390f35b3480156103dc57600080fd5b506103f760048036038101906103f291906128b4565b61173d565b005b34801561040557600080fd5b50610420600480360381019061041b919061284f565b611c32565b005b34801561042e57600080fd5b50610449600480360381019061044491906127fd565b61220c565b005b34801561045757600080fd5b50610472600480360381019061046d919061284f565b612304565b005b34801561048057600080fd5b5061049b6004803603810190610496919061284f565b612676565b6040516104a89190612ecb565b60405180910390f35b600260005414156104f7576040517f08c379a00000000000000000000000000000000000000000000000000000000081526004016104ee90612e8b565b60405180910390fd5b6002600081905550806004600082815260200190815260200160002060040160009054906101000a900473ffffffffffffffffffffffffffffffffffffffff1673ffffffffffffffffffffffffffffffffffffffff163373ffffffffffffffffffffffffffffffffffffffff16146105a4576040517f08c379a000000000000000000000000000000000000000000000000000000000815260040161059b90612ccb565b60405180910390fd5b6000600460008481526020019081526020016000209050600060028111156105f5577f4e487b7100000000000000000000000000000000000000000000000000000000600052602160045260246000fd5b8160070160009054906101000a900460ff16600281111561063f577f4e487b7100000000000000000000000000000000000000000000000000000000600052602160045260246000fd5b1461067f576040517f08c379a000000000000000000000000000000000000000000000000000000000815260040161067690612e4b565b60405180910390fd5b806002015442116106c5576040517f08c379a00000000000000000000000000000000000000000000000000000000081526004016106bc90612d6b565b60405180910390fd5b60018160070160006101000a81548160ff02191690836002811115610713577f4e487b7100000000000000000000000000000000000000000000000000000000600052602160045260246000fd5b0217905550600073ffffffffffffffffffffffffffffffffffffffff168160050160009054906101000a900473ffffffffffffffffffffffffffffffffffffffff1673ffffffffffffffffffffffffffffffffffffffff16146109bb578060070160019054906101000a900473ffffffffffffffffffffffffffffffffffffffff1673ffffffffffffffffffffffffffffffffffffffff166323b872dd308360050160009054906101000a900473ffffffffffffffffffffffffffffffffffffffff1684600301546040518463ffffffff1660e01b81526004016107f993929190612c54565b600060405180830381600087803b15801561081357600080fd5b505af1158015610827573d6000803e3d6000fd5b505050508060040160009054906101000a900473ffffffffffffffffffffffffffffffffffffffff1673ffffffffffffffffffffffffffffffffffffffff166108fc82600601549081150290604051600060405180830381858888f19350505050158015610899573d6000803e3d6000fd5b507f000000000000000000000000000000000000000000000000000000000000000073ffffffffffffffffffffffffffffffffffffffff166108fc60647f000000000000000000000000000000000000000000000000000000000000000084600601546109069190613042565b6109109190613011565b9081150290604051600060405180830381858888f1935050505015801561093b573d6000803e3d6000fd5b5060006005600085815260200190815260200160002060008360050160009054906101000a900473ffffffffffffffffffffffffffffffffffffffff1673ffffffffffffffffffffffffffffffffffffffff1673ffffffffffffffffffffffffffffffffffffffff16815260200190815260200160002081905550610a77565b8060070160019054906101000a900473ffffffffffffffffffffffffffffffffffffffff1673ffffffffffffffffffffffffffffffffffffffff166323b872dd308360040160009054906101000a900473ffffffffffffffffffffffffffffffffffffffff1684600301546040518463ffffffff1660e01b8152600401610a4493929190612c1d565b600060405180830381600087803b158015610a5e57600080fd5b505af1158015610a72573d6000803e3d6000fd5b505050505b8060050160009054906101000a900473ffffffffffffffffffffffffffffffffffffffff1673ffffffffffffffffffffffffffffffffffffffff16837fad71bc980e1f9155e488acf543cc5276beae185d612505ea3eaff929e4fe37f08360060154604051610ae69190612ecb565b60405180910390a35050600160008190555050565b60026000541415610b41576040517f08c379a0000000000000000000000000000000000000000000000000000000008152600401610b3890612e8b565b60405180910390fd5b600260008190555060006005600083815260200190815260200160002060003373ffffffffffffffffffffffffffffffffffffffff1673ffffffffffffffffffffffffffffffffffffffff1681526020019081526020016000205490506000811415610be2576040517f08c379a0000000000000000000000000000000000000000000000000000000008152600401610bd990612cab565b60405180910390fd5b6004600083815260200190815260200160002060050160009054906101000a900473ffffffffffffffffffffffffffffffffffffffff1673ffffffffffffffffffffffffffffffffffffffff163373ffffffffffffffffffffffffffffffffffffffff161415610c87576040517f08c379a0000000000000000000000000000000000000000000000000000000008152600401610c7e90612d0b565b60405180910390fd5b60006005600084815260200190815260200160002060003373ffffffffffffffffffffffffffffffffffffffff1673ffffffffffffffffffffffffffffffffffffffff168152602001908152602001600020819055503373ffffffffffffffffffffffffffffffffffffffff166108fc610d0083611532565b9081150290604051600060405180830381858888f19350505050158015610d2b573d6000803e3d6000fd5b503373ffffffffffffffffffffffffffffffffffffffff16827f9da6493a92039daf47d1f2d7a782299c5994c6323eb1e972f69c432089ec52bf83604051610d739190612ecb565b60405180910390a350600160008190555050565b60026000541415610dcd576040517f08c379a0000000000000000000000000000000000000000000000000000000008152600401610dc490612e8b565b60405180910390fd5b600260008190555060006004600083815260200190815260200160002090508060040160009054906101000a900473ffffffffffffffffffffffffffffffffffffffff1673ffffffffffffffffffffffffffffffffffffffff163373ffffffffffffffffffffffffffffffffffffffff1614610e7e576040517f08c379a0000000000000000000000000000000000000000000000000000000008152600401610e7590612e2b565b60405180910390fd5b60006002811115610eb8577f4e487b7100000000000000000000000000000000000000000000000000000000600052602160045260246000fd5b8160070160009054906101000a900460ff166002811115610f02577f4e487b7100000000000000000000000000000000000000000000000000000000600052602160045260246000fd5b14610f42576040517f08c379a0000000000000000000000000000000000000000000000000000000008152600401610f3990612e6b565b60405180910390fd5b600073ffffffffffffffffffffffffffffffffffffffff168160050160009054906101000a900473ffffffffffffffffffffffffffffffffffffffff1673ffffffffffffffffffffffffffffffffffffffff1614610fd5576040517f08c379a0000000000000000000000000000000000000000000000000000000008152600401610fcc90612c8b565b60405180910390fd5b60028160070160006101000a81548160ff02191690836002811115611023577f4e487b7100000000000000000000000000000000000000000000000000000000600052602160045260246000fd5b02179055508060070160019054906101000a900473ffffffffffffffffffffffffffffffffffffffff1673ffffffffffffffffffffffffffffffffffffffff166323b872dd308360040160009054906101000a900473ffffffffffffffffffffffffffffffffffffffff1684600301546040518463ffffffff1660e01b81526004016110b193929190612c1d565b600060405180830381600087803b1580156110cb57600080fd5b505af11580156110df573d6000803e3d6000fd5b505050503373ffffffffffffffffffffffffffffffffffffffff16827f8dd3c361eb2366ff27c2db0eb07b9261f1d052570742ab8c9a0c326f37aa576d60405160405180910390a350600160008190555050565b60026000541415611179576040517f08c379a000000000000000000000000000000000000000000000000000000000815260040161117090612e8b565b60405180910390fd5b600260008190555061118b60026126b7565b8111156111cd576040517f08c379a00000000000000000000000000000000000000000000000000000000081526004016111c490612d8b565b60405180910390fd5b60006004600083815260200190815260200160002090508060020154421061122a576040517f08c379a000000000000000000000000000000000000000000000000000000000815260040161122190612eab565b60405180910390fd5b60006002811115611264577f4e487b7100000000000000000000000000000000000000000000000000000000600052602160045260246000fd5b8160070160009054906101000a900460ff1660028111156112ae577f4e487b7100000000000000000000000000000000000000000000000000000000600052602160045260246000fd5b146112ee576040517f08c379a00000000000000000000000000000000000000000000000000000000081526004016112e590612dab565b60405180910390fd5b60035481600601546113009190612fbb565b6005600084815260200190815260200160002060003373ffffffffffffffffffffffffffffffffffffffff1673ffffffffffffffffffffffffffffffffffffffff1681526020019081526020016000205461135a34611515565b6113649190612fbb565b10156113a5576040517f08c379a000000000000000000000000000000000000000000000000000000000815260040161139c90612e0b565b60405180910390fd5b6113ae34611515565b6005600084815260200190815260200160002060003373ffffffffffffffffffffffffffffffffffffffff1673ffffffffffffffffffffffffffffffffffffffff168152602001908152602001600020600082825461140d9190612fbb565b925050819055506005600083815260200190815260200160002060003373ffffffffffffffffffffffffffffffffffffffff1673ffffffffffffffffffffffffffffffffffffffff168152602001908152602001600020548160060181905550338160050160006101000a81548173ffffffffffffffffffffffffffffffffffffffff021916908373ffffffffffffffffffffffffffffffffffffffff1602179055503373ffffffffffffffffffffffffffffffffffffffff16827fdcd726e11f8b5e160f00290f0fe3a1abb547474e53a8e7a8f49a85e7b1ca319983600601546040516114fb9190612ecb565b60405180910390a350600160008190555050565b60035481565b600061152082612676565b8261152b919061309c565b9050919050565b600061153d82612676565b826115489190612fbb565b9050919050565b7f000000000000000000000000000000000000000000000000000000000000000081565b60028060000154905081565b6115876126c5565b73ffffffffffffffffffffffffffffffffffffffff166115a5611658565b73ffffffffffffffffffffffffffffffffffffffff16146115fb576040517f08c379a00000000000000000000000000000000000000000000000000000000081526004016115f290612deb565b60405180910390fd5b61160560006126cd565b565b600042905090565b7f000000000000000000000000000000000000000000000000000000000000000081565b6005602052816000526040600020602052806000526040600020600091509150505481565b6000600160009054906101000a900473ffffffffffffffffffffffffffffffffffffffff16905090565b60046020528060005260406000206000915090508060000154908060010154908060020154908060030154908060040160009054906101000a900473ffffffffffffffffffffffffffffffffffffffff16908060050160009054906101000a900473ffffffffffffffffffffffffffffffffffffffff16908060060154908060070160009054906101000a900460ff16908060070160019054906101000a900473ffffffffffffffffffffffffffffffffffffffff16905089565b60026000541415611783576040517f08c379a000000000000000000000000000000000000000000000000000000000815260040161177a90612e8b565b60405180910390fd5b600260008190555081818173ffffffffffffffffffffffffffffffffffffffff16636352211e826040518263ffffffff1660e01b81526004016117c69190612ecb565b60206040518083038186803b1580156117de57600080fd5b505afa1580156117f2573d6000803e3d6000fd5b505050506040513d601f19601f820116820180604052508101906118169190612826565b73ffffffffffffffffffffffffffffffffffffffff163373ffffffffffffffffffffffffffffffffffffffff1614611883576040517f08c379a000000000000000000000000000000000000000000000000000000000815260040161187a90612d4b565b60405180910390fd5b6003548610156118c8576040517f08c379a00000000000000000000000000000000000000000000000000000000081526004016118bf90612dcb565b60405180910390fd5b84421061190a576040517f08c379a000000000000000000000000000000000000000000000000000000000815260040161190190612d2b565b60405180910390fd5b6119146002612793565b600061192060026126b7565b90506040518061012001604052808881526020014281526020016103e8886119489190613011565b81526020018581526020013373ffffffffffffffffffffffffffffffffffffffff168152602001600073ffffffffffffffffffffffffffffffffffffffff168152602001888152602001600060028111156119cc577f4e487b7100000000000000000000000000000000000000000000000000000000600052602160045260246000fd5b81526020018673ffffffffffffffffffffffffffffffffffffffff16815250600460008381526020019081526020016000206000820151816000015560208201518160010155604082015181600201556060820151816003015560808201518160040160006101000a81548173ffffffffffffffffffffffffffffffffffffffff021916908373ffffffffffffffffffffffffffffffffffffffff16021790555060a08201518160050160006101000a81548173ffffffffffffffffffffffffffffffffffffffff021916908373ffffffffffffffffffffffffffffffffffffffff16021790555060c0820151816006015560e08201518160070160006101000a81548160ff02191690836002811115611b0f577f4e487b7100000000000000000000000000000000000000000000000000000000600052602160045260246000fd5b02179055506101008201518160070160016101000a81548173ffffffffffffffffffffffffffffffffffffffff021916908373ffffffffffffffffffffffffffffffffffffffff1602179055509050508473ffffffffffffffffffffffffffffffffffffffff166323b872dd3330876040518463ffffffff1660e01b8152600401611b9c93929190612c54565b600060405180830381600087803b158015611bb657600080fd5b505af1158015611bca573d6000803e3d6000fd5b505050503373ffffffffffffffffffffffffffffffffffffffff16817f54346fc0e5c9d95e1fd90238bb8ce8c608de8bb4845a2de76f31c58428a18c80898888604051611c1993929190612ee6565b60405180910390a3505050600160008190555050505050565b60026000541415611c78576040517f08c379a0000000000000000000000000000000000000000000000000000000008152600401611c6f90612e8b565b60405180910390fd5b6002600081905550611c886126c5565b73ffffffffffffffffffffffffffffffffffffffff16611ca6611658565b73ffffffffffffffffffffffffffffffffffffffff1614611cfc576040517f08c379a0000000000000000000000000000000000000000000000000000000008152600401611cf390612deb565b60405180910390fd5b600060046000838152602001908152602001600020905060006002811115611d4d577f4e487b7100000000000000000000000000000000000000000000000000000000600052602160045260246000fd5b8160070160009054906101000a900460ff166002811115611d97577f4e487b7100000000000000000000000000000000000000000000000000000000600052602160045260246000fd5b14611dd7576040517f08c379a0000000000000000000000000000000000000000000000000000000008152600401611dce90612e4b565b60405180910390fd5b60018160070160006101000a81548160ff02191690836002811115611e25577f4e487b7100000000000000000000000000000000000000000000000000000000600052602160045260246000fd5b0217905550600073ffffffffffffffffffffffffffffffffffffffff168160050160009054906101000a900473ffffffffffffffffffffffffffffffffffffffff1673ffffffffffffffffffffffffffffffffffffffff16146120cd578060070160019054906101000a900473ffffffffffffffffffffffffffffffffffffffff1673ffffffffffffffffffffffffffffffffffffffff166323b872dd308360050160009054906101000a900473ffffffffffffffffffffffffffffffffffffffff1684600301546040518463ffffffff1660e01b8152600401611f0b93929190612c54565b600060405180830381600087803b158015611f2557600080fd5b505af1158015611f39573d6000803e3d6000fd5b505050508060040160009054906101000a900473ffffffffffffffffffffffffffffffffffffffff1673ffffffffffffffffffffffffffffffffffffffff166108fc82600601549081150290604051600060405180830381858888f19350505050158015611fab573d6000803e3d6000fd5b507f000000000000000000000000000000000000000000000000000000000000000073ffffffffffffffffffffffffffffffffffffffff166108fc60647f000000000000000000000000000000000000000000000000000000000000000084600601546120189190613042565b6120229190613011565b9081150290604051600060405180830381858888f1935050505015801561204d573d6000803e3d6000fd5b5060006005600084815260200190815260200160002060008360050160009054906101000a900473ffffffffffffffffffffffffffffffffffffffff1673ffffffffffffffffffffffffffffffffffffffff1673ffffffffffffffffffffffffffffffffffffffff16815260200190815260200160002081905550612189565b8060070160019054906101000a900473ffffffffffffffffffffffffffffffffffffffff1673ffffffffffffffffffffffffffffffffffffffff166323b872dd308360040160009054906101000a900473ffffffffffffffffffffffffffffffffffffffff1684600301546040518463ffffffff1660e01b815260040161215693929190612c1d565b600060405180830381600087803b15801561217057600080fd5b505af1158015612184573d6000803e3d6000fd5b505050505b8060050160009054906101000a900473ffffffffffffffffffffffffffffffffffffffff1673ffffffffffffffffffffffffffffffffffffffff16827fad71bc980e1f9155e488acf543cc5276beae185d612505ea3eaff929e4fe37f083600601546040516121f89190612ecb565b60405180910390a350600160008190555050565b6122146126c5565b73ffffffffffffffffffffffffffffffffffffffff16612232611658565b73ffffffffffffffffffffffffffffffffffffffff1614612288576040517f08c379a000000000000000000000000000000000000000000000000000000000815260040161227f90612deb565b60405180910390fd5b600073ffffffffffffffffffffffffffffffffffffffff168173ffffffffffffffffffffffffffffffffffffffff1614156122f8576040517f08c379a00000000000000000000000000000000000000000000000000000000081526004016122ef90612ceb565b60405180910390fd5b612301816126cd565b50565b6002600054141561234a576040517f08c379a000000000000000000000000000000000000000000000000000000000815260040161234190612e8b565b60405180910390fd5b600260008190555061235a6126c5565b73ffffffffffffffffffffffffffffffffffffffff16612378611658565b73ffffffffffffffffffffffffffffffffffffffff16146123ce576040517f08c379a00000000000000000000000000000000000000000000000000000000081526004016123c590612deb565b60405180910390fd5b60006004600083815260200190815260200160002090506000600281111561241f577f4e487b7100000000000000000000000000000000000000000000000000000000600052602160045260246000fd5b8160070160009054906101000a900460ff166002811115612469577f4e487b7100000000000000000000000000000000000000000000000000000000600052602160045260246000fd5b146124a9576040517f08c379a00000000000000000000000000000000000000000000000000000000081526004016124a090612e6b565b60405180910390fd5b60028160070160006101000a81548160ff021916908360028111156124f7577f4e487b7100000000000000000000000000000000000000000000000000000000600052602160045260246000fd5b02179055508060050160009054906101000a900473ffffffffffffffffffffffffffffffffffffffff1673ffffffffffffffffffffffffffffffffffffffff166108fc82600601549081150290604051600060405180830381858888f1935050505015801561256a573d6000803e3d6000fd5b508060070160019054906101000a900473ffffffffffffffffffffffffffffffffffffffff1673ffffffffffffffffffffffffffffffffffffffff166323b872dd308360040160009054906101000a900473ffffffffffffffffffffffffffffffffffffffff1684600301546040518463ffffffff1660e01b81526004016125f493929190612c1d565b600060405180830381600087803b15801561260e57600080fd5b505af1158015612622573d6000803e3d6000fd5b505050503373ffffffffffffffffffffffffffffffffffffffff16827f8dd3c361eb2366ff27c2db0eb07b9261f1d052570742ab8c9a0c326f37aa576d60405160405180910390a350600160008190555050565b600060647f0000000000000000000000000000000000000000000000000000000000000000836126a69190613042565b6126b09190613011565b9050919050565b600081600001549050919050565b600033905090565b6000600160009054906101000a900473ffffffffffffffffffffffffffffffffffffffff16905081600160006101000a81548173ffffffffffffffffffffffffffffffffffffffff021916908373ffffffffffffffffffffffffffffffffffffffff1602179055508173ffffffffffffffffffffffffffffffffffffffff168173ffffffffffffffffffffffffffffffffffffffff167f8be0079c531659141344cd1fd0a4f28419497f9722a3daafe3b4186f6b6457e060405160405180910390a35050565b6001816000016000828254019250508190555050565b6000813590506127b88161363c565b92915050565b6000815190506127cd8161363c565b92915050565b6000813590506127e281613653565b92915050565b6000813590506127f78161366a565b92915050565b60006020828403121561280f57600080fd5b600061281d848285016127a9565b91505092915050565b60006020828403121561283857600080fd5b6000612846848285016127be565b91505092915050565b60006020828403121561286157600080fd5b600061286f848285016127e8565b91505092915050565b6000806040838503121561288b57600080fd5b6000612899858286016127e8565b92505060206128aa858286016127a9565b9150509250929050565b600080600080608085870312156128ca57600080fd5b60006128d8878288016127e8565b94505060206128e9878288016127e8565b93505060406128fa878288016127d3565b925050606061290b878288016127e8565b91505092959194509250565b61292081613143565b82525050565b61292f816130e2565b82525050565b61293e816130d0565b82525050565b61294d81613155565b82525050565b61295c81613179565b82525050565b600061296f602583612faa565b915061297a8261323c565b604082019050919050565b6000612992601383612faa565b915061299d8261328b565b602082019050919050565b60006129b5601783612faa565b91506129c0826132b4565b602082019050919050565b60006129d8602683612faa565b91506129e3826132dd565b604082019050919050565b60006129fb601a83612faa565b9150612a068261332c565b602082019050919050565b6000612a1e602083612faa565b9150612a2982613355565b602082019050919050565b6000612a41601983612faa565b9150612a4c8261337e565b602082019050919050565b6000612a64602383612faa565b9150612a6f826133a7565b604082019050919050565b6000612a87601983612faa565b9150612a92826133f6565b602082019050919050565b6000612aaa602283612faa565b9150612ab58261341f565b604082019050919050565b6000612acd603483612faa565b9150612ad88261346e565b604082019050919050565b6000612af0602083612faa565b9150612afb826134bd565b602082019050919050565b6000612b13604b83612faa565b9150612b1e826134e6565b606082019050919050565b6000612b36601983612faa565b9150612b418261355b565b602082019050919050565b6000612b59601e83612faa565b9150612b6482613584565b602082019050919050565b6000612b7c601e83612faa565b9150612b87826135ad565b602082019050919050565b6000612b9f601f83612faa565b9150612baa826135d6565b602082019050919050565b6000612bc2601083612faa565b9150612bcd826135ff565b602082019050919050565b612be181613139565b82525050565b6000602082019050612bfc6000830184612935565b92915050565b6000602082019050612c176000830184612926565b92915050565b6000606082019050612c326000830186612935565b612c3f6020830185612917565b612c4c6040830184612bd8565b949350505050565b6000606082019050612c696000830186612935565b612c766020830185612935565b612c836040830184612bd8565b949350505050565b60006020820190508181036000830152612ca481612962565b9050919050565b60006020820190508181036000830152612cc481612985565b9050919050565b60006020820190508181036000830152612ce4816129a8565b9050919050565b60006020820190508181036000830152612d04816129cb565b9050919050565b60006020820190508181036000830152612d24816129ee565b9050919050565b60006020820190508181036000830152612d4481612a11565b9050919050565b60006020820190508181036000830152612d6481612a34565b9050919050565b60006020820190508181036000830152612d8481612a57565b9050919050565b60006020820190508181036000830152612da481612a7a565b9050919050565b60006020820190508181036000830152612dc481612a9d565b9050919050565b60006020820190508181036000830152612de481612ac0565b9050919050565b60006020820190508181036000830152612e0481612ae3565b9050919050565b60006020820190508181036000830152612e2481612b06565b9050919050565b60006020820190508181036000830152612e4481612b29565b9050919050565b60006020820190508181036000830152612e6481612b4c565b9050919050565b60006020820190508181036000830152612e8481612b6f565b9050919050565b60006020820190508181036000830152612ea481612b92565b9050919050565b60006020820190508181036000830152612ec481612bb5565b9050919050565b6000602082019050612ee06000830184612bd8565b92915050565b6000606082019050612efb6000830186612bd8565b612f086020830185612935565b612f156040830184612bd8565b949350505050565b600061012082019050612f33600083018c612bd8565b612f40602083018b612bd8565b612f4d604083018a612bd8565b612f5a6060830189612bd8565b612f676080830188612926565b612f7460a0830187612935565b612f8160c0830186612bd8565b612f8e60e0830185612953565b612f9c610100830184612944565b9a9950505050505050505050565b600082825260208201905092915050565b6000612fc682613139565b9150612fd183613139565b9250827fffffffffffffffffffffffffffffffffffffffffffffffffffffffffffffffff03821115613006576130056131af565b5b828201905092915050565b600061301c82613139565b915061302783613139565b925082613037576130366131de565b5b828204905092915050565b600061304d82613139565b915061305883613139565b9250817fffffffffffffffffffffffffffffffffffffffffffffffffffffffffffffffff0483118215151615613091576130906131af565b5b828202905092915050565b60006130a782613139565b91506130b283613139565b9250828210156130c5576130c46131af565b5b828203905092915050565b60006130db82613119565b9050919050565b60006130ed82613119565b9050919050565b60006130ff826130d0565b9050919050565b600081905061311482613628565b919050565b600073ffffffffffffffffffffffffffffffffffffffff82169050919050565b6000819050919050565b600061314e8261318b565b9050919050565b600061316082613167565b9050919050565b600061317282613119565b9050919050565b600061318482613106565b9050919050565b60006131968261319d565b9050919050565b60006131a882613119565b9050919050565b7f4e487b7100000000000000000000000000000000000000000000000000000000600052601160045260246000fd5b7f4e487b7100000000000000000000000000000000000000000000000000000000600052601260045260246000fd5b7f4e487b7100000000000000000000000000000000000000000000000000000000600052602160045260246000fd5b7f43616e6e6f742063616e63656c20746865206974656d2074686174206973206260008201527f696464656e000000000000000000000000000000000000000000000000000000602082015250565b7f4e6f7468696e6720746f20776974686472617700000000000000000000000000600082015250565b7f4f6e6c792073656c6c65722063616e20656e642069742e000000000000000000600082015250565b7f4f776e61626c653a206e6577206f776e657220697320746865207a65726f206160008201527f6464726573730000000000000000000000000000000000000000000000000000602082015250565b7f546f70206269646465722063616e6e6f74207769746864726177000000000000600082015250565b7f43616e6e6f742073657420656e642074696d6520617320706173742074696d65600082015250565b7f4f6e6c79206f776e65722063616e20656e726f6c6c206e667400000000000000600082015250565b7f4974206973206e6f74207468652074696d6520746f20636c6f7365206175637460008201527f696f6e0000000000000000000000000000000000000000000000000000000000602082015250565b7f54686973206974656d206973206e6f7420656e726f6c6c656400000000000000600082015250565b7f546869732061756374696f6e20697320656e646564206f722063616e63656c6c60008201527f6564000000000000000000000000000000000000000000000000000000000000602082015250565b7f53686f756c64207374617274207072696365206973206269676765722074686160008201527f6e206d696e696e756d2062696420616d6f756e74000000000000000000000000602082015250565b7f4f776e61626c653a2063616c6c6572206973206e6f7420746865206f776e6572600082015250565b7f42696420616d6f756e742073686f756c6420626520626967676572207468616e60008201527f207072657620746f7020626964206173206d756368206173206d696e756d756d60208201527f2062696420616d6f756e74000000000000000000000000000000000000000000604082015250565b7f4f6e6c792073656c6c65722063616e2063616e63656c20697400000000000000600082015250565b7f54686973206974656d206861736e2774206265656e20656e726f6c6c65640000600082015250565b7f497420697320616c72656164792073746172746564206f7220656e6465640000600082015250565b7f5265656e7472616e637947756172643a207265656e7472616e742063616c6c00600082015250565b7f41756374696f6e20697320656e64656400000000000000000000000000000000600082015250565b600381106136395761363861320d565b5b50565b613645816130d0565b811461365057600080fd5b50565b61365c816130f4565b811461366757600080fd5b50565b61367381613139565b811461367e57600080fd5b5056fea2646970667358221220a9e61492260cb383aa35b2a9630298f71de87bded0b38714c074ea1495b1903164736f6c63430008040033",
    "linkReferences": {},
    "deployedLinkReferences": {}
}