{
    "contractAddress": "0xcEC9B63e12834FDdDb85f19e338Ed0354552ef4F",
    "_format": "hh-sol-artifact-1",
    "contractName": "Auction",
    "sourceName": "contracts/Auction.sol",
    "abi": [
        {
            "inputs": [
                {
                    "internalType": "uint256",
                    "name": "_feePercent",
                    "type": "uint256"
                }
            ],
            "stateMutability": "nonpayable",
            "type": "constructor"
        },
        {
            "anonymous": false,
            "inputs": [
                {
                    "indexed": true,
                    "internalType": "uint256",
                    "name": "itemId",
                    "type": "uint256"
                },
                {
                    "indexed": true,
                    "internalType": "address",
                    "name": "topBidder",
                    "type": "address"
                },
                {
                    "indexed": false,
                    "internalType": "uint256",
                    "name": "topBid",
                    "type": "uint256"
                }
            ],
            "name": "Bid",
            "type": "event"
        },
        {
            "anonymous": false,
            "inputs": [
                {
                    "indexed": true,
                    "internalType": "uint256",
                    "name": "itemId",
                    "type": "uint256"
                },
                {
                    "indexed": true,
                    "internalType": "address",
                    "name": "seller",
                    "type": "address"
                }
            ],
            "name": "Cancel",
            "type": "event"
        },
        {
            "anonymous": false,
            "inputs": [
                {
                    "indexed": true,
                    "internalType": "uint256",
                    "name": "itemId",
                    "type": "uint256"
                },
                {
                    "indexed": true,
                    "internalType": "address",
                    "name": "buyer",
                    "type": "address"
                },
                {
                    "indexed": false,
                    "internalType": "uint256",
                    "name": "buyingPrice",
                    "type": "uint256"
                },
                {
                    "indexed": false,
                    "internalType": "uint256",
                    "name": "fee",
                    "type": "uint256"
                }
            ],
            "name": "End",
            "type": "event"
        },
        {
            "anonymous": false,
            "inputs": [
                {
                    "indexed": true,
                    "internalType": "uint256",
                    "name": "itemId",
                    "type": "uint256"
                },
                {
                    "indexed": false,
                    "internalType": "uint256",
                    "name": "_startPrice",
                    "type": "uint256"
                },
                {
                    "indexed": false,
                    "internalType": "address",
                    "name": "_nft",
                    "type": "address"
                },
                {
                    "indexed": true,
                    "internalType": "uint256",
                    "name": "_tokenId",
                    "type": "uint256"
                },
                {
                    "indexed": true,
                    "internalType": "address",
                    "name": "seller",
                    "type": "address"
                }
            ],
            "name": "Enrolled",
            "type": "event"
        },
        {
            "anonymous": false,
            "inputs": [
                {
                    "indexed": true,
                    "internalType": "address",
                    "name": "previousOwner",
                    "type": "address"
                },
                {
                    "indexed": true,
                    "internalType": "address",
                    "name": "newOwner",
                    "type": "address"
                }
            ],
            "name": "OwnershipTransferred",
            "type": "event"
        },
        {
            "anonymous": false,
            "inputs": [
                {
                    "indexed": true,
                    "internalType": "uint256",
                    "name": "itemId",
                    "type": "uint256"
                },
                {
                    "indexed": true,
                    "internalType": "address",
                    "name": "bidder",
                    "type": "address"
                },
                {
                    "indexed": false,
                    "internalType": "uint256",
                    "name": "balance",
                    "type": "uint256"
                }
            ],
            "name": "Withdraw",
            "type": "event"
        },
        {
            "inputs": [
                {
                    "internalType": "uint256",
                    "name": "_itemId",
                    "type": "uint256"
                }
            ],
            "name": "bid",
            "outputs": [],
            "stateMutability": "payable",
            "type": "function"
        },
        {
            "inputs": [
                {
                    "internalType": "uint256",
                    "name": "_price",
                    "type": "uint256"
                }
            ],
            "name": "calPriceWithFee",
            "outputs": [
                {
                    "internalType": "uint256",
                    "name": "",
                    "type": "uint256"
                }
            ],
            "stateMutability": "view",
            "type": "function"
        },
        {
            "inputs": [
                {
                    "internalType": "uint256",
                    "name": "_itemId",
                    "type": "uint256"
                }
            ],
            "name": "cancel",
            "outputs": [],
            "stateMutability": "nonpayable",
            "type": "function"
        },
        {
            "inputs": [
                {
                    "internalType": "uint256",
                    "name": "_itemId",
                    "type": "uint256"
                }
            ],
            "name": "end",
            "outputs": [],
            "stateMutability": "nonpayable",
            "type": "function"
        },
        {
            "inputs": [
                {
                    "internalType": "uint256",
                    "name": "_startPrice",
                    "type": "uint256"
                },
                {
                    "internalType": "uint256",
                    "name": "_endAt",
                    "type": "uint256"
                },
                {
                    "internalType": "contract IERC721",
                    "name": "_nft",
                    "type": "address"
                },
                {
                    "internalType": "uint256",
                    "name": "_tokenId",
                    "type": "uint256"
                }
            ],
            "name": "enroll",
            "outputs": [],
            "stateMutability": "nonpayable",
            "type": "function"
        },
        {
            "inputs": [],
            "name": "feeAccount",
            "outputs": [
                {
                    "internalType": "address payable",
                    "name": "",
                    "type": "address"
                }
            ],
            "stateMutability": "view",
            "type": "function"
        },
        {
            "inputs": [],
            "name": "feePercent",
            "outputs": [
                {
                    "internalType": "uint256",
                    "name": "",
                    "type": "uint256"
                }
            ],
            "stateMutability": "view",
            "type": "function"
        },
        {
            "inputs": [
                {
                    "internalType": "uint256",
                    "name": "_itemId",
                    "type": "uint256"
                }
            ],
            "name": "forceCancel",
            "outputs": [],
            "stateMutability": "nonpayable",
            "type": "function"
        },
        {
            "inputs": [
                {
                    "internalType": "uint256",
                    "name": "_itemId",
                    "type": "uint256"
                }
            ],
            "name": "forceEnd",
            "outputs": [],
            "stateMutability": "nonpayable",
            "type": "function"
        },
        {
            "inputs": [],
            "name": "getBlockTimestamp",
            "outputs": [
                {
                    "internalType": "uint256",
                    "name": "",
                    "type": "uint256"
                }
            ],
            "stateMutability": "view",
            "type": "function"
        },
        {
            "inputs": [
                {
                    "internalType": "uint256",
                    "name": "_itemId",
                    "type": "uint256"
                },
                {
                    "internalType": "address",
                    "name": "_addr",
                    "type": "address"
                }
            ],
            "name": "getPendingBids",
            "outputs": [
                {
                    "internalType": "uint256",
                    "name": "",
                    "type": "uint256"
                }
            ],
            "stateMutability": "view",
            "type": "function"
        },
        {
            "inputs": [],
            "name": "itemCounter",
            "outputs": [
                {
                    "internalType": "uint256",
                    "name": "_value",
                    "type": "uint256"
                }
            ],
            "stateMutability": "view",
            "type": "function"
        },
        {
            "inputs": [
                {
                    "internalType": "uint256",
                    "name": "",
                    "type": "uint256"
                }
            ],
            "name": "items",
            "outputs": [
                {
                    "internalType": "uint256",
                    "name": "startPrice",
                    "type": "uint256"
                },
                {
                    "internalType": "uint256",
                    "name": "startAt",
                    "type": "uint256"
                },
                {
                    "internalType": "uint256",
                    "name": "endAt",
                    "type": "uint256"
                },
                {
                    "internalType": "uint256",
                    "name": "tokenId",
                    "type": "uint256"
                },
                {
                    "internalType": "address payable",
                    "name": "seller",
                    "type": "address"
                },
                {
                    "internalType": "address",
                    "name": "topBidder",
                    "type": "address"
                },
                {
                    "internalType": "uint256",
                    "name": "topBid",
                    "type": "uint256"
                },
                {
                    "internalType": "enum Auction.StatusType",
                    "name": "status",
                    "type": "uint8"
                },
                {
                    "internalType": "contract IERC721",
                    "name": "nft",
                    "type": "address"
                }
            ],
            "stateMutability": "view",
            "type": "function"
        },
        {
            "inputs": [],
            "name": "minBidUnit",
            "outputs": [
                {
                    "internalType": "uint256",
                    "name": "",
                    "type": "uint256"
                }
            ],
            "stateMutability": "view",
            "type": "function"
        },
        {
            "inputs": [
                {
                    "internalType": "address",
                    "name": "",
                    "type": "address"
                },
                {
                    "internalType": "uint256",
                    "name": "",
                    "type": "uint256"
                }
            ],
            "name": "nftToItemId",
            "outputs": [
                {
                    "internalType": "uint256",
                    "name": "",
                    "type": "uint256"
                }
            ],
            "stateMutability": "view",
            "type": "function"
        },
        {
            "inputs": [],
            "name": "owner",
            "outputs": [
                {
                    "internalType": "address",
                    "name": "",
                    "type": "address"
                }
            ],
            "stateMutability": "view",
            "type": "function"
        },
        {
            "inputs": [
                {
                    "internalType": "uint256",
                    "name": "",
                    "type": "uint256"
                },
                {
                    "internalType": "address",
                    "name": "",
                    "type": "address"
                }
            ],
            "name": "pendingBids",
            "outputs": [
                {
                    "internalType": "uint256",
                    "name": "",
                    "type": "uint256"
                }
            ],
            "stateMutability": "view",
            "type": "function"
        },
        {
            "inputs": [
                {
                    "internalType": "uint256",
                    "name": "_priceWithFee",
                    "type": "uint256"
                }
            ],
            "name": "removeFee",
            "outputs": [
                {
                    "internalType": "uint256",
                    "name": "",
                    "type": "uint256"
                }
            ],
            "stateMutability": "view",
            "type": "function"
        },
        {
            "inputs": [],
            "name": "renounceOwnership",
            "outputs": [],
            "stateMutability": "nonpayable",
            "type": "function"
        },
        {
            "inputs": [
                {
                    "internalType": "address",
                    "name": "newOwner",
                    "type": "address"
                }
            ],
            "name": "transferOwnership",
            "outputs": [],
            "stateMutability": "nonpayable",
            "type": "function"
        },
        {
            "inputs": [
                {
                    "internalType": "uint256",
                    "name": "_itemId",
                    "type": "uint256"
                }
            ],
            "name": "withdraw",
            "outputs": [],
            "stateMutability": "nonpayable",
            "type": "function"
        }
    ],
    "bytecode": "0x60c06040523480156200001157600080fd5b506040516200451538038062004515833981810160405281019062000037919062000197565b60016000819055506200005f62000053620000b260201b60201c565b620000ba60201b60201c565b8060a081815250503373ffffffffffffffffffffffffffffffffffffffff1660808173ffffffffffffffffffffffffffffffffffffffff1660601b815250506509184e72a00060048190555050620001e7565b600033905090565b6000600160009054906101000a900473ffffffffffffffffffffffffffffffffffffffff16905081600160006101000a81548173ffffffffffffffffffffffffffffffffffffffff021916908373ffffffffffffffffffffffffffffffffffffffff1602179055508173ffffffffffffffffffffffffffffffffffffffff168173ffffffffffffffffffffffffffffffffffffffff167f8be0079c531659141344cd1fd0a4f28419497f9722a3daafe3b4186f6b6457e060405160405180910390a35050565b6000815190506200019181620001cd565b92915050565b600060208284031215620001aa57600080fd5b6000620001ba8482850162000180565b91505092915050565b6000819050919050565b620001d881620001c3565b8114620001e457600080fd5b50565b60805160601c60a0516142d46200024160003960008181610766015281816118a9015281816118f801528181611a2c015281816124ab01526126a50152600081816109240152818161196c015261266901526142d46000f3fe60806040526004361061012a5760003560e01c8063715018a6116100ab578063bfb231d21161006f578063bfb231d2146103d3578063e373eeac14610418578063f152b5bd14610441578063f2fde38b1461046a578063f438f01914610493578063f8cd207a146104bc5761012a565b8063715018a6146102fe578063796b89b9146103155780637fd6f15c146103405780638024656a1461036b5780638da5cb5b146103a85761012a565b806355c2c7c2116100f257806355c2c7c2146102035780635dcd7d9e14610240578063649b998d1461027d57806365e17c9d146102a85780636d6d00ed146102d35761012a565b80630ad245281461012f5780632e1a7d4d1461015857806340e58ee514610181578063454a2ab3146101aa578063499a2818146101c6575b600080fd5b34801561013b57600080fd5b506101566004803603810190610151919061328f565b6104f9565b005b34801561016457600080fd5b5061017f600480360381019061017a919061328f565b610cc2565b005b34801561018d57600080fd5b506101a860048036038101906101a3919061328f565b610f4e565b005b6101c460048036038101906101bf919061328f565b611471565b005b3480156101d257600080fd5b506101ed60048036038101906101e8919061328f565b6118a5565b6040516101fa91906139e3565b60405180910390f35b34801561020f57600080fd5b5061022a6004803603810190610225919061328f565b6118f2565b60405161023791906139e3565b60405180910390f35b34801561024c57600080fd5b506102676004803603810190610262919061322a565b61193f565b60405161027491906139e3565b60405180910390f35b34801561028957600080fd5b50610292611964565b60405161029f91906139e3565b60405180910390f35b3480156102b457600080fd5b506102bd61196a565b6040516102ca91906136ba565b60405180910390f35b3480156102df57600080fd5b506102e861198e565b6040516102f591906139e3565b60405180910390f35b34801561030a57600080fd5b5061031361199a565b005b34801561032157600080fd5b5061032a611a22565b60405161033791906139e3565b60405180910390f35b34801561034c57600080fd5b50610355611a2a565b60405161036291906139e3565b60405180910390f35b34801561037757600080fd5b50610392600480360381019061038d91906132b8565b611a4e565b60405161039f91906139e3565b60405180910390f35b3480156103b457600080fd5b506103bd611a73565b6040516103ca919061369f565b60405180910390f35b3480156103df57600080fd5b506103fa60048036038101906103f5919061328f565b611a9d565b60405161040f99989796959493929190613a79565b60405180910390f35b34801561042457600080fd5b5061043f600480360381019061043a91906132f4565b611b58565b005b34801561044d57600080fd5b506104686004803603810190610463919061328f565b6122ad565b005b34801561047657600080fd5b50610491600480360381019061048c91906131d8565b612a41565b005b34801561049f57600080fd5b506104ba60048036038101906104b5919061328f565b612b39565b005b3480156104c857600080fd5b506104e360048036038101906104de91906132b8565b613022565b6040516104f091906139e3565b60405180910390f35b6002600054141561053f576040517f08c379a0000000000000000000000000000000000000000000000000000000008152600401610536906139a3565b60405180910390fd5b6002600081905550806005600082815260200190815260200160002060040160009054906101000a900473ffffffffffffffffffffffffffffffffffffffff1673ffffffffffffffffffffffffffffffffffffffff163373ffffffffffffffffffffffffffffffffffffffff16146105ec576040517f08c379a00000000000000000000000000000000000000000000000000000000081526004016105e390613783565b60405180910390fd5b60006005600084815260200190815260200160002090506000600281111561063d577f4e487b7100000000000000000000000000000000000000000000000000000000600052602160045260246000fd5b8160070160009054906101000a900460ff166002811115610687577f4e487b7100000000000000000000000000000000000000000000000000000000600052602160045260246000fd5b146106c7576040517f08c379a00000000000000000000000000000000000000000000000000000000081526004016106be90613943565b60405180910390fd5b8060020154421161070d576040517f08c379a000000000000000000000000000000000000000000000000000000000815260040161070490613863565b60405180910390fd5b60018160070160006101000a81548160ff0219169083600281111561075b577f4e487b7100000000000000000000000000000000000000000000000000000000600052602160045260246000fd5b0217905550600060647f000000000000000000000000000000000000000000000000000000000000000083600601546107949190613b9e565b61079e9190613b6d565b9050600073ffffffffffffffffffffffffffffffffffffffff168260050160009054906101000a900473ffffffffffffffffffffffffffffffffffffffff1673ffffffffffffffffffffffffffffffffffffffff1614610a08578160070160019054906101000a900473ffffffffffffffffffffffffffffffffffffffff1673ffffffffffffffffffffffffffffffffffffffff166323b872dd308460050160009054906101000a900473ffffffffffffffffffffffffffffffffffffffff1685600301546040518463ffffffff1660e01b81526004016108819392919061370c565b600060405180830381600087803b15801561089b57600080fd5b505af11580156108af573d6000803e3d6000fd5b505050508160040160009054906101000a900473ffffffffffffffffffffffffffffffffffffffff1673ffffffffffffffffffffffffffffffffffffffff166108fc83600601549081150290604051600060405180830381858888f19350505050158015610921573d6000803e3d6000fd5b507f000000000000000000000000000000000000000000000000000000000000000073ffffffffffffffffffffffffffffffffffffffff166108fc829081150290604051600060405180830381858888f19350505050158015610988573d6000803e3d6000fd5b5060006007600086815260200190815260200160002060008460050160009054906101000a900473ffffffffffffffffffffffffffffffffffffffff1673ffffffffffffffffffffffffffffffffffffffff1673ffffffffffffffffffffffffffffffffffffffff16815260200190815260200160002081905550610ac4565b8160070160019054906101000a900473ffffffffffffffffffffffffffffffffffffffff1673ffffffffffffffffffffffffffffffffffffffff166323b872dd308460040160009054906101000a900473ffffffffffffffffffffffffffffffffffffffff1685600301546040518463ffffffff1660e01b8152600401610a91939291906136d5565b600060405180830381600087803b158015610aab57600080fd5b505af1158015610abf573d6000803e3d6000fd5b505050505b6000600660008460070160019054906101000a900473ffffffffffffffffffffffffffffffffffffffff1673ffffffffffffffffffffffffffffffffffffffff1673ffffffffffffffffffffffffffffffffffffffff168152602001908152602001600020600084600301548152602001908152602001600020819055508160050160009054906101000a900473ffffffffffffffffffffffffffffffffffffffff1673ffffffffffffffffffffffffffffffffffffffff16847f469f1b328eb8ff62596282103d0cc1b13328b1326d448bd04220a2ed2b6f631b846006015484604051610bb3929190613a50565b60405180910390a38160070160019054906101000a900473ffffffffffffffffffffffffffffffffffffffff16600260006101000a81548173ffffffffffffffffffffffffffffffffffffffff021916908373ffffffffffffffffffffffffffffffffffffffff160217905550600260009054906101000a900473ffffffffffffffffffffffffffffffffffffffff1673ffffffffffffffffffffffffffffffffffffffff1663a27b467d836003015460006040518363ffffffff1660e01b8152600401610c82929190613a27565b600060405180830381600087803b158015610c9c57600080fd5b505af1158015610cb0573d6000803e3d6000fd5b50505050505050600160008190555050565b60026000541415610d08576040517f08c379a0000000000000000000000000000000000000000000000000000000008152600401610cff906139a3565b60405180910390fd5b600260008190555060006007600083815260200190815260200160002060003373ffffffffffffffffffffffffffffffffffffffff1673ffffffffffffffffffffffffffffffffffffffff1681526020019081526020016000205490506000811415610da9576040517f08c379a0000000000000000000000000000000000000000000000000000000008152600401610da090613763565b60405180910390fd5b6005600083815260200190815260200160002060050160009054906101000a900473ffffffffffffffffffffffffffffffffffffffff1673ffffffffffffffffffffffffffffffffffffffff163373ffffffffffffffffffffffffffffffffffffffff161415610e4e576040517f08c379a0000000000000000000000000000000000000000000000000000000008152600401610e45906137e3565b60405180910390fd5b60006007600084815260200190815260200160002060003373ffffffffffffffffffffffffffffffffffffffff1673ffffffffffffffffffffffffffffffffffffffff168152602001908152602001600020819055503373ffffffffffffffffffffffffffffffffffffffff166108fc610ec7836118f2565b9081150290604051600060405180830381858888f19350505050158015610ef2573d6000803e3d6000fd5b503373ffffffffffffffffffffffffffffffffffffffff16827f9da6493a92039daf47d1f2d7a782299c5994c6323eb1e972f69c432089ec52bf83604051610f3a91906139e3565b60405180910390a350600160008190555050565b60026000541415610f94576040517f08c379a0000000000000000000000000000000000000000000000000000000008152600401610f8b906139a3565b60405180910390fd5b600260008190555060006005600083815260200190815260200160002090508060040160009054906101000a900473ffffffffffffffffffffffffffffffffffffffff1673ffffffffffffffffffffffffffffffffffffffff163373ffffffffffffffffffffffffffffffffffffffff1614611045576040517f08c379a000000000000000000000000000000000000000000000000000000000815260040161103c90613923565b60405180910390fd5b6000600281111561107f577f4e487b7100000000000000000000000000000000000000000000000000000000600052602160045260246000fd5b8160070160009054906101000a900460ff1660028111156110c9577f4e487b7100000000000000000000000000000000000000000000000000000000600052602160045260246000fd5b14611109576040517f08c379a000000000000000000000000000000000000000000000000000000000815260040161110090613983565b60405180910390fd5b600073ffffffffffffffffffffffffffffffffffffffff168160050160009054906101000a900473ffffffffffffffffffffffffffffffffffffffff1673ffffffffffffffffffffffffffffffffffffffff161461119c576040517f08c379a000000000000000000000000000000000000000000000000000000000815260040161119390613743565b60405180910390fd5b60028160070160006101000a81548160ff021916908360028111156111ea577f4e487b7100000000000000000000000000000000000000000000000000000000600052602160045260246000fd5b02179055508060070160019054906101000a900473ffffffffffffffffffffffffffffffffffffffff1673ffffffffffffffffffffffffffffffffffffffff166323b872dd308360040160009054906101000a900473ffffffffffffffffffffffffffffffffffffffff1684600301546040518463ffffffff1660e01b8152600401611278939291906136d5565b600060405180830381600087803b15801561129257600080fd5b505af11580156112a6573d6000803e3d6000fd5b505050506000600660008360070160019054906101000a900473ffffffffffffffffffffffffffffffffffffffff1673ffffffffffffffffffffffffffffffffffffffff1673ffffffffffffffffffffffffffffffffffffffff168152602001908152602001600020600083600301548152602001908152602001600020819055503373ffffffffffffffffffffffffffffffffffffffff16827f8dd3c361eb2366ff27c2db0eb07b9261f1d052570742ab8c9a0c326f37aa576d60405160405180910390a38060070160019054906101000a900473ffffffffffffffffffffffffffffffffffffffff16600260006101000a81548173ffffffffffffffffffffffffffffffffffffffff021916908373ffffffffffffffffffffffffffffffffffffffff160217905550600260009054906101000a900473ffffffffffffffffffffffffffffffffffffffff1673ffffffffffffffffffffffffffffffffffffffff1663a27b467d826003015460006040518363ffffffff1660e01b8152600401611433929190613a27565b600060405180830381600087803b15801561144d57600080fd5b505af1158015611461573d6000803e3d6000fd5b5050505050600160008190555050565b600260005414156114b7576040517f08c379a00000000000000000000000000000000000000000000000000000000081526004016114ae906139a3565b60405180910390fd5b600260008190555060006004546114cd346118a5565b6114d79190613ce3565b14611517576040517f08c379a000000000000000000000000000000000000000000000000000000000815260040161150e90613963565b60405180910390fd5b611521600361307d565b811115611563576040517f08c379a000000000000000000000000000000000000000000000000000000000815260040161155a90613883565b60405180910390fd5b6000600560008381526020019081526020016000209050806002015442106115c0576040517f08c379a00000000000000000000000000000000000000000000000000000000081526004016115b7906139c3565b60405180910390fd5b600060028111156115fa577f4e487b7100000000000000000000000000000000000000000000000000000000600052602160045260246000fd5b8160070160009054906101000a900460ff166002811115611644577f4e487b7100000000000000000000000000000000000000000000000000000000600052602160045260246000fd5b14611684576040517f08c379a000000000000000000000000000000000000000000000000000000000815260040161167b906138a3565b60405180910390fd5b60045481600601546116969190613b17565b6007600084815260200190815260200160002060003373ffffffffffffffffffffffffffffffffffffffff1673ffffffffffffffffffffffffffffffffffffffff168152602001908152602001600020546116f0346118a5565b6116fa9190613b17565b101561173b576040517f08c379a000000000000000000000000000000000000000000000000000000000815260040161173290613903565b60405180910390fd5b611744346118a5565b6007600084815260200190815260200160002060003373ffffffffffffffffffffffffffffffffffffffff1673ffffffffffffffffffffffffffffffffffffffff16815260200190815260200160002060008282546117a39190613b17565b925050819055506007600083815260200190815260200160002060003373ffffffffffffffffffffffffffffffffffffffff1673ffffffffffffffffffffffffffffffffffffffff168152602001908152602001600020548160060181905550338160050160006101000a81548173ffffffffffffffffffffffffffffffffffffffff021916908373ffffffffffffffffffffffffffffffffffffffff1602179055503373ffffffffffffffffffffffffffffffffffffffff16827fdcd726e11f8b5e160f00290f0fe3a1abb547474e53a8e7a8f49a85e7b1ca3199836006015460405161189191906139e3565b60405180910390a350600160008190555050565b60007f000000000000000000000000000000000000000000000000000000000000000060646118d49190613b17565b6064836118e19190613b9e565b6118eb9190613b6d565b9050919050565b600060647f000000000000000000000000000000000000000000000000000000000000000060646119239190613b17565b8361192e9190613b9e565b6119389190613b6d565b9050919050565b6006602052816000526040600020602052806000526040600020600091509150505481565b60045481565b7f000000000000000000000000000000000000000000000000000000000000000081565b60038060000154905081565b6119a261308b565b73ffffffffffffffffffffffffffffffffffffffff166119c0611a73565b73ffffffffffffffffffffffffffffffffffffffff1614611a16576040517f08c379a0000000000000000000000000000000000000000000000000000000008152600401611a0d906138e3565b60405180910390fd5b611a206000613093565b565b600042905090565b7f000000000000000000000000000000000000000000000000000000000000000081565b6007602052816000526040600020602052806000526040600020600091509150505481565b6000600160009054906101000a900473ffffffffffffffffffffffffffffffffffffffff16905090565b60056020528060005260406000206000915090508060000154908060010154908060020154908060030154908060040160009054906101000a900473ffffffffffffffffffffffffffffffffffffffff16908060050160009054906101000a900473ffffffffffffffffffffffffffffffffffffffff16908060060154908060070160009054906101000a900460ff16908060070160019054906101000a900473ffffffffffffffffffffffffffffffffffffffff16905089565b60026000541415611b9e576040517f08c379a0000000000000000000000000000000000000000000000000000000008152600401611b95906139a3565b60405180910390fd5b600260008190555081818173ffffffffffffffffffffffffffffffffffffffff16636352211e826040518263ffffffff1660e01b8152600401611be191906139e3565b60206040518083038186803b158015611bf957600080fd5b505afa158015611c0d573d6000803e3d6000fd5b505050506040513d601f19601f82011682018060405250810190611c319190613201565b73ffffffffffffffffffffffffffffffffffffffff163373ffffffffffffffffffffffffffffffffffffffff1614611c9e576040517f08c379a0000000000000000000000000000000000000000000000000000000008152600401611c9590613823565b60405180910390fd5b600060045487611cae9190613ce3565b14611cee576040517f08c379a0000000000000000000000000000000000000000000000000000000008152600401611ce5906137c3565b60405180910390fd5b600454861015611d33576040517f08c379a0000000000000000000000000000000000000000000000000000000008152600401611d2a906138c3565b60405180910390fd5b844210611d75576040517f08c379a0000000000000000000000000000000000000000000000000000000008152600401611d6c90613803565b60405180910390fd5b83600260006101000a81548173ffffffffffffffffffffffffffffffffffffffff021916908373ffffffffffffffffffffffffffffffffffffffff160217905550600260009054906101000a900473ffffffffffffffffffffffffffffffffffffffff1673ffffffffffffffffffffffffffffffffffffffff166305dcd1ff846040518263ffffffff1660e01b8152600401611e1191906139e3565b60206040518083038186803b158015611e2957600080fd5b505afa158015611e3d573d6000803e3d6000fd5b505050506040513d601f19601f82011682018060405250810190611e619190613266565b15611ea1576040517f08c379a0000000000000000000000000000000000000000000000000000000008152600401611e9890613843565b60405180910390fd5b611eab6003613159565b6000611eb7600361307d565b90506040518061012001604052808881526020014281526020016103e888611edf9190613b6d565b81526020018581526020013373ffffffffffffffffffffffffffffffffffffffff168152602001600073ffffffffffffffffffffffffffffffffffffffff16815260200188815260200160006002811115611f63577f4e487b7100000000000000000000000000000000000000000000000000000000600052602160045260246000fd5b81526020018673ffffffffffffffffffffffffffffffffffffffff16815250600560008381526020019081526020016000206000820151816000015560208201518160010155604082015181600201556060820151816003015560808201518160040160006101000a81548173ffffffffffffffffffffffffffffffffffffffff021916908373ffffffffffffffffffffffffffffffffffffffff16021790555060a08201518160050160006101000a81548173ffffffffffffffffffffffffffffffffffffffff021916908373ffffffffffffffffffffffffffffffffffffffff16021790555060c0820151816006015560e08201518160070160006101000a81548160ff021916908360028111156120a6577f4e487b7100000000000000000000000000000000000000000000000000000000600052602160045260246000fd5b02179055506101008201518160070160016101000a81548173ffffffffffffffffffffffffffffffffffffffff021916908373ffffffffffffffffffffffffffffffffffffffff16021790555090505080600660008773ffffffffffffffffffffffffffffffffffffffff1673ffffffffffffffffffffffffffffffffffffffff1681526020019081526020016000206000868152602001908152602001600020819055508473ffffffffffffffffffffffffffffffffffffffff166323b872dd3330876040518463ffffffff1660e01b81526004016121889392919061370c565b600060405180830381600087803b1580156121a257600080fd5b505af11580156121b6573d6000803e3d6000fd5b505050503373ffffffffffffffffffffffffffffffffffffffff1684827f54346fc0e5c9d95e1fd90238bb8ce8c608de8bb4845a2de76f31c58428a18c808a896040516122049291906139fe565b60405180910390a4600260009054906101000a900473ffffffffffffffffffffffffffffffffffffffff1673ffffffffffffffffffffffffffffffffffffffff1663a27b467d8560016040518363ffffffff1660e01b815260040161226a929190613a27565b600060405180830381600087803b15801561228457600080fd5b505af1158015612298573d6000803e3d6000fd5b50505050505050600160008190555050505050565b600260005414156122f3576040517f08c379a00000000000000000000000000000000000000000000000000000000081526004016122ea906139a3565b60405180910390fd5b600260008190555061230361308b565b73ffffffffffffffffffffffffffffffffffffffff16612321611a73565b73ffffffffffffffffffffffffffffffffffffffff1614612377576040517f08c379a000000000000000000000000000000000000000000000000000000000815260040161236e906138e3565b60405180910390fd5b6000600560008381526020019081526020016000209050600060028111156123c8577f4e487b7100000000000000000000000000000000000000000000000000000000600052602160045260246000fd5b8160070160009054906101000a900460ff166002811115612412577f4e487b7100000000000000000000000000000000000000000000000000000000600052602160045260246000fd5b14612452576040517f08c379a000000000000000000000000000000000000000000000000000000000815260040161244990613943565b60405180910390fd5b60018160070160006101000a81548160ff021916908360028111156124a0577f4e487b7100000000000000000000000000000000000000000000000000000000600052602160045260246000fd5b0217905550600060647f000000000000000000000000000000000000000000000000000000000000000083600601546124d99190613b9e565b6124e39190613b6d565b9050600073ffffffffffffffffffffffffffffffffffffffff168260050160009054906101000a900473ffffffffffffffffffffffffffffffffffffffff1673ffffffffffffffffffffffffffffffffffffffff1614612788578160070160019054906101000a900473ffffffffffffffffffffffffffffffffffffffff1673ffffffffffffffffffffffffffffffffffffffff166342842e0e308460050160009054906101000a900473ffffffffffffffffffffffffffffffffffffffff1685600301546040518463ffffffff1660e01b81526004016125c69392919061370c565b600060405180830381600087803b1580156125e057600080fd5b505af11580156125f4573d6000803e3d6000fd5b505050508160040160009054906101000a900473ffffffffffffffffffffffffffffffffffffffff1673ffffffffffffffffffffffffffffffffffffffff166108fc83600601549081150290604051600060405180830381858888f19350505050158015612666573d6000803e3d6000fd5b507f000000000000000000000000000000000000000000000000000000000000000073ffffffffffffffffffffffffffffffffffffffff166108fc60647f000000000000000000000000000000000000000000000000000000000000000085600601546126d39190613b9e565b6126dd9190613b6d565b9081150290604051600060405180830381858888f19350505050158015612708573d6000803e3d6000fd5b5060006007600085815260200190815260200160002060008460050160009054906101000a900473ffffffffffffffffffffffffffffffffffffffff1673ffffffffffffffffffffffffffffffffffffffff1673ffffffffffffffffffffffffffffffffffffffff16815260200190815260200160002081905550612844565b8160070160019054906101000a900473ffffffffffffffffffffffffffffffffffffffff1673ffffffffffffffffffffffffffffffffffffffff166342842e0e308460040160009054906101000a900473ffffffffffffffffffffffffffffffffffffffff1685600301546040518463ffffffff1660e01b8152600401612811939291906136d5565b600060405180830381600087803b15801561282b57600080fd5b505af115801561283f573d6000803e3d6000fd5b505050505b6000600660008460070160019054906101000a900473ffffffffffffffffffffffffffffffffffffffff1673ffffffffffffffffffffffffffffffffffffffff1673ffffffffffffffffffffffffffffffffffffffff168152602001908152602001600020600084600301548152602001908152602001600020819055508160050160009054906101000a900473ffffffffffffffffffffffffffffffffffffffff1673ffffffffffffffffffffffffffffffffffffffff16837f469f1b328eb8ff62596282103d0cc1b13328b1326d448bd04220a2ed2b6f631b846006015484604051612933929190613a50565b60405180910390a38160070160019054906101000a900473ffffffffffffffffffffffffffffffffffffffff16600260006101000a81548173ffffffffffffffffffffffffffffffffffffffff021916908373ffffffffffffffffffffffffffffffffffffffff160217905550600260009054906101000a900473ffffffffffffffffffffffffffffffffffffffff1673ffffffffffffffffffffffffffffffffffffffff1663a27b467d836003015460006040518363ffffffff1660e01b8152600401612a02929190613a27565b600060405180830381600087803b158015612a1c57600080fd5b505af1158015612a30573d6000803e3d6000fd5b505050505050600160008190555050565b612a4961308b565b73ffffffffffffffffffffffffffffffffffffffff16612a67611a73565b73ffffffffffffffffffffffffffffffffffffffff1614612abd576040517f08c379a0000000000000000000000000000000000000000000000000000000008152600401612ab4906138e3565b60405180910390fd5b600073ffffffffffffffffffffffffffffffffffffffff168173ffffffffffffffffffffffffffffffffffffffff161415612b2d576040517f08c379a0000000000000000000000000000000000000000000000000000000008152600401612b24906137a3565b60405180910390fd5b612b3681613093565b50565b60026000541415612b7f576040517f08c379a0000000000000000000000000000000000000000000000000000000008152600401612b76906139a3565b60405180910390fd5b6002600081905550612b8f61308b565b73ffffffffffffffffffffffffffffffffffffffff16612bad611a73565b73ffffffffffffffffffffffffffffffffffffffff1614612c03576040517f08c379a0000000000000000000000000000000000000000000000000000000008152600401612bfa906138e3565b60405180910390fd5b600060056000838152602001908152602001600020905060006002811115612c54577f4e487b7100000000000000000000000000000000000000000000000000000000600052602160045260246000fd5b8160070160009054906101000a900460ff166002811115612c9e577f4e487b7100000000000000000000000000000000000000000000000000000000600052602160045260246000fd5b14612cde576040517f08c379a0000000000000000000000000000000000000000000000000000000008152600401612cd590613983565b60405180910390fd5b60028160070160006101000a81548160ff02191690836002811115612d2c577f4e487b7100000000000000000000000000000000000000000000000000000000600052602160045260246000fd5b02179055508060050160009054906101000a900473ffffffffffffffffffffffffffffffffffffffff1673ffffffffffffffffffffffffffffffffffffffff166108fc82600601549081150290604051600060405180830381858888f19350505050158015612d9f573d6000803e3d6000fd5b508060070160019054906101000a900473ffffffffffffffffffffffffffffffffffffffff1673ffffffffffffffffffffffffffffffffffffffff166323b872dd308360040160009054906101000a900473ffffffffffffffffffffffffffffffffffffffff1684600301546040518463ffffffff1660e01b8152600401612e29939291906136d5565b600060405180830381600087803b158015612e4357600080fd5b505af1158015612e57573d6000803e3d6000fd5b505050506000600660008360070160019054906101000a900473ffffffffffffffffffffffffffffffffffffffff1673ffffffffffffffffffffffffffffffffffffffff1673ffffffffffffffffffffffffffffffffffffffff168152602001908152602001600020600083600301548152602001908152602001600020819055503373ffffffffffffffffffffffffffffffffffffffff16827f8dd3c361eb2366ff27c2db0eb07b9261f1d052570742ab8c9a0c326f37aa576d60405160405180910390a38060070160019054906101000a900473ffffffffffffffffffffffffffffffffffffffff16600260006101000a81548173ffffffffffffffffffffffffffffffffffffffff021916908373ffffffffffffffffffffffffffffffffffffffff160217905550600260009054906101000a900473ffffffffffffffffffffffffffffffffffffffff1673ffffffffffffffffffffffffffffffffffffffff1663a27b467d826003015460006040518363ffffffff1660e01b8152600401612fe4929190613a27565b600060405180830381600087803b158015612ffe57600080fd5b505af1158015613012573d6000803e3d6000fd5b5050505050600160008190555050565b60006007600084815260200190815260200160002060008373ffffffffffffffffffffffffffffffffffffffff1673ffffffffffffffffffffffffffffffffffffffff16815260200190815260200160002054905092915050565b600081600001549050919050565b600033905090565b6000600160009054906101000a900473ffffffffffffffffffffffffffffffffffffffff16905081600160006101000a81548173ffffffffffffffffffffffffffffffffffffffff021916908373ffffffffffffffffffffffffffffffffffffffff1602179055508173ffffffffffffffffffffffffffffffffffffffff168173ffffffffffffffffffffffffffffffffffffffff167f8be0079c531659141344cd1fd0a4f28419497f9722a3daafe3b4186f6b6457e060405160405180910390a35050565b6001816000016000828254019250508190555050565b60008135905061317e81614242565b92915050565b60008151905061319381614242565b92915050565b6000815190506131a881614259565b92915050565b6000813590506131bd81614270565b92915050565b6000813590506131d281614287565b92915050565b6000602082840312156131ea57600080fd5b60006131f88482850161316f565b91505092915050565b60006020828403121561321357600080fd5b600061322184828501613184565b91505092915050565b6000806040838503121561323d57600080fd5b600061324b8582860161316f565b925050602061325c858286016131c3565b9150509250929050565b60006020828403121561327857600080fd5b600061328684828501613199565b91505092915050565b6000602082840312156132a157600080fd5b60006132af848285016131c3565b91505092915050565b600080604083850312156132cb57600080fd5b60006132d9858286016131c3565b92505060206132ea8582860161316f565b9150509250929050565b6000806000806080858703121561330a57600080fd5b6000613318878288016131c3565b9450506020613329878288016131c3565b935050604061333a878288016131ae565b925050606061334b878288016131c3565b91505092959194509250565b61336081613c77565b82525050565b61336f81613c0a565b82525050565b61337e81613bf8565b82525050565b61338d81613c1c565b82525050565b61339c81613c89565b82525050565b6133ab81613cad565b82525050565b60006133be602583613b06565b91506133c982613da1565b604082019050919050565b60006133e1601383613b06565b91506133ec82613df0565b602082019050919050565b6000613404601783613b06565b915061340f82613e19565b602082019050919050565b6000613427602683613b06565b915061343282613e42565b604082019050919050565b600061344a602583613b06565b915061345582613e91565b604082019050919050565b600061346d601a83613b06565b915061347882613ee0565b602082019050919050565b6000613490602083613b06565b915061349b82613f09565b602082019050919050565b60006134b3601983613b06565b91506134be82613f32565b602082019050919050565b60006134d6601583613b06565b91506134e182613f5b565b602082019050919050565b60006134f9602383613b06565b915061350482613f84565b604082019050919050565b600061351c601983613b06565b915061352782613fd3565b602082019050919050565b600061353f602283613b06565b915061354a82613ffc565b604082019050919050565b6000613562603483613b06565b915061356d8261404b565b604082019050919050565b6000613585602083613b06565b91506135908261409a565b602082019050919050565b60006135a8604b83613b06565b91506135b3826140c3565b606082019050919050565b60006135cb601983613b06565b91506135d682614138565b602082019050919050565b60006135ee601e83613b06565b91506135f982614161565b602082019050919050565b6000613611601d83613b06565b915061361c8261418a565b602082019050919050565b6000613634601e83613b06565b915061363f826141b3565b602082019050919050565b6000613657601f83613b06565b9150613662826141dc565b602082019050919050565b600061367a601083613b06565b915061368582614205565b602082019050919050565b61369981613c6d565b82525050565b60006020820190506136b46000830184613375565b92915050565b60006020820190506136cf6000830184613366565b92915050565b60006060820190506136ea6000830186613375565b6136f76020830185613357565b6137046040830184613690565b949350505050565b60006060820190506137216000830186613375565b61372e6020830185613375565b61373b6040830184613690565b949350505050565b6000602082019050818103600083015261375c816133b1565b9050919050565b6000602082019050818103600083015261377c816133d4565b9050919050565b6000602082019050818103600083015261379c816133f7565b9050919050565b600060208201905081810360008301526137bc8161341a565b9050919050565b600060208201905081810360008301526137dc8161343d565b9050919050565b600060208201905081810360008301526137fc81613460565b9050919050565b6000602082019050818103600083015261381c81613483565b9050919050565b6000602082019050818103600083015261383c816134a6565b9050919050565b6000602082019050818103600083015261385c816134c9565b9050919050565b6000602082019050818103600083015261387c816134ec565b9050919050565b6000602082019050818103600083015261389c8161350f565b9050919050565b600060208201905081810360008301526138bc81613532565b9050919050565b600060208201905081810360008301526138dc81613555565b9050919050565b600060208201905081810360008301526138fc81613578565b9050919050565b6000602082019050818103600083015261391c8161359b565b9050919050565b6000602082019050818103600083015261393c816135be565b9050919050565b6000602082019050818103600083015261395c816135e1565b9050919050565b6000602082019050818103600083015261397c81613604565b9050919050565b6000602082019050818103600083015261399c81613627565b9050919050565b600060208201905081810360008301526139bc8161364a565b9050919050565b600060208201905081810360008301526139dc8161366d565b9050919050565b60006020820190506139f86000830184613690565b92915050565b6000604082019050613a136000830185613690565b613a206020830184613375565b9392505050565b6000604082019050613a3c6000830185613690565b613a496020830184613384565b9392505050565b6000604082019050613a656000830185613690565b613a726020830184613690565b9392505050565b600061012082019050613a8f600083018c613690565b613a9c602083018b613690565b613aa9604083018a613690565b613ab66060830189613690565b613ac36080830188613366565b613ad060a0830187613375565b613add60c0830186613690565b613aea60e08301856133a2565b613af8610100830184613393565b9a9950505050505050505050565b600082825260208201905092915050565b6000613b2282613c6d565b9150613b2d83613c6d565b9250827fffffffffffffffffffffffffffffffffffffffffffffffffffffffffffffffff03821115613b6257613b61613d14565b5b828201905092915050565b6000613b7882613c6d565b9150613b8383613c6d565b925082613b9357613b92613d43565b5b828204905092915050565b6000613ba982613c6d565b9150613bb483613c6d565b9250817fffffffffffffffffffffffffffffffffffffffffffffffffffffffffffffffff0483118215151615613bed57613bec613d14565b5b828202905092915050565b6000613c0382613c4d565b9050919050565b6000613c1582613c4d565b9050919050565b60008115159050919050565b6000613c3382613bf8565b9050919050565b6000819050613c488261422e565b919050565b600073ffffffffffffffffffffffffffffffffffffffff82169050919050565b6000819050919050565b6000613c8282613cbf565b9050919050565b6000613c9482613c9b565b9050919050565b6000613ca682613c4d565b9050919050565b6000613cb882613c3a565b9050919050565b6000613cca82613cd1565b9050919050565b6000613cdc82613c4d565b9050919050565b6000613cee82613c6d565b9150613cf983613c6d565b925082613d0957613d08613d43565b5b828206905092915050565b7f4e487b7100000000000000000000000000000000000000000000000000000000600052601160045260246000fd5b7f4e487b7100000000000000000000000000000000000000000000000000000000600052601260045260246000fd5b7f4e487b7100000000000000000000000000000000000000000000000000000000600052602160045260246000fd5b7f43616e6e6f742063616e63656c20746865206974656d2074686174206973206260008201527f696464656e000000000000000000000000000000000000000000000000000000602082015250565b7f4e6f7468696e6720746f20776974686472617700000000000000000000000000600082015250565b7f4f6e6c792073656c6c65722063616e20656e642069742e000000000000000000600082015250565b7f4f776e61626c653a206e6577206f776e657220697320746865207a65726f206160008201527f6464726573730000000000000000000000000000000000000000000000000000602082015250565b7f436865636b20746865206d696e696d756d20756e6974206f662073746172742060008201527f7072696365000000000000000000000000000000000000000000000000000000602082015250565b7f546f70206269646465722063616e6e6f74207769746864726177000000000000600082015250565b7f43616e6e6f742073657420656e642074696d6520617320706173742074696d65600082015250565b7f4f6e6c79206f776e65722063616e20656e726f6c6c206e667400000000000000600082015250565b7f54686973206973206f6e20746865206d61726b65740000000000000000000000600082015250565b7f4974206973206e6f74207468652074696d6520746f20636c6f7365206175637460008201527f696f6e0000000000000000000000000000000000000000000000000000000000602082015250565b7f54686973206974656d206973206e6f7420656e726f6c6c656400000000000000600082015250565b7f546869732061756374696f6e20697320656e646564206f722063616e63656c6c60008201527f6564000000000000000000000000000000000000000000000000000000000000602082015250565b7f53686f756c64207374617274207072696365206973206269676765722074686160008201527f6e206d696e696e756d2062696420616d6f756e74000000000000000000000000602082015250565b7f4f776e61626c653a2063616c6c6572206973206e6f7420746865206f776e6572600082015250565b7f42696420616d6f756e742073686f756c6420626520626967676572207468616e60008201527f207072657620746f7020626964206173206d756368206173206d696e756d756d60208201527f2062696420616d6f756e74000000000000000000000000000000000000000000604082015250565b7f4f6e6c792073656c6c65722063616e2063616e63656c20697400000000000000600082015250565b7f54686973206974656d206861736e2774206265656e20656e726f6c6c65640000600082015250565b7f436865636b20746865206d696e696d756d20756e6974206f6620626964000000600082015250565b7f497420697320616c72656164792073746172746564206f7220656e6465640000600082015250565b7f5265656e7472616e637947756172643a207265656e7472616e742063616c6c00600082015250565b7f41756374696f6e20697320656e64656400000000000000000000000000000000600082015250565b6003811061423f5761423e613d72565b5b50565b61424b81613bf8565b811461425657600080fd5b50565b61426281613c1c565b811461426d57600080fd5b50565b61427981613c28565b811461428457600080fd5b50565b61429081613c6d565b811461429b57600080fd5b5056fea2646970667358221220557498e67255e1b4b14178c090faebe9aeab0ef31ad5471b598119945c813c8b64736f6c63430008040033",
    "linkReferences": {},
    "deployedLinkReferences": {}
}