{
    "contractAddress": "0xcA7D7A567879c9A64600499553CCEe338bAE5E10",
    "_format": "hh-sol-artifact-1",
    "contractName": "Auction",
    "sourceName": "contracts/Auction.sol",
    "abi": [
        {
            "inputs": [
                {
                    "internalType": "uint256",
                    "name": "_feePercent",
                    "type": "uint256"
                }
            ],
            "stateMutability": "nonpayable",
            "type": "constructor"
        },
        {
            "anonymous": false,
            "inputs": [
                {
                    "indexed": true,
                    "internalType": "uint256",
                    "name": "itemId",
                    "type": "uint256"
                },
                {
                    "indexed": true,
                    "internalType": "address",
                    "name": "topBidder",
                    "type": "address"
                },
                {
                    "indexed": false,
                    "internalType": "uint256",
                    "name": "topBid",
                    "type": "uint256"
                }
            ],
            "name": "Bid",
            "type": "event"
        },
        {
            "anonymous": false,
            "inputs": [
                {
                    "indexed": true,
                    "internalType": "uint256",
                    "name": "itemId",
                    "type": "uint256"
                },
                {
                    "indexed": true,
                    "internalType": "address",
                    "name": "seller",
                    "type": "address"
                }
            ],
            "name": "Cancel",
            "type": "event"
        },
        {
            "anonymous": false,
            "inputs": [
                {
                    "indexed": true,
                    "internalType": "uint256",
                    "name": "itemId",
                    "type": "uint256"
                },
                {
                    "indexed": true,
                    "internalType": "address",
                    "name": "buyer",
                    "type": "address"
                },
                {
                    "indexed": true,
                    "internalType": "address",
                    "name": "seller",
                    "type": "address"
                },
                {
                    "indexed": false,
                    "internalType": "uint256",
                    "name": "price",
                    "type": "uint256"
                },
                {
                    "indexed": false,
                    "internalType": "uint256",
                    "name": "fee",
                    "type": "uint256"
                }
            ],
            "name": "End",
            "type": "event"
        },
        {
            "anonymous": false,
            "inputs": [
                {
                    "indexed": true,
                    "internalType": "uint256",
                    "name": "itemId",
                    "type": "uint256"
                },
                {
                    "indexed": false,
                    "internalType": "uint256",
                    "name": "_startPrice",
                    "type": "uint256"
                },
                {
                    "indexed": false,
                    "internalType": "address",
                    "name": "_nft",
                    "type": "address"
                },
                {
                    "indexed": true,
                    "internalType": "uint256",
                    "name": "_tokenId",
                    "type": "uint256"
                },
                {
                    "indexed": true,
                    "internalType": "address",
                    "name": "seller",
                    "type": "address"
                }
            ],
            "name": "Enrolled",
            "type": "event"
        },
        {
            "anonymous": false,
            "inputs": [
                {
                    "indexed": true,
                    "internalType": "address",
                    "name": "previousOwner",
                    "type": "address"
                },
                {
                    "indexed": true,
                    "internalType": "address",
                    "name": "newOwner",
                    "type": "address"
                }
            ],
            "name": "OwnershipTransferred",
            "type": "event"
        },
        {
            "anonymous": false,
            "inputs": [
                {
                    "indexed": true,
                    "internalType": "uint256",
                    "name": "itemId",
                    "type": "uint256"
                },
                {
                    "indexed": true,
                    "internalType": "address",
                    "name": "bidder",
                    "type": "address"
                },
                {
                    "indexed": false,
                    "internalType": "uint256",
                    "name": "balance",
                    "type": "uint256"
                }
            ],
            "name": "Withdraw",
            "type": "event"
        },
        {
            "inputs": [
                {
                    "internalType": "uint256",
                    "name": "_itemId",
                    "type": "uint256"
                }
            ],
            "name": "bid",
            "outputs": [],
            "stateMutability": "payable",
            "type": "function"
        },
        {
            "inputs": [
                {
                    "internalType": "uint256",
                    "name": "_price",
                    "type": "uint256"
                }
            ],
            "name": "calPriceWithFee",
            "outputs": [
                {
                    "internalType": "uint256",
                    "name": "",
                    "type": "uint256"
                }
            ],
            "stateMutability": "view",
            "type": "function"
        },
        {
            "inputs": [
                {
                    "internalType": "uint256",
                    "name": "_itemId",
                    "type": "uint256"
                }
            ],
            "name": "cancel",
            "outputs": [],
            "stateMutability": "nonpayable",
            "type": "function"
        },
        {
            "inputs": [
                {
                    "internalType": "uint256",
                    "name": "_itemId",
                    "type": "uint256"
                }
            ],
            "name": "end",
            "outputs": [],
            "stateMutability": "nonpayable",
            "type": "function"
        },
        {
            "inputs": [
                {
                    "internalType": "uint256",
                    "name": "_startPrice",
                    "type": "uint256"
                },
                {
                    "internalType": "uint256",
                    "name": "_endAt",
                    "type": "uint256"
                },
                {
                    "internalType": "contract IERC721",
                    "name": "_nft",
                    "type": "address"
                },
                {
                    "internalType": "uint256",
                    "name": "_tokenId",
                    "type": "uint256"
                }
            ],
            "name": "enroll",
            "outputs": [],
            "stateMutability": "nonpayable",
            "type": "function"
        },
        {
            "inputs": [],
            "name": "feeAccount",
            "outputs": [
                {
                    "internalType": "address payable",
                    "name": "",
                    "type": "address"
                }
            ],
            "stateMutability": "view",
            "type": "function"
        },
        {
            "inputs": [],
            "name": "feePercent",
            "outputs": [
                {
                    "internalType": "uint256",
                    "name": "",
                    "type": "uint256"
                }
            ],
            "stateMutability": "view",
            "type": "function"
        },
        {
            "inputs": [
                {
                    "internalType": "uint256",
                    "name": "_itemId",
                    "type": "uint256"
                }
            ],
            "name": "forceCancel",
            "outputs": [],
            "stateMutability": "nonpayable",
            "type": "function"
        },
        {
            "inputs": [
                {
                    "internalType": "uint256",
                    "name": "_itemId",
                    "type": "uint256"
                }
            ],
            "name": "forceEnd",
            "outputs": [],
            "stateMutability": "nonpayable",
            "type": "function"
        },
        {
            "inputs": [],
            "name": "getBlockTimestamp",
            "outputs": [
                {
                    "internalType": "uint256",
                    "name": "",
                    "type": "uint256"
                }
            ],
            "stateMutability": "view",
            "type": "function"
        },
        {
            "inputs": [
                {
                    "internalType": "uint256",
                    "name": "_itemId",
                    "type": "uint256"
                },
                {
                    "internalType": "address",
                    "name": "_addr",
                    "type": "address"
                }
            ],
            "name": "getPendingBids",
            "outputs": [
                {
                    "internalType": "uint256",
                    "name": "",
                    "type": "uint256"
                }
            ],
            "stateMutability": "view",
            "type": "function"
        },
        {
            "inputs": [],
            "name": "itemCounter",
            "outputs": [
                {
                    "internalType": "uint256",
                    "name": "_value",
                    "type": "uint256"
                }
            ],
            "stateMutability": "view",
            "type": "function"
        },
        {
            "inputs": [
                {
                    "internalType": "uint256",
                    "name": "",
                    "type": "uint256"
                }
            ],
            "name": "items",
            "outputs": [
                {
                    "internalType": "uint256",
                    "name": "itemId",
                    "type": "uint256"
                },
                {
                    "internalType": "uint256",
                    "name": "startPrice",
                    "type": "uint256"
                },
                {
                    "internalType": "uint256",
                    "name": "startAt",
                    "type": "uint256"
                },
                {
                    "internalType": "uint256",
                    "name": "endAt",
                    "type": "uint256"
                },
                {
                    "internalType": "uint256",
                    "name": "tokenId",
                    "type": "uint256"
                },
                {
                    "internalType": "address payable",
                    "name": "seller",
                    "type": "address"
                },
                {
                    "internalType": "address",
                    "name": "topBidder",
                    "type": "address"
                },
                {
                    "internalType": "uint256",
                    "name": "topBid",
                    "type": "uint256"
                },
                {
                    "internalType": "enum Auction.StatusType",
                    "name": "status",
                    "type": "uint8"
                },
                {
                    "internalType": "contract IERC721",
                    "name": "nft",
                    "type": "address"
                }
            ],
            "stateMutability": "view",
            "type": "function"
        },
        {
            "inputs": [],
            "name": "minBidUnit",
            "outputs": [
                {
                    "internalType": "uint256",
                    "name": "",
                    "type": "uint256"
                }
            ],
            "stateMutability": "view",
            "type": "function"
        },
        {
            "inputs": [
                {
                    "internalType": "address",
                    "name": "",
                    "type": "address"
                },
                {
                    "internalType": "uint256",
                    "name": "",
                    "type": "uint256"
                }
            ],
            "name": "nftToItemId",
            "outputs": [
                {
                    "internalType": "uint256",
                    "name": "",
                    "type": "uint256"
                }
            ],
            "stateMutability": "view",
            "type": "function"
        },
        {
            "inputs": [],
            "name": "owner",
            "outputs": [
                {
                    "internalType": "address",
                    "name": "",
                    "type": "address"
                }
            ],
            "stateMutability": "view",
            "type": "function"
        },
        {
            "inputs": [
                {
                    "internalType": "uint256",
                    "name": "",
                    "type": "uint256"
                },
                {
                    "internalType": "address",
                    "name": "",
                    "type": "address"
                }
            ],
            "name": "pendingBids",
            "outputs": [
                {
                    "internalType": "uint256",
                    "name": "",
                    "type": "uint256"
                }
            ],
            "stateMutability": "view",
            "type": "function"
        },
        {
            "inputs": [
                {
                    "internalType": "uint256",
                    "name": "_priceWithFee",
                    "type": "uint256"
                }
            ],
            "name": "removeFee",
            "outputs": [
                {
                    "internalType": "uint256",
                    "name": "",
                    "type": "uint256"
                }
            ],
            "stateMutability": "view",
            "type": "function"
        },
        {
            "inputs": [],
            "name": "renounceOwnership",
            "outputs": [],
            "stateMutability": "nonpayable",
            "type": "function"
        },
        {
            "inputs": [
                {
                    "internalType": "address",
                    "name": "newOwner",
                    "type": "address"
                }
            ],
            "name": "transferOwnership",
            "outputs": [],
            "stateMutability": "nonpayable",
            "type": "function"
        },
        {
            "inputs": [
                {
                    "internalType": "uint256",
                    "name": "_itemId",
                    "type": "uint256"
                }
            ],
            "name": "withdraw",
            "outputs": [],
            "stateMutability": "nonpayable",
            "type": "function"
        }
    ],
    "bytecode": "0x60c06040523480156200001157600080fd5b506040516200464438038062004644833981810160405281019062000037919062000197565b60016000819055506200005f62000053620000b260201b60201c565b620000ba60201b60201c565b8060a081815250503373ffffffffffffffffffffffffffffffffffffffff1660808173ffffffffffffffffffffffffffffffffffffffff1660601b815250506509184e72a00060048190555050620001e7565b600033905090565b6000600160009054906101000a900473ffffffffffffffffffffffffffffffffffffffff16905081600160006101000a81548173ffffffffffffffffffffffffffffffffffffffff021916908373ffffffffffffffffffffffffffffffffffffffff1602179055508173ffffffffffffffffffffffffffffffffffffffff168173ffffffffffffffffffffffffffffffffffffffff167f8be0079c531659141344cd1fd0a4f28419497f9722a3daafe3b4186f6b6457e060405160405180910390a35050565b6000815190506200019181620001cd565b92915050565b600060208284031215620001aa57600080fd5b6000620001ba8482850162000180565b91505092915050565b6000819050919050565b620001d881620001c3565b8114620001e457600080fd5b50565b60805160601c60a05161440362000241600039600081816107d301528181611951015281816119a001528181611ad40152818161256a015261276401526000818161099101528181611a14015261272801526144036000f3fe60806040526004361061012a5760003560e01c8063715018a6116100ab578063bfb231d21161006f578063bfb231d2146103d3578063e373eeac14610419578063f152b5bd14610442578063f2fde38b1461046b578063f438f01914610494578063f8cd207a146104bd5761012a565b8063715018a6146102fe578063796b89b9146103155780637fd6f15c146103405780638024656a1461036b5780638da5cb5b146103a85761012a565b806355c2c7c2116100f257806355c2c7c2146102035780635dcd7d9e14610240578063649b998d1461027d57806365e17c9d146102a85780636d6d00ed146102d35761012a565b80630ad245281461012f5780632e1a7d4d1461015857806340e58ee514610181578063454a2ab3146101aa578063499a2818146101c6575b600080fd5b34801561013b57600080fd5b5061015660048036038101906101519190613389565b6104fa565b005b34801561016457600080fd5b5061017f600480360381019061017a9190613389565b610d6a565b005b34801561018d57600080fd5b506101a860048036038101906101a39190613389565b610ff6565b005b6101c460048036038101906101bf9190613389565b611519565b005b3480156101d257600080fd5b506101ed60048036038101906101e89190613389565b61194d565b6040516101fa9190613add565b60405180910390f35b34801561020f57600080fd5b5061022a60048036038101906102259190613389565b61199a565b6040516102379190613add565b60405180910390f35b34801561024c57600080fd5b5061026760048036038101906102629190613324565b6119e7565b6040516102749190613add565b60405180910390f35b34801561028957600080fd5b50610292611a0c565b60405161029f9190613add565b60405180910390f35b3480156102b457600080fd5b506102bd611a12565b6040516102ca91906137b4565b60405180910390f35b3480156102df57600080fd5b506102e8611a36565b6040516102f59190613add565b60405180910390f35b34801561030a57600080fd5b50610313611a42565b005b34801561032157600080fd5b5061032a611aca565b6040516103379190613add565b60405180910390f35b34801561034c57600080fd5b50610355611ad2565b6040516103629190613add565b60405180910390f35b34801561037757600080fd5b50610392600480360381019061038d91906133b2565b611af6565b60405161039f9190613add565b60405180910390f35b3480156103b457600080fd5b506103bd611b1b565b6040516103ca9190613799565b60405180910390f35b3480156103df57600080fd5b506103fa60048036038101906103f59190613389565b611b45565b6040516104109a99989796959493929190613b73565b60405180910390f35b34801561042557600080fd5b50610440600480360381019061043b91906133ee565b611c06565b005b34801561044e57600080fd5b5061046960048036038101906104649190613389565b61236c565b005b34801561047757600080fd5b50610492600480360381019061048d91906132d2565b612b3b565b005b3480156104a057600080fd5b506104bb60048036038101906104b69190613389565b612c33565b005b3480156104c957600080fd5b506104e460048036038101906104df91906133b2565b61311c565b6040516104f19190613add565b60405180910390f35b60026000541415610540576040517f08c379a000000000000000000000000000000000000000000000000000000000815260040161053790613a9d565b60405180910390fd5b6002600081905550806005600082815260200190815260200160002060050160009054906101000a900473ffffffffffffffffffffffffffffffffffffffff1673ffffffffffffffffffffffffffffffffffffffff163373ffffffffffffffffffffffffffffffffffffffff16148061061a57506005600082815260200190815260200160002060060160009054906101000a900473ffffffffffffffffffffffffffffffffffffffff1673ffffffffffffffffffffffffffffffffffffffff163373ffffffffffffffffffffffffffffffffffffffff16145b610659576040517f08c379a000000000000000000000000000000000000000000000000000000000815260040161065090613a7d565b60405180910390fd5b6000600560008481526020019081526020016000209050600060028111156106aa577f4e487b7100000000000000000000000000000000000000000000000000000000600052602160045260246000fd5b8160080160009054906101000a900460ff1660028111156106f4577f4e487b7100000000000000000000000000000000000000000000000000000000600052602160045260246000fd5b14610734576040517f08c379a000000000000000000000000000000000000000000000000000000000815260040161072b90613a1d565b60405180910390fd5b8060030154421161077a576040517f08c379a00000000000000000000000000000000000000000000000000000000081526004016107719061393d565b60405180910390fd5b60018160080160006101000a81548160ff021916908360028111156107c8577f4e487b7100000000000000000000000000000000000000000000000000000000600052602160045260246000fd5b0217905550600060647f000000000000000000000000000000000000000000000000000000000000000083600701546108019190613ca7565b61080b9190613c76565b9050600073ffffffffffffffffffffffffffffffffffffffff168260060160009054906101000a900473ffffffffffffffffffffffffffffffffffffffff1673ffffffffffffffffffffffffffffffffffffffff1614610a75578160080160019054906101000a900473ffffffffffffffffffffffffffffffffffffffff1673ffffffffffffffffffffffffffffffffffffffff166323b872dd308460060160009054906101000a900473ffffffffffffffffffffffffffffffffffffffff1685600401546040518463ffffffff1660e01b81526004016108ee93929190613806565b600060405180830381600087803b15801561090857600080fd5b505af115801561091c573d6000803e3d6000fd5b505050508160050160009054906101000a900473ffffffffffffffffffffffffffffffffffffffff1673ffffffffffffffffffffffffffffffffffffffff166108fc83600701549081150290604051600060405180830381858888f1935050505015801561098e573d6000803e3d6000fd5b507f000000000000000000000000000000000000000000000000000000000000000073ffffffffffffffffffffffffffffffffffffffff166108fc829081150290604051600060405180830381858888f193505050501580156109f5573d6000803e3d6000fd5b5060006007600086815260200190815260200160002060008460060160009054906101000a900473ffffffffffffffffffffffffffffffffffffffff1673ffffffffffffffffffffffffffffffffffffffff1673ffffffffffffffffffffffffffffffffffffffff16815260200190815260200160002081905550610b31565b8160080160019054906101000a900473ffffffffffffffffffffffffffffffffffffffff1673ffffffffffffffffffffffffffffffffffffffff166323b872dd308460050160009054906101000a900473ffffffffffffffffffffffffffffffffffffffff1685600401546040518463ffffffff1660e01b8152600401610afe939291906137cf565b600060405180830381600087803b158015610b1857600080fd5b505af1158015610b2c573d6000803e3d6000fd5b505050505b6000600660008460080160019054906101000a900473ffffffffffffffffffffffffffffffffffffffff1673ffffffffffffffffffffffffffffffffffffffff1673ffffffffffffffffffffffffffffffffffffffff168152602001908152602001600020600084600401548152602001908152602001600020819055508160050160009054906101000a900473ffffffffffffffffffffffffffffffffffffffff1673ffffffffffffffffffffffffffffffffffffffff168260060160009054906101000a900473ffffffffffffffffffffffffffffffffffffffff1673ffffffffffffffffffffffffffffffffffffffff16857fddc333f763b4ab5bef1ea2fabcde5f21982ec0368c066641f85b432c15993154856007015485604051610c5b929190613b4a565b60405180910390a48160080160019054906101000a900473ffffffffffffffffffffffffffffffffffffffff16600260006101000a81548173ffffffffffffffffffffffffffffffffffffffff021916908373ffffffffffffffffffffffffffffffffffffffff160217905550600260009054906101000a900473ffffffffffffffffffffffffffffffffffffffff1673ffffffffffffffffffffffffffffffffffffffff1663a27b467d836004015460006040518363ffffffff1660e01b8152600401610d2a929190613b21565b600060405180830381600087803b158015610d4457600080fd5b505af1158015610d58573d6000803e3d6000fd5b50505050505050600160008190555050565b60026000541415610db0576040517f08c379a0000000000000000000000000000000000000000000000000000000008152600401610da790613a9d565b60405180910390fd5b600260008190555060006007600083815260200190815260200160002060003373ffffffffffffffffffffffffffffffffffffffff1673ffffffffffffffffffffffffffffffffffffffff1681526020019081526020016000205490506000811415610e51576040517f08c379a0000000000000000000000000000000000000000000000000000000008152600401610e489061385d565b60405180910390fd5b6005600083815260200190815260200160002060060160009054906101000a900473ffffffffffffffffffffffffffffffffffffffff1673ffffffffffffffffffffffffffffffffffffffff163373ffffffffffffffffffffffffffffffffffffffff161415610ef6576040517f08c379a0000000000000000000000000000000000000000000000000000000008152600401610eed906138bd565b60405180910390fd5b60006007600084815260200190815260200160002060003373ffffffffffffffffffffffffffffffffffffffff1673ffffffffffffffffffffffffffffffffffffffff168152602001908152602001600020819055503373ffffffffffffffffffffffffffffffffffffffff166108fc610f6f8361199a565b9081150290604051600060405180830381858888f19350505050158015610f9a573d6000803e3d6000fd5b503373ffffffffffffffffffffffffffffffffffffffff16827f9da6493a92039daf47d1f2d7a782299c5994c6323eb1e972f69c432089ec52bf83604051610fe29190613add565b60405180910390a350600160008190555050565b6002600054141561103c576040517f08c379a000000000000000000000000000000000000000000000000000000000815260040161103390613a9d565b60405180910390fd5b600260008190555060006005600083815260200190815260200160002090508060050160009054906101000a900473ffffffffffffffffffffffffffffffffffffffff1673ffffffffffffffffffffffffffffffffffffffff163373ffffffffffffffffffffffffffffffffffffffff16146110ed576040517f08c379a00000000000000000000000000000000000000000000000000000000081526004016110e4906139fd565b60405180910390fd5b60006002811115611127577f4e487b7100000000000000000000000000000000000000000000000000000000600052602160045260246000fd5b8160080160009054906101000a900460ff166002811115611171577f4e487b7100000000000000000000000000000000000000000000000000000000600052602160045260246000fd5b146111b1576040517f08c379a00000000000000000000000000000000000000000000000000000000081526004016111a890613a5d565b60405180910390fd5b600073ffffffffffffffffffffffffffffffffffffffff168160060160009054906101000a900473ffffffffffffffffffffffffffffffffffffffff1673ffffffffffffffffffffffffffffffffffffffff1614611244576040517f08c379a000000000000000000000000000000000000000000000000000000000815260040161123b9061383d565b60405180910390fd5b60028160080160006101000a81548160ff02191690836002811115611292577f4e487b7100000000000000000000000000000000000000000000000000000000600052602160045260246000fd5b02179055508060080160019054906101000a900473ffffffffffffffffffffffffffffffffffffffff1673ffffffffffffffffffffffffffffffffffffffff166323b872dd308360050160009054906101000a900473ffffffffffffffffffffffffffffffffffffffff1684600401546040518463ffffffff1660e01b8152600401611320939291906137cf565b600060405180830381600087803b15801561133a57600080fd5b505af115801561134e573d6000803e3d6000fd5b505050506000600660008360080160019054906101000a900473ffffffffffffffffffffffffffffffffffffffff1673ffffffffffffffffffffffffffffffffffffffff1673ffffffffffffffffffffffffffffffffffffffff168152602001908152602001600020600083600401548152602001908152602001600020819055503373ffffffffffffffffffffffffffffffffffffffff16827f8dd3c361eb2366ff27c2db0eb07b9261f1d052570742ab8c9a0c326f37aa576d60405160405180910390a38060080160019054906101000a900473ffffffffffffffffffffffffffffffffffffffff16600260006101000a81548173ffffffffffffffffffffffffffffffffffffffff021916908373ffffffffffffffffffffffffffffffffffffffff160217905550600260009054906101000a900473ffffffffffffffffffffffffffffffffffffffff1673ffffffffffffffffffffffffffffffffffffffff1663a27b467d826004015460006040518363ffffffff1660e01b81526004016114db929190613b21565b600060405180830381600087803b1580156114f557600080fd5b505af1158015611509573d6000803e3d6000fd5b5050505050600160008190555050565b6002600054141561155f576040517f08c379a000000000000000000000000000000000000000000000000000000000815260040161155690613a9d565b60405180910390fd5b600260008190555060006004546115753461194d565b61157f9190613dec565b146115bf576040517f08c379a00000000000000000000000000000000000000000000000000000000081526004016115b690613a3d565b60405180910390fd5b6115c96003613177565b81111561160b576040517f08c379a00000000000000000000000000000000000000000000000000000000081526004016116029061395d565b60405180910390fd5b600060056000838152602001908152602001600020905080600301544210611668576040517f08c379a000000000000000000000000000000000000000000000000000000000815260040161165f90613abd565b60405180910390fd5b600060028111156116a2577f4e487b7100000000000000000000000000000000000000000000000000000000600052602160045260246000fd5b8160080160009054906101000a900460ff1660028111156116ec577f4e487b7100000000000000000000000000000000000000000000000000000000600052602160045260246000fd5b1461172c576040517f08c379a00000000000000000000000000000000000000000000000000000000081526004016117239061397d565b60405180910390fd5b600454816007015461173e9190613c20565b6007600084815260200190815260200160002060003373ffffffffffffffffffffffffffffffffffffffff1673ffffffffffffffffffffffffffffffffffffffff168152602001908152602001600020546117983461194d565b6117a29190613c20565b10156117e3576040517f08c379a00000000000000000000000000000000000000000000000000000000081526004016117da906139dd565b60405180910390fd5b6117ec3461194d565b6007600084815260200190815260200160002060003373ffffffffffffffffffffffffffffffffffffffff1673ffffffffffffffffffffffffffffffffffffffff168152602001908152602001600020600082825461184b9190613c20565b925050819055506007600083815260200190815260200160002060003373ffffffffffffffffffffffffffffffffffffffff1673ffffffffffffffffffffffffffffffffffffffff168152602001908152602001600020548160070181905550338160060160006101000a81548173ffffffffffffffffffffffffffffffffffffffff021916908373ffffffffffffffffffffffffffffffffffffffff1602179055503373ffffffffffffffffffffffffffffffffffffffff16827fdcd726e11f8b5e160f00290f0fe3a1abb547474e53a8e7a8f49a85e7b1ca319983600701546040516119399190613add565b60405180910390a350600160008190555050565b60007f0000000000000000000000000000000000000000000000000000000000000000606461197c9190613c20565b6064836119899190613ca7565b6119939190613c76565b9050919050565b600060647f000000000000000000000000000000000000000000000000000000000000000060646119cb9190613c20565b836119d69190613ca7565b6119e09190613c76565b9050919050565b6006602052816000526040600020602052806000526040600020600091509150505481565b60045481565b7f000000000000000000000000000000000000000000000000000000000000000081565b60038060000154905081565b611a4a613185565b73ffffffffffffffffffffffffffffffffffffffff16611a68611b1b565b73ffffffffffffffffffffffffffffffffffffffff1614611abe576040517f08c379a0000000000000000000000000000000000000000000000000000000008152600401611ab5906139bd565b60405180910390fd5b611ac8600061318d565b565b600042905090565b7f000000000000000000000000000000000000000000000000000000000000000081565b6007602052816000526040600020602052806000526040600020600091509150505481565b6000600160009054906101000a900473ffffffffffffffffffffffffffffffffffffffff16905090565b60056020528060005260406000206000915090508060000154908060010154908060020154908060030154908060040154908060050160009054906101000a900473ffffffffffffffffffffffffffffffffffffffff16908060060160009054906101000a900473ffffffffffffffffffffffffffffffffffffffff16908060070154908060080160009054906101000a900460ff16908060080160019054906101000a900473ffffffffffffffffffffffffffffffffffffffff1690508a565b60026000541415611c4c576040517f08c379a0000000000000000000000000000000000000000000000000000000008152600401611c4390613a9d565b60405180910390fd5b600260008190555081818173ffffffffffffffffffffffffffffffffffffffff16636352211e826040518263ffffffff1660e01b8152600401611c8f9190613add565b60206040518083038186803b158015611ca757600080fd5b505afa158015611cbb573d6000803e3d6000fd5b505050506040513d601f19601f82011682018060405250810190611cdf91906132fb565b73ffffffffffffffffffffffffffffffffffffffff163373ffffffffffffffffffffffffffffffffffffffff1614611d4c576040517f08c379a0000000000000000000000000000000000000000000000000000000008152600401611d43906138fd565b60405180910390fd5b600060045487611d5c9190613dec565b14611d9c576040517f08c379a0000000000000000000000000000000000000000000000000000000008152600401611d939061389d565b60405180910390fd5b600454861015611de1576040517f08c379a0000000000000000000000000000000000000000000000000000000008152600401611dd89061399d565b60405180910390fd5b844210611e23576040517f08c379a0000000000000000000000000000000000000000000000000000000008152600401611e1a906138dd565b60405180910390fd5b83600260006101000a81548173ffffffffffffffffffffffffffffffffffffffff021916908373ffffffffffffffffffffffffffffffffffffffff160217905550600260009054906101000a900473ffffffffffffffffffffffffffffffffffffffff1673ffffffffffffffffffffffffffffffffffffffff166305dcd1ff846040518263ffffffff1660e01b8152600401611ebf9190613add565b60206040518083038186803b158015611ed757600080fd5b505afa158015611eeb573d6000803e3d6000fd5b505050506040513d601f19601f82011682018060405250810190611f0f9190613360565b15611f4f576040517f08c379a0000000000000000000000000000000000000000000000000000000008152600401611f469061391d565b60405180910390fd5b611f596003613253565b6000611f656003613177565b90506040518061014001604052808281526020018881526020014281526020016103e888611f939190613c76565b81526020018581526020013373ffffffffffffffffffffffffffffffffffffffff168152602001600073ffffffffffffffffffffffffffffffffffffffff16815260200188815260200160006002811115612017577f4e487b7100000000000000000000000000000000000000000000000000000000600052602160045260246000fd5b81526020018673ffffffffffffffffffffffffffffffffffffffff1681525060056000838152602001908152602001600020600082015181600001556020820151816001015560408201518160020155606082015181600301556080820151816004015560a08201518160050160006101000a81548173ffffffffffffffffffffffffffffffffffffffff021916908373ffffffffffffffffffffffffffffffffffffffff16021790555060c08201518160060160006101000a81548173ffffffffffffffffffffffffffffffffffffffff021916908373ffffffffffffffffffffffffffffffffffffffff16021790555060e082015181600701556101008201518160080160006101000a81548160ff02191690836002811115612165577f4e487b7100000000000000000000000000000000000000000000000000000000600052602160045260246000fd5b02179055506101208201518160080160016101000a81548173ffffffffffffffffffffffffffffffffffffffff021916908373ffffffffffffffffffffffffffffffffffffffff16021790555090505080600660008773ffffffffffffffffffffffffffffffffffffffff1673ffffffffffffffffffffffffffffffffffffffff1681526020019081526020016000206000868152602001908152602001600020819055508473ffffffffffffffffffffffffffffffffffffffff166323b872dd3330876040518463ffffffff1660e01b815260040161224793929190613806565b600060405180830381600087803b15801561226157600080fd5b505af1158015612275573d6000803e3d6000fd5b505050503373ffffffffffffffffffffffffffffffffffffffff1684827f54346fc0e5c9d95e1fd90238bb8ce8c608de8bb4845a2de76f31c58428a18c808a896040516122c3929190613af8565b60405180910390a4600260009054906101000a900473ffffffffffffffffffffffffffffffffffffffff1673ffffffffffffffffffffffffffffffffffffffff1663a27b467d8560016040518363ffffffff1660e01b8152600401612329929190613b21565b600060405180830381600087803b15801561234357600080fd5b505af1158015612357573d6000803e3d6000fd5b50505050505050600160008190555050505050565b600260005414156123b2576040517f08c379a00000000000000000000000000000000000000000000000000000000081526004016123a990613a9d565b60405180910390fd5b60026000819055506123c2613185565b73ffffffffffffffffffffffffffffffffffffffff166123e0611b1b565b73ffffffffffffffffffffffffffffffffffffffff1614612436576040517f08c379a000000000000000000000000000000000000000000000000000000000815260040161242d906139bd565b60405180910390fd5b600060056000838152602001908152602001600020905060006002811115612487577f4e487b7100000000000000000000000000000000000000000000000000000000600052602160045260246000fd5b8160080160009054906101000a900460ff1660028111156124d1577f4e487b7100000000000000000000000000000000000000000000000000000000600052602160045260246000fd5b14612511576040517f08c379a000000000000000000000000000000000000000000000000000000000815260040161250890613a1d565b60405180910390fd5b60018160080160006101000a81548160ff0219169083600281111561255f577f4e487b7100000000000000000000000000000000000000000000000000000000600052602160045260246000fd5b0217905550600060647f000000000000000000000000000000000000000000000000000000000000000083600701546125989190613ca7565b6125a29190613c76565b9050600073ffffffffffffffffffffffffffffffffffffffff168260060160009054906101000a900473ffffffffffffffffffffffffffffffffffffffff1673ffffffffffffffffffffffffffffffffffffffff1614612847578160080160019054906101000a900473ffffffffffffffffffffffffffffffffffffffff1673ffffffffffffffffffffffffffffffffffffffff166342842e0e308460060160009054906101000a900473ffffffffffffffffffffffffffffffffffffffff1685600401546040518463ffffffff1660e01b815260040161268593929190613806565b600060405180830381600087803b15801561269f57600080fd5b505af11580156126b3573d6000803e3d6000fd5b505050508160050160009054906101000a900473ffffffffffffffffffffffffffffffffffffffff1673ffffffffffffffffffffffffffffffffffffffff166108fc83600701549081150290604051600060405180830381858888f19350505050158015612725573d6000803e3d6000fd5b507f000000000000000000000000000000000000000000000000000000000000000073ffffffffffffffffffffffffffffffffffffffff166108fc60647f000000000000000000000000000000000000000000000000000000000000000085600701546127929190613ca7565b61279c9190613c76565b9081150290604051600060405180830381858888f193505050501580156127c7573d6000803e3d6000fd5b5060006007600085815260200190815260200160002060008460060160009054906101000a900473ffffffffffffffffffffffffffffffffffffffff1673ffffffffffffffffffffffffffffffffffffffff1673ffffffffffffffffffffffffffffffffffffffff16815260200190815260200160002081905550612903565b8160080160019054906101000a900473ffffffffffffffffffffffffffffffffffffffff1673ffffffffffffffffffffffffffffffffffffffff166342842e0e308460050160009054906101000a900473ffffffffffffffffffffffffffffffffffffffff1685600401546040518463ffffffff1660e01b81526004016128d0939291906137cf565b600060405180830381600087803b1580156128ea57600080fd5b505af11580156128fe573d6000803e3d6000fd5b505050505b6000600660008460080160019054906101000a900473ffffffffffffffffffffffffffffffffffffffff1673ffffffffffffffffffffffffffffffffffffffff1673ffffffffffffffffffffffffffffffffffffffff168152602001908152602001600020600084600401548152602001908152602001600020819055508160050160009054906101000a900473ffffffffffffffffffffffffffffffffffffffff1673ffffffffffffffffffffffffffffffffffffffff168260060160009054906101000a900473ffffffffffffffffffffffffffffffffffffffff1673ffffffffffffffffffffffffffffffffffffffff16847fddc333f763b4ab5bef1ea2fabcde5f21982ec0368c066641f85b432c15993154856007015485604051612a2d929190613b4a565b60405180910390a48160080160019054906101000a900473ffffffffffffffffffffffffffffffffffffffff16600260006101000a81548173ffffffffffffffffffffffffffffffffffffffff021916908373ffffffffffffffffffffffffffffffffffffffff160217905550600260009054906101000a900473ffffffffffffffffffffffffffffffffffffffff1673ffffffffffffffffffffffffffffffffffffffff1663a27b467d836004015460006040518363ffffffff1660e01b8152600401612afc929190613b21565b600060405180830381600087803b158015612b1657600080fd5b505af1158015612b2a573d6000803e3d6000fd5b505050505050600160008190555050565b612b43613185565b73ffffffffffffffffffffffffffffffffffffffff16612b61611b1b565b73ffffffffffffffffffffffffffffffffffffffff1614612bb7576040517f08c379a0000000000000000000000000000000000000000000000000000000008152600401612bae906139bd565b60405180910390fd5b600073ffffffffffffffffffffffffffffffffffffffff168173ffffffffffffffffffffffffffffffffffffffff161415612c27576040517f08c379a0000000000000000000000000000000000000000000000000000000008152600401612c1e9061387d565b60405180910390fd5b612c308161318d565b50565b60026000541415612c79576040517f08c379a0000000000000000000000000000000000000000000000000000000008152600401612c7090613a9d565b60405180910390fd5b6002600081905550612c89613185565b73ffffffffffffffffffffffffffffffffffffffff16612ca7611b1b565b73ffffffffffffffffffffffffffffffffffffffff1614612cfd576040517f08c379a0000000000000000000000000000000000000000000000000000000008152600401612cf4906139bd565b60405180910390fd5b600060056000838152602001908152602001600020905060006002811115612d4e577f4e487b7100000000000000000000000000000000000000000000000000000000600052602160045260246000fd5b8160080160009054906101000a900460ff166002811115612d98577f4e487b7100000000000000000000000000000000000000000000000000000000600052602160045260246000fd5b14612dd8576040517f08c379a0000000000000000000000000000000000000000000000000000000008152600401612dcf90613a5d565b60405180910390fd5b60028160080160006101000a81548160ff02191690836002811115612e26577f4e487b7100000000000000000000000000000000000000000000000000000000600052602160045260246000fd5b02179055508060060160009054906101000a900473ffffffffffffffffffffffffffffffffffffffff1673ffffffffffffffffffffffffffffffffffffffff166108fc82600701549081150290604051600060405180830381858888f19350505050158015612e99573d6000803e3d6000fd5b508060080160019054906101000a900473ffffffffffffffffffffffffffffffffffffffff1673ffffffffffffffffffffffffffffffffffffffff166323b872dd308360050160009054906101000a900473ffffffffffffffffffffffffffffffffffffffff1684600401546040518463ffffffff1660e01b8152600401612f23939291906137cf565b600060405180830381600087803b158015612f3d57600080fd5b505af1158015612f51573d6000803e3d6000fd5b505050506000600660008360080160019054906101000a900473ffffffffffffffffffffffffffffffffffffffff1673ffffffffffffffffffffffffffffffffffffffff1673ffffffffffffffffffffffffffffffffffffffff168152602001908152602001600020600083600401548152602001908152602001600020819055503373ffffffffffffffffffffffffffffffffffffffff16827f8dd3c361eb2366ff27c2db0eb07b9261f1d052570742ab8c9a0c326f37aa576d60405160405180910390a38060080160019054906101000a900473ffffffffffffffffffffffffffffffffffffffff16600260006101000a81548173ffffffffffffffffffffffffffffffffffffffff021916908373ffffffffffffffffffffffffffffffffffffffff160217905550600260009054906101000a900473ffffffffffffffffffffffffffffffffffffffff1673ffffffffffffffffffffffffffffffffffffffff1663a27b467d826004015460006040518363ffffffff1660e01b81526004016130de929190613b21565b600060405180830381600087803b1580156130f857600080fd5b505af115801561310c573d6000803e3d6000fd5b5050505050600160008190555050565b60006007600084815260200190815260200160002060008373ffffffffffffffffffffffffffffffffffffffff1673ffffffffffffffffffffffffffffffffffffffff16815260200190815260200160002054905092915050565b600081600001549050919050565b600033905090565b6000600160009054906101000a900473ffffffffffffffffffffffffffffffffffffffff16905081600160006101000a81548173ffffffffffffffffffffffffffffffffffffffff021916908373ffffffffffffffffffffffffffffffffffffffff1602179055508173ffffffffffffffffffffffffffffffffffffffff168173ffffffffffffffffffffffffffffffffffffffff167f8be0079c531659141344cd1fd0a4f28419497f9722a3daafe3b4186f6b6457e060405160405180910390a35050565b6001816000016000828254019250508190555050565b60008135905061327881614371565b92915050565b60008151905061328d81614371565b92915050565b6000815190506132a281614388565b92915050565b6000813590506132b78161439f565b92915050565b6000813590506132cc816143b6565b92915050565b6000602082840312156132e457600080fd5b60006132f284828501613269565b91505092915050565b60006020828403121561330d57600080fd5b600061331b8482850161327e565b91505092915050565b6000806040838503121561333757600080fd5b600061334585828601613269565b9250506020613356858286016132bd565b9150509250929050565b60006020828403121561337257600080fd5b600061338084828501613293565b91505092915050565b60006020828403121561339b57600080fd5b60006133a9848285016132bd565b91505092915050565b600080604083850312156133c557600080fd5b60006133d3858286016132bd565b92505060206133e485828601613269565b9150509250929050565b6000806000806080858703121561340457600080fd5b6000613412878288016132bd565b9450506020613423878288016132bd565b9350506040613434878288016132a8565b9250506060613445878288016132bd565b91505092959194509250565b61345a81613d80565b82525050565b61346981613d13565b82525050565b61347881613d01565b82525050565b61348781613d25565b82525050565b61349681613d92565b82525050565b6134a581613db6565b82525050565b60006134b8602583613c0f565b91506134c382613eaa565b604082019050919050565b60006134db601383613c0f565b91506134e682613ef9565b602082019050919050565b60006134fe602683613c0f565b915061350982613f22565b604082019050919050565b6000613521602583613c0f565b915061352c82613f71565b604082019050919050565b6000613544601a83613c0f565b915061354f82613fc0565b602082019050919050565b6000613567602083613c0f565b915061357282613fe9565b602082019050919050565b600061358a601983613c0f565b915061359582614012565b602082019050919050565b60006135ad601583613c0f565b91506135b88261403b565b602082019050919050565b60006135d0602383613c0f565b91506135db82614064565b604082019050919050565b60006135f3601983613c0f565b91506135fe826140b3565b602082019050919050565b6000613616602283613c0f565b9150613621826140dc565b604082019050919050565b6000613639603483613c0f565b91506136448261412b565b604082019050919050565b600061365c602083613c0f565b91506136678261417a565b602082019050919050565b600061367f604b83613c0f565b915061368a826141a3565b606082019050919050565b60006136a2601983613c0f565b91506136ad82614218565b602082019050919050565b60006136c5601e83613c0f565b91506136d082614241565b602082019050919050565b60006136e8601d83613c0f565b91506136f38261426a565b602082019050919050565b600061370b601e83613c0f565b915061371682614293565b602082019050919050565b600061372e602583613c0f565b9150613739826142bc565b604082019050919050565b6000613751601f83613c0f565b915061375c8261430b565b602082019050919050565b6000613774601083613c0f565b915061377f82614334565b602082019050919050565b61379381613d76565b82525050565b60006020820190506137ae600083018461346f565b92915050565b60006020820190506137c96000830184613460565b92915050565b60006060820190506137e4600083018661346f565b6137f16020830185613451565b6137fe604083018461378a565b949350505050565b600060608201905061381b600083018661346f565b613828602083018561346f565b613835604083018461378a565b949350505050565b60006020820190508181036000830152613856816134ab565b9050919050565b60006020820190508181036000830152613876816134ce565b9050919050565b60006020820190508181036000830152613896816134f1565b9050919050565b600060208201905081810360008301526138b681613514565b9050919050565b600060208201905081810360008301526138d681613537565b9050919050565b600060208201905081810360008301526138f68161355a565b9050919050565b600060208201905081810360008301526139168161357d565b9050919050565b60006020820190508181036000830152613936816135a0565b9050919050565b60006020820190508181036000830152613956816135c3565b9050919050565b60006020820190508181036000830152613976816135e6565b9050919050565b6000602082019050818103600083015261399681613609565b9050919050565b600060208201905081810360008301526139b68161362c565b9050919050565b600060208201905081810360008301526139d68161364f565b9050919050565b600060208201905081810360008301526139f681613672565b9050919050565b60006020820190508181036000830152613a1681613695565b9050919050565b60006020820190508181036000830152613a36816136b8565b9050919050565b60006020820190508181036000830152613a56816136db565b9050919050565b60006020820190508181036000830152613a76816136fe565b9050919050565b60006020820190508181036000830152613a9681613721565b9050919050565b60006020820190508181036000830152613ab681613744565b9050919050565b60006020820190508181036000830152613ad681613767565b9050919050565b6000602082019050613af2600083018461378a565b92915050565b6000604082019050613b0d600083018561378a565b613b1a602083018461346f565b9392505050565b6000604082019050613b36600083018561378a565b613b43602083018461347e565b9392505050565b6000604082019050613b5f600083018561378a565b613b6c602083018461378a565b9392505050565b600061014082019050613b89600083018d61378a565b613b96602083018c61378a565b613ba3604083018b61378a565b613bb0606083018a61378a565b613bbd608083018961378a565b613bca60a0830188613460565b613bd760c083018761346f565b613be460e083018661378a565b613bf261010083018561349c565b613c0061012083018461348d565b9b9a5050505050505050505050565b600082825260208201905092915050565b6000613c2b82613d76565b9150613c3683613d76565b9250827fffffffffffffffffffffffffffffffffffffffffffffffffffffffffffffffff03821115613c6b57613c6a613e1d565b5b828201905092915050565b6000613c8182613d76565b9150613c8c83613d76565b925082613c9c57613c9b613e4c565b5b828204905092915050565b6000613cb282613d76565b9150613cbd83613d76565b9250817fffffffffffffffffffffffffffffffffffffffffffffffffffffffffffffffff0483118215151615613cf657613cf5613e1d565b5b828202905092915050565b6000613d0c82613d56565b9050919050565b6000613d1e82613d56565b9050919050565b60008115159050919050565b6000613d3c82613d01565b9050919050565b6000819050613d518261435d565b919050565b600073ffffffffffffffffffffffffffffffffffffffff82169050919050565b6000819050919050565b6000613d8b82613dc8565b9050919050565b6000613d9d82613da4565b9050919050565b6000613daf82613d56565b9050919050565b6000613dc182613d43565b9050919050565b6000613dd382613dda565b9050919050565b6000613de582613d56565b9050919050565b6000613df782613d76565b9150613e0283613d76565b925082613e1257613e11613e4c565b5b828206905092915050565b7f4e487b7100000000000000000000000000000000000000000000000000000000600052601160045260246000fd5b7f4e487b7100000000000000000000000000000000000000000000000000000000600052601260045260246000fd5b7f4e487b7100000000000000000000000000000000000000000000000000000000600052602160045260246000fd5b7f43616e6e6f742063616e63656c20746865206974656d2074686174206973206260008201527f696464656e000000000000000000000000000000000000000000000000000000602082015250565b7f4e6f7468696e6720746f20776974686472617700000000000000000000000000600082015250565b7f4f776e61626c653a206e6577206f776e657220697320746865207a65726f206160008201527f6464726573730000000000000000000000000000000000000000000000000000602082015250565b7f436865636b20746865206d696e696d756d20756e6974206f662073746172742060008201527f7072696365000000000000000000000000000000000000000000000000000000602082015250565b7f546f70206269646465722063616e6e6f74207769746864726177000000000000600082015250565b7f43616e6e6f742073657420656e642074696d6520617320706173742074696d65600082015250565b7f4f6e6c79206f776e65722063616e20656e726f6c6c206e667400000000000000600082015250565b7f54686973206973206f6e20746865206d61726b65740000000000000000000000600082015250565b7f4974206973206e6f74207468652074696d6520746f20636c6f7365206175637460008201527f696f6e0000000000000000000000000000000000000000000000000000000000602082015250565b7f54686973206974656d206973206e6f7420656e726f6c6c656400000000000000600082015250565b7f546869732061756374696f6e20697320656e646564206f722063616e63656c6c60008201527f6564000000000000000000000000000000000000000000000000000000000000602082015250565b7f53686f756c64207374617274207072696365206973206269676765722074686160008201527f6e206d696e696e756d2062696420616d6f756e74000000000000000000000000602082015250565b7f4f776e61626c653a2063616c6c6572206973206e6f7420746865206f776e6572600082015250565b7f42696420616d6f756e742073686f756c6420626520626967676572207468616e60008201527f207072657620746f7020626964206173206d756368206173206d696e756d756d60208201527f2062696420616d6f756e74000000000000000000000000000000000000000000604082015250565b7f4f6e6c792073656c6c65722063616e2063616e63656c20697400000000000000600082015250565b7f54686973206974656d206861736e2774206265656e20656e726f6c6c65640000600082015250565b7f436865636b20746865206d696e696d756d20756e6974206f6620626964000000600082015250565b7f497420697320616c72656164792073746172746564206f7220656e6465640000600082015250565b7f4f6e6c792073656c6c6572206f7220746f70206269646465722063616e20656e60008201527f642069742e000000000000000000000000000000000000000000000000000000602082015250565b7f5265656e7472616e637947756172643a207265656e7472616e742063616c6c00600082015250565b7f41756374696f6e20697320656e64656400000000000000000000000000000000600082015250565b6003811061436e5761436d613e7b565b5b50565b61437a81613d01565b811461438557600080fd5b50565b61439181613d25565b811461439c57600080fd5b50565b6143a881613d31565b81146143b357600080fd5b50565b6143bf81613d76565b81146143ca57600080fd5b5056fea2646970667358221220d856612ae977decbbdeb487a6f201c5a3432333fc26c29ee1e0ec79828e6593464736f6c63430008040033",
    "linkReferences": {},
    "deployedLinkReferences": {}
}