{
    "contractAddress": "0xfe4A8cb76741b722A896e4e774F30fC68F679757",
    "_format": "hh-sol-artifact-1",
    "contractName": "Auction",
    "sourceName": "contracts/Auction.sol",
    "abi": [
        {
            "inputs": [
                {
                    "internalType": "uint256",
                    "name": "_feePercent",
                    "type": "uint256"
                }
            ],
            "stateMutability": "nonpayable",
            "type": "constructor"
        },
        {
            "anonymous": false,
            "inputs": [
                {
                    "indexed": true,
                    "internalType": "uint256",
                    "name": "itemId",
                    "type": "uint256"
                },
                {
                    "indexed": true,
                    "internalType": "address",
                    "name": "topBidder",
                    "type": "address"
                },
                {
                    "indexed": false,
                    "internalType": "uint256",
                    "name": "topBid",
                    "type": "uint256"
                }
            ],
            "name": "Bid",
            "type": "event"
        },
        {
            "anonymous": false,
            "inputs": [
                {
                    "indexed": true,
                    "internalType": "uint256",
                    "name": "itemId",
                    "type": "uint256"
                },
                {
                    "indexed": true,
                    "internalType": "address",
                    "name": "seller",
                    "type": "address"
                }
            ],
            "name": "Cancel",
            "type": "event"
        },
        {
            "anonymous": false,
            "inputs": [
                {
                    "indexed": true,
                    "internalType": "uint256",
                    "name": "itemId",
                    "type": "uint256"
                },
                {
                    "indexed": true,
                    "internalType": "address",
                    "name": "buyer",
                    "type": "address"
                },
                {
                    "indexed": true,
                    "internalType": "address",
                    "name": "seller",
                    "type": "address"
                },
                {
                    "indexed": false,
                    "internalType": "uint256",
                    "name": "price",
                    "type": "uint256"
                },
                {
                    "indexed": false,
                    "internalType": "uint256",
                    "name": "fee",
                    "type": "uint256"
                }
            ],
            "name": "End",
            "type": "event"
        },
        {
            "anonymous": false,
            "inputs": [
                {
                    "indexed": true,
                    "internalType": "uint256",
                    "name": "itemId",
                    "type": "uint256"
                },
                {
                    "indexed": false,
                    "internalType": "uint256",
                    "name": "_startPrice",
                    "type": "uint256"
                },
                {
                    "indexed": false,
                    "internalType": "address",
                    "name": "_nft",
                    "type": "address"
                },
                {
                    "indexed": true,
                    "internalType": "uint256",
                    "name": "_tokenId",
                    "type": "uint256"
                },
                {
                    "indexed": true,
                    "internalType": "address",
                    "name": "seller",
                    "type": "address"
                }
            ],
            "name": "Enrolled",
            "type": "event"
        },
        {
            "anonymous": false,
            "inputs": [
                {
                    "indexed": true,
                    "internalType": "address",
                    "name": "previousOwner",
                    "type": "address"
                },
                {
                    "indexed": true,
                    "internalType": "address",
                    "name": "newOwner",
                    "type": "address"
                }
            ],
            "name": "OwnershipTransferred",
            "type": "event"
        },
        {
            "anonymous": false,
            "inputs": [
                {
                    "indexed": true,
                    "internalType": "uint256",
                    "name": "itemId",
                    "type": "uint256"
                },
                {
                    "indexed": true,
                    "internalType": "address",
                    "name": "bidder",
                    "type": "address"
                },
                {
                    "indexed": false,
                    "internalType": "uint256",
                    "name": "balance",
                    "type": "uint256"
                }
            ],
            "name": "Withdraw",
            "type": "event"
        },
        {
            "inputs": [
                {
                    "internalType": "uint256",
                    "name": "_itemId",
                    "type": "uint256"
                }
            ],
            "name": "bid",
            "outputs": [],
            "stateMutability": "payable",
            "type": "function"
        },
        {
            "inputs": [
                {
                    "internalType": "uint256",
                    "name": "_price",
                    "type": "uint256"
                }
            ],
            "name": "calPriceWithFee",
            "outputs": [
                {
                    "internalType": "uint256",
                    "name": "",
                    "type": "uint256"
                }
            ],
            "stateMutability": "view",
            "type": "function"
        },
        {
            "inputs": [
                {
                    "internalType": "uint256",
                    "name": "_itemId",
                    "type": "uint256"
                }
            ],
            "name": "cancel",
            "outputs": [],
            "stateMutability": "nonpayable",
            "type": "function"
        },
        {
            "inputs": [
                {
                    "internalType": "uint256",
                    "name": "_itemId",
                    "type": "uint256"
                }
            ],
            "name": "end",
            "outputs": [],
            "stateMutability": "nonpayable",
            "type": "function"
        },
        {
            "inputs": [
                {
                    "internalType": "uint256",
                    "name": "_startPrice",
                    "type": "uint256"
                },
                {
                    "internalType": "uint256",
                    "name": "_endAt",
                    "type": "uint256"
                },
                {
                    "internalType": "contract IERC721",
                    "name": "_nft",
                    "type": "address"
                },
                {
                    "internalType": "uint256",
                    "name": "_tokenId",
                    "type": "uint256"
                }
            ],
            "name": "enroll",
            "outputs": [],
            "stateMutability": "nonpayable",
            "type": "function"
        },
        {
            "inputs": [],
            "name": "feeAccount",
            "outputs": [
                {
                    "internalType": "address payable",
                    "name": "",
                    "type": "address"
                }
            ],
            "stateMutability": "view",
            "type": "function"
        },
        {
            "inputs": [],
            "name": "feePercent",
            "outputs": [
                {
                    "internalType": "uint256",
                    "name": "",
                    "type": "uint256"
                }
            ],
            "stateMutability": "view",
            "type": "function"
        },
        {
            "inputs": [
                {
                    "internalType": "uint256",
                    "name": "_itemId",
                    "type": "uint256"
                }
            ],
            "name": "forceCancel",
            "outputs": [],
            "stateMutability": "nonpayable",
            "type": "function"
        },
        {
            "inputs": [
                {
                    "internalType": "uint256",
                    "name": "_itemId",
                    "type": "uint256"
                }
            ],
            "name": "forceEnd",
            "outputs": [],
            "stateMutability": "nonpayable",
            "type": "function"
        },
        {
            "inputs": [],
            "name": "getBlockTimestamp",
            "outputs": [
                {
                    "internalType": "uint256",
                    "name": "",
                    "type": "uint256"
                }
            ],
            "stateMutability": "view",
            "type": "function"
        },
        {
            "inputs": [
                {
                    "internalType": "address",
                    "name": "_nft",
                    "type": "address"
                },
                {
                    "internalType": "uint256",
                    "name": "_tokenId",
                    "type": "uint256"
                }
            ],
            "name": "getNftToItemId",
            "outputs": [
                {
                    "internalType": "uint256",
                    "name": "",
                    "type": "uint256"
                }
            ],
            "stateMutability": "view",
            "type": "function"
        },
        {
            "inputs": [
                {
                    "internalType": "uint256",
                    "name": "_itemId",
                    "type": "uint256"
                },
                {
                    "internalType": "address",
                    "name": "_addr",
                    "type": "address"
                }
            ],
            "name": "getPendingBids",
            "outputs": [
                {
                    "internalType": "uint256",
                    "name": "",
                    "type": "uint256"
                }
            ],
            "stateMutability": "view",
            "type": "function"
        },
        {
            "inputs": [],
            "name": "itemCounter",
            "outputs": [
                {
                    "internalType": "uint256",
                    "name": "_value",
                    "type": "uint256"
                }
            ],
            "stateMutability": "view",
            "type": "function"
        },
        {
            "inputs": [
                {
                    "internalType": "uint256",
                    "name": "",
                    "type": "uint256"
                }
            ],
            "name": "items",
            "outputs": [
                {
                    "internalType": "uint256",
                    "name": "itemId",
                    "type": "uint256"
                },
                {
                    "internalType": "uint256",
                    "name": "startPrice",
                    "type": "uint256"
                },
                {
                    "internalType": "uint256",
                    "name": "startAt",
                    "type": "uint256"
                },
                {
                    "internalType": "uint256",
                    "name": "endAt",
                    "type": "uint256"
                },
                {
                    "internalType": "uint256",
                    "name": "tokenId",
                    "type": "uint256"
                },
                {
                    "internalType": "address payable",
                    "name": "seller",
                    "type": "address"
                },
                {
                    "internalType": "address",
                    "name": "topBidder",
                    "type": "address"
                },
                {
                    "internalType": "uint256",
                    "name": "topBid",
                    "type": "uint256"
                },
                {
                    "internalType": "enum Auction.StatusType",
                    "name": "status",
                    "type": "uint8"
                },
                {
                    "internalType": "contract IERC721",
                    "name": "nft",
                    "type": "address"
                }
            ],
            "stateMutability": "view",
            "type": "function"
        },
        {
            "inputs": [],
            "name": "minBidUnit",
            "outputs": [
                {
                    "internalType": "uint256",
                    "name": "",
                    "type": "uint256"
                }
            ],
            "stateMutability": "view",
            "type": "function"
        },
        {
            "inputs": [
                {
                    "internalType": "address",
                    "name": "",
                    "type": "address"
                },
                {
                    "internalType": "uint256",
                    "name": "",
                    "type": "uint256"
                }
            ],
            "name": "nftToItemId",
            "outputs": [
                {
                    "internalType": "uint256",
                    "name": "",
                    "type": "uint256"
                }
            ],
            "stateMutability": "view",
            "type": "function"
        },
        {
            "inputs": [],
            "name": "owner",
            "outputs": [
                {
                    "internalType": "address",
                    "name": "",
                    "type": "address"
                }
            ],
            "stateMutability": "view",
            "type": "function"
        },
        {
            "inputs": [
                {
                    "internalType": "uint256",
                    "name": "",
                    "type": "uint256"
                },
                {
                    "internalType": "address",
                    "name": "",
                    "type": "address"
                }
            ],
            "name": "pendingBids",
            "outputs": [
                {
                    "internalType": "uint256",
                    "name": "",
                    "type": "uint256"
                }
            ],
            "stateMutability": "view",
            "type": "function"
        },
        {
            "inputs": [
                {
                    "internalType": "uint256",
                    "name": "_priceWithFee",
                    "type": "uint256"
                }
            ],
            "name": "removeFee",
            "outputs": [
                {
                    "internalType": "uint256",
                    "name": "",
                    "type": "uint256"
                }
            ],
            "stateMutability": "view",
            "type": "function"
        },
        {
            "inputs": [],
            "name": "renounceOwnership",
            "outputs": [],
            "stateMutability": "nonpayable",
            "type": "function"
        },
        {
            "inputs": [
                {
                    "internalType": "address",
                    "name": "newOwner",
                    "type": "address"
                }
            ],
            "name": "transferOwnership",
            "outputs": [],
            "stateMutability": "nonpayable",
            "type": "function"
        },
        {
            "inputs": [
                {
                    "internalType": "uint256",
                    "name": "_itemId",
                    "type": "uint256"
                }
            ],
            "name": "withdraw",
            "outputs": [],
            "stateMutability": "nonpayable",
            "type": "function"
        }
    ],
    "bytecode": "0x60c06040523480156200001157600080fd5b50604051620046e7380380620046e7833981810160405281019062000037919062000197565b60016000819055506200005f62000053620000b260201b60201c565b620000ba60201b60201c565b8060a081815250503373ffffffffffffffffffffffffffffffffffffffff1660808173ffffffffffffffffffffffffffffffffffffffff1660601b815250506509184e72a00060048190555050620001e7565b600033905090565b6000600160009054906101000a900473ffffffffffffffffffffffffffffffffffffffff16905081600160006101000a81548173ffffffffffffffffffffffffffffffffffffffff021916908373ffffffffffffffffffffffffffffffffffffffff1602179055508173ffffffffffffffffffffffffffffffffffffffff168173ffffffffffffffffffffffffffffffffffffffff167f8be0079c531659141344cd1fd0a4f28419497f9722a3daafe3b4186f6b6457e060405160405180910390a35050565b6000815190506200019181620001cd565b92915050565b600060208284031215620001aa57600080fd5b6000620001ba8482850162000180565b91505092915050565b6000819050919050565b620001d881620001c3565b8114620001e457600080fd5b50565b60805160601c60a0516144a6620002416000396000818161081b01528181611999015281816119e801528181611b1c0152818161260d01526128070152600081816109d901528181611a5c01526127cb01526144a66000f3fe6080604052600436106101355760003560e01c8063796b89b9116100ab578063d99919dd1161006f578063d99919dd14610424578063e373eeac14610461578063f152b5bd1461048a578063f2fde38b146104b3578063f438f019146104dc578063f8cd207a1461050557610135565b8063796b89b9146103205780637fd6f15c1461034b5780638024656a146103765780638da5cb5b146103b3578063bfb231d2146103de57610135565b806355c2c7c2116100fd57806355c2c7c21461020e5780635dcd7d9e1461024b578063649b998d1461028857806365e17c9d146102b35780636d6d00ed146102de578063715018a61461030957610135565b80630ad245281461013a5780632e1a7d4d1461016357806340e58ee51461018c578063454a2ab3146101b5578063499a2818146101d1575b600080fd5b34801561014657600080fd5b50610161600480360381019061015c919061342c565b610542565b005b34801561016f57600080fd5b5061018a6004803603810190610185919061342c565b610db2565b005b34801561019857600080fd5b506101b360048036038101906101ae919061342c565b61103e565b005b6101cf60048036038101906101ca919061342c565b611561565b005b3480156101dd57600080fd5b506101f860048036038101906101f3919061342c565b611995565b6040516102059190613b80565b60405180910390f35b34801561021a57600080fd5b506102356004803603810190610230919061342c565b6119e2565b6040516102429190613b80565b60405180910390f35b34801561025757600080fd5b50610272600480360381019061026d91906133c7565b611a2f565b60405161027f9190613b80565b60405180910390f35b34801561029457600080fd5b5061029d611a54565b6040516102aa9190613b80565b60405180910390f35b3480156102bf57600080fd5b506102c8611a5a565b6040516102d59190613857565b60405180910390f35b3480156102ea57600080fd5b506102f3611a7e565b6040516103009190613b80565b60405180910390f35b34801561031557600080fd5b5061031e611a8a565b005b34801561032c57600080fd5b50610335611b12565b6040516103429190613b80565b60405180910390f35b34801561035757600080fd5b50610360611b1a565b60405161036d9190613b80565b60405180910390f35b34801561038257600080fd5b5061039d60048036038101906103989190613455565b611b3e565b6040516103aa9190613b80565b60405180910390f35b3480156103bf57600080fd5b506103c8611b63565b6040516103d5919061383c565b60405180910390f35b3480156103ea57600080fd5b506104056004803603810190610400919061342c565b611b8d565b60405161041b9a99989796959493929190613c16565b60405180910390f35b34801561043057600080fd5b5061044b600480360381019061044691906133c7565b611c4e565b6040516104589190613b80565b60405180910390f35b34801561046d57600080fd5b5061048860048036038101906104839190613491565b611ca9565b005b34801561049657600080fd5b506104b160048036038101906104ac919061342c565b61240f565b005b3480156104bf57600080fd5b506104da60048036038101906104d59190613375565b612bde565b005b3480156104e857600080fd5b5061050360048036038101906104fe919061342c565b612cd6565b005b34801561051157600080fd5b5061052c60048036038101906105279190613455565b6131bf565b6040516105399190613b80565b60405180910390f35b60026000541415610588576040517f08c379a000000000000000000000000000000000000000000000000000000000815260040161057f90613b40565b60405180910390fd5b6002600081905550806005600082815260200190815260200160002060050160009054906101000a900473ffffffffffffffffffffffffffffffffffffffff1673ffffffffffffffffffffffffffffffffffffffff163373ffffffffffffffffffffffffffffffffffffffff16148061066257506005600082815260200190815260200160002060060160009054906101000a900473ffffffffffffffffffffffffffffffffffffffff1673ffffffffffffffffffffffffffffffffffffffff163373ffffffffffffffffffffffffffffffffffffffff16145b6106a1576040517f08c379a000000000000000000000000000000000000000000000000000000000815260040161069890613b20565b60405180910390fd5b6000600560008481526020019081526020016000209050600060028111156106f2577f4e487b7100000000000000000000000000000000000000000000000000000000600052602160045260246000fd5b8160080160009054906101000a900460ff16600281111561073c577f4e487b7100000000000000000000000000000000000000000000000000000000600052602160045260246000fd5b1461077c576040517f08c379a000000000000000000000000000000000000000000000000000000000815260040161077390613ac0565b60405180910390fd5b806003015442116107c2576040517f08c379a00000000000000000000000000000000000000000000000000000000081526004016107b9906139e0565b60405180910390fd5b60018160080160006101000a81548160ff02191690836002811115610810577f4e487b7100000000000000000000000000000000000000000000000000000000600052602160045260246000fd5b0217905550600060647f000000000000000000000000000000000000000000000000000000000000000083600701546108499190613d4a565b6108539190613d19565b9050600073ffffffffffffffffffffffffffffffffffffffff168260060160009054906101000a900473ffffffffffffffffffffffffffffffffffffffff1673ffffffffffffffffffffffffffffffffffffffff1614610abd578160080160019054906101000a900473ffffffffffffffffffffffffffffffffffffffff1673ffffffffffffffffffffffffffffffffffffffff166323b872dd308460060160009054906101000a900473ffffffffffffffffffffffffffffffffffffffff1685600401546040518463ffffffff1660e01b8152600401610936939291906138a9565b600060405180830381600087803b15801561095057600080fd5b505af1158015610964573d6000803e3d6000fd5b505050508160050160009054906101000a900473ffffffffffffffffffffffffffffffffffffffff1673ffffffffffffffffffffffffffffffffffffffff166108fc83600701549081150290604051600060405180830381858888f193505050501580156109d6573d6000803e3d6000fd5b507f000000000000000000000000000000000000000000000000000000000000000073ffffffffffffffffffffffffffffffffffffffff166108fc829081150290604051600060405180830381858888f19350505050158015610a3d573d6000803e3d6000fd5b5060006007600086815260200190815260200160002060008460060160009054906101000a900473ffffffffffffffffffffffffffffffffffffffff1673ffffffffffffffffffffffffffffffffffffffff1673ffffffffffffffffffffffffffffffffffffffff16815260200190815260200160002081905550610b79565b8160080160019054906101000a900473ffffffffffffffffffffffffffffffffffffffff1673ffffffffffffffffffffffffffffffffffffffff166323b872dd308460050160009054906101000a900473ffffffffffffffffffffffffffffffffffffffff1685600401546040518463ffffffff1660e01b8152600401610b4693929190613872565b600060405180830381600087803b158015610b6057600080fd5b505af1158015610b74573d6000803e3d6000fd5b505050505b6000600660008460080160019054906101000a900473ffffffffffffffffffffffffffffffffffffffff1673ffffffffffffffffffffffffffffffffffffffff1673ffffffffffffffffffffffffffffffffffffffff168152602001908152602001600020600084600401548152602001908152602001600020819055508160050160009054906101000a900473ffffffffffffffffffffffffffffffffffffffff1673ffffffffffffffffffffffffffffffffffffffff168260060160009054906101000a900473ffffffffffffffffffffffffffffffffffffffff1673ffffffffffffffffffffffffffffffffffffffff16857fddc333f763b4ab5bef1ea2fabcde5f21982ec0368c066641f85b432c15993154856007015485604051610ca3929190613bed565b60405180910390a48160080160019054906101000a900473ffffffffffffffffffffffffffffffffffffffff16600260006101000a81548173ffffffffffffffffffffffffffffffffffffffff021916908373ffffffffffffffffffffffffffffffffffffffff160217905550600260009054906101000a900473ffffffffffffffffffffffffffffffffffffffff1673ffffffffffffffffffffffffffffffffffffffff1663a27b467d836004015460006040518363ffffffff1660e01b8152600401610d72929190613bc4565b600060405180830381600087803b158015610d8c57600080fd5b505af1158015610da0573d6000803e3d6000fd5b50505050505050600160008190555050565b60026000541415610df8576040517f08c379a0000000000000000000000000000000000000000000000000000000008152600401610def90613b40565b60405180910390fd5b600260008190555060006007600083815260200190815260200160002060003373ffffffffffffffffffffffffffffffffffffffff1673ffffffffffffffffffffffffffffffffffffffff1681526020019081526020016000205490506000811415610e99576040517f08c379a0000000000000000000000000000000000000000000000000000000008152600401610e9090613900565b60405180910390fd5b6005600083815260200190815260200160002060060160009054906101000a900473ffffffffffffffffffffffffffffffffffffffff1673ffffffffffffffffffffffffffffffffffffffff163373ffffffffffffffffffffffffffffffffffffffff161415610f3e576040517f08c379a0000000000000000000000000000000000000000000000000000000008152600401610f3590613960565b60405180910390fd5b60006007600084815260200190815260200160002060003373ffffffffffffffffffffffffffffffffffffffff1673ffffffffffffffffffffffffffffffffffffffff168152602001908152602001600020819055503373ffffffffffffffffffffffffffffffffffffffff166108fc610fb7836119e2565b9081150290604051600060405180830381858888f19350505050158015610fe2573d6000803e3d6000fd5b503373ffffffffffffffffffffffffffffffffffffffff16827f9da6493a92039daf47d1f2d7a782299c5994c6323eb1e972f69c432089ec52bf8360405161102a9190613b80565b60405180910390a350600160008190555050565b60026000541415611084576040517f08c379a000000000000000000000000000000000000000000000000000000000815260040161107b90613b40565b60405180910390fd5b600260008190555060006005600083815260200190815260200160002090508060050160009054906101000a900473ffffffffffffffffffffffffffffffffffffffff1673ffffffffffffffffffffffffffffffffffffffff163373ffffffffffffffffffffffffffffffffffffffff1614611135576040517f08c379a000000000000000000000000000000000000000000000000000000000815260040161112c90613aa0565b60405180910390fd5b6000600281111561116f577f4e487b7100000000000000000000000000000000000000000000000000000000600052602160045260246000fd5b8160080160009054906101000a900460ff1660028111156111b9577f4e487b7100000000000000000000000000000000000000000000000000000000600052602160045260246000fd5b146111f9576040517f08c379a00000000000000000000000000000000000000000000000000000000081526004016111f090613b00565b60405180910390fd5b600073ffffffffffffffffffffffffffffffffffffffff168160060160009054906101000a900473ffffffffffffffffffffffffffffffffffffffff1673ffffffffffffffffffffffffffffffffffffffff161461128c576040517f08c379a0000000000000000000000000000000000000000000000000000000008152600401611283906138e0565b60405180910390fd5b60028160080160006101000a81548160ff021916908360028111156112da577f4e487b7100000000000000000000000000000000000000000000000000000000600052602160045260246000fd5b02179055508060080160019054906101000a900473ffffffffffffffffffffffffffffffffffffffff1673ffffffffffffffffffffffffffffffffffffffff166323b872dd308360050160009054906101000a900473ffffffffffffffffffffffffffffffffffffffff1684600401546040518463ffffffff1660e01b815260040161136893929190613872565b600060405180830381600087803b15801561138257600080fd5b505af1158015611396573d6000803e3d6000fd5b505050506000600660008360080160019054906101000a900473ffffffffffffffffffffffffffffffffffffffff1673ffffffffffffffffffffffffffffffffffffffff1673ffffffffffffffffffffffffffffffffffffffff168152602001908152602001600020600083600401548152602001908152602001600020819055503373ffffffffffffffffffffffffffffffffffffffff16827f8dd3c361eb2366ff27c2db0eb07b9261f1d052570742ab8c9a0c326f37aa576d60405160405180910390a38060080160019054906101000a900473ffffffffffffffffffffffffffffffffffffffff16600260006101000a81548173ffffffffffffffffffffffffffffffffffffffff021916908373ffffffffffffffffffffffffffffffffffffffff160217905550600260009054906101000a900473ffffffffffffffffffffffffffffffffffffffff1673ffffffffffffffffffffffffffffffffffffffff1663a27b467d826004015460006040518363ffffffff1660e01b8152600401611523929190613bc4565b600060405180830381600087803b15801561153d57600080fd5b505af1158015611551573d6000803e3d6000fd5b5050505050600160008190555050565b600260005414156115a7576040517f08c379a000000000000000000000000000000000000000000000000000000000815260040161159e90613b40565b60405180910390fd5b600260008190555060006004546115bd34611995565b6115c79190613e8f565b14611607576040517f08c379a00000000000000000000000000000000000000000000000000000000081526004016115fe90613ae0565b60405180910390fd5b611611600361321a565b811115611653576040517f08c379a000000000000000000000000000000000000000000000000000000000815260040161164a90613a00565b60405180910390fd5b6000600560008381526020019081526020016000209050806003015442106116b0576040517f08c379a00000000000000000000000000000000000000000000000000000000081526004016116a790613b60565b60405180910390fd5b600060028111156116ea577f4e487b7100000000000000000000000000000000000000000000000000000000600052602160045260246000fd5b8160080160009054906101000a900460ff166002811115611734577f4e487b7100000000000000000000000000000000000000000000000000000000600052602160045260246000fd5b14611774576040517f08c379a000000000000000000000000000000000000000000000000000000000815260040161176b90613a20565b60405180910390fd5b60045481600701546117869190613cc3565b6007600084815260200190815260200160002060003373ffffffffffffffffffffffffffffffffffffffff1673ffffffffffffffffffffffffffffffffffffffff168152602001908152602001600020546117e034611995565b6117ea9190613cc3565b101561182b576040517f08c379a000000000000000000000000000000000000000000000000000000000815260040161182290613a80565b60405180910390fd5b61183434611995565b6007600084815260200190815260200160002060003373ffffffffffffffffffffffffffffffffffffffff1673ffffffffffffffffffffffffffffffffffffffff16815260200190815260200160002060008282546118939190613cc3565b925050819055506007600083815260200190815260200160002060003373ffffffffffffffffffffffffffffffffffffffff1673ffffffffffffffffffffffffffffffffffffffff168152602001908152602001600020548160070181905550338160060160006101000a81548173ffffffffffffffffffffffffffffffffffffffff021916908373ffffffffffffffffffffffffffffffffffffffff1602179055503373ffffffffffffffffffffffffffffffffffffffff16827fdcd726e11f8b5e160f00290f0fe3a1abb547474e53a8e7a8f49a85e7b1ca319983600701546040516119819190613b80565b60405180910390a350600160008190555050565b60007f000000000000000000000000000000000000000000000000000000000000000060646119c49190613cc3565b6064836119d19190613d4a565b6119db9190613d19565b9050919050565b600060647f00000000000000000000000000000000000000000000000000000000000000006064611a139190613cc3565b83611a1e9190613d4a565b611a289190613d19565b9050919050565b6006602052816000526040600020602052806000526040600020600091509150505481565b60045481565b7f000000000000000000000000000000000000000000000000000000000000000081565b60038060000154905081565b611a92613228565b73ffffffffffffffffffffffffffffffffffffffff16611ab0611b63565b73ffffffffffffffffffffffffffffffffffffffff1614611b06576040517f08c379a0000000000000000000000000000000000000000000000000000000008152600401611afd90613a60565b60405180910390fd5b611b106000613230565b565b600042905090565b7f000000000000000000000000000000000000000000000000000000000000000081565b6007602052816000526040600020602052806000526040600020600091509150505481565b6000600160009054906101000a900473ffffffffffffffffffffffffffffffffffffffff16905090565b60056020528060005260406000206000915090508060000154908060010154908060020154908060030154908060040154908060050160009054906101000a900473ffffffffffffffffffffffffffffffffffffffff16908060060160009054906101000a900473ffffffffffffffffffffffffffffffffffffffff16908060070154908060080160009054906101000a900460ff16908060080160019054906101000a900473ffffffffffffffffffffffffffffffffffffffff1690508a565b6000600660008473ffffffffffffffffffffffffffffffffffffffff1673ffffffffffffffffffffffffffffffffffffffff168152602001908152602001600020600083815260200190815260200160002054905092915050565b60026000541415611cef576040517f08c379a0000000000000000000000000000000000000000000000000000000008152600401611ce690613b40565b60405180910390fd5b600260008190555081818173ffffffffffffffffffffffffffffffffffffffff16636352211e826040518263ffffffff1660e01b8152600401611d329190613b80565b60206040518083038186803b158015611d4a57600080fd5b505afa158015611d5e573d6000803e3d6000fd5b505050506040513d601f19601f82011682018060405250810190611d82919061339e565b73ffffffffffffffffffffffffffffffffffffffff163373ffffffffffffffffffffffffffffffffffffffff1614611def576040517f08c379a0000000000000000000000000000000000000000000000000000000008152600401611de6906139a0565b60405180910390fd5b600060045487611dff9190613e8f565b14611e3f576040517f08c379a0000000000000000000000000000000000000000000000000000000008152600401611e3690613940565b60405180910390fd5b600454861015611e84576040517f08c379a0000000000000000000000000000000000000000000000000000000008152600401611e7b90613a40565b60405180910390fd5b844210611ec6576040517f08c379a0000000000000000000000000000000000000000000000000000000008152600401611ebd90613980565b60405180910390fd5b83600260006101000a81548173ffffffffffffffffffffffffffffffffffffffff021916908373ffffffffffffffffffffffffffffffffffffffff160217905550600260009054906101000a900473ffffffffffffffffffffffffffffffffffffffff1673ffffffffffffffffffffffffffffffffffffffff166305dcd1ff846040518263ffffffff1660e01b8152600401611f629190613b80565b60206040518083038186803b158015611f7a57600080fd5b505afa158015611f8e573d6000803e3d6000fd5b505050506040513d601f19601f82011682018060405250810190611fb29190613403565b15611ff2576040517f08c379a0000000000000000000000000000000000000000000000000000000008152600401611fe9906139c0565b60405180910390fd5b611ffc60036132f6565b6000612008600361321a565b90506040518061014001604052808281526020018881526020014281526020016103e8886120369190613d19565b81526020018581526020013373ffffffffffffffffffffffffffffffffffffffff168152602001600073ffffffffffffffffffffffffffffffffffffffff168152602001888152602001600060028111156120ba577f4e487b7100000000000000000000000000000000000000000000000000000000600052602160045260246000fd5b81526020018673ffffffffffffffffffffffffffffffffffffffff1681525060056000838152602001908152602001600020600082015181600001556020820151816001015560408201518160020155606082015181600301556080820151816004015560a08201518160050160006101000a81548173ffffffffffffffffffffffffffffffffffffffff021916908373ffffffffffffffffffffffffffffffffffffffff16021790555060c08201518160060160006101000a81548173ffffffffffffffffffffffffffffffffffffffff021916908373ffffffffffffffffffffffffffffffffffffffff16021790555060e082015181600701556101008201518160080160006101000a81548160ff02191690836002811115612208577f4e487b7100000000000000000000000000000000000000000000000000000000600052602160045260246000fd5b02179055506101208201518160080160016101000a81548173ffffffffffffffffffffffffffffffffffffffff021916908373ffffffffffffffffffffffffffffffffffffffff16021790555090505080600660008773ffffffffffffffffffffffffffffffffffffffff1673ffffffffffffffffffffffffffffffffffffffff1681526020019081526020016000206000868152602001908152602001600020819055508473ffffffffffffffffffffffffffffffffffffffff166323b872dd3330876040518463ffffffff1660e01b81526004016122ea939291906138a9565b600060405180830381600087803b15801561230457600080fd5b505af1158015612318573d6000803e3d6000fd5b505050503373ffffffffffffffffffffffffffffffffffffffff1684827f54346fc0e5c9d95e1fd90238bb8ce8c608de8bb4845a2de76f31c58428a18c808a89604051612366929190613b9b565b60405180910390a4600260009054906101000a900473ffffffffffffffffffffffffffffffffffffffff1673ffffffffffffffffffffffffffffffffffffffff1663a27b467d8560016040518363ffffffff1660e01b81526004016123cc929190613bc4565b600060405180830381600087803b1580156123e657600080fd5b505af11580156123fa573d6000803e3d6000fd5b50505050505050600160008190555050505050565b60026000541415612455576040517f08c379a000000000000000000000000000000000000000000000000000000000815260040161244c90613b40565b60405180910390fd5b6002600081905550612465613228565b73ffffffffffffffffffffffffffffffffffffffff16612483611b63565b73ffffffffffffffffffffffffffffffffffffffff16146124d9576040517f08c379a00000000000000000000000000000000000000000000000000000000081526004016124d090613a60565b60405180910390fd5b60006005600083815260200190815260200160002090506000600281111561252a577f4e487b7100000000000000000000000000000000000000000000000000000000600052602160045260246000fd5b8160080160009054906101000a900460ff166002811115612574577f4e487b7100000000000000000000000000000000000000000000000000000000600052602160045260246000fd5b146125b4576040517f08c379a00000000000000000000000000000000000000000000000000000000081526004016125ab90613ac0565b60405180910390fd5b60018160080160006101000a81548160ff02191690836002811115612602577f4e487b7100000000000000000000000000000000000000000000000000000000600052602160045260246000fd5b0217905550600060647f0000000000000000000000000000000000000000000000000000000000000000836007015461263b9190613d4a565b6126459190613d19565b9050600073ffffffffffffffffffffffffffffffffffffffff168260060160009054906101000a900473ffffffffffffffffffffffffffffffffffffffff1673ffffffffffffffffffffffffffffffffffffffff16146128ea578160080160019054906101000a900473ffffffffffffffffffffffffffffffffffffffff1673ffffffffffffffffffffffffffffffffffffffff166342842e0e308460060160009054906101000a900473ffffffffffffffffffffffffffffffffffffffff1685600401546040518463ffffffff1660e01b8152600401612728939291906138a9565b600060405180830381600087803b15801561274257600080fd5b505af1158015612756573d6000803e3d6000fd5b505050508160050160009054906101000a900473ffffffffffffffffffffffffffffffffffffffff1673ffffffffffffffffffffffffffffffffffffffff166108fc83600701549081150290604051600060405180830381858888f193505050501580156127c8573d6000803e3d6000fd5b507f000000000000000000000000000000000000000000000000000000000000000073ffffffffffffffffffffffffffffffffffffffff166108fc60647f000000000000000000000000000000000000000000000000000000000000000085600701546128359190613d4a565b61283f9190613d19565b9081150290604051600060405180830381858888f1935050505015801561286a573d6000803e3d6000fd5b5060006007600085815260200190815260200160002060008460060160009054906101000a900473ffffffffffffffffffffffffffffffffffffffff1673ffffffffffffffffffffffffffffffffffffffff1673ffffffffffffffffffffffffffffffffffffffff168152602001908152602001600020819055506129a6565b8160080160019054906101000a900473ffffffffffffffffffffffffffffffffffffffff1673ffffffffffffffffffffffffffffffffffffffff166342842e0e308460050160009054906101000a900473ffffffffffffffffffffffffffffffffffffffff1685600401546040518463ffffffff1660e01b815260040161297393929190613872565b600060405180830381600087803b15801561298d57600080fd5b505af11580156129a1573d6000803e3d6000fd5b505050505b6000600660008460080160019054906101000a900473ffffffffffffffffffffffffffffffffffffffff1673ffffffffffffffffffffffffffffffffffffffff1673ffffffffffffffffffffffffffffffffffffffff168152602001908152602001600020600084600401548152602001908152602001600020819055508160050160009054906101000a900473ffffffffffffffffffffffffffffffffffffffff1673ffffffffffffffffffffffffffffffffffffffff168260060160009054906101000a900473ffffffffffffffffffffffffffffffffffffffff1673ffffffffffffffffffffffffffffffffffffffff16847fddc333f763b4ab5bef1ea2fabcde5f21982ec0368c066641f85b432c15993154856007015485604051612ad0929190613bed565b60405180910390a48160080160019054906101000a900473ffffffffffffffffffffffffffffffffffffffff16600260006101000a81548173ffffffffffffffffffffffffffffffffffffffff021916908373ffffffffffffffffffffffffffffffffffffffff160217905550600260009054906101000a900473ffffffffffffffffffffffffffffffffffffffff1673ffffffffffffffffffffffffffffffffffffffff1663a27b467d836004015460006040518363ffffffff1660e01b8152600401612b9f929190613bc4565b600060405180830381600087803b158015612bb957600080fd5b505af1158015612bcd573d6000803e3d6000fd5b505050505050600160008190555050565b612be6613228565b73ffffffffffffffffffffffffffffffffffffffff16612c04611b63565b73ffffffffffffffffffffffffffffffffffffffff1614612c5a576040517f08c379a0000000000000000000000000000000000000000000000000000000008152600401612c5190613a60565b60405180910390fd5b600073ffffffffffffffffffffffffffffffffffffffff168173ffffffffffffffffffffffffffffffffffffffff161415612cca576040517f08c379a0000000000000000000000000000000000000000000000000000000008152600401612cc190613920565b60405180910390fd5b612cd381613230565b50565b60026000541415612d1c576040517f08c379a0000000000000000000000000000000000000000000000000000000008152600401612d1390613b40565b60405180910390fd5b6002600081905550612d2c613228565b73ffffffffffffffffffffffffffffffffffffffff16612d4a611b63565b73ffffffffffffffffffffffffffffffffffffffff1614612da0576040517f08c379a0000000000000000000000000000000000000000000000000000000008152600401612d9790613a60565b60405180910390fd5b600060056000838152602001908152602001600020905060006002811115612df1577f4e487b7100000000000000000000000000000000000000000000000000000000600052602160045260246000fd5b8160080160009054906101000a900460ff166002811115612e3b577f4e487b7100000000000000000000000000000000000000000000000000000000600052602160045260246000fd5b14612e7b576040517f08c379a0000000000000000000000000000000000000000000000000000000008152600401612e7290613b00565b60405180910390fd5b60028160080160006101000a81548160ff02191690836002811115612ec9577f4e487b7100000000000000000000000000000000000000000000000000000000600052602160045260246000fd5b02179055508060060160009054906101000a900473ffffffffffffffffffffffffffffffffffffffff1673ffffffffffffffffffffffffffffffffffffffff166108fc82600701549081150290604051600060405180830381858888f19350505050158015612f3c573d6000803e3d6000fd5b508060080160019054906101000a900473ffffffffffffffffffffffffffffffffffffffff1673ffffffffffffffffffffffffffffffffffffffff166323b872dd308360050160009054906101000a900473ffffffffffffffffffffffffffffffffffffffff1684600401546040518463ffffffff1660e01b8152600401612fc693929190613872565b600060405180830381600087803b158015612fe057600080fd5b505af1158015612ff4573d6000803e3d6000fd5b505050506000600660008360080160019054906101000a900473ffffffffffffffffffffffffffffffffffffffff1673ffffffffffffffffffffffffffffffffffffffff1673ffffffffffffffffffffffffffffffffffffffff168152602001908152602001600020600083600401548152602001908152602001600020819055503373ffffffffffffffffffffffffffffffffffffffff16827f8dd3c361eb2366ff27c2db0eb07b9261f1d052570742ab8c9a0c326f37aa576d60405160405180910390a38060080160019054906101000a900473ffffffffffffffffffffffffffffffffffffffff16600260006101000a81548173ffffffffffffffffffffffffffffffffffffffff021916908373ffffffffffffffffffffffffffffffffffffffff160217905550600260009054906101000a900473ffffffffffffffffffffffffffffffffffffffff1673ffffffffffffffffffffffffffffffffffffffff1663a27b467d826004015460006040518363ffffffff1660e01b8152600401613181929190613bc4565b600060405180830381600087803b15801561319b57600080fd5b505af11580156131af573d6000803e3d6000fd5b5050505050600160008190555050565b60006007600084815260200190815260200160002060008373ffffffffffffffffffffffffffffffffffffffff1673ffffffffffffffffffffffffffffffffffffffff16815260200190815260200160002054905092915050565b600081600001549050919050565b600033905090565b6000600160009054906101000a900473ffffffffffffffffffffffffffffffffffffffff16905081600160006101000a81548173ffffffffffffffffffffffffffffffffffffffff021916908373ffffffffffffffffffffffffffffffffffffffff1602179055508173ffffffffffffffffffffffffffffffffffffffff168173ffffffffffffffffffffffffffffffffffffffff167f8be0079c531659141344cd1fd0a4f28419497f9722a3daafe3b4186f6b6457e060405160405180910390a35050565b6001816000016000828254019250508190555050565b60008135905061331b81614414565b92915050565b60008151905061333081614414565b92915050565b6000815190506133458161442b565b92915050565b60008135905061335a81614442565b92915050565b60008135905061336f81614459565b92915050565b60006020828403121561338757600080fd5b60006133958482850161330c565b91505092915050565b6000602082840312156133b057600080fd5b60006133be84828501613321565b91505092915050565b600080604083850312156133da57600080fd5b60006133e88582860161330c565b92505060206133f985828601613360565b9150509250929050565b60006020828403121561341557600080fd5b600061342384828501613336565b91505092915050565b60006020828403121561343e57600080fd5b600061344c84828501613360565b91505092915050565b6000806040838503121561346857600080fd5b600061347685828601613360565b92505060206134878582860161330c565b9150509250929050565b600080600080608085870312156134a757600080fd5b60006134b587828801613360565b94505060206134c687828801613360565b93505060406134d78782880161334b565b92505060606134e887828801613360565b91505092959194509250565b6134fd81613e23565b82525050565b61350c81613db6565b82525050565b61351b81613da4565b82525050565b61352a81613dc8565b82525050565b61353981613e35565b82525050565b61354881613e59565b82525050565b600061355b602583613cb2565b915061356682613f4d565b604082019050919050565b600061357e601383613cb2565b915061358982613f9c565b602082019050919050565b60006135a1602683613cb2565b91506135ac82613fc5565b604082019050919050565b60006135c4602583613cb2565b91506135cf82614014565b604082019050919050565b60006135e7601a83613cb2565b91506135f282614063565b602082019050919050565b600061360a602083613cb2565b91506136158261408c565b602082019050919050565b600061362d601983613cb2565b9150613638826140b5565b602082019050919050565b6000613650601583613cb2565b915061365b826140de565b602082019050919050565b6000613673602383613cb2565b915061367e82614107565b604082019050919050565b6000613696601983613cb2565b91506136a182614156565b602082019050919050565b60006136b9602283613cb2565b91506136c48261417f565b604082019050919050565b60006136dc603483613cb2565b91506136e7826141ce565b604082019050919050565b60006136ff602083613cb2565b915061370a8261421d565b602082019050919050565b6000613722604b83613cb2565b915061372d82614246565b606082019050919050565b6000613745601983613cb2565b9150613750826142bb565b602082019050919050565b6000613768601e83613cb2565b9150613773826142e4565b602082019050919050565b600061378b601d83613cb2565b91506137968261430d565b602082019050919050565b60006137ae601e83613cb2565b91506137b982614336565b602082019050919050565b60006137d1602583613cb2565b91506137dc8261435f565b604082019050919050565b60006137f4601f83613cb2565b91506137ff826143ae565b602082019050919050565b6000613817601083613cb2565b9150613822826143d7565b602082019050919050565b61383681613e19565b82525050565b60006020820190506138516000830184613512565b92915050565b600060208201905061386c6000830184613503565b92915050565b60006060820190506138876000830186613512565b61389460208301856134f4565b6138a1604083018461382d565b949350505050565b60006060820190506138be6000830186613512565b6138cb6020830185613512565b6138d8604083018461382d565b949350505050565b600060208201905081810360008301526138f98161354e565b9050919050565b6000602082019050818103600083015261391981613571565b9050919050565b6000602082019050818103600083015261393981613594565b9050919050565b60006020820190508181036000830152613959816135b7565b9050919050565b60006020820190508181036000830152613979816135da565b9050919050565b60006020820190508181036000830152613999816135fd565b9050919050565b600060208201905081810360008301526139b981613620565b9050919050565b600060208201905081810360008301526139d981613643565b9050919050565b600060208201905081810360008301526139f981613666565b9050919050565b60006020820190508181036000830152613a1981613689565b9050919050565b60006020820190508181036000830152613a39816136ac565b9050919050565b60006020820190508181036000830152613a59816136cf565b9050919050565b60006020820190508181036000830152613a79816136f2565b9050919050565b60006020820190508181036000830152613a9981613715565b9050919050565b60006020820190508181036000830152613ab981613738565b9050919050565b60006020820190508181036000830152613ad98161375b565b9050919050565b60006020820190508181036000830152613af98161377e565b9050919050565b60006020820190508181036000830152613b19816137a1565b9050919050565b60006020820190508181036000830152613b39816137c4565b9050919050565b60006020820190508181036000830152613b59816137e7565b9050919050565b60006020820190508181036000830152613b798161380a565b9050919050565b6000602082019050613b95600083018461382d565b92915050565b6000604082019050613bb0600083018561382d565b613bbd6020830184613512565b9392505050565b6000604082019050613bd9600083018561382d565b613be66020830184613521565b9392505050565b6000604082019050613c02600083018561382d565b613c0f602083018461382d565b9392505050565b600061014082019050613c2c600083018d61382d565b613c39602083018c61382d565b613c46604083018b61382d565b613c53606083018a61382d565b613c60608083018961382d565b613c6d60a0830188613503565b613c7a60c0830187613512565b613c8760e083018661382d565b613c9561010083018561353f565b613ca3610120830184613530565b9b9a5050505050505050505050565b600082825260208201905092915050565b6000613cce82613e19565b9150613cd983613e19565b9250827fffffffffffffffffffffffffffffffffffffffffffffffffffffffffffffffff03821115613d0e57613d0d613ec0565b5b828201905092915050565b6000613d2482613e19565b9150613d2f83613e19565b925082613d3f57613d3e613eef565b5b828204905092915050565b6000613d5582613e19565b9150613d6083613e19565b9250817fffffffffffffffffffffffffffffffffffffffffffffffffffffffffffffffff0483118215151615613d9957613d98613ec0565b5b828202905092915050565b6000613daf82613df9565b9050919050565b6000613dc182613df9565b9050919050565b60008115159050919050565b6000613ddf82613da4565b9050919050565b6000819050613df482614400565b919050565b600073ffffffffffffffffffffffffffffffffffffffff82169050919050565b6000819050919050565b6000613e2e82613e6b565b9050919050565b6000613e4082613e47565b9050919050565b6000613e5282613df9565b9050919050565b6000613e6482613de6565b9050919050565b6000613e7682613e7d565b9050919050565b6000613e8882613df9565b9050919050565b6000613e9a82613e19565b9150613ea583613e19565b925082613eb557613eb4613eef565b5b828206905092915050565b7f4e487b7100000000000000000000000000000000000000000000000000000000600052601160045260246000fd5b7f4e487b7100000000000000000000000000000000000000000000000000000000600052601260045260246000fd5b7f4e487b7100000000000000000000000000000000000000000000000000000000600052602160045260246000fd5b7f43616e6e6f742063616e63656c20746865206974656d2074686174206973206260008201527f696464656e000000000000000000000000000000000000000000000000000000602082015250565b7f4e6f7468696e6720746f20776974686472617700000000000000000000000000600082015250565b7f4f776e61626c653a206e6577206f776e657220697320746865207a65726f206160008201527f6464726573730000000000000000000000000000000000000000000000000000602082015250565b7f436865636b20746865206d696e696d756d20756e6974206f662073746172742060008201527f7072696365000000000000000000000000000000000000000000000000000000602082015250565b7f546f70206269646465722063616e6e6f74207769746864726177000000000000600082015250565b7f43616e6e6f742073657420656e642074696d6520617320706173742074696d65600082015250565b7f4f6e6c79206f776e65722063616e20656e726f6c6c206e667400000000000000600082015250565b7f54686973206973206f6e20746865206d61726b65740000000000000000000000600082015250565b7f4974206973206e6f74207468652074696d6520746f20636c6f7365206175637460008201527f696f6e0000000000000000000000000000000000000000000000000000000000602082015250565b7f54686973206974656d206973206e6f7420656e726f6c6c656400000000000000600082015250565b7f546869732061756374696f6e20697320656e646564206f722063616e63656c6c60008201527f6564000000000000000000000000000000000000000000000000000000000000602082015250565b7f53686f756c64207374617274207072696365206973206269676765722074686160008201527f6e206d696e696e756d2062696420616d6f756e74000000000000000000000000602082015250565b7f4f776e61626c653a2063616c6c6572206973206e6f7420746865206f776e6572600082015250565b7f42696420616d6f756e742073686f756c6420626520626967676572207468616e60008201527f207072657620746f7020626964206173206d756368206173206d696e756d756d60208201527f2062696420616d6f756e74000000000000000000000000000000000000000000604082015250565b7f4f6e6c792073656c6c65722063616e2063616e63656c20697400000000000000600082015250565b7f54686973206974656d206861736e2774206265656e20656e726f6c6c65640000600082015250565b7f436865636b20746865206d696e696d756d20756e6974206f6620626964000000600082015250565b7f497420697320616c72656164792073746172746564206f7220656e6465640000600082015250565b7f4f6e6c792073656c6c6572206f7220746f70206269646465722063616e20656e60008201527f642069742e000000000000000000000000000000000000000000000000000000602082015250565b7f5265656e7472616e637947756172643a207265656e7472616e742063616c6c00600082015250565b7f41756374696f6e20697320656e64656400000000000000000000000000000000600082015250565b6003811061441157614410613f1e565b5b50565b61441d81613da4565b811461442857600080fd5b50565b61443481613dc8565b811461443f57600080fd5b50565b61444b81613dd4565b811461445657600080fd5b50565b61446281613e19565b811461446d57600080fd5b5056fea2646970667358221220b459902be3825f7fc06daea8f7a9e5ee981cb52ff3e1ffad64f831dd33fe352964736f6c63430008040033",
    "linkReferences": {},
    "deployedLinkReferences": {}
}