{
    "contractAddress": "0xC89dE8C98a6d73A68E71D3AD2045411a6a5a0040",
    "_format": "hh-sol-artifact-1",
    "contractName": "Auction",
    "sourceName": "contracts/Auction.sol",
    "abi": [
        {
            "inputs": [
                {
                    "internalType": "uint256",
                    "name": "_feePercent",
                    "type": "uint256"
                }
            ],
            "stateMutability": "nonpayable",
            "type": "constructor"
        },
        {
            "anonymous": false,
            "inputs": [
                {
                    "indexed": true,
                    "internalType": "uint256",
                    "name": "itemId",
                    "type": "uint256"
                },
                {
                    "indexed": true,
                    "internalType": "address",
                    "name": "topBidder",
                    "type": "address"
                },
                {
                    "indexed": false,
                    "internalType": "uint256",
                    "name": "topBid",
                    "type": "uint256"
                }
            ],
            "name": "Bid",
            "type": "event"
        },
        {
            "anonymous": false,
            "inputs": [
                {
                    "indexed": true,
                    "internalType": "uint256",
                    "name": "itemId",
                    "type": "uint256"
                },
                {
                    "indexed": true,
                    "internalType": "address",
                    "name": "seller",
                    "type": "address"
                }
            ],
            "name": "Cancel",
            "type": "event"
        },
        {
            "anonymous": false,
            "inputs": [
                {
                    "indexed": true,
                    "internalType": "uint256",
                    "name": "itemId",
                    "type": "uint256"
                },
                {
                    "indexed": true,
                    "internalType": "address",
                    "name": "buyer",
                    "type": "address"
                },
                {
                    "indexed": false,
                    "internalType": "uint256",
                    "name": "buyingPrice",
                    "type": "uint256"
                },
                {
                    "indexed": false,
                    "internalType": "uint256",
                    "name": "fee",
                    "type": "uint256"
                }
            ],
            "name": "End",
            "type": "event"
        },
        {
            "anonymous": false,
            "inputs": [
                {
                    "indexed": true,
                    "internalType": "uint256",
                    "name": "itemId",
                    "type": "uint256"
                },
                {
                    "indexed": false,
                    "internalType": "uint256",
                    "name": "_startPrice",
                    "type": "uint256"
                },
                {
                    "indexed": false,
                    "internalType": "address",
                    "name": "_nft",
                    "type": "address"
                },
                {
                    "indexed": false,
                    "internalType": "uint256",
                    "name": "_tokenId",
                    "type": "uint256"
                },
                {
                    "indexed": true,
                    "internalType": "address",
                    "name": "seller",
                    "type": "address"
                }
            ],
            "name": "Enrolled",
            "type": "event"
        },
        {
            "anonymous": false,
            "inputs": [
                {
                    "indexed": true,
                    "internalType": "address",
                    "name": "previousOwner",
                    "type": "address"
                },
                {
                    "indexed": true,
                    "internalType": "address",
                    "name": "newOwner",
                    "type": "address"
                }
            ],
            "name": "OwnershipTransferred",
            "type": "event"
        },
        {
            "anonymous": false,
            "inputs": [
                {
                    "indexed": true,
                    "internalType": "uint256",
                    "name": "itemId",
                    "type": "uint256"
                },
                {
                    "indexed": true,
                    "internalType": "address",
                    "name": "bidder",
                    "type": "address"
                },
                {
                    "indexed": false,
                    "internalType": "uint256",
                    "name": "balance",
                    "type": "uint256"
                }
            ],
            "name": "Withdraw",
            "type": "event"
        },
        {
            "inputs": [
                {
                    "internalType": "uint256",
                    "name": "_itemId",
                    "type": "uint256"
                }
            ],
            "name": "bid",
            "outputs": [],
            "stateMutability": "payable",
            "type": "function"
        },
        {
            "inputs": [
                {
                    "internalType": "uint256",
                    "name": "_price",
                    "type": "uint256"
                }
            ],
            "name": "calPriceWithFee",
            "outputs": [
                {
                    "internalType": "uint256",
                    "name": "",
                    "type": "uint256"
                }
            ],
            "stateMutability": "view",
            "type": "function"
        },
        {
            "inputs": [
                {
                    "internalType": "uint256",
                    "name": "_itemId",
                    "type": "uint256"
                }
            ],
            "name": "cancel",
            "outputs": [],
            "stateMutability": "nonpayable",
            "type": "function"
        },
        {
            "inputs": [
                {
                    "internalType": "uint256",
                    "name": "_itemId",
                    "type": "uint256"
                }
            ],
            "name": "end",
            "outputs": [],
            "stateMutability": "nonpayable",
            "type": "function"
        },
        {
            "inputs": [
                {
                    "internalType": "uint256",
                    "name": "_startPrice",
                    "type": "uint256"
                },
                {
                    "internalType": "uint256",
                    "name": "_endAt",
                    "type": "uint256"
                },
                {
                    "internalType": "contract IERC721",
                    "name": "_nft",
                    "type": "address"
                },
                {
                    "internalType": "uint256",
                    "name": "_tokenId",
                    "type": "uint256"
                }
            ],
            "name": "enroll",
            "outputs": [],
            "stateMutability": "nonpayable",
            "type": "function"
        },
        {
            "inputs": [],
            "name": "feeAccount",
            "outputs": [
                {
                    "internalType": "address payable",
                    "name": "",
                    "type": "address"
                }
            ],
            "stateMutability": "view",
            "type": "function"
        },
        {
            "inputs": [],
            "name": "feePercent",
            "outputs": [
                {
                    "internalType": "uint256",
                    "name": "",
                    "type": "uint256"
                }
            ],
            "stateMutability": "view",
            "type": "function"
        },
        {
            "inputs": [
                {
                    "internalType": "uint256",
                    "name": "_itemId",
                    "type": "uint256"
                }
            ],
            "name": "forceCancel",
            "outputs": [],
            "stateMutability": "nonpayable",
            "type": "function"
        },
        {
            "inputs": [
                {
                    "internalType": "uint256",
                    "name": "_itemId",
                    "type": "uint256"
                }
            ],
            "name": "forceEnd",
            "outputs": [],
            "stateMutability": "nonpayable",
            "type": "function"
        },
        {
            "inputs": [],
            "name": "getBlockTimestamp",
            "outputs": [
                {
                    "internalType": "uint256",
                    "name": "",
                    "type": "uint256"
                }
            ],
            "stateMutability": "view",
            "type": "function"
        },
        {
            "inputs": [],
            "name": "itemCounter",
            "outputs": [
                {
                    "internalType": "uint256",
                    "name": "_value",
                    "type": "uint256"
                }
            ],
            "stateMutability": "view",
            "type": "function"
        },
        {
            "inputs": [
                {
                    "internalType": "uint256",
                    "name": "",
                    "type": "uint256"
                }
            ],
            "name": "items",
            "outputs": [
                {
                    "internalType": "uint256",
                    "name": "startPrice",
                    "type": "uint256"
                },
                {
                    "internalType": "uint256",
                    "name": "startAt",
                    "type": "uint256"
                },
                {
                    "internalType": "uint256",
                    "name": "endAt",
                    "type": "uint256"
                },
                {
                    "internalType": "uint256",
                    "name": "tokenId",
                    "type": "uint256"
                },
                {
                    "internalType": "address payable",
                    "name": "seller",
                    "type": "address"
                },
                {
                    "internalType": "address",
                    "name": "topBidder",
                    "type": "address"
                },
                {
                    "internalType": "uint256",
                    "name": "topBid",
                    "type": "uint256"
                },
                {
                    "internalType": "enum Auction.StatusType",
                    "name": "status",
                    "type": "uint8"
                },
                {
                    "internalType": "contract IERC721",
                    "name": "nft",
                    "type": "address"
                }
            ],
            "stateMutability": "view",
            "type": "function"
        },
        {
            "inputs": [],
            "name": "minBidUnit",
            "outputs": [
                {
                    "internalType": "uint256",
                    "name": "",
                    "type": "uint256"
                }
            ],
            "stateMutability": "view",
            "type": "function"
        },
        {
            "inputs": [],
            "name": "owner",
            "outputs": [
                {
                    "internalType": "address",
                    "name": "",
                    "type": "address"
                }
            ],
            "stateMutability": "view",
            "type": "function"
        },
        {
            "inputs": [
                {
                    "internalType": "uint256",
                    "name": "",
                    "type": "uint256"
                },
                {
                    "internalType": "address",
                    "name": "",
                    "type": "address"
                }
            ],
            "name": "pendingBids",
            "outputs": [
                {
                    "internalType": "uint256",
                    "name": "",
                    "type": "uint256"
                }
            ],
            "stateMutability": "view",
            "type": "function"
        },
        {
            "inputs": [
                {
                    "internalType": "uint256",
                    "name": "_priceWithFee",
                    "type": "uint256"
                }
            ],
            "name": "removeFee",
            "outputs": [
                {
                    "internalType": "uint256",
                    "name": "",
                    "type": "uint256"
                }
            ],
            "stateMutability": "view",
            "type": "function"
        },
        {
            "inputs": [],
            "name": "renounceOwnership",
            "outputs": [],
            "stateMutability": "nonpayable",
            "type": "function"
        },
        {
            "inputs": [
                {
                    "internalType": "address",
                    "name": "newOwner",
                    "type": "address"
                }
            ],
            "name": "transferOwnership",
            "outputs": [],
            "stateMutability": "nonpayable",
            "type": "function"
        },
        {
            "inputs": [
                {
                    "internalType": "uint256",
                    "name": "_itemId",
                    "type": "uint256"
                }
            ],
            "name": "withdraw",
            "outputs": [],
            "stateMutability": "nonpayable",
            "type": "function"
        }
    ],
    "bytecode": "0x60c06040523480156200001157600080fd5b5060405162003ae638038062003ae6833981810160405281019062000037919062000197565b60016000819055506200005f62000053620000b260201b60201c565b620000ba60201b60201c565b8060a081815250503373ffffffffffffffffffffffffffffffffffffffff1660808173ffffffffffffffffffffffffffffffffffffffff1660601b815250506509184e72a00060038190555050620001e7565b600033905090565b6000600160009054906101000a900473ffffffffffffffffffffffffffffffffffffffff16905081600160006101000a81548173ffffffffffffffffffffffffffffffffffffffff021916908373ffffffffffffffffffffffffffffffffffffffff1602179055508173ffffffffffffffffffffffffffffffffffffffff168173ffffffffffffffffffffffffffffffffffffffff167f8be0079c531659141344cd1fd0a4f28419497f9722a3daafe3b4186f6b6457e060405160405180910390a35050565b6000815190506200019181620001cd565b92915050565b600060208284031215620001aa57600080fd5b6000620001ba8482850162000180565b91505092915050565b6000819050919050565b620001d881620001c3565b8114620001e457600080fd5b50565b60805160601c60a0516138a562000241600039600081816106d60152818161152b0152818161157a0152818161168901528181611ef801526120f2015260008181610894015281816115c901526120b601526138a56000f3fe6080604052600436106101145760003560e01c8063715018a6116100a0578063bfb231d211610064578063bfb231d214610380578063e373eeac146103c5578063f152b5bd146103ee578063f2fde38b14610417578063f438f0191461044057610114565b8063715018a6146102ab578063796b89b9146102c25780637fd6f15c146102ed5780638024656a146103185780638da5cb5b1461035557610114565b8063499a2818116100e7578063499a2818146101b057806355c2c7c2146101ed578063649b998d1461022a57806365e17c9d146102555780636d6d00ed1461028057610114565b80630ad24528146101195780632e1a7d4d1461014257806340e58ee51461016b578063454a2ab314610194575b600080fd5b34801561012557600080fd5b50610140600480360381019061013b9190612919565b610469565b005b34801561014e57600080fd5b5061016960048036038101906101649190612919565b610abb565b005b34801561017757600080fd5b50610192600480360381019061018d9190612919565b610d47565b005b6101ae60048036038101906101a99190612919565b6110f3565b005b3480156101bc57600080fd5b506101d760048036038101906101d29190612919565b611527565b6040516101e4919061301b565b60405180910390f35b3480156101f957600080fd5b50610214600480360381019061020f9190612919565b611574565b604051610221919061301b565b60405180910390f35b34801561023657600080fd5b5061023f6115c1565b60405161024c919061301b565b60405180910390f35b34801561026157600080fd5b5061026a6115c7565b6040516102779190612d12565b60405180910390f35b34801561028c57600080fd5b506102956115eb565b6040516102a2919061301b565b60405180910390f35b3480156102b757600080fd5b506102c06115f7565b005b3480156102ce57600080fd5b506102d761167f565b6040516102e4919061301b565b60405180910390f35b3480156102f957600080fd5b50610302611687565b60405161030f919061301b565b60405180910390f35b34801561032457600080fd5b5061033f600480360381019061033a9190612942565b6116ab565b60405161034c919061301b565b60405180910390f35b34801561036157600080fd5b5061036a6116d0565b6040516103779190612cf7565b60405180910390f35b34801561038c57600080fd5b506103a760048036038101906103a29190612919565b6116fa565b6040516103bc99989796959493929190613096565b60405180910390f35b3480156103d157600080fd5b506103ec60048036038101906103e7919061297e565b6117b5565b005b3480156103fa57600080fd5b5061041560048036038101906104109190612919565b611cfa565b005b34801561042357600080fd5b5061043e600480360381019061043991906128c7565b612317565b005b34801561044c57600080fd5b5061046760048036038101906104629190612919565b61240f565b005b600260005414156104af576040517f08c379a00000000000000000000000000000000000000000000000000000000081526004016104a690612fdb565b60405180910390fd5b6002600081905550806004600082815260200190815260200160002060040160009054906101000a900473ffffffffffffffffffffffffffffffffffffffff1673ffffffffffffffffffffffffffffffffffffffff163373ffffffffffffffffffffffffffffffffffffffff161461055c576040517f08c379a000000000000000000000000000000000000000000000000000000000815260040161055390612ddb565b60405180910390fd5b6000600460008481526020019081526020016000209050600060028111156105ad577f4e487b7100000000000000000000000000000000000000000000000000000000600052602160045260246000fd5b8160070160009054906101000a900460ff1660028111156105f7577f4e487b7100000000000000000000000000000000000000000000000000000000600052602160045260246000fd5b14610637576040517f08c379a000000000000000000000000000000000000000000000000000000000815260040161062e90612f7b565b60405180910390fd5b8060020154421161067d576040517f08c379a000000000000000000000000000000000000000000000000000000000815260040161067490612e9b565b60405180910390fd5b60018160070160006101000a81548160ff021916908360028111156106cb577f4e487b7100000000000000000000000000000000000000000000000000000000600052602160045260246000fd5b0217905550600060647f0000000000000000000000000000000000000000000000000000000000000000836006015461070491906131bb565b61070e919061318a565b9050600073ffffffffffffffffffffffffffffffffffffffff168260050160009054906101000a900473ffffffffffffffffffffffffffffffffffffffff1673ffffffffffffffffffffffffffffffffffffffff1614610978578160070160019054906101000a900473ffffffffffffffffffffffffffffffffffffffff1673ffffffffffffffffffffffffffffffffffffffff166323b872dd308460050160009054906101000a900473ffffffffffffffffffffffffffffffffffffffff1685600301546040518463ffffffff1660e01b81526004016107f193929190612d64565b600060405180830381600087803b15801561080b57600080fd5b505af115801561081f573d6000803e3d6000fd5b505050508160040160009054906101000a900473ffffffffffffffffffffffffffffffffffffffff1673ffffffffffffffffffffffffffffffffffffffff166108fc83600601549081150290604051600060405180830381858888f19350505050158015610891573d6000803e3d6000fd5b507f000000000000000000000000000000000000000000000000000000000000000073ffffffffffffffffffffffffffffffffffffffff166108fc829081150290604051600060405180830381858888f193505050501580156108f8573d6000803e3d6000fd5b5060006005600086815260200190815260200160002060008460050160009054906101000a900473ffffffffffffffffffffffffffffffffffffffff1673ffffffffffffffffffffffffffffffffffffffff1673ffffffffffffffffffffffffffffffffffffffff16815260200190815260200160002081905550610a34565b8160070160019054906101000a900473ffffffffffffffffffffffffffffffffffffffff1673ffffffffffffffffffffffffffffffffffffffff166323b872dd308460040160009054906101000a900473ffffffffffffffffffffffffffffffffffffffff1685600301546040518463ffffffff1660e01b8152600401610a0193929190612d2d565b600060405180830381600087803b158015610a1b57600080fd5b505af1158015610a2f573d6000803e3d6000fd5b505050505b8160050160009054906101000a900473ffffffffffffffffffffffffffffffffffffffff1673ffffffffffffffffffffffffffffffffffffffff16847f469f1b328eb8ff62596282103d0cc1b13328b1326d448bd04220a2ed2b6f631b846006015484604051610aa592919061306d565b60405180910390a3505050600160008190555050565b60026000541415610b01576040517f08c379a0000000000000000000000000000000000000000000000000000000008152600401610af890612fdb565b60405180910390fd5b600260008190555060006005600083815260200190815260200160002060003373ffffffffffffffffffffffffffffffffffffffff1673ffffffffffffffffffffffffffffffffffffffff1681526020019081526020016000205490506000811415610ba2576040517f08c379a0000000000000000000000000000000000000000000000000000000008152600401610b9990612dbb565b60405180910390fd5b6004600083815260200190815260200160002060050160009054906101000a900473ffffffffffffffffffffffffffffffffffffffff1673ffffffffffffffffffffffffffffffffffffffff163373ffffffffffffffffffffffffffffffffffffffff161415610c47576040517f08c379a0000000000000000000000000000000000000000000000000000000008152600401610c3e90612e3b565b60405180910390fd5b60006005600084815260200190815260200160002060003373ffffffffffffffffffffffffffffffffffffffff1673ffffffffffffffffffffffffffffffffffffffff168152602001908152602001600020819055503373ffffffffffffffffffffffffffffffffffffffff166108fc610cc083611574565b9081150290604051600060405180830381858888f19350505050158015610ceb573d6000803e3d6000fd5b503373ffffffffffffffffffffffffffffffffffffffff16827f9da6493a92039daf47d1f2d7a782299c5994c6323eb1e972f69c432089ec52bf83604051610d33919061301b565b60405180910390a350600160008190555050565b60026000541415610d8d576040517f08c379a0000000000000000000000000000000000000000000000000000000008152600401610d8490612fdb565b60405180910390fd5b600260008190555060006004600083815260200190815260200160002090508060040160009054906101000a900473ffffffffffffffffffffffffffffffffffffffff1673ffffffffffffffffffffffffffffffffffffffff163373ffffffffffffffffffffffffffffffffffffffff1614610e3e576040517f08c379a0000000000000000000000000000000000000000000000000000000008152600401610e3590612f5b565b60405180910390fd5b60006002811115610e78577f4e487b7100000000000000000000000000000000000000000000000000000000600052602160045260246000fd5b8160070160009054906101000a900460ff166002811115610ec2577f4e487b7100000000000000000000000000000000000000000000000000000000600052602160045260246000fd5b14610f02576040517f08c379a0000000000000000000000000000000000000000000000000000000008152600401610ef990612fbb565b60405180910390fd5b600073ffffffffffffffffffffffffffffffffffffffff168160050160009054906101000a900473ffffffffffffffffffffffffffffffffffffffff1673ffffffffffffffffffffffffffffffffffffffff1614610f95576040517f08c379a0000000000000000000000000000000000000000000000000000000008152600401610f8c90612d9b565b60405180910390fd5b60028160070160006101000a81548160ff02191690836002811115610fe3577f4e487b7100000000000000000000000000000000000000000000000000000000600052602160045260246000fd5b02179055508060070160019054906101000a900473ffffffffffffffffffffffffffffffffffffffff1673ffffffffffffffffffffffffffffffffffffffff166323b872dd308360040160009054906101000a900473ffffffffffffffffffffffffffffffffffffffff1684600301546040518463ffffffff1660e01b815260040161107193929190612d2d565b600060405180830381600087803b15801561108b57600080fd5b505af115801561109f573d6000803e3d6000fd5b505050503373ffffffffffffffffffffffffffffffffffffffff16827f8dd3c361eb2366ff27c2db0eb07b9261f1d052570742ab8c9a0c326f37aa576d60405160405180910390a350600160008190555050565b60026000541415611139576040517f08c379a000000000000000000000000000000000000000000000000000000000815260040161113090612fdb565b60405180910390fd5b6002600081905550600060035461114f34611527565b61115991906132f4565b14611199576040517f08c379a000000000000000000000000000000000000000000000000000000000815260040161119090612f9b565b60405180910390fd5b6111a36002612781565b8111156111e5576040517f08c379a00000000000000000000000000000000000000000000000000000000081526004016111dc90612ebb565b60405180910390fd5b600060046000838152602001908152602001600020905080600201544210611242576040517f08c379a000000000000000000000000000000000000000000000000000000000815260040161123990612ffb565b60405180910390fd5b6000600281111561127c577f4e487b7100000000000000000000000000000000000000000000000000000000600052602160045260246000fd5b8160070160009054906101000a900460ff1660028111156112c6577f4e487b7100000000000000000000000000000000000000000000000000000000600052602160045260246000fd5b14611306576040517f08c379a00000000000000000000000000000000000000000000000000000000081526004016112fd90612edb565b60405180910390fd5b60035481600601546113189190613134565b6005600084815260200190815260200160002060003373ffffffffffffffffffffffffffffffffffffffff1673ffffffffffffffffffffffffffffffffffffffff1681526020019081526020016000205461137234611527565b61137c9190613134565b10156113bd576040517f08c379a00000000000000000000000000000000000000000000000000000000081526004016113b490612f3b565b60405180910390fd5b6113c634611527565b6005600084815260200190815260200160002060003373ffffffffffffffffffffffffffffffffffffffff1673ffffffffffffffffffffffffffffffffffffffff16815260200190815260200160002060008282546114259190613134565b925050819055506005600083815260200190815260200160002060003373ffffffffffffffffffffffffffffffffffffffff1673ffffffffffffffffffffffffffffffffffffffff168152602001908152602001600020548160060181905550338160050160006101000a81548173ffffffffffffffffffffffffffffffffffffffff021916908373ffffffffffffffffffffffffffffffffffffffff1602179055503373ffffffffffffffffffffffffffffffffffffffff16827fdcd726e11f8b5e160f00290f0fe3a1abb547474e53a8e7a8f49a85e7b1ca31998360060154604051611513919061301b565b60405180910390a350600160008190555050565b60007f000000000000000000000000000000000000000000000000000000000000000060646115569190613134565b60648361156391906131bb565b61156d919061318a565b9050919050565b600060647f000000000000000000000000000000000000000000000000000000000000000060646115a59190613134565b836115b091906131bb565b6115ba919061318a565b9050919050565b60035481565b7f000000000000000000000000000000000000000000000000000000000000000081565b60028060000154905081565b6115ff61278f565b73ffffffffffffffffffffffffffffffffffffffff1661161d6116d0565b73ffffffffffffffffffffffffffffffffffffffff1614611673576040517f08c379a000000000000000000000000000000000000000000000000000000000815260040161166a90612f1b565b60405180910390fd5b61167d6000612797565b565b600042905090565b7f000000000000000000000000000000000000000000000000000000000000000081565b6005602052816000526040600020602052806000526040600020600091509150505481565b6000600160009054906101000a900473ffffffffffffffffffffffffffffffffffffffff16905090565b60046020528060005260406000206000915090508060000154908060010154908060020154908060030154908060040160009054906101000a900473ffffffffffffffffffffffffffffffffffffffff16908060050160009054906101000a900473ffffffffffffffffffffffffffffffffffffffff16908060060154908060070160009054906101000a900460ff16908060070160019054906101000a900473ffffffffffffffffffffffffffffffffffffffff16905089565b600260005414156117fb576040517f08c379a00000000000000000000000000000000000000000000000000000000081526004016117f290612fdb565b60405180910390fd5b600260008190555081818173ffffffffffffffffffffffffffffffffffffffff16636352211e826040518263ffffffff1660e01b815260040161183e919061301b565b60206040518083038186803b15801561185657600080fd5b505afa15801561186a573d6000803e3d6000fd5b505050506040513d601f19601f8201168201806040525081019061188e91906128f0565b73ffffffffffffffffffffffffffffffffffffffff163373ffffffffffffffffffffffffffffffffffffffff16146118fb576040517f08c379a00000000000000000000000000000000000000000000000000000000081526004016118f290612e7b565b60405180910390fd5b60006003548761190b91906132f4565b1461194b576040517f08c379a000000000000000000000000000000000000000000000000000000000815260040161194290612e1b565b60405180910390fd5b600354861015611990576040517f08c379a000000000000000000000000000000000000000000000000000000000815260040161198790612efb565b60405180910390fd5b8442106119d2576040517f08c379a00000000000000000000000000000000000000000000000000000000081526004016119c990612e5b565b60405180910390fd5b6119dc600261285d565b60006119e86002612781565b90506040518061012001604052808881526020014281526020016103e888611a10919061318a565b81526020018581526020013373ffffffffffffffffffffffffffffffffffffffff168152602001600073ffffffffffffffffffffffffffffffffffffffff16815260200188815260200160006002811115611a94577f4e487b7100000000000000000000000000000000000000000000000000000000600052602160045260246000fd5b81526020018673ffffffffffffffffffffffffffffffffffffffff16815250600460008381526020019081526020016000206000820151816000015560208201518160010155604082015181600201556060820151816003015560808201518160040160006101000a81548173ffffffffffffffffffffffffffffffffffffffff021916908373ffffffffffffffffffffffffffffffffffffffff16021790555060a08201518160050160006101000a81548173ffffffffffffffffffffffffffffffffffffffff021916908373ffffffffffffffffffffffffffffffffffffffff16021790555060c0820151816006015560e08201518160070160006101000a81548160ff02191690836002811115611bd7577f4e487b7100000000000000000000000000000000000000000000000000000000600052602160045260246000fd5b02179055506101008201518160070160016101000a81548173ffffffffffffffffffffffffffffffffffffffff021916908373ffffffffffffffffffffffffffffffffffffffff1602179055509050508473ffffffffffffffffffffffffffffffffffffffff166323b872dd3330876040518463ffffffff1660e01b8152600401611c6493929190612d64565b600060405180830381600087803b158015611c7e57600080fd5b505af1158015611c92573d6000803e3d6000fd5b505050503373ffffffffffffffffffffffffffffffffffffffff16817f54346fc0e5c9d95e1fd90238bb8ce8c608de8bb4845a2de76f31c58428a18c80898888604051611ce193929190613036565b60405180910390a3505050600160008190555050505050565b60026000541415611d40576040517f08c379a0000000000000000000000000000000000000000000000000000000008152600401611d3790612fdb565b60405180910390fd5b6002600081905550611d5061278f565b73ffffffffffffffffffffffffffffffffffffffff16611d6e6116d0565b73ffffffffffffffffffffffffffffffffffffffff1614611dc4576040517f08c379a0000000000000000000000000000000000000000000000000000000008152600401611dbb90612f1b565b60405180910390fd5b600060046000838152602001908152602001600020905060006002811115611e15577f4e487b7100000000000000000000000000000000000000000000000000000000600052602160045260246000fd5b8160070160009054906101000a900460ff166002811115611e5f577f4e487b7100000000000000000000000000000000000000000000000000000000600052602160045260246000fd5b14611e9f576040517f08c379a0000000000000000000000000000000000000000000000000000000008152600401611e9690612f7b565b60405180910390fd5b60018160070160006101000a81548160ff02191690836002811115611eed577f4e487b7100000000000000000000000000000000000000000000000000000000600052602160045260246000fd5b0217905550600060647f00000000000000000000000000000000000000000000000000000000000000008360060154611f2691906131bb565b611f30919061318a565b9050600073ffffffffffffffffffffffffffffffffffffffff168260050160009054906101000a900473ffffffffffffffffffffffffffffffffffffffff1673ffffffffffffffffffffffffffffffffffffffff16146121d5578160070160019054906101000a900473ffffffffffffffffffffffffffffffffffffffff1673ffffffffffffffffffffffffffffffffffffffff166323b872dd308460050160009054906101000a900473ffffffffffffffffffffffffffffffffffffffff1685600301546040518463ffffffff1660e01b815260040161201393929190612d64565b600060405180830381600087803b15801561202d57600080fd5b505af1158015612041573d6000803e3d6000fd5b505050508160040160009054906101000a900473ffffffffffffffffffffffffffffffffffffffff1673ffffffffffffffffffffffffffffffffffffffff166108fc83600601549081150290604051600060405180830381858888f193505050501580156120b3573d6000803e3d6000fd5b507f000000000000000000000000000000000000000000000000000000000000000073ffffffffffffffffffffffffffffffffffffffff166108fc60647f0000000000000000000000000000000000000000000000000000000000000000856006015461212091906131bb565b61212a919061318a565b9081150290604051600060405180830381858888f19350505050158015612155573d6000803e3d6000fd5b5060006005600085815260200190815260200160002060008460050160009054906101000a900473ffffffffffffffffffffffffffffffffffffffff1673ffffffffffffffffffffffffffffffffffffffff1673ffffffffffffffffffffffffffffffffffffffff16815260200190815260200160002081905550612291565b8160070160019054906101000a900473ffffffffffffffffffffffffffffffffffffffff1673ffffffffffffffffffffffffffffffffffffffff166323b872dd308460040160009054906101000a900473ffffffffffffffffffffffffffffffffffffffff1685600301546040518463ffffffff1660e01b815260040161225e93929190612d2d565b600060405180830381600087803b15801561227857600080fd5b505af115801561228c573d6000803e3d6000fd5b505050505b8160050160009054906101000a900473ffffffffffffffffffffffffffffffffffffffff1673ffffffffffffffffffffffffffffffffffffffff16837f469f1b328eb8ff62596282103d0cc1b13328b1326d448bd04220a2ed2b6f631b84600601548460405161230292919061306d565b60405180910390a35050600160008190555050565b61231f61278f565b73ffffffffffffffffffffffffffffffffffffffff1661233d6116d0565b73ffffffffffffffffffffffffffffffffffffffff1614612393576040517f08c379a000000000000000000000000000000000000000000000000000000000815260040161238a90612f1b565b60405180910390fd5b600073ffffffffffffffffffffffffffffffffffffffff168173ffffffffffffffffffffffffffffffffffffffff161415612403576040517f08c379a00000000000000000000000000000000000000000000000000000000081526004016123fa90612dfb565b60405180910390fd5b61240c81612797565b50565b60026000541415612455576040517f08c379a000000000000000000000000000000000000000000000000000000000815260040161244c90612fdb565b60405180910390fd5b600260008190555061246561278f565b73ffffffffffffffffffffffffffffffffffffffff166124836116d0565b73ffffffffffffffffffffffffffffffffffffffff16146124d9576040517f08c379a00000000000000000000000000000000000000000000000000000000081526004016124d090612f1b565b60405180910390fd5b60006004600083815260200190815260200160002090506000600281111561252a577f4e487b7100000000000000000000000000000000000000000000000000000000600052602160045260246000fd5b8160070160009054906101000a900460ff166002811115612574577f4e487b7100000000000000000000000000000000000000000000000000000000600052602160045260246000fd5b146125b4576040517f08c379a00000000000000000000000000000000000000000000000000000000081526004016125ab90612fbb565b60405180910390fd5b60028160070160006101000a81548160ff02191690836002811115612602577f4e487b7100000000000000000000000000000000000000000000000000000000600052602160045260246000fd5b02179055508060050160009054906101000a900473ffffffffffffffffffffffffffffffffffffffff1673ffffffffffffffffffffffffffffffffffffffff166108fc82600601549081150290604051600060405180830381858888f19350505050158015612675573d6000803e3d6000fd5b508060070160019054906101000a900473ffffffffffffffffffffffffffffffffffffffff1673ffffffffffffffffffffffffffffffffffffffff166323b872dd308360040160009054906101000a900473ffffffffffffffffffffffffffffffffffffffff1684600301546040518463ffffffff1660e01b81526004016126ff93929190612d2d565b600060405180830381600087803b15801561271957600080fd5b505af115801561272d573d6000803e3d6000fd5b505050503373ffffffffffffffffffffffffffffffffffffffff16827f8dd3c361eb2366ff27c2db0eb07b9261f1d052570742ab8c9a0c326f37aa576d60405160405180910390a350600160008190555050565b600081600001549050919050565b600033905090565b6000600160009054906101000a900473ffffffffffffffffffffffffffffffffffffffff16905081600160006101000a81548173ffffffffffffffffffffffffffffffffffffffff021916908373ffffffffffffffffffffffffffffffffffffffff1602179055508173ffffffffffffffffffffffffffffffffffffffff168173ffffffffffffffffffffffffffffffffffffffff167f8be0079c531659141344cd1fd0a4f28419497f9722a3daafe3b4186f6b6457e060405160405180910390a35050565b6001816000016000828254019250508190555050565b6000813590506128828161382a565b92915050565b6000815190506128978161382a565b92915050565b6000813590506128ac81613841565b92915050565b6000813590506128c181613858565b92915050565b6000602082840312156128d957600080fd5b60006128e784828501612873565b91505092915050565b60006020828403121561290257600080fd5b600061291084828501612888565b91505092915050565b60006020828403121561292b57600080fd5b6000612939848285016128b2565b91505092915050565b6000806040838503121561295557600080fd5b6000612963858286016128b2565b925050602061297485828601612873565b9150509250929050565b6000806000806080858703121561299457600080fd5b60006129a2878288016128b2565b94505060206129b3878288016128b2565b93505060406129c48782880161289d565b92505060606129d5878288016128b2565b91505092959194509250565b6129ea81613288565b82525050565b6129f981613227565b82525050565b612a0881613215565b82525050565b612a178161329a565b82525050565b612a26816132be565b82525050565b6000612a39602583613123565b9150612a44826133b2565b604082019050919050565b6000612a5c601383613123565b9150612a6782613401565b602082019050919050565b6000612a7f601783613123565b9150612a8a8261342a565b602082019050919050565b6000612aa2602683613123565b9150612aad82613453565b604082019050919050565b6000612ac5602583613123565b9150612ad0826134a2565b604082019050919050565b6000612ae8601a83613123565b9150612af3826134f1565b602082019050919050565b6000612b0b602083613123565b9150612b168261351a565b602082019050919050565b6000612b2e601983613123565b9150612b3982613543565b602082019050919050565b6000612b51602383613123565b9150612b5c8261356c565b604082019050919050565b6000612b74601983613123565b9150612b7f826135bb565b602082019050919050565b6000612b97602283613123565b9150612ba2826135e4565b604082019050919050565b6000612bba603483613123565b9150612bc582613633565b604082019050919050565b6000612bdd602083613123565b9150612be882613682565b602082019050919050565b6000612c00604b83613123565b9150612c0b826136ab565b606082019050919050565b6000612c23601983613123565b9150612c2e82613720565b602082019050919050565b6000612c46601e83613123565b9150612c5182613749565b602082019050919050565b6000612c69601d83613123565b9150612c7482613772565b602082019050919050565b6000612c8c601e83613123565b9150612c978261379b565b602082019050919050565b6000612caf601f83613123565b9150612cba826137c4565b602082019050919050565b6000612cd2601083613123565b9150612cdd826137ed565b602082019050919050565b612cf18161327e565b82525050565b6000602082019050612d0c60008301846129ff565b92915050565b6000602082019050612d2760008301846129f0565b92915050565b6000606082019050612d4260008301866129ff565b612d4f60208301856129e1565b612d5c6040830184612ce8565b949350505050565b6000606082019050612d7960008301866129ff565b612d8660208301856129ff565b612d936040830184612ce8565b949350505050565b60006020820190508181036000830152612db481612a2c565b9050919050565b60006020820190508181036000830152612dd481612a4f565b9050919050565b60006020820190508181036000830152612df481612a72565b9050919050565b60006020820190508181036000830152612e1481612a95565b9050919050565b60006020820190508181036000830152612e3481612ab8565b9050919050565b60006020820190508181036000830152612e5481612adb565b9050919050565b60006020820190508181036000830152612e7481612afe565b9050919050565b60006020820190508181036000830152612e9481612b21565b9050919050565b60006020820190508181036000830152612eb481612b44565b9050919050565b60006020820190508181036000830152612ed481612b67565b9050919050565b60006020820190508181036000830152612ef481612b8a565b9050919050565b60006020820190508181036000830152612f1481612bad565b9050919050565b60006020820190508181036000830152612f3481612bd0565b9050919050565b60006020820190508181036000830152612f5481612bf3565b9050919050565b60006020820190508181036000830152612f7481612c16565b9050919050565b60006020820190508181036000830152612f9481612c39565b9050919050565b60006020820190508181036000830152612fb481612c5c565b9050919050565b60006020820190508181036000830152612fd481612c7f565b9050919050565b60006020820190508181036000830152612ff481612ca2565b9050919050565b6000602082019050818103600083015261301481612cc5565b9050919050565b60006020820190506130306000830184612ce8565b92915050565b600060608201905061304b6000830186612ce8565b61305860208301856129ff565b6130656040830184612ce8565b949350505050565b60006040820190506130826000830185612ce8565b61308f6020830184612ce8565b9392505050565b6000610120820190506130ac600083018c612ce8565b6130b9602083018b612ce8565b6130c6604083018a612ce8565b6130d36060830189612ce8565b6130e060808301886129f0565b6130ed60a08301876129ff565b6130fa60c0830186612ce8565b61310760e0830185612a1d565b613115610100830184612a0e565b9a9950505050505050505050565b600082825260208201905092915050565b600061313f8261327e565b915061314a8361327e565b9250827fffffffffffffffffffffffffffffffffffffffffffffffffffffffffffffffff0382111561317f5761317e613325565b5b828201905092915050565b60006131958261327e565b91506131a08361327e565b9250826131b0576131af613354565b5b828204905092915050565b60006131c68261327e565b91506131d18361327e565b9250817fffffffffffffffffffffffffffffffffffffffffffffffffffffffffffffffff048311821515161561320a57613209613325565b5b828202905092915050565b60006132208261325e565b9050919050565b60006132328261325e565b9050919050565b600061324482613215565b9050919050565b600081905061325982613816565b919050565b600073ffffffffffffffffffffffffffffffffffffffff82169050919050565b6000819050919050565b6000613293826132d0565b9050919050565b60006132a5826132ac565b9050919050565b60006132b78261325e565b9050919050565b60006132c98261324b565b9050919050565b60006132db826132e2565b9050919050565b60006132ed8261325e565b9050919050565b60006132ff8261327e565b915061330a8361327e565b92508261331a57613319613354565b5b828206905092915050565b7f4e487b7100000000000000000000000000000000000000000000000000000000600052601160045260246000fd5b7f4e487b7100000000000000000000000000000000000000000000000000000000600052601260045260246000fd5b7f4e487b7100000000000000000000000000000000000000000000000000000000600052602160045260246000fd5b7f43616e6e6f742063616e63656c20746865206974656d2074686174206973206260008201527f696464656e000000000000000000000000000000000000000000000000000000602082015250565b7f4e6f7468696e6720746f20776974686472617700000000000000000000000000600082015250565b7f4f6e6c792073656c6c65722063616e20656e642069742e000000000000000000600082015250565b7f4f776e61626c653a206e6577206f776e657220697320746865207a65726f206160008201527f6464726573730000000000000000000000000000000000000000000000000000602082015250565b7f436865636b20746865206d696e696d756d20756e6974206f662073746172742060008201527f7072696365000000000000000000000000000000000000000000000000000000602082015250565b7f546f70206269646465722063616e6e6f74207769746864726177000000000000600082015250565b7f43616e6e6f742073657420656e642074696d6520617320706173742074696d65600082015250565b7f4f6e6c79206f776e65722063616e20656e726f6c6c206e667400000000000000600082015250565b7f4974206973206e6f74207468652074696d6520746f20636c6f7365206175637460008201527f696f6e0000000000000000000000000000000000000000000000000000000000602082015250565b7f54686973206974656d206973206e6f7420656e726f6c6c656400000000000000600082015250565b7f546869732061756374696f6e20697320656e646564206f722063616e63656c6c60008201527f6564000000000000000000000000000000000000000000000000000000000000602082015250565b7f53686f756c64207374617274207072696365206973206269676765722074686160008201527f6e206d696e696e756d2062696420616d6f756e74000000000000000000000000602082015250565b7f4f776e61626c653a2063616c6c6572206973206e6f7420746865206f776e6572600082015250565b7f42696420616d6f756e742073686f756c6420626520626967676572207468616e60008201527f207072657620746f7020626964206173206d756368206173206d696e756d756d60208201527f2062696420616d6f756e74000000000000000000000000000000000000000000604082015250565b7f4f6e6c792073656c6c65722063616e2063616e63656c20697400000000000000600082015250565b7f54686973206974656d206861736e2774206265656e20656e726f6c6c65640000600082015250565b7f436865636b20746865206d696e696d756d20756e6974206f6620626964000000600082015250565b7f497420697320616c72656164792073746172746564206f7220656e6465640000600082015250565b7f5265656e7472616e637947756172643a207265656e7472616e742063616c6c00600082015250565b7f41756374696f6e20697320656e64656400000000000000000000000000000000600082015250565b6003811061382757613826613383565b5b50565b61383381613215565b811461383e57600080fd5b50565b61384a81613239565b811461385557600080fd5b50565b6138618161327e565b811461386c57600080fd5b5056fea2646970667358221220d6e17c2ef8299a0f3de911666d95bb68576456cda43ead45a2a2a24b20c8594164736f6c63430008040033",
    "linkReferences": {},
    "deployedLinkReferences": {}
}