{
    "contractAddress": "0x3c97bCCEf7f9F595C352F5106Ea7f0340669a6E2",
    "_format": "hh-sol-artifact-1",
    "contractName": "Auction",
    "sourceName": "contracts/Auction.sol",
    "abi": [
        {
            "inputs": [
                {
                    "internalType": "uint256",
                    "name": "_feePercent",
                    "type": "uint256"
                }
            ],
            "stateMutability": "nonpayable",
            "type": "constructor"
        },
        {
            "anonymous": false,
            "inputs": [
                {
                    "indexed": true,
                    "internalType": "uint256",
                    "name": "itemId",
                    "type": "uint256"
                },
                {
                    "indexed": true,
                    "internalType": "address",
                    "name": "topBidder",
                    "type": "address"
                },
                {
                    "indexed": false,
                    "internalType": "uint256",
                    "name": "topBid",
                    "type": "uint256"
                }
            ],
            "name": "Bid",
            "type": "event"
        },
        {
            "anonymous": false,
            "inputs": [
                {
                    "indexed": true,
                    "internalType": "uint256",
                    "name": "itemId",
                    "type": "uint256"
                },
                {
                    "indexed": true,
                    "internalType": "address",
                    "name": "seller",
                    "type": "address"
                }
            ],
            "name": "Cancel",
            "type": "event"
        },
        {
            "anonymous": false,
            "inputs": [
                {
                    "indexed": true,
                    "internalType": "uint256",
                    "name": "itemId",
                    "type": "uint256"
                },
                {
                    "indexed": true,
                    "internalType": "address",
                    "name": "buyer",
                    "type": "address"
                },
                {
                    "indexed": false,
                    "internalType": "uint256",
                    "name": "buyingPrice",
                    "type": "uint256"
                },
                {
                    "indexed": false,
                    "internalType": "uint256",
                    "name": "fee",
                    "type": "uint256"
                }
            ],
            "name": "End",
            "type": "event"
        },
        {
            "anonymous": false,
            "inputs": [
                {
                    "indexed": true,
                    "internalType": "uint256",
                    "name": "itemId",
                    "type": "uint256"
                },
                {
                    "indexed": false,
                    "internalType": "uint256",
                    "name": "_startPrice",
                    "type": "uint256"
                },
                {
                    "indexed": false,
                    "internalType": "address",
                    "name": "_nft",
                    "type": "address"
                },
                {
                    "indexed": true,
                    "internalType": "uint256",
                    "name": "_tokenId",
                    "type": "uint256"
                },
                {
                    "indexed": true,
                    "internalType": "address",
                    "name": "seller",
                    "type": "address"
                }
            ],
            "name": "Enrolled",
            "type": "event"
        },
        {
            "anonymous": false,
            "inputs": [
                {
                    "indexed": true,
                    "internalType": "address",
                    "name": "previousOwner",
                    "type": "address"
                },
                {
                    "indexed": true,
                    "internalType": "address",
                    "name": "newOwner",
                    "type": "address"
                }
            ],
            "name": "OwnershipTransferred",
            "type": "event"
        },
        {
            "anonymous": false,
            "inputs": [
                {
                    "indexed": true,
                    "internalType": "uint256",
                    "name": "itemId",
                    "type": "uint256"
                },
                {
                    "indexed": true,
                    "internalType": "address",
                    "name": "bidder",
                    "type": "address"
                },
                {
                    "indexed": false,
                    "internalType": "uint256",
                    "name": "balance",
                    "type": "uint256"
                }
            ],
            "name": "Withdraw",
            "type": "event"
        },
        {
            "inputs": [
                {
                    "internalType": "uint256",
                    "name": "_itemId",
                    "type": "uint256"
                }
            ],
            "name": "bid",
            "outputs": [],
            "stateMutability": "payable",
            "type": "function"
        },
        {
            "inputs": [
                {
                    "internalType": "uint256",
                    "name": "_price",
                    "type": "uint256"
                }
            ],
            "name": "calPriceWithFee",
            "outputs": [
                {
                    "internalType": "uint256",
                    "name": "",
                    "type": "uint256"
                }
            ],
            "stateMutability": "view",
            "type": "function"
        },
        {
            "inputs": [
                {
                    "internalType": "uint256",
                    "name": "_itemId",
                    "type": "uint256"
                }
            ],
            "name": "cancel",
            "outputs": [],
            "stateMutability": "nonpayable",
            "type": "function"
        },
        {
            "inputs": [
                {
                    "internalType": "uint256",
                    "name": "_itemId",
                    "type": "uint256"
                }
            ],
            "name": "end",
            "outputs": [],
            "stateMutability": "nonpayable",
            "type": "function"
        },
        {
            "inputs": [
                {
                    "internalType": "uint256",
                    "name": "_startPrice",
                    "type": "uint256"
                },
                {
                    "internalType": "uint256",
                    "name": "_endAt",
                    "type": "uint256"
                },
                {
                    "internalType": "contract IERC721",
                    "name": "_nft",
                    "type": "address"
                },
                {
                    "internalType": "uint256",
                    "name": "_tokenId",
                    "type": "uint256"
                }
            ],
            "name": "enroll",
            "outputs": [],
            "stateMutability": "nonpayable",
            "type": "function"
        },
        {
            "inputs": [],
            "name": "feeAccount",
            "outputs": [
                {
                    "internalType": "address payable",
                    "name": "",
                    "type": "address"
                }
            ],
            "stateMutability": "view",
            "type": "function"
        },
        {
            "inputs": [],
            "name": "feePercent",
            "outputs": [
                {
                    "internalType": "uint256",
                    "name": "",
                    "type": "uint256"
                }
            ],
            "stateMutability": "view",
            "type": "function"
        },
        {
            "inputs": [
                {
                    "internalType": "uint256",
                    "name": "_itemId",
                    "type": "uint256"
                }
            ],
            "name": "forceCancel",
            "outputs": [],
            "stateMutability": "nonpayable",
            "type": "function"
        },
        {
            "inputs": [
                {
                    "internalType": "uint256",
                    "name": "_itemId",
                    "type": "uint256"
                }
            ],
            "name": "forceEnd",
            "outputs": [],
            "stateMutability": "nonpayable",
            "type": "function"
        },
        {
            "inputs": [],
            "name": "getBlockTimestamp",
            "outputs": [
                {
                    "internalType": "uint256",
                    "name": "",
                    "type": "uint256"
                }
            ],
            "stateMutability": "view",
            "type": "function"
        },
        {
            "inputs": [
                {
                    "internalType": "uint256",
                    "name": "_itemId",
                    "type": "uint256"
                }
            ],
            "name": "getItems",
            "outputs": [
                {
                    "components": [
                        {
                            "internalType": "uint256",
                            "name": "startPrice",
                            "type": "uint256"
                        },
                        {
                            "internalType": "uint256",
                            "name": "startAt",
                            "type": "uint256"
                        },
                        {
                            "internalType": "uint256",
                            "name": "endAt",
                            "type": "uint256"
                        },
                        {
                            "internalType": "uint256",
                            "name": "tokenId",
                            "type": "uint256"
                        },
                        {
                            "internalType": "address payable",
                            "name": "seller",
                            "type": "address"
                        },
                        {
                            "internalType": "address",
                            "name": "topBidder",
                            "type": "address"
                        },
                        {
                            "internalType": "uint256",
                            "name": "topBid",
                            "type": "uint256"
                        },
                        {
                            "internalType": "enum Auction.StatusType",
                            "name": "status",
                            "type": "uint8"
                        },
                        {
                            "internalType": "contract IERC721",
                            "name": "nft",
                            "type": "address"
                        }
                    ],
                    "internalType": "struct Auction.Item",
                    "name": "",
                    "type": "tuple"
                }
            ],
            "stateMutability": "view",
            "type": "function"
        },
        {
            "inputs": [
                {
                    "internalType": "address",
                    "name": "_nft",
                    "type": "address"
                },
                {
                    "internalType": "uint256",
                    "name": "_tokenId",
                    "type": "uint256"
                }
            ],
            "name": "getNftToItemId",
            "outputs": [
                {
                    "internalType": "uint256",
                    "name": "",
                    "type": "uint256"
                }
            ],
            "stateMutability": "view",
            "type": "function"
        },
        {
            "inputs": [
                {
                    "internalType": "uint256",
                    "name": "_itemId",
                    "type": "uint256"
                },
                {
                    "internalType": "address",
                    "name": "_addr",
                    "type": "address"
                }
            ],
            "name": "getPendingBids",
            "outputs": [
                {
                    "internalType": "uint256",
                    "name": "",
                    "type": "uint256"
                }
            ],
            "stateMutability": "view",
            "type": "function"
        },
        {
            "inputs": [],
            "name": "itemCounter",
            "outputs": [
                {
                    "internalType": "uint256",
                    "name": "_value",
                    "type": "uint256"
                }
            ],
            "stateMutability": "view",
            "type": "function"
        },
        {
            "inputs": [
                {
                    "internalType": "uint256",
                    "name": "",
                    "type": "uint256"
                }
            ],
            "name": "items",
            "outputs": [
                {
                    "internalType": "uint256",
                    "name": "startPrice",
                    "type": "uint256"
                },
                {
                    "internalType": "uint256",
                    "name": "startAt",
                    "type": "uint256"
                },
                {
                    "internalType": "uint256",
                    "name": "endAt",
                    "type": "uint256"
                },
                {
                    "internalType": "uint256",
                    "name": "tokenId",
                    "type": "uint256"
                },
                {
                    "internalType": "address payable",
                    "name": "seller",
                    "type": "address"
                },
                {
                    "internalType": "address",
                    "name": "topBidder",
                    "type": "address"
                },
                {
                    "internalType": "uint256",
                    "name": "topBid",
                    "type": "uint256"
                },
                {
                    "internalType": "enum Auction.StatusType",
                    "name": "status",
                    "type": "uint8"
                },
                {
                    "internalType": "contract IERC721",
                    "name": "nft",
                    "type": "address"
                }
            ],
            "stateMutability": "view",
            "type": "function"
        },
        {
            "inputs": [],
            "name": "minBidUnit",
            "outputs": [
                {
                    "internalType": "uint256",
                    "name": "",
                    "type": "uint256"
                }
            ],
            "stateMutability": "view",
            "type": "function"
        },
        {
            "inputs": [
                {
                    "internalType": "address",
                    "name": "",
                    "type": "address"
                },
                {
                    "internalType": "uint256",
                    "name": "",
                    "type": "uint256"
                }
            ],
            "name": "nftToItemId",
            "outputs": [
                {
                    "internalType": "uint256",
                    "name": "",
                    "type": "uint256"
                }
            ],
            "stateMutability": "view",
            "type": "function"
        },
        {
            "inputs": [],
            "name": "owner",
            "outputs": [
                {
                    "internalType": "address",
                    "name": "",
                    "type": "address"
                }
            ],
            "stateMutability": "view",
            "type": "function"
        },
        {
            "inputs": [
                {
                    "internalType": "uint256",
                    "name": "",
                    "type": "uint256"
                },
                {
                    "internalType": "address",
                    "name": "",
                    "type": "address"
                }
            ],
            "name": "pendingBids",
            "outputs": [
                {
                    "internalType": "uint256",
                    "name": "",
                    "type": "uint256"
                }
            ],
            "stateMutability": "view",
            "type": "function"
        },
        {
            "inputs": [
                {
                    "internalType": "uint256",
                    "name": "_priceWithFee",
                    "type": "uint256"
                }
            ],
            "name": "removeFee",
            "outputs": [
                {
                    "internalType": "uint256",
                    "name": "",
                    "type": "uint256"
                }
            ],
            "stateMutability": "view",
            "type": "function"
        },
        {
            "inputs": [],
            "name": "renounceOwnership",
            "outputs": [],
            "stateMutability": "nonpayable",
            "type": "function"
        },
        {
            "inputs": [
                {
                    "internalType": "address",
                    "name": "newOwner",
                    "type": "address"
                }
            ],
            "name": "transferOwnership",
            "outputs": [],
            "stateMutability": "nonpayable",
            "type": "function"
        },
        {
            "inputs": [
                {
                    "internalType": "uint256",
                    "name": "_itemId",
                    "type": "uint256"
                }
            ],
            "name": "withdraw",
            "outputs": [],
            "stateMutability": "nonpayable",
            "type": "function"
        }
    ],
    "bytecode": "0x60c06040523480156200001157600080fd5b50604051620049cd380380620049cd833981810160405281019062000037919062000197565b60016000819055506200005f62000053620000b260201b60201c565b620000ba60201b60201c565b8060a081815250503373ffffffffffffffffffffffffffffffffffffffff1660808173ffffffffffffffffffffffffffffffffffffffff1660601b815250506509184e72a00060048190555050620001e7565b600033905090565b6000600160009054906101000a900473ffffffffffffffffffffffffffffffffffffffff16905081600160006101000a81548173ffffffffffffffffffffffffffffffffffffffff021916908373ffffffffffffffffffffffffffffffffffffffff1602179055508173ffffffffffffffffffffffffffffffffffffffff168173ffffffffffffffffffffffffffffffffffffffff167f8be0079c531659141344cd1fd0a4f28419497f9722a3daafe3b4186f6b6457e060405160405180910390a35050565b6000815190506200019181620001cd565b92915050565b600060208284031215620001aa57600080fd5b6000620001ba8482850162000180565b91505092915050565b6000819050919050565b620001d881620001c3565b8114620001e457600080fd5b50565b60805160601c60a05161478c62000241600039600081816107f6015281816119390152818161198801528181611ca50152818161277f01526129790152600081816109b4015281816119fc015261293d015261478c6000f3fe6080604052600436106101405760003560e01c8063796b89b9116100b6578063d99919dd1161006f578063d99919dd1461046b578063e373eeac146104a8578063f152b5bd146104d1578063f2fde38b146104fa578063f438f01914610523578063f8cd207a1461054c57610140565b8063796b89b91461032b578063796c5e94146103565780637fd6f15c146103935780638024656a146103be5780638da5cb5b146103fb578063bfb231d21461042657610140565b806355c2c7c21161010857806355c2c7c2146102195780635dcd7d9e14610256578063649b998d1461029357806365e17c9d146102be5780636d6d00ed146102e9578063715018a61461031457610140565b80630ad24528146101455780632e1a7d4d1461016e57806340e58ee514610197578063454a2ab3146101c0578063499a2818146101dc575b600080fd5b34801561015157600080fd5b5061016c60048036038101906101679190613629565b610589565b005b34801561017a57600080fd5b5061019560048036038101906101909190613629565b610d52565b005b3480156101a357600080fd5b506101be60048036038101906101b99190613629565b610fde565b005b6101da60048036038101906101d59190613629565b611501565b005b3480156101e857600080fd5b5061020360048036038101906101fe9190613629565b611935565b6040516102109190613e9b565b60405180910390f35b34801561022557600080fd5b50610240600480360381019061023b9190613629565b611982565b60405161024d9190613e9b565b60405180910390f35b34801561026257600080fd5b5061027d600480360381019061027891906135c4565b6119cf565b60405161028a9190613e9b565b60405180910390f35b34801561029f57600080fd5b506102a86119f4565b6040516102b59190613e9b565b60405180910390f35b3480156102ca57600080fd5b506102d36119fa565b6040516102e09190613b56565b60405180910390f35b3480156102f557600080fd5b506102fe611a1e565b60405161030b9190613e9b565b60405180910390f35b34801561032057600080fd5b50610329611a2a565b005b34801561033757600080fd5b50610340611ab2565b60405161034d9190613e9b565b60405180910390f35b34801561036257600080fd5b5061037d60048036038101906103789190613629565b611aba565b60405161038a9190613e7f565b60405180910390f35b34801561039f57600080fd5b506103a8611ca3565b6040516103b59190613e9b565b60405180910390f35b3480156103ca57600080fd5b506103e560048036038101906103e09190613652565b611cc7565b6040516103f29190613e9b565b60405180910390f35b34801561040757600080fd5b50610410611cec565b60405161041d9190613b3b565b60405180910390f35b34801561043257600080fd5b5061044d60048036038101906104489190613629565b611d16565b60405161046299989796959493929190613f31565b60405180910390f35b34801561047757600080fd5b50610492600480360381019061048d91906135c4565b611dd1565b60405161049f9190613e9b565b60405180910390f35b3480156104b457600080fd5b506104cf60048036038101906104ca919061368e565b611e2c565b005b3480156104dd57600080fd5b506104f860048036038101906104f39190613629565b612581565b005b34801561050657600080fd5b50610521600480360381019061051c9190613572565b612d15565b005b34801561052f57600080fd5b5061054a60048036038101906105459190613629565b612e0d565b005b34801561055857600080fd5b50610573600480360381019061056e9190613652565b6132f6565b6040516105809190613e9b565b60405180910390f35b600260005414156105cf576040517f08c379a00000000000000000000000000000000000000000000000000000000081526004016105c690613e3f565b60405180910390fd5b6002600081905550806005600082815260200190815260200160002060040160009054906101000a900473ffffffffffffffffffffffffffffffffffffffff1673ffffffffffffffffffffffffffffffffffffffff163373ffffffffffffffffffffffffffffffffffffffff161461067c576040517f08c379a000000000000000000000000000000000000000000000000000000000815260040161067390613c1f565b60405180910390fd5b6000600560008481526020019081526020016000209050600060028111156106cd577f4e487b7100000000000000000000000000000000000000000000000000000000600052602160045260246000fd5b8160070160009054906101000a900460ff166002811115610717577f4e487b7100000000000000000000000000000000000000000000000000000000600052602160045260246000fd5b14610757576040517f08c379a000000000000000000000000000000000000000000000000000000000815260040161074e90613ddf565b60405180910390fd5b8060020154421161079d576040517f08c379a000000000000000000000000000000000000000000000000000000000815260040161079490613cff565b60405180910390fd5b60018160070160006101000a81548160ff021916908360028111156107eb577f4e487b7100000000000000000000000000000000000000000000000000000000600052602160045260246000fd5b0217905550600060647f000000000000000000000000000000000000000000000000000000000000000083600601546108249190614056565b61082e9190614025565b9050600073ffffffffffffffffffffffffffffffffffffffff168260050160009054906101000a900473ffffffffffffffffffffffffffffffffffffffff1673ffffffffffffffffffffffffffffffffffffffff1614610a98578160070160019054906101000a900473ffffffffffffffffffffffffffffffffffffffff1673ffffffffffffffffffffffffffffffffffffffff166323b872dd308460050160009054906101000a900473ffffffffffffffffffffffffffffffffffffffff1685600301546040518463ffffffff1660e01b815260040161091193929190613ba8565b600060405180830381600087803b15801561092b57600080fd5b505af115801561093f573d6000803e3d6000fd5b505050508160040160009054906101000a900473ffffffffffffffffffffffffffffffffffffffff1673ffffffffffffffffffffffffffffffffffffffff166108fc83600601549081150290604051600060405180830381858888f193505050501580156109b1573d6000803e3d6000fd5b507f000000000000000000000000000000000000000000000000000000000000000073ffffffffffffffffffffffffffffffffffffffff166108fc829081150290604051600060405180830381858888f19350505050158015610a18573d6000803e3d6000fd5b5060006007600086815260200190815260200160002060008460050160009054906101000a900473ffffffffffffffffffffffffffffffffffffffff1673ffffffffffffffffffffffffffffffffffffffff1673ffffffffffffffffffffffffffffffffffffffff16815260200190815260200160002081905550610b54565b8160070160019054906101000a900473ffffffffffffffffffffffffffffffffffffffff1673ffffffffffffffffffffffffffffffffffffffff166323b872dd308460040160009054906101000a900473ffffffffffffffffffffffffffffffffffffffff1685600301546040518463ffffffff1660e01b8152600401610b2193929190613b71565b600060405180830381600087803b158015610b3b57600080fd5b505af1158015610b4f573d6000803e3d6000fd5b505050505b6000600660008460070160019054906101000a900473ffffffffffffffffffffffffffffffffffffffff1673ffffffffffffffffffffffffffffffffffffffff1673ffffffffffffffffffffffffffffffffffffffff168152602001908152602001600020600084600301548152602001908152602001600020819055508160050160009054906101000a900473ffffffffffffffffffffffffffffffffffffffff1673ffffffffffffffffffffffffffffffffffffffff16847f469f1b328eb8ff62596282103d0cc1b13328b1326d448bd04220a2ed2b6f631b846006015484604051610c43929190613f08565b60405180910390a38160070160019054906101000a900473ffffffffffffffffffffffffffffffffffffffff16600260006101000a81548173ffffffffffffffffffffffffffffffffffffffff021916908373ffffffffffffffffffffffffffffffffffffffff160217905550600260009054906101000a900473ffffffffffffffffffffffffffffffffffffffff1673ffffffffffffffffffffffffffffffffffffffff1663a27b467d836003015460006040518363ffffffff1660e01b8152600401610d12929190613edf565b600060405180830381600087803b158015610d2c57600080fd5b505af1158015610d40573d6000803e3d6000fd5b50505050505050600160008190555050565b60026000541415610d98576040517f08c379a0000000000000000000000000000000000000000000000000000000008152600401610d8f90613e3f565b60405180910390fd5b600260008190555060006007600083815260200190815260200160002060003373ffffffffffffffffffffffffffffffffffffffff1673ffffffffffffffffffffffffffffffffffffffff1681526020019081526020016000205490506000811415610e39576040517f08c379a0000000000000000000000000000000000000000000000000000000008152600401610e3090613bff565b60405180910390fd5b6005600083815260200190815260200160002060050160009054906101000a900473ffffffffffffffffffffffffffffffffffffffff1673ffffffffffffffffffffffffffffffffffffffff163373ffffffffffffffffffffffffffffffffffffffff161415610ede576040517f08c379a0000000000000000000000000000000000000000000000000000000008152600401610ed590613c7f565b60405180910390fd5b60006007600084815260200190815260200160002060003373ffffffffffffffffffffffffffffffffffffffff1673ffffffffffffffffffffffffffffffffffffffff168152602001908152602001600020819055503373ffffffffffffffffffffffffffffffffffffffff166108fc610f5783611982565b9081150290604051600060405180830381858888f19350505050158015610f82573d6000803e3d6000fd5b503373ffffffffffffffffffffffffffffffffffffffff16827f9da6493a92039daf47d1f2d7a782299c5994c6323eb1e972f69c432089ec52bf83604051610fca9190613e9b565b60405180910390a350600160008190555050565b60026000541415611024576040517f08c379a000000000000000000000000000000000000000000000000000000000815260040161101b90613e3f565b60405180910390fd5b600260008190555060006005600083815260200190815260200160002090508060040160009054906101000a900473ffffffffffffffffffffffffffffffffffffffff1673ffffffffffffffffffffffffffffffffffffffff163373ffffffffffffffffffffffffffffffffffffffff16146110d5576040517f08c379a00000000000000000000000000000000000000000000000000000000081526004016110cc90613dbf565b60405180910390fd5b6000600281111561110f577f4e487b7100000000000000000000000000000000000000000000000000000000600052602160045260246000fd5b8160070160009054906101000a900460ff166002811115611159577f4e487b7100000000000000000000000000000000000000000000000000000000600052602160045260246000fd5b14611199576040517f08c379a000000000000000000000000000000000000000000000000000000000815260040161119090613e1f565b60405180910390fd5b600073ffffffffffffffffffffffffffffffffffffffff168160050160009054906101000a900473ffffffffffffffffffffffffffffffffffffffff1673ffffffffffffffffffffffffffffffffffffffff161461122c576040517f08c379a000000000000000000000000000000000000000000000000000000000815260040161122390613bdf565b60405180910390fd5b60028160070160006101000a81548160ff0219169083600281111561127a577f4e487b7100000000000000000000000000000000000000000000000000000000600052602160045260246000fd5b02179055508060070160019054906101000a900473ffffffffffffffffffffffffffffffffffffffff1673ffffffffffffffffffffffffffffffffffffffff166323b872dd308360040160009054906101000a900473ffffffffffffffffffffffffffffffffffffffff1684600301546040518463ffffffff1660e01b815260040161130893929190613b71565b600060405180830381600087803b15801561132257600080fd5b505af1158015611336573d6000803e3d6000fd5b505050506000600660008360070160019054906101000a900473ffffffffffffffffffffffffffffffffffffffff1673ffffffffffffffffffffffffffffffffffffffff1673ffffffffffffffffffffffffffffffffffffffff168152602001908152602001600020600083600301548152602001908152602001600020819055503373ffffffffffffffffffffffffffffffffffffffff16827f8dd3c361eb2366ff27c2db0eb07b9261f1d052570742ab8c9a0c326f37aa576d60405160405180910390a38060070160019054906101000a900473ffffffffffffffffffffffffffffffffffffffff16600260006101000a81548173ffffffffffffffffffffffffffffffffffffffff021916908373ffffffffffffffffffffffffffffffffffffffff160217905550600260009054906101000a900473ffffffffffffffffffffffffffffffffffffffff1673ffffffffffffffffffffffffffffffffffffffff1663a27b467d826003015460006040518363ffffffff1660e01b81526004016114c3929190613edf565b600060405180830381600087803b1580156114dd57600080fd5b505af11580156114f1573d6000803e3d6000fd5b5050505050600160008190555050565b60026000541415611547576040517f08c379a000000000000000000000000000000000000000000000000000000000815260040161153e90613e3f565b60405180910390fd5b6002600081905550600060045461155d34611935565b611567919061419b565b146115a7576040517f08c379a000000000000000000000000000000000000000000000000000000000815260040161159e90613dff565b60405180910390fd5b6115b16003613351565b8111156115f3576040517f08c379a00000000000000000000000000000000000000000000000000000000081526004016115ea90613d1f565b60405180910390fd5b600060056000838152602001908152602001600020905080600201544210611650576040517f08c379a000000000000000000000000000000000000000000000000000000000815260040161164790613e5f565b60405180910390fd5b6000600281111561168a577f4e487b7100000000000000000000000000000000000000000000000000000000600052602160045260246000fd5b8160070160009054906101000a900460ff1660028111156116d4577f4e487b7100000000000000000000000000000000000000000000000000000000600052602160045260246000fd5b14611714576040517f08c379a000000000000000000000000000000000000000000000000000000000815260040161170b90613d3f565b60405180910390fd5b60045481600601546117269190613fcf565b6007600084815260200190815260200160002060003373ffffffffffffffffffffffffffffffffffffffff1673ffffffffffffffffffffffffffffffffffffffff1681526020019081526020016000205461178034611935565b61178a9190613fcf565b10156117cb576040517f08c379a00000000000000000000000000000000000000000000000000000000081526004016117c290613d9f565b60405180910390fd5b6117d434611935565b6007600084815260200190815260200160002060003373ffffffffffffffffffffffffffffffffffffffff1673ffffffffffffffffffffffffffffffffffffffff16815260200190815260200160002060008282546118339190613fcf565b925050819055506007600083815260200190815260200160002060003373ffffffffffffffffffffffffffffffffffffffff1673ffffffffffffffffffffffffffffffffffffffff168152602001908152602001600020548160060181905550338160050160006101000a81548173ffffffffffffffffffffffffffffffffffffffff021916908373ffffffffffffffffffffffffffffffffffffffff1602179055503373ffffffffffffffffffffffffffffffffffffffff16827fdcd726e11f8b5e160f00290f0fe3a1abb547474e53a8e7a8f49a85e7b1ca319983600601546040516119219190613e9b565b60405180910390a350600160008190555050565b60007f000000000000000000000000000000000000000000000000000000000000000060646119649190613fcf565b6064836119719190614056565b61197b9190614025565b9050919050565b600060647f000000000000000000000000000000000000000000000000000000000000000060646119b39190613fcf565b836119be9190614056565b6119c89190614025565b9050919050565b6006602052816000526040600020602052806000526040600020600091509150505481565b60045481565b7f000000000000000000000000000000000000000000000000000000000000000081565b60038060000154905081565b611a3261335f565b73ffffffffffffffffffffffffffffffffffffffff16611a50611cec565b73ffffffffffffffffffffffffffffffffffffffff1614611aa6576040517f08c379a0000000000000000000000000000000000000000000000000000000008152600401611a9d90613d7f565b60405180910390fd5b611ab06000613367565b565b600042905090565b611ac2613443565b6005600083815260200190815260200160002060405180610120016040529081600082015481526020016001820154815260200160028201548152602001600382015481526020016004820160009054906101000a900473ffffffffffffffffffffffffffffffffffffffff1673ffffffffffffffffffffffffffffffffffffffff1673ffffffffffffffffffffffffffffffffffffffff1681526020016005820160009054906101000a900473ffffffffffffffffffffffffffffffffffffffff1673ffffffffffffffffffffffffffffffffffffffff1673ffffffffffffffffffffffffffffffffffffffff168152602001600682015481526020016007820160009054906101000a900460ff166002811115611c0a577f4e487b7100000000000000000000000000000000000000000000000000000000600052602160045260246000fd5b6002811115611c42577f4e487b7100000000000000000000000000000000000000000000000000000000600052602160045260246000fd5b81526020016007820160019054906101000a900473ffffffffffffffffffffffffffffffffffffffff1673ffffffffffffffffffffffffffffffffffffffff1673ffffffffffffffffffffffffffffffffffffffff16815250509050919050565b7f000000000000000000000000000000000000000000000000000000000000000081565b6007602052816000526040600020602052806000526040600020600091509150505481565b6000600160009054906101000a900473ffffffffffffffffffffffffffffffffffffffff16905090565b60056020528060005260406000206000915090508060000154908060010154908060020154908060030154908060040160009054906101000a900473ffffffffffffffffffffffffffffffffffffffff16908060050160009054906101000a900473ffffffffffffffffffffffffffffffffffffffff16908060060154908060070160009054906101000a900460ff16908060070160019054906101000a900473ffffffffffffffffffffffffffffffffffffffff16905089565b6000600660008473ffffffffffffffffffffffffffffffffffffffff1673ffffffffffffffffffffffffffffffffffffffff168152602001908152602001600020600083815260200190815260200160002054905092915050565b60026000541415611e72576040517f08c379a0000000000000000000000000000000000000000000000000000000008152600401611e6990613e3f565b60405180910390fd5b600260008190555081818173ffffffffffffffffffffffffffffffffffffffff16636352211e826040518263ffffffff1660e01b8152600401611eb59190613e9b565b60206040518083038186803b158015611ecd57600080fd5b505afa158015611ee1573d6000803e3d6000fd5b505050506040513d601f19601f82011682018060405250810190611f05919061359b565b73ffffffffffffffffffffffffffffffffffffffff163373ffffffffffffffffffffffffffffffffffffffff1614611f72576040517f08c379a0000000000000000000000000000000000000000000000000000000008152600401611f6990613cbf565b60405180910390fd5b600060045487611f82919061419b565b14611fc2576040517f08c379a0000000000000000000000000000000000000000000000000000000008152600401611fb990613c5f565b60405180910390fd5b600454861015612007576040517f08c379a0000000000000000000000000000000000000000000000000000000008152600401611ffe90613d5f565b60405180910390fd5b844210612049576040517f08c379a000000000000000000000000000000000000000000000000000000000815260040161204090613c9f565b60405180910390fd5b83600260006101000a81548173ffffffffffffffffffffffffffffffffffffffff021916908373ffffffffffffffffffffffffffffffffffffffff160217905550600260009054906101000a900473ffffffffffffffffffffffffffffffffffffffff1673ffffffffffffffffffffffffffffffffffffffff166305dcd1ff846040518263ffffffff1660e01b81526004016120e59190613e9b565b60206040518083038186803b1580156120fd57600080fd5b505afa158015612111573d6000803e3d6000fd5b505050506040513d601f19601f820116820180604052508101906121359190613600565b15612175576040517f08c379a000000000000000000000000000000000000000000000000000000000815260040161216c90613cdf565b60405180910390fd5b61217f600361342d565b600061218b6003613351565b90506040518061012001604052808881526020014281526020016103e8886121b39190614025565b81526020018581526020013373ffffffffffffffffffffffffffffffffffffffff168152602001600073ffffffffffffffffffffffffffffffffffffffff16815260200188815260200160006002811115612237577f4e487b7100000000000000000000000000000000000000000000000000000000600052602160045260246000fd5b81526020018673ffffffffffffffffffffffffffffffffffffffff16815250600560008381526020019081526020016000206000820151816000015560208201518160010155604082015181600201556060820151816003015560808201518160040160006101000a81548173ffffffffffffffffffffffffffffffffffffffff021916908373ffffffffffffffffffffffffffffffffffffffff16021790555060a08201518160050160006101000a81548173ffffffffffffffffffffffffffffffffffffffff021916908373ffffffffffffffffffffffffffffffffffffffff16021790555060c0820151816006015560e08201518160070160006101000a81548160ff0219169083600281111561237a577f4e487b7100000000000000000000000000000000000000000000000000000000600052602160045260246000fd5b02179055506101008201518160070160016101000a81548173ffffffffffffffffffffffffffffffffffffffff021916908373ffffffffffffffffffffffffffffffffffffffff16021790555090505080600660008773ffffffffffffffffffffffffffffffffffffffff1673ffffffffffffffffffffffffffffffffffffffff1681526020019081526020016000206000868152602001908152602001600020819055508473ffffffffffffffffffffffffffffffffffffffff166323b872dd3330876040518463ffffffff1660e01b815260040161245c93929190613ba8565b600060405180830381600087803b15801561247657600080fd5b505af115801561248a573d6000803e3d6000fd5b505050503373ffffffffffffffffffffffffffffffffffffffff1684827f54346fc0e5c9d95e1fd90238bb8ce8c608de8bb4845a2de76f31c58428a18c808a896040516124d8929190613eb6565b60405180910390a4600260009054906101000a900473ffffffffffffffffffffffffffffffffffffffff1673ffffffffffffffffffffffffffffffffffffffff1663a27b467d8560016040518363ffffffff1660e01b815260040161253e929190613edf565b600060405180830381600087803b15801561255857600080fd5b505af115801561256c573d6000803e3d6000fd5b50505050505050600160008190555050505050565b600260005414156125c7576040517f08c379a00000000000000000000000000000000000000000000000000000000081526004016125be90613e3f565b60405180910390fd5b60026000819055506125d761335f565b73ffffffffffffffffffffffffffffffffffffffff166125f5611cec565b73ffffffffffffffffffffffffffffffffffffffff161461264b576040517f08c379a000000000000000000000000000000000000000000000000000000000815260040161264290613d7f565b60405180910390fd5b60006005600083815260200190815260200160002090506000600281111561269c577f4e487b7100000000000000000000000000000000000000000000000000000000600052602160045260246000fd5b8160070160009054906101000a900460ff1660028111156126e6577f4e487b7100000000000000000000000000000000000000000000000000000000600052602160045260246000fd5b14612726576040517f08c379a000000000000000000000000000000000000000000000000000000000815260040161271d90613ddf565b60405180910390fd5b60018160070160006101000a81548160ff02191690836002811115612774577f4e487b7100000000000000000000000000000000000000000000000000000000600052602160045260246000fd5b0217905550600060647f000000000000000000000000000000000000000000000000000000000000000083600601546127ad9190614056565b6127b79190614025565b9050600073ffffffffffffffffffffffffffffffffffffffff168260050160009054906101000a900473ffffffffffffffffffffffffffffffffffffffff1673ffffffffffffffffffffffffffffffffffffffff1614612a5c578160070160019054906101000a900473ffffffffffffffffffffffffffffffffffffffff1673ffffffffffffffffffffffffffffffffffffffff166342842e0e308460050160009054906101000a900473ffffffffffffffffffffffffffffffffffffffff1685600301546040518463ffffffff1660e01b815260040161289a93929190613ba8565b600060405180830381600087803b1580156128b457600080fd5b505af11580156128c8573d6000803e3d6000fd5b505050508160040160009054906101000a900473ffffffffffffffffffffffffffffffffffffffff1673ffffffffffffffffffffffffffffffffffffffff166108fc83600601549081150290604051600060405180830381858888f1935050505015801561293a573d6000803e3d6000fd5b507f000000000000000000000000000000000000000000000000000000000000000073ffffffffffffffffffffffffffffffffffffffff166108fc60647f000000000000000000000000000000000000000000000000000000000000000085600601546129a79190614056565b6129b19190614025565b9081150290604051600060405180830381858888f193505050501580156129dc573d6000803e3d6000fd5b5060006007600085815260200190815260200160002060008460050160009054906101000a900473ffffffffffffffffffffffffffffffffffffffff1673ffffffffffffffffffffffffffffffffffffffff1673ffffffffffffffffffffffffffffffffffffffff16815260200190815260200160002081905550612b18565b8160070160019054906101000a900473ffffffffffffffffffffffffffffffffffffffff1673ffffffffffffffffffffffffffffffffffffffff166342842e0e308460040160009054906101000a900473ffffffffffffffffffffffffffffffffffffffff1685600301546040518463ffffffff1660e01b8152600401612ae593929190613b71565b600060405180830381600087803b158015612aff57600080fd5b505af1158015612b13573d6000803e3d6000fd5b505050505b6000600660008460070160019054906101000a900473ffffffffffffffffffffffffffffffffffffffff1673ffffffffffffffffffffffffffffffffffffffff1673ffffffffffffffffffffffffffffffffffffffff168152602001908152602001600020600084600301548152602001908152602001600020819055508160050160009054906101000a900473ffffffffffffffffffffffffffffffffffffffff1673ffffffffffffffffffffffffffffffffffffffff16837f469f1b328eb8ff62596282103d0cc1b13328b1326d448bd04220a2ed2b6f631b846006015484604051612c07929190613f08565b60405180910390a38160070160019054906101000a900473ffffffffffffffffffffffffffffffffffffffff16600260006101000a81548173ffffffffffffffffffffffffffffffffffffffff021916908373ffffffffffffffffffffffffffffffffffffffff160217905550600260009054906101000a900473ffffffffffffffffffffffffffffffffffffffff1673ffffffffffffffffffffffffffffffffffffffff1663a27b467d836003015460006040518363ffffffff1660e01b8152600401612cd6929190613edf565b600060405180830381600087803b158015612cf057600080fd5b505af1158015612d04573d6000803e3d6000fd5b505050505050600160008190555050565b612d1d61335f565b73ffffffffffffffffffffffffffffffffffffffff16612d3b611cec565b73ffffffffffffffffffffffffffffffffffffffff1614612d91576040517f08c379a0000000000000000000000000000000000000000000000000000000008152600401612d8890613d7f565b60405180910390fd5b600073ffffffffffffffffffffffffffffffffffffffff168173ffffffffffffffffffffffffffffffffffffffff161415612e01576040517f08c379a0000000000000000000000000000000000000000000000000000000008152600401612df890613c3f565b60405180910390fd5b612e0a81613367565b50565b60026000541415612e53576040517f08c379a0000000000000000000000000000000000000000000000000000000008152600401612e4a90613e3f565b60405180910390fd5b6002600081905550612e6361335f565b73ffffffffffffffffffffffffffffffffffffffff16612e81611cec565b73ffffffffffffffffffffffffffffffffffffffff1614612ed7576040517f08c379a0000000000000000000000000000000000000000000000000000000008152600401612ece90613d7f565b60405180910390fd5b600060056000838152602001908152602001600020905060006002811115612f28577f4e487b7100000000000000000000000000000000000000000000000000000000600052602160045260246000fd5b8160070160009054906101000a900460ff166002811115612f72577f4e487b7100000000000000000000000000000000000000000000000000000000600052602160045260246000fd5b14612fb2576040517f08c379a0000000000000000000000000000000000000000000000000000000008152600401612fa990613e1f565b60405180910390fd5b60028160070160006101000a81548160ff02191690836002811115613000577f4e487b7100000000000000000000000000000000000000000000000000000000600052602160045260246000fd5b02179055508060050160009054906101000a900473ffffffffffffffffffffffffffffffffffffffff1673ffffffffffffffffffffffffffffffffffffffff166108fc82600601549081150290604051600060405180830381858888f19350505050158015613073573d6000803e3d6000fd5b508060070160019054906101000a900473ffffffffffffffffffffffffffffffffffffffff1673ffffffffffffffffffffffffffffffffffffffff166323b872dd308360040160009054906101000a900473ffffffffffffffffffffffffffffffffffffffff1684600301546040518463ffffffff1660e01b81526004016130fd93929190613b71565b600060405180830381600087803b15801561311757600080fd5b505af115801561312b573d6000803e3d6000fd5b505050506000600660008360070160019054906101000a900473ffffffffffffffffffffffffffffffffffffffff1673ffffffffffffffffffffffffffffffffffffffff1673ffffffffffffffffffffffffffffffffffffffff168152602001908152602001600020600083600301548152602001908152602001600020819055503373ffffffffffffffffffffffffffffffffffffffff16827f8dd3c361eb2366ff27c2db0eb07b9261f1d052570742ab8c9a0c326f37aa576d60405160405180910390a38060070160019054906101000a900473ffffffffffffffffffffffffffffffffffffffff16600260006101000a81548173ffffffffffffffffffffffffffffffffffffffff021916908373ffffffffffffffffffffffffffffffffffffffff160217905550600260009054906101000a900473ffffffffffffffffffffffffffffffffffffffff1673ffffffffffffffffffffffffffffffffffffffff1663a27b467d826003015460006040518363ffffffff1660e01b81526004016132b8929190613edf565b600060405180830381600087803b1580156132d257600080fd5b505af11580156132e6573d6000803e3d6000fd5b5050505050600160008190555050565b60006007600084815260200190815260200160002060008373ffffffffffffffffffffffffffffffffffffffff1673ffffffffffffffffffffffffffffffffffffffff16815260200190815260200160002054905092915050565b600081600001549050919050565b600033905090565b6000600160009054906101000a900473ffffffffffffffffffffffffffffffffffffffff16905081600160006101000a81548173ffffffffffffffffffffffffffffffffffffffff021916908373ffffffffffffffffffffffffffffffffffffffff1602179055508173ffffffffffffffffffffffffffffffffffffffff168173ffffffffffffffffffffffffffffffffffffffff167f8be0079c531659141344cd1fd0a4f28419497f9722a3daafe3b4186f6b6457e060405160405180910390a35050565b6001816000016000828254019250508190555050565b60405180610120016040528060008152602001600081526020016000815260200160008152602001600073ffffffffffffffffffffffffffffffffffffffff168152602001600073ffffffffffffffffffffffffffffffffffffffff16815260200160008152602001600060028111156134e6577f4e487b7100000000000000000000000000000000000000000000000000000000600052602160045260246000fd5b8152602001600073ffffffffffffffffffffffffffffffffffffffff1681525090565b600081359050613518816146fa565b92915050565b60008151905061352d816146fa565b92915050565b60008151905061354281614711565b92915050565b60008135905061355781614728565b92915050565b60008135905061356c8161473f565b92915050565b60006020828403121561358457600080fd5b600061359284828501613509565b91505092915050565b6000602082840312156135ad57600080fd5b60006135bb8482850161351e565b91505092915050565b600080604083850312156135d757600080fd5b60006135e585828601613509565b92505060206135f68582860161355d565b9150509250929050565b60006020828403121561361257600080fd5b600061362084828501613533565b91505092915050565b60006020828403121561363b57600080fd5b60006136498482850161355d565b91505092915050565b6000806040838503121561366557600080fd5b60006136738582860161355d565b925050602061368485828601613509565b9150509250929050565b600080600080608085870312156136a457600080fd5b60006136b28782880161355d565b94505060206136c38782880161355d565b93505060406136d487828801613548565b92505060606136e58782880161355d565b91505092959194509250565b6136fa8161412f565b82525050565b613709816140c2565b82525050565b613718816140c2565b82525050565b613727816140b0565b82525050565b613736816140b0565b82525050565b613745816140d4565b82525050565b61375481614141565b82525050565b61376381614141565b82525050565b61377281614165565b82525050565b61378181614165565b82525050565b6000613794602583613fbe565b915061379f82614259565b604082019050919050565b60006137b7601383613fbe565b91506137c2826142a8565b602082019050919050565b60006137da601783613fbe565b91506137e5826142d1565b602082019050919050565b60006137fd602683613fbe565b9150613808826142fa565b604082019050919050565b6000613820602583613fbe565b915061382b82614349565b604082019050919050565b6000613843601a83613fbe565b915061384e82614398565b602082019050919050565b6000613866602083613fbe565b9150613871826143c1565b602082019050919050565b6000613889601983613fbe565b9150613894826143ea565b602082019050919050565b60006138ac601583613fbe565b91506138b782614413565b602082019050919050565b60006138cf602383613fbe565b91506138da8261443c565b604082019050919050565b60006138f2601983613fbe565b91506138fd8261448b565b602082019050919050565b6000613915602283613fbe565b9150613920826144b4565b604082019050919050565b6000613938603483613fbe565b915061394382614503565b604082019050919050565b600061395b602083613fbe565b915061396682614552565b602082019050919050565b600061397e604b83613fbe565b91506139898261457b565b606082019050919050565b60006139a1601983613fbe565b91506139ac826145f0565b602082019050919050565b60006139c4601e83613fbe565b91506139cf82614619565b602082019050919050565b60006139e7601d83613fbe565b91506139f282614642565b602082019050919050565b6000613a0a601e83613fbe565b9150613a158261466b565b602082019050919050565b6000613a2d601f83613fbe565b9150613a3882614694565b602082019050919050565b6000613a50601083613fbe565b9150613a5b826146bd565b602082019050919050565b61012082016000820151613a7d6000850182613b1d565b506020820151613a906020850182613b1d565b506040820151613aa36040850182613b1d565b506060820151613ab66060850182613b1d565b506080820151613ac96080850182613700565b5060a0820151613adc60a085018261371e565b5060c0820151613aef60c0850182613b1d565b5060e0820151613b0260e0850182613769565b50610100820151613b1761010085018261374b565b50505050565b613b2681614125565b82525050565b613b3581614125565b82525050565b6000602082019050613b50600083018461372d565b92915050565b6000602082019050613b6b600083018461370f565b92915050565b6000606082019050613b86600083018661372d565b613b9360208301856136f1565b613ba06040830184613b2c565b949350505050565b6000606082019050613bbd600083018661372d565b613bca602083018561372d565b613bd76040830184613b2c565b949350505050565b60006020820190508181036000830152613bf881613787565b9050919050565b60006020820190508181036000830152613c18816137aa565b9050919050565b60006020820190508181036000830152613c38816137cd565b9050919050565b60006020820190508181036000830152613c58816137f0565b9050919050565b60006020820190508181036000830152613c7881613813565b9050919050565b60006020820190508181036000830152613c9881613836565b9050919050565b60006020820190508181036000830152613cb881613859565b9050919050565b60006020820190508181036000830152613cd88161387c565b9050919050565b60006020820190508181036000830152613cf88161389f565b9050919050565b60006020820190508181036000830152613d18816138c2565b9050919050565b60006020820190508181036000830152613d38816138e5565b9050919050565b60006020820190508181036000830152613d5881613908565b9050919050565b60006020820190508181036000830152613d788161392b565b9050919050565b60006020820190508181036000830152613d988161394e565b9050919050565b60006020820190508181036000830152613db881613971565b9050919050565b60006020820190508181036000830152613dd881613994565b9050919050565b60006020820190508181036000830152613df8816139b7565b9050919050565b60006020820190508181036000830152613e18816139da565b9050919050565b60006020820190508181036000830152613e38816139fd565b9050919050565b60006020820190508181036000830152613e5881613a20565b9050919050565b60006020820190508181036000830152613e7881613a43565b9050919050565b600061012082019050613e956000830184613a66565b92915050565b6000602082019050613eb06000830184613b2c565b92915050565b6000604082019050613ecb6000830185613b2c565b613ed8602083018461372d565b9392505050565b6000604082019050613ef46000830185613b2c565b613f01602083018461373c565b9392505050565b6000604082019050613f1d6000830185613b2c565b613f2a6020830184613b2c565b9392505050565b600061012082019050613f47600083018c613b2c565b613f54602083018b613b2c565b613f61604083018a613b2c565b613f6e6060830189613b2c565b613f7b608083018861370f565b613f8860a083018761372d565b613f9560c0830186613b2c565b613fa260e0830185613778565b613fb061010083018461375a565b9a9950505050505050505050565b600082825260208201905092915050565b6000613fda82614125565b9150613fe583614125565b9250827fffffffffffffffffffffffffffffffffffffffffffffffffffffffffffffffff0382111561401a576140196141cc565b5b828201905092915050565b600061403082614125565b915061403b83614125565b92508261404b5761404a6141fb565b5b828204905092915050565b600061406182614125565b915061406c83614125565b9250817fffffffffffffffffffffffffffffffffffffffffffffffffffffffffffffffff04831182151516156140a5576140a46141cc565b5b828202905092915050565b60006140bb82614105565b9050919050565b60006140cd82614105565b9050919050565b60008115159050919050565b60006140eb826140b0565b9050919050565b6000819050614100826146e6565b919050565b600073ffffffffffffffffffffffffffffffffffffffff82169050919050565b6000819050919050565b600061413a82614177565b9050919050565b600061414c82614153565b9050919050565b600061415e82614105565b9050919050565b6000614170826140f2565b9050919050565b600061418282614189565b9050919050565b600061419482614105565b9050919050565b60006141a682614125565b91506141b183614125565b9250826141c1576141c06141fb565b5b828206905092915050565b7f4e487b7100000000000000000000000000000000000000000000000000000000600052601160045260246000fd5b7f4e487b7100000000000000000000000000000000000000000000000000000000600052601260045260246000fd5b7f4e487b7100000000000000000000000000000000000000000000000000000000600052602160045260246000fd5b7f43616e6e6f742063616e63656c20746865206974656d2074686174206973206260008201527f696464656e000000000000000000000000000000000000000000000000000000602082015250565b7f4e6f7468696e6720746f20776974686472617700000000000000000000000000600082015250565b7f4f6e6c792073656c6c65722063616e20656e642069742e000000000000000000600082015250565b7f4f776e61626c653a206e6577206f776e657220697320746865207a65726f206160008201527f6464726573730000000000000000000000000000000000000000000000000000602082015250565b7f436865636b20746865206d696e696d756d20756e6974206f662073746172742060008201527f7072696365000000000000000000000000000000000000000000000000000000602082015250565b7f546f70206269646465722063616e6e6f74207769746864726177000000000000600082015250565b7f43616e6e6f742073657420656e642074696d6520617320706173742074696d65600082015250565b7f4f6e6c79206f776e65722063616e20656e726f6c6c206e667400000000000000600082015250565b7f54686973206973206f6e20746865206d61726b65740000000000000000000000600082015250565b7f4974206973206e6f74207468652074696d6520746f20636c6f7365206175637460008201527f696f6e0000000000000000000000000000000000000000000000000000000000602082015250565b7f54686973206974656d206973206e6f7420656e726f6c6c656400000000000000600082015250565b7f546869732061756374696f6e20697320656e646564206f722063616e63656c6c60008201527f6564000000000000000000000000000000000000000000000000000000000000602082015250565b7f53686f756c64207374617274207072696365206973206269676765722074686160008201527f6e206d696e696e756d2062696420616d6f756e74000000000000000000000000602082015250565b7f4f776e61626c653a2063616c6c6572206973206e6f7420746865206f776e6572600082015250565b7f42696420616d6f756e742073686f756c6420626520626967676572207468616e60008201527f207072657620746f7020626964206173206d756368206173206d696e756d756d60208201527f2062696420616d6f756e74000000000000000000000000000000000000000000604082015250565b7f4f6e6c792073656c6c65722063616e2063616e63656c20697400000000000000600082015250565b7f54686973206974656d206861736e2774206265656e20656e726f6c6c65640000600082015250565b7f436865636b20746865206d696e696d756d20756e6974206f6620626964000000600082015250565b7f497420697320616c72656164792073746172746564206f7220656e6465640000600082015250565b7f5265656e7472616e637947756172643a207265656e7472616e742063616c6c00600082015250565b7f41756374696f6e20697320656e64656400000000000000000000000000000000600082015250565b600381106146f7576146f661422a565b5b50565b614703816140b0565b811461470e57600080fd5b50565b61471a816140d4565b811461472557600080fd5b50565b614731816140e0565b811461473c57600080fd5b50565b61474881614125565b811461475357600080fd5b5056fea2646970667358221220bd56173abc6dd85a2084f5393b30836d12a4553aa1d0f0e87e8c3155c28a42a964736f6c63430008040033",
    "linkReferences": {},
    "deployedLinkReferences": {}
}