{
    "contractAddress": "0x36C02dA8a0983159322a80FFE9F24b1acfF8B570",
    "_format": "hh-sol-artifact-1",
    "contractName": "Marketplace",
    "sourceName": "contracts/Marketplace.sol",
    "abi": [
        {
            "inputs": [
                {
                    "internalType": "uint256",
                    "name": "_feePercent",
                    "type": "uint256"
                }
            ],
            "stateMutability": "nonpayable",
            "type": "constructor"
        },
        {
            "anonymous": false,
            "inputs": [
                {
                    "indexed": false,
                    "internalType": "uint256",
                    "name": "itemId",
                    "type": "uint256"
                },
                {
                    "indexed": false,
                    "internalType": "uint256",
                    "name": "tokenId",
                    "type": "uint256"
                },
                {
                    "indexed": false,
                    "internalType": "uint256",
                    "name": "price",
                    "type": "uint256"
                },
                {
                    "indexed": true,
                    "internalType": "address",
                    "name": "seller",
                    "type": "address"
                },
                {
                    "indexed": true,
                    "internalType": "address",
                    "name": "buyer",
                    "type": "address"
                },
                {
                    "indexed": true,
                    "internalType": "address",
                    "name": "nft",
                    "type": "address"
                }
            ],
            "name": "Bought",
            "type": "event"
        },
        {
            "anonymous": false,
            "inputs": [
                {
                    "indexed": false,
                    "internalType": "uint256",
                    "name": "itemId",
                    "type": "uint256"
                },
                {
                    "indexed": false,
                    "internalType": "uint256",
                    "name": "tokenId",
                    "type": "uint256"
                },
                {
                    "indexed": false,
                    "internalType": "uint256",
                    "name": "price",
                    "type": "uint256"
                },
                {
                    "indexed": true,
                    "internalType": "address",
                    "name": "seller",
                    "type": "address"
                },
                {
                    "indexed": true,
                    "internalType": "address",
                    "name": "nft",
                    "type": "address"
                }
            ],
            "name": "Enrolled",
            "type": "event"
        },
        {
            "inputs": [
                {
                    "internalType": "contract IERC721",
                    "name": "_nft",
                    "type": "address"
                },
                {
                    "internalType": "uint256",
                    "name": "_tokenId",
                    "type": "uint256"
                },
                {
                    "internalType": "uint256",
                    "name": "_price",
                    "type": "uint256"
                }
            ],
            "name": "enroll",
            "outputs": [],
            "stateMutability": "nonpayable",
            "type": "function"
        },
        {
            "inputs": [],
            "name": "feeAccount",
            "outputs": [
                {
                    "internalType": "address payable",
                    "name": "",
                    "type": "address"
                }
            ],
            "stateMutability": "view",
            "type": "function"
        },
        {
            "inputs": [],
            "name": "feePercent",
            "outputs": [
                {
                    "internalType": "uint256",
                    "name": "",
                    "type": "uint256"
                }
            ],
            "stateMutability": "view",
            "type": "function"
        },
        {
            "inputs": [
                {
                    "internalType": "uint256",
                    "name": "_itemId",
                    "type": "uint256"
                }
            ],
            "name": "getTotalPrice",
            "outputs": [
                {
                    "internalType": "uint256",
                    "name": "",
                    "type": "uint256"
                }
            ],
            "stateMutability": "view",
            "type": "function"
        },
        {
            "inputs": [],
            "name": "itemCount",
            "outputs": [
                {
                    "internalType": "uint256",
                    "name": "_value",
                    "type": "uint256"
                }
            ],
            "stateMutability": "view",
            "type": "function"
        },
        {
            "inputs": [
                {
                    "internalType": "uint256",
                    "name": "",
                    "type": "uint256"
                }
            ],
            "name": "items",
            "outputs": [
                {
                    "internalType": "uint256",
                    "name": "itemId",
                    "type": "uint256"
                },
                {
                    "internalType": "uint256",
                    "name": "tokenId",
                    "type": "uint256"
                },
                {
                    "internalType": "uint256",
                    "name": "price",
                    "type": "uint256"
                },
                {
                    "internalType": "address payable",
                    "name": "seller",
                    "type": "address"
                },
                {
                    "internalType": "contract IERC721",
                    "name": "nft",
                    "type": "address"
                },
                {
                    "internalType": "bool",
                    "name": "sold",
                    "type": "bool"
                }
            ],
            "stateMutability": "view",
            "type": "function"
        },
        {
            "inputs": [
                {
                    "internalType": "uint256",
                    "name": "_itemId",
                    "type": "uint256"
                }
            ],
            "name": "purchase",
            "outputs": [],
            "stateMutability": "payable",
            "type": "function"
        }
    ],
    "bytecode": "0x60c06040523480156200001157600080fd5b50604051620016e5380380620016e583398181016040528101906200003791906200009c565b60016000819055503373ffffffffffffffffffffffffffffffffffffffff1660808173ffffffffffffffffffffffffffffffffffffffff1660601b815250508060a0818152505050620000ec565b6000815190506200009681620000d2565b92915050565b600060208284031215620000af57600080fd5b6000620000bf8482850162000085565b91505092915050565b6000819050919050565b620000dd81620000c8565b8114620000e957600080fd5b50565b60805160601c60a0516115c262000123600039600081816101ec015261081c0152600081816101bc0152610a4901526115c26000f3fe6080604052600436106100705760003560e01c8063bc0da2881161004e578063bc0da288146100f6578063bfb231d21461011f578063ca7dd37514610161578063efef39a11461019e57610070565b806365e17c9d146100755780636bfb0d01146100a05780637fd6f15c146100cb575b600080fd5b34801561008157600080fd5b5061008a6101ba565b6040516100979190610fc9565b60405180910390f35b3480156100ac57600080fd5b506100b56101de565b6040516100c291906110fb565b60405180910390f35b3480156100d757600080fd5b506100e06101ea565b6040516100ed91906110fb565b60405180910390f35b34801561010257600080fd5b5061011d60048036038101906101189190610e11565b61020e565b005b34801561012b57600080fd5b5061014660048036038101906101419190610e60565b61078d565b60405161015896959493929190611176565b60405180910390f35b34801561016d57600080fd5b5061018860048036038101906101839190610e60565b610816565b60405161019591906110fb565b60405180910390f35b6101b860048036038101906101b39190610e60565b610879565b005b7f000000000000000000000000000000000000000000000000000000000000000081565b60028060000154905081565b7f000000000000000000000000000000000000000000000000000000000000000081565b60026000541415610254576040517f08c379a000000000000000000000000000000000000000000000000000000000815260040161024b906110bb565b60405180910390fd5b60026000819055506000811161029f576040517f08c379a00000000000000000000000000000000000000000000000000000000081526004016102969061101b565b60405180910390fd5b8273ffffffffffffffffffffffffffffffffffffffff16636352211e836040518263ffffffff1660e01b81526004016102d891906110fb565b60206040518083038186803b1580156102f057600080fd5b505afa158015610304573d6000803e3d6000fd5b505050506040513d601f19601f820116820180604052508101906103289190610dbf565b73ffffffffffffffffffffffffffffffffffffffff163373ffffffffffffffffffffffffffffffffffffffff1614610395576040517f08c379a000000000000000000000000000000000000000000000000000000000815260040161038c9061103b565b60405180910390fd5b82600160006101000a81548173ffffffffffffffffffffffffffffffffffffffff021916908373ffffffffffffffffffffffffffffffffffffffff160217905550600160009054906101000a900473ffffffffffffffffffffffffffffffffffffffff1673ffffffffffffffffffffffffffffffffffffffff166305dcd1ff836040518263ffffffff1660e01b815260040161043191906110fb565b60206040518083038186803b15801561044957600080fd5b505afa15801561045d573d6000803e3d6000fd5b505050506040513d601f19601f820116820180604052508101906104819190610de8565b156104c1576040517f08c379a00000000000000000000000000000000000000000000000000000000081526004016104b89061105b565b60405180910390fd5b6104cb6002610d47565b60006104d76002610d5d565b90508373ffffffffffffffffffffffffffffffffffffffff166323b872dd3330866040518463ffffffff1660e01b815260040161051693929190610fe4565b600060405180830381600087803b15801561053057600080fd5b505af1158015610544573d6000803e3d6000fd5b505050506040518060c001604052808281526020018481526020018381526020013373ffffffffffffffffffffffffffffffffffffffff1681526020018573ffffffffffffffffffffffffffffffffffffffff168152602001600015158152506003600083815260200190815260200160002060008201518160000155602082015181600101556040820151816002015560608201518160030160006101000a81548173ffffffffffffffffffffffffffffffffffffffff021916908373ffffffffffffffffffffffffffffffffffffffff16021790555060808201518160040160006101000a81548173ffffffffffffffffffffffffffffffffffffffff021916908373ffffffffffffffffffffffffffffffffffffffff16021790555060a08201518160040160146101000a81548160ff0219169083151502179055509050508373ffffffffffffffffffffffffffffffffffffffff163373ffffffffffffffffffffffffffffffffffffffff167f88e7a006baae890b208e60371ee21ec67c56635671c12f5ad27a34a8ee1c6c4d8386866040516106e79392919061113f565b60405180910390a3600160009054906101000a900473ffffffffffffffffffffffffffffffffffffffff1673ffffffffffffffffffffffffffffffffffffffff1663a27b467d8460016040518363ffffffff1660e01b815260040161074d929190611116565b600060405180830381600087803b15801561076757600080fd5b505af115801561077b573d6000803e3d6000fd5b50505050506001600081905550505050565b60036020528060005260406000206000915090508060000154908060010154908060020154908060030160009054906101000a900473ffffffffffffffffffffffffffffffffffffffff16908060040160009054906101000a900473ffffffffffffffffffffffffffffffffffffffff16908060040160149054906101000a900460ff16905086565b600060647f0000000000000000000000000000000000000000000000000000000000000000606461084791906111e8565b6003600085815260200190815260200160002060020154610868919061126f565b610872919061123e565b9050919050565b600260005414156108bf576040517f08c379a00000000000000000000000000000000000000000000000000000000081526004016108b6906110bb565b60405180910390fd5b600260008190555060006108d282610816565b9050600060036000848152602001908152602001600020905060008311801561090457506109006002610d5d565b8311155b610943576040517f08c379a000000000000000000000000000000000000000000000000000000000815260040161093a9061109b565b60405180910390fd5b81341015610986576040517f08c379a000000000000000000000000000000000000000000000000000000000815260040161097d9061107b565b60405180910390fd5b8060040160149054906101000a900460ff16156109d8576040517f08c379a00000000000000000000000000000000000000000000000000000000081526004016109cf906110db565b60405180910390fd5b8060030160009054906101000a900473ffffffffffffffffffffffffffffffffffffffff1673ffffffffffffffffffffffffffffffffffffffff166108fc82600201549081150290604051600060405180830381858888f19350505050158015610a46573d6000803e3d6000fd5b507f000000000000000000000000000000000000000000000000000000000000000073ffffffffffffffffffffffffffffffffffffffff166108fc826002015484610a9191906112c9565b9081150290604051600060405180830381858888f19350505050158015610abc573d6000803e3d6000fd5b5060018160040160146101000a81548160ff0219169083151502179055508060040160009054906101000a900473ffffffffffffffffffffffffffffffffffffffff1673ffffffffffffffffffffffffffffffffffffffff166342842e0e303384600101546040518463ffffffff1660e01b8152600401610b3f93929190610fe4565b600060405180830381600087803b158015610b5957600080fd5b505af1158015610b6d573d6000803e3d6000fd5b505050508060040160009054906101000a900473ffffffffffffffffffffffffffffffffffffffff1673ffffffffffffffffffffffffffffffffffffffff163373ffffffffffffffffffffffffffffffffffffffff168260030160009054906101000a900473ffffffffffffffffffffffffffffffffffffffff1673ffffffffffffffffffffffffffffffffffffffff167fd37dad59375a554b19479ac1258ea706da4a48fd73d4cc1b395de5c7d2eb47fe8685600101548660020154604051610c399392919061113f565b60405180910390a48060040160009054906101000a900473ffffffffffffffffffffffffffffffffffffffff16600160006101000a81548173ffffffffffffffffffffffffffffffffffffffff021916908373ffffffffffffffffffffffffffffffffffffffff160217905550600160009054906101000a900473ffffffffffffffffffffffffffffffffffffffff1673ffffffffffffffffffffffffffffffffffffffff1663a27b467d826001015460006040518363ffffffff1660e01b8152600401610d08929190611116565b600060405180830381600087803b158015610d2257600080fd5b505af1158015610d36573d6000803e3d6000fd5b505050505050600160008190555050565b6001816000016000828254019250508190555050565b600081600001549050919050565b600081519050610d7a81611530565b92915050565b600081519050610d8f81611547565b92915050565b600081359050610da48161155e565b92915050565b600081359050610db981611575565b92915050565b600060208284031215610dd157600080fd5b6000610ddf84828501610d6b565b91505092915050565b600060208284031215610dfa57600080fd5b6000610e0884828501610d80565b91505092915050565b600080600060608486031215610e2657600080fd5b6000610e3486828701610d95565b9350506020610e4586828701610daa565b9250506040610e5686828701610daa565b9150509250925092565b600060208284031215610e7257600080fd5b6000610e8084828501610daa565b91505092915050565b610e928161130f565b82525050565b610ea1816112fd565b82525050565b610eb081611321565b82525050565b610ebf81611369565b82525050565b6000610ed2601f836111d7565b9150610edd826113eb565b602082019050919050565b6000610ef56015836111d7565b9150610f0082611414565b602082019050919050565b6000610f186015836111d7565b9150610f238261143d565b602082019050919050565b6000610f3b6033836111d7565b9150610f4682611466565b604082019050919050565b6000610f5e6012836111d7565b9150610f69826114b5565b602082019050919050565b6000610f81601f836111d7565b9150610f8c826114de565b602082019050919050565b6000610fa46009836111d7565b9150610faf82611507565b602082019050919050565b610fc38161135f565b82525050565b6000602082019050610fde6000830184610e89565b92915050565b6000606082019050610ff96000830186610e98565b6110066020830185610e98565b6110136040830184610fba565b949350505050565b6000602082019050818103600083015261103481610ec5565b9050919050565b6000602082019050818103600083015261105481610ee8565b9050919050565b6000602082019050818103600083015261107481610f0b565b9050919050565b6000602082019050818103600083015261109481610f2e565b9050919050565b600060208201905081810360008301526110b481610f51565b9050919050565b600060208201905081810360008301526110d481610f74565b9050919050565b600060208201905081810360008301526110f481610f97565b9050919050565b60006020820190506111106000830184610fba565b92915050565b600060408201905061112b6000830185610fba565b6111386020830184610ea7565b9392505050565b60006060820190506111546000830186610fba565b6111616020830185610fba565b61116e6040830184610fba565b949350505050565b600060c08201905061118b6000830189610fba565b6111986020830188610fba565b6111a56040830187610fba565b6111b26060830186610e89565b6111bf6080830185610eb6565b6111cc60a0830184610ea7565b979650505050505050565b600082825260208201905092915050565b60006111f38261135f565b91506111fe8361135f565b9250827fffffffffffffffffffffffffffffffffffffffffffffffffffffffffffffffff038211156112335761123261138d565b5b828201905092915050565b60006112498261135f565b91506112548361135f565b925082611264576112636113bc565b5b828204905092915050565b600061127a8261135f565b91506112858361135f565b9250817fffffffffffffffffffffffffffffffffffffffffffffffffffffffffffffffff04831182151516156112be576112bd61138d565b5b828202905092915050565b60006112d48261135f565b91506112df8361135f565b9250828210156112f2576112f161138d565b5b828203905092915050565b60006113088261133f565b9050919050565b600061131a8261133f565b9050919050565b60008115159050919050565b6000611338826112fd565b9050919050565b600073ffffffffffffffffffffffffffffffffffffffff82169050919050565b6000819050919050565b60006113748261137b565b9050919050565b60006113868261133f565b9050919050565b7f4e487b7100000000000000000000000000000000000000000000000000000000600052601160045260246000fd5b7f4e487b7100000000000000000000000000000000000000000000000000000000600052601260045260246000fd5b7f5072696365206d7573742062652067726561746572207468616e207a65726f00600082015250565b7f4f6e6c79206f776e65722063616e20656e726f6c6c0000000000000000000000600082015250565b7f54686973206973206f6e20746865206d61726b65740000000000000000000000600082015250565b7f4e6f7420656e6f75676820657468657220746f20636f766572206974656d207060008201527f7269636520616e64206d61726b65742066656500000000000000000000000000602082015250565b7f4974656d20646f65736e27742065786973740000000000000000000000000000600082015250565b7f5265656e7472616e637947756172643a207265656e7472616e742063616c6c00600082015250565b7f536f6c64206f7574210000000000000000000000000000000000000000000000600082015250565b611539816112fd565b811461154457600080fd5b50565b61155081611321565b811461155b57600080fd5b50565b6115678161132d565b811461157257600080fd5b50565b61157e8161135f565b811461158957600080fd5b5056fea2646970667358221220f743d6512a7a64f578c3fda8912411bdd16f86e3f4e10d7c0140dc4b692637d264736f6c63430008040033",
    "linkReferences": {},
    "deployedLinkReferences": {}
}