{
    "contractAddress": "0x8A791620dd6260079BF849Dc5567aDC3F2FdC318",
    "_format": "hh-sol-artifact-1",
    "contractName": "Marketplace",
    "sourceName": "contracts/Marketplace.sol",
    "abi": [
        {
            "inputs": [
                {
                    "internalType": "uint256",
                    "name": "_feePercent",
                    "type": "uint256"
                }
            ],
            "stateMutability": "nonpayable",
            "type": "constructor"
        },
        {
            "anonymous": false,
            "inputs": [
                {
                    "indexed": false,
                    "internalType": "uint256",
                    "name": "itemId",
                    "type": "uint256"
                },
                {
                    "indexed": false,
                    "internalType": "uint256",
                    "name": "tokenId",
                    "type": "uint256"
                },
                {
                    "indexed": false,
                    "internalType": "uint256",
                    "name": "price",
                    "type": "uint256"
                },
                {
                    "indexed": true,
                    "internalType": "address",
                    "name": "seller",
                    "type": "address"
                },
                {
                    "indexed": true,
                    "internalType": "address",
                    "name": "buyer",
                    "type": "address"
                },
                {
                    "indexed": true,
                    "internalType": "address",
                    "name": "nft",
                    "type": "address"
                }
            ],
            "name": "Bought",
            "type": "event"
        },
        {
            "anonymous": false,
            "inputs": [
                {
                    "indexed": false,
                    "internalType": "uint256",
                    "name": "itemId",
                    "type": "uint256"
                },
                {
                    "indexed": false,
                    "internalType": "uint256",
                    "name": "tokenId",
                    "type": "uint256"
                },
                {
                    "indexed": false,
                    "internalType": "uint256",
                    "name": "price",
                    "type": "uint256"
                },
                {
                    "indexed": true,
                    "internalType": "address",
                    "name": "seller",
                    "type": "address"
                },
                {
                    "indexed": true,
                    "internalType": "address",
                    "name": "nft",
                    "type": "address"
                }
            ],
            "name": "Enrolled",
            "type": "event"
        },
        {
            "inputs": [
                {
                    "internalType": "contract IERC721",
                    "name": "_nft",
                    "type": "address"
                },
                {
                    "internalType": "uint256",
                    "name": "_tokenId",
                    "type": "uint256"
                },
                {
                    "internalType": "uint256",
                    "name": "_price",
                    "type": "uint256"
                }
            ],
            "name": "enroll",
            "outputs": [],
            "stateMutability": "nonpayable",
            "type": "function"
        },
        {
            "inputs": [],
            "name": "feeAccount",
            "outputs": [
                {
                    "internalType": "address payable",
                    "name": "",
                    "type": "address"
                }
            ],
            "stateMutability": "view",
            "type": "function"
        },
        {
            "inputs": [],
            "name": "feePercent",
            "outputs": [
                {
                    "internalType": "uint256",
                    "name": "",
                    "type": "uint256"
                }
            ],
            "stateMutability": "view",
            "type": "function"
        },
        {
            "inputs": [
                {
                    "internalType": "uint256",
                    "name": "_itemId",
                    "type": "uint256"
                }
            ],
            "name": "getTotalPrice",
            "outputs": [
                {
                    "internalType": "uint256",
                    "name": "",
                    "type": "uint256"
                }
            ],
            "stateMutability": "view",
            "type": "function"
        },
        {
            "inputs": [],
            "name": "itemCount",
            "outputs": [
                {
                    "internalType": "uint256",
                    "name": "_value",
                    "type": "uint256"
                }
            ],
            "stateMutability": "view",
            "type": "function"
        },
        {
            "inputs": [
                {
                    "internalType": "uint256",
                    "name": "",
                    "type": "uint256"
                }
            ],
            "name": "items",
            "outputs": [
                {
                    "internalType": "uint256",
                    "name": "itemId",
                    "type": "uint256"
                },
                {
                    "internalType": "uint256",
                    "name": "tokenId",
                    "type": "uint256"
                },
                {
                    "internalType": "uint256",
                    "name": "price",
                    "type": "uint256"
                },
                {
                    "internalType": "address payable",
                    "name": "seller",
                    "type": "address"
                },
                {
                    "internalType": "contract IERC721",
                    "name": "nft",
                    "type": "address"
                },
                {
                    "internalType": "bool",
                    "name": "sold",
                    "type": "bool"
                }
            ],
            "stateMutability": "view",
            "type": "function"
        },
        {
            "inputs": [
                {
                    "internalType": "uint256",
                    "name": "_itemId",
                    "type": "uint256"
                }
            ],
            "name": "purchase",
            "outputs": [],
            "stateMutability": "payable",
            "type": "function"
        }
    ],
    "bytecode": "0x60c06040523480156200001157600080fd5b5060405162001379380380620013798339818101604052810190620000379190620000c2565b60016000819055503373ffffffffffffffffffffffffffffffffffffffff1660808173ffffffffffffffffffffffffffffffffffffffff16815250508060a0818152505050620000f4565b600080fd5b6000819050919050565b6200009c8162000087565b8114620000a857600080fd5b50565b600081519050620000bc8162000091565b92915050565b600060208284031215620000db57620000da62000082565b5b6000620000eb84828501620000ab565b91505092915050565b60805160a05161125162000128600039600081816101ec01526106510152600081816101bc015261087e01526112516000f3fe6080604052600436106100705760003560e01c8063bc0da2881161004e578063bc0da288146100f6578063bfb231d21461011f578063ca7dd37514610161578063efef39a11461019e57610070565b806365e17c9d146100755780636bfb0d01146100a05780637fd6f15c146100cb575b600080fd5b34801561008157600080fd5b5061008a6101ba565b6040516100979190610ae8565b60405180910390f35b3480156100ac57600080fd5b506100b56101de565b6040516100c29190610b1c565b60405180910390f35b3480156100d757600080fd5b506100e06101ea565b6040516100ed9190610b1c565b60405180910390f35b34801561010257600080fd5b5061011d60048036038101906101189190610bb8565b61020e565b005b34801561012b57600080fd5b5061014660048036038101906101419190610c0b565b6105c2565b60405161015896959493929190610cb2565b60405180910390f35b34801561016d57600080fd5b5061018860048036038101906101839190610c0b565b61064b565b6040516101959190610b1c565b60405180910390f35b6101b860048036038101906101b39190610c0b565b6106ae565b005b7f000000000000000000000000000000000000000000000000000000000000000081565b60018060000154905081565b7f000000000000000000000000000000000000000000000000000000000000000081565b60026000541415610254576040517f08c379a000000000000000000000000000000000000000000000000000000000815260040161024b90610d70565b60405180910390fd5b60026000819055506000811161029f576040517f08c379a000000000000000000000000000000000000000000000000000000000815260040161029690610ddc565b60405180910390fd5b8273ffffffffffffffffffffffffffffffffffffffff16636352211e836040518263ffffffff1660e01b81526004016102d89190610b1c565b602060405180830381865afa1580156102f5573d6000803e3d6000fd5b505050506040513d601f19601f820116820180604052508101906103199190610e28565b73ffffffffffffffffffffffffffffffffffffffff163373ffffffffffffffffffffffffffffffffffffffff1614610386576040517f08c379a000000000000000000000000000000000000000000000000000000000815260040161037d90610ea1565b60405180910390fd5b6103906001610a83565b600061039c6001610a99565b90508373ffffffffffffffffffffffffffffffffffffffff166323b872dd3330866040518463ffffffff1660e01b81526004016103db93929190610ed0565b600060405180830381600087803b1580156103f557600080fd5b505af1158015610409573d6000803e3d6000fd5b505050506040518060c001604052808281526020018481526020018381526020013373ffffffffffffffffffffffffffffffffffffffff1681526020018573ffffffffffffffffffffffffffffffffffffffff168152602001600015158152506002600083815260200190815260200160002060008201518160000155602082015181600101556040820151816002015560608201518160030160006101000a81548173ffffffffffffffffffffffffffffffffffffffff021916908373ffffffffffffffffffffffffffffffffffffffff16021790555060808201518160040160006101000a81548173ffffffffffffffffffffffffffffffffffffffff021916908373ffffffffffffffffffffffffffffffffffffffff16021790555060a08201518160040160146101000a81548160ff0219169083151502179055509050508373ffffffffffffffffffffffffffffffffffffffff163373ffffffffffffffffffffffffffffffffffffffff167f88e7a006baae890b208e60371ee21ec67c56635671c12f5ad27a34a8ee1c6c4d8386866040516105ac93929190610f07565b60405180910390a3506001600081905550505050565b60026020528060005260406000206000915090508060000154908060010154908060020154908060030160009054906101000a900473ffffffffffffffffffffffffffffffffffffffff16908060040160009054906101000a900473ffffffffffffffffffffffffffffffffffffffff16908060040160149054906101000a900460ff16905086565b600060647f0000000000000000000000000000000000000000000000000000000000000000606461067c9190610f6d565b600260008581526020019081526020016000206002015461069d9190610fc3565b6106a7919061104c565b9050919050565b600260005414156106f4576040517f08c379a00000000000000000000000000000000000000000000000000000000081526004016106eb90610d70565b60405180910390fd5b600260008190555060006107078261064b565b9050600060026000848152602001908152602001600020905060008311801561073957506107356001610a99565b8311155b610778576040517f08c379a000000000000000000000000000000000000000000000000000000000815260040161076f906110c9565b60405180910390fd5b813410156107bb576040517f08c379a00000000000000000000000000000000000000000000000000000000081526004016107b29061115b565b60405180910390fd5b8060040160149054906101000a900460ff161561080d576040517f08c379a0000000000000000000000000000000000000000000000000000000008152600401610804906111c7565b60405180910390fd5b8060030160009054906101000a900473ffffffffffffffffffffffffffffffffffffffff1673ffffffffffffffffffffffffffffffffffffffff166108fc82600201549081150290604051600060405180830381858888f1935050505015801561087b573d6000803e3d6000fd5b507f000000000000000000000000000000000000000000000000000000000000000073ffffffffffffffffffffffffffffffffffffffff166108fc8260020154846108c691906111e7565b9081150290604051600060405180830381858888f193505050501580156108f1573d6000803e3d6000fd5b5060018160040160146101000a81548160ff0219169083151502179055508060040160009054906101000a900473ffffffffffffffffffffffffffffffffffffffff1673ffffffffffffffffffffffffffffffffffffffff166323b872dd303384600101546040518463ffffffff1660e01b815260040161097493929190610ed0565b600060405180830381600087803b15801561098e57600080fd5b505af11580156109a2573d6000803e3d6000fd5b505050508060040160009054906101000a900473ffffffffffffffffffffffffffffffffffffffff1673ffffffffffffffffffffffffffffffffffffffff163373ffffffffffffffffffffffffffffffffffffffff168260030160009054906101000a900473ffffffffffffffffffffffffffffffffffffffff1673ffffffffffffffffffffffffffffffffffffffff167fd37dad59375a554b19479ac1258ea706da4a48fd73d4cc1b395de5c7d2eb47fe8685600101548660020154604051610a6e93929190610f07565b60405180910390a45050600160008190555050565b6001816000016000828254019250508190555050565b600081600001549050919050565b600073ffffffffffffffffffffffffffffffffffffffff82169050919050565b6000610ad282610aa7565b9050919050565b610ae281610ac7565b82525050565b6000602082019050610afd6000830184610ad9565b92915050565b6000819050919050565b610b1681610b03565b82525050565b6000602082019050610b316000830184610b0d565b92915050565b600080fd5b6000610b4782610aa7565b9050919050565b6000610b5982610b3c565b9050919050565b610b6981610b4e565b8114610b7457600080fd5b50565b600081359050610b8681610b60565b92915050565b610b9581610b03565b8114610ba057600080fd5b50565b600081359050610bb281610b8c565b92915050565b600080600060608486031215610bd157610bd0610b37565b5b6000610bdf86828701610b77565b9350506020610bf086828701610ba3565b9250506040610c0186828701610ba3565b9150509250925092565b600060208284031215610c2157610c20610b37565b5b6000610c2f84828501610ba3565b91505092915050565b6000819050919050565b6000610c5d610c58610c5384610aa7565b610c38565b610aa7565b9050919050565b6000610c6f82610c42565b9050919050565b6000610c8182610c64565b9050919050565b610c9181610c76565b82525050565b60008115159050919050565b610cac81610c97565b82525050565b600060c082019050610cc76000830189610b0d565b610cd46020830188610b0d565b610ce16040830187610b0d565b610cee6060830186610ad9565b610cfb6080830185610c88565b610d0860a0830184610ca3565b979650505050505050565b600082825260208201905092915050565b7f5265656e7472616e637947756172643a207265656e7472616e742063616c6c00600082015250565b6000610d5a601f83610d13565b9150610d6582610d24565b602082019050919050565b60006020820190508181036000830152610d8981610d4d565b9050919050565b7f5072696365206d7573742062652067726561746572207468616e207a65726f00600082015250565b6000610dc6601f83610d13565b9150610dd182610d90565b602082019050919050565b60006020820190508181036000830152610df581610db9565b9050919050565b610e0581610b3c565b8114610e1057600080fd5b50565b600081519050610e2281610dfc565b92915050565b600060208284031215610e3e57610e3d610b37565b5b6000610e4c84828501610e13565b91505092915050565b7f4f6e6c79206f776e65722063616e20656e726f6c6c0000000000000000000000600082015250565b6000610e8b601583610d13565b9150610e9682610e55565b602082019050919050565b60006020820190508181036000830152610eba81610e7e565b9050919050565b610eca81610b3c565b82525050565b6000606082019050610ee56000830186610ec1565b610ef26020830185610ec1565b610eff6040830184610b0d565b949350505050565b6000606082019050610f1c6000830186610b0d565b610f296020830185610b0d565b610f366040830184610b0d565b949350505050565b7f4e487b7100000000000000000000000000000000000000000000000000000000600052601160045260246000fd5b6000610f7882610b03565b9150610f8383610b03565b9250827fffffffffffffffffffffffffffffffffffffffffffffffffffffffffffffffff03821115610fb857610fb7610f3e565b5b828201905092915050565b6000610fce82610b03565b9150610fd983610b03565b9250817fffffffffffffffffffffffffffffffffffffffffffffffffffffffffffffffff048311821515161561101257611011610f3e565b5b828202905092915050565b7f4e487b7100000000000000000000000000000000000000000000000000000000600052601260045260246000fd5b600061105782610b03565b915061106283610b03565b9250826110725761107161101d565b5b828204905092915050565b7f4974656d20646f65736e27742065786973740000000000000000000000000000600082015250565b60006110b3601283610d13565b91506110be8261107d565b602082019050919050565b600060208201905081810360008301526110e2816110a6565b9050919050565b7f4e6f7420656e6f75676820657468657220746f20636f766572206974656d207060008201527f7269636520616e64206d61726b65742066656500000000000000000000000000602082015250565b6000611145603383610d13565b9150611150826110e9565b604082019050919050565b6000602082019050818103600083015261117481611138565b9050919050565b7f536f6c64206f7574210000000000000000000000000000000000000000000000600082015250565b60006111b1600983610d13565b91506111bc8261117b565b602082019050919050565b600060208201905081810360008301526111e0816111a4565b9050919050565b60006111f282610b03565b91506111fd83610b03565b9250828210156112105761120f610f3e565b5b82820390509291505056fea26469706673582212209fc1795c36d4d51337da48b0d2107fb7b45288af0e4f6f52aee201bbe722299464736f6c634300080a0033",
    "linkReferences": {},
    "deployedLinkReferences": {}
}