{
    "contractAddress": "0xEC3851a082db575cdA853a768f0b1d13aaE6B950",
    "_format": "hh-sol-artifact-1",
    "contractName": "Marketplace",
    "sourceName": "contracts/Marketplace.sol",
    "abi": [
        {
            "inputs": [
                {
                    "internalType": "uint256",
                    "name": "_feePercent",
                    "type": "uint256"
                }
            ],
            "stateMutability": "nonpayable",
            "type": "constructor"
        },
        {
            "anonymous": false,
            "inputs": [
                {
                    "indexed": false,
                    "internalType": "uint256",
                    "name": "itemId",
                    "type": "uint256"
                },
                {
                    "indexed": false,
                    "internalType": "uint256",
                    "name": "tokenId",
                    "type": "uint256"
                },
                {
                    "indexed": false,
                    "internalType": "uint256",
                    "name": "price",
                    "type": "uint256"
                },
                {
                    "indexed": true,
                    "internalType": "address",
                    "name": "seller",
                    "type": "address"
                },
                {
                    "indexed": true,
                    "internalType": "address",
                    "name": "buyer",
                    "type": "address"
                },
                {
                    "indexed": true,
                    "internalType": "address",
                    "name": "nft",
                    "type": "address"
                }
            ],
            "name": "Bought",
            "type": "event"
        },
        {
            "anonymous": false,
            "inputs": [
                {
                    "indexed": false,
                    "internalType": "uint256",
                    "name": "itemId",
                    "type": "uint256"
                },
                {
                    "indexed": false,
                    "internalType": "uint256",
                    "name": "tokenId",
                    "type": "uint256"
                },
                {
                    "indexed": false,
                    "internalType": "uint256",
                    "name": "price",
                    "type": "uint256"
                },
                {
                    "indexed": true,
                    "internalType": "address",
                    "name": "seller",
                    "type": "address"
                },
                {
                    "indexed": true,
                    "internalType": "address",
                    "name": "nft",
                    "type": "address"
                }
            ],
            "name": "Enrolled",
            "type": "event"
        },
        {
            "inputs": [
                {
                    "internalType": "contract IERC721",
                    "name": "_nft",
                    "type": "address"
                },
                {
                    "internalType": "uint256",
                    "name": "_tokenId",
                    "type": "uint256"
                },
                {
                    "internalType": "uint256",
                    "name": "_price",
                    "type": "uint256"
                }
            ],
            "name": "enroll",
            "outputs": [],
            "stateMutability": "nonpayable",
            "type": "function"
        },
        {
            "inputs": [],
            "name": "feeAccount",
            "outputs": [
                {
                    "internalType": "address payable",
                    "name": "",
                    "type": "address"
                }
            ],
            "stateMutability": "view",
            "type": "function"
        },
        {
            "inputs": [],
            "name": "feePercent",
            "outputs": [
                {
                    "internalType": "uint256",
                    "name": "",
                    "type": "uint256"
                }
            ],
            "stateMutability": "view",
            "type": "function"
        },
        {
            "inputs": [
                {
                    "internalType": "uint256",
                    "name": "_itemId",
                    "type": "uint256"
                }
            ],
            "name": "getTotalPrice",
            "outputs": [
                {
                    "internalType": "uint256",
                    "name": "",
                    "type": "uint256"
                }
            ],
            "stateMutability": "view",
            "type": "function"
        },
        {
            "inputs": [],
            "name": "itemCount",
            "outputs": [
                {
                    "internalType": "uint256",
                    "name": "_value",
                    "type": "uint256"
                }
            ],
            "stateMutability": "view",
            "type": "function"
        },
        {
            "inputs": [
                {
                    "internalType": "uint256",
                    "name": "",
                    "type": "uint256"
                }
            ],
            "name": "items",
            "outputs": [
                {
                    "internalType": "uint256",
                    "name": "itemId",
                    "type": "uint256"
                },
                {
                    "internalType": "uint256",
                    "name": "tokenId",
                    "type": "uint256"
                },
                {
                    "internalType": "uint256",
                    "name": "price",
                    "type": "uint256"
                },
                {
                    "internalType": "address payable",
                    "name": "seller",
                    "type": "address"
                },
                {
                    "internalType": "contract IERC721",
                    "name": "nft",
                    "type": "address"
                },
                {
                    "internalType": "bool",
                    "name": "sold",
                    "type": "bool"
                }
            ],
            "stateMutability": "view",
            "type": "function"
        },
        {
            "inputs": [
                {
                    "internalType": "address",
                    "name": "",
                    "type": "address"
                },
                {
                    "internalType": "uint256",
                    "name": "",
                    "type": "uint256"
                }
            ],
            "name": "nftToItemId",
            "outputs": [
                {
                    "internalType": "uint256",
                    "name": "",
                    "type": "uint256"
                }
            ],
            "stateMutability": "view",
            "type": "function"
        },
        {
            "inputs": [
                {
                    "internalType": "uint256",
                    "name": "_itemId",
                    "type": "uint256"
                }
            ],
            "name": "purchase",
            "outputs": [],
            "stateMutability": "payable",
            "type": "function"
        }
    ],
    "bytecode": "0x60c06040523480156200001157600080fd5b50604051620018763803806200187683398181016040528101906200003791906200009c565b60016000819055503373ffffffffffffffffffffffffffffffffffffffff1660808173ffffffffffffffffffffffffffffffffffffffff1660601b815250508060a0818152505050620000ec565b6000815190506200009681620000d2565b92915050565b600060208284031215620000af57600080fd5b6000620000bf8482850162000085565b91505092915050565b6000819050919050565b620000dd81620000c8565b8114620000e957600080fd5b50565b60805160601c60a051611753620001236000396000818161025901526108de0152600081816102290152610b0b01526117536000f3fe60806040526004361061007b5760003560e01c8063bc0da2881161004e578063bc0da2881461013e578063bfb231d214610167578063ca7dd375146101a9578063efef39a1146101e65761007b565b80635dcd7d9e1461008057806365e17c9d146100bd5780636bfb0d01146100e85780637fd6f15c14610113575b600080fd5b34801561008c57600080fd5b506100a760048036038101906100a29190610f3d565b610202565b6040516100b4919061128c565b60405180910390f35b3480156100c957600080fd5b506100d2610227565b6040516100df919061115a565b60405180910390f35b3480156100f457600080fd5b506100fd61024b565b60405161010a919061128c565b60405180910390f35b34801561011f57600080fd5b50610128610257565b604051610135919061128c565b60405180910390f35b34801561014a57600080fd5b5061016560048036038101906101609190610fa2565b61027b565b005b34801561017357600080fd5b5061018e60048036038101906101899190610ff1565b61084f565b6040516101a096959493929190611307565b60405180910390f35b3480156101b557600080fd5b506101d060048036038101906101cb9190610ff1565b6108d8565b6040516101dd919061128c565b60405180910390f35b61020060048036038101906101fb9190610ff1565b61093b565b005b6004602052816000526040600020602052806000526040600020600091509150505481565b7f000000000000000000000000000000000000000000000000000000000000000081565b60028060000154905081565b7f000000000000000000000000000000000000000000000000000000000000000081565b600260005414156102c1576040517f08c379a00000000000000000000000000000000000000000000000000000000081526004016102b89061124c565b60405180910390fd5b60026000819055506000811161030c576040517f08c379a0000000000000000000000000000000000000000000000000000000008152600401610303906111ac565b60405180910390fd5b8273ffffffffffffffffffffffffffffffffffffffff16636352211e836040518263ffffffff1660e01b8152600401610345919061128c565b60206040518083038186803b15801561035d57600080fd5b505afa158015610371573d6000803e3d6000fd5b505050506040513d601f19601f820116820180604052508101906103959190610f14565b73ffffffffffffffffffffffffffffffffffffffff163373ffffffffffffffffffffffffffffffffffffffff1614610402576040517f08c379a00000000000000000000000000000000000000000000000000000000081526004016103f9906111cc565b60405180910390fd5b82600160006101000a81548173ffffffffffffffffffffffffffffffffffffffff021916908373ffffffffffffffffffffffffffffffffffffffff160217905550600160009054906101000a900473ffffffffffffffffffffffffffffffffffffffff1673ffffffffffffffffffffffffffffffffffffffff166305dcd1ff836040518263ffffffff1660e01b815260040161049e919061128c565b60206040518083038186803b1580156104b657600080fd5b505afa1580156104ca573d6000803e3d6000fd5b505050506040513d601f19601f820116820180604052508101906104ee9190610f79565b1561052e576040517f08c379a0000000000000000000000000000000000000000000000000000000008152600401610525906111ec565b60405180910390fd5b6105386002610e87565b60006105446002610e9d565b90508373ffffffffffffffffffffffffffffffffffffffff166323b872dd3330866040518463ffffffff1660e01b815260040161058393929190611175565b600060405180830381600087803b15801561059d57600080fd5b505af11580156105b1573d6000803e3d6000fd5b505050506040518060c001604052808281526020018481526020018381526020013373ffffffffffffffffffffffffffffffffffffffff1681526020018573ffffffffffffffffffffffffffffffffffffffff168152602001600015158152506003600083815260200190815260200160002060008201518160000155602082015181600101556040820151816002015560608201518160030160006101000a81548173ffffffffffffffffffffffffffffffffffffffff021916908373ffffffffffffffffffffffffffffffffffffffff16021790555060808201518160040160006101000a81548173ffffffffffffffffffffffffffffffffffffffff021916908373ffffffffffffffffffffffffffffffffffffffff16021790555060a08201518160040160146101000a81548160ff0219169083151502179055509050508373ffffffffffffffffffffffffffffffffffffffff163373ffffffffffffffffffffffffffffffffffffffff167f88e7a006baae890b208e60371ee21ec67c56635671c12f5ad27a34a8ee1c6c4d838686604051610754939291906112d0565b60405180910390a380600460008673ffffffffffffffffffffffffffffffffffffffff1673ffffffffffffffffffffffffffffffffffffffff168152602001908152602001600020600085815260200190815260200160002081905550600160009054906101000a900473ffffffffffffffffffffffffffffffffffffffff1673ffffffffffffffffffffffffffffffffffffffff1663a27b467d8460016040518363ffffffff1660e01b815260040161080f9291906112a7565b600060405180830381600087803b15801561082957600080fd5b505af115801561083d573d6000803e3d6000fd5b50505050506001600081905550505050565b60036020528060005260406000206000915090508060000154908060010154908060020154908060030160009054906101000a900473ffffffffffffffffffffffffffffffffffffffff16908060040160009054906101000a900473ffffffffffffffffffffffffffffffffffffffff16908060040160149054906101000a900460ff16905086565b600060647f000000000000000000000000000000000000000000000000000000000000000060646109099190611379565b600360008581526020019081526020016000206002015461092a9190611400565b61093491906113cf565b9050919050565b60026000541415610981576040517f08c379a00000000000000000000000000000000000000000000000000000000081526004016109789061124c565b60405180910390fd5b60026000819055506000610994826108d8565b905060006003600084815260200190815260200160002090506000831180156109c657506109c26002610e9d565b8311155b610a05576040517f08c379a00000000000000000000000000000000000000000000000000000000081526004016109fc9061122c565b60405180910390fd5b81341015610a48576040517f08c379a0000000000000000000000000000000000000000000000000000000008152600401610a3f9061120c565b60405180910390fd5b8060040160149054906101000a900460ff1615610a9a576040517f08c379a0000000000000000000000000000000000000000000000000000000008152600401610a919061126c565b60405180910390fd5b8060030160009054906101000a900473ffffffffffffffffffffffffffffffffffffffff1673ffffffffffffffffffffffffffffffffffffffff166108fc82600201549081150290604051600060405180830381858888f19350505050158015610b08573d6000803e3d6000fd5b507f000000000000000000000000000000000000000000000000000000000000000073ffffffffffffffffffffffffffffffffffffffff166108fc826002015484610b53919061145a565b9081150290604051600060405180830381858888f19350505050158015610b7e573d6000803e3d6000fd5b5060018160040160146101000a81548160ff0219169083151502179055508060040160009054906101000a900473ffffffffffffffffffffffffffffffffffffffff1673ffffffffffffffffffffffffffffffffffffffff166342842e0e303384600101546040518463ffffffff1660e01b8152600401610c0193929190611175565b600060405180830381600087803b158015610c1b57600080fd5b505af1158015610c2f573d6000803e3d6000fd5b505050506000600460008360040160009054906101000a900473ffffffffffffffffffffffffffffffffffffffff1673ffffffffffffffffffffffffffffffffffffffff1673ffffffffffffffffffffffffffffffffffffffff168152602001908152602001600020600083600101548152602001908152602001600020819055508060040160009054906101000a900473ffffffffffffffffffffffffffffffffffffffff1673ffffffffffffffffffffffffffffffffffffffff163373ffffffffffffffffffffffffffffffffffffffff168260030160009054906101000a900473ffffffffffffffffffffffffffffffffffffffff1673ffffffffffffffffffffffffffffffffffffffff167fd37dad59375a554b19479ac1258ea706da4a48fd73d4cc1b395de5c7d2eb47fe8685600101548660020154604051610d79939291906112d0565b60405180910390a48060040160009054906101000a900473ffffffffffffffffffffffffffffffffffffffff16600160006101000a81548173ffffffffffffffffffffffffffffffffffffffff021916908373ffffffffffffffffffffffffffffffffffffffff160217905550600160009054906101000a900473ffffffffffffffffffffffffffffffffffffffff1673ffffffffffffffffffffffffffffffffffffffff1663a27b467d826001015460006040518363ffffffff1660e01b8152600401610e489291906112a7565b600060405180830381600087803b158015610e6257600080fd5b505af1158015610e76573d6000803e3d6000fd5b505050505050600160008190555050565b6001816000016000828254019250508190555050565b600081600001549050919050565b600081359050610eba816116c1565b92915050565b600081519050610ecf816116c1565b92915050565b600081519050610ee4816116d8565b92915050565b600081359050610ef9816116ef565b92915050565b600081359050610f0e81611706565b92915050565b600060208284031215610f2657600080fd5b6000610f3484828501610ec0565b91505092915050565b60008060408385031215610f5057600080fd5b6000610f5e85828601610eab565b9250506020610f6f85828601610eff565b9150509250929050565b600060208284031215610f8b57600080fd5b6000610f9984828501610ed5565b91505092915050565b600080600060608486031215610fb757600080fd5b6000610fc586828701610eea565b9350506020610fd686828701610eff565b9250506040610fe786828701610eff565b9150509250925092565b60006020828403121561100357600080fd5b600061101184828501610eff565b91505092915050565b611023816114a0565b82525050565b6110328161148e565b82525050565b611041816114b2565b82525050565b611050816114fa565b82525050565b6000611063601f83611368565b915061106e8261157c565b602082019050919050565b6000611086601583611368565b9150611091826115a5565b602082019050919050565b60006110a9601583611368565b91506110b4826115ce565b602082019050919050565b60006110cc603383611368565b91506110d7826115f7565b604082019050919050565b60006110ef601283611368565b91506110fa82611646565b602082019050919050565b6000611112601f83611368565b915061111d8261166f565b602082019050919050565b6000611135600983611368565b915061114082611698565b602082019050919050565b611154816114f0565b82525050565b600060208201905061116f600083018461101a565b92915050565b600060608201905061118a6000830186611029565b6111976020830185611029565b6111a4604083018461114b565b949350505050565b600060208201905081810360008301526111c581611056565b9050919050565b600060208201905081810360008301526111e581611079565b9050919050565b600060208201905081810360008301526112058161109c565b9050919050565b60006020820190508181036000830152611225816110bf565b9050919050565b60006020820190508181036000830152611245816110e2565b9050919050565b6000602082019050818103600083015261126581611105565b9050919050565b6000602082019050818103600083015261128581611128565b9050919050565b60006020820190506112a1600083018461114b565b92915050565b60006040820190506112bc600083018561114b565b6112c96020830184611038565b9392505050565b60006060820190506112e5600083018661114b565b6112f2602083018561114b565b6112ff604083018461114b565b949350505050565b600060c08201905061131c600083018961114b565b611329602083018861114b565b611336604083018761114b565b611343606083018661101a565b6113506080830185611047565b61135d60a0830184611038565b979650505050505050565b600082825260208201905092915050565b6000611384826114f0565b915061138f836114f0565b9250827fffffffffffffffffffffffffffffffffffffffffffffffffffffffffffffffff038211156113c4576113c361151e565b5b828201905092915050565b60006113da826114f0565b91506113e5836114f0565b9250826113f5576113f461154d565b5b828204905092915050565b600061140b826114f0565b9150611416836114f0565b9250817fffffffffffffffffffffffffffffffffffffffffffffffffffffffffffffffff048311821515161561144f5761144e61151e565b5b828202905092915050565b6000611465826114f0565b9150611470836114f0565b9250828210156114835761148261151e565b5b828203905092915050565b6000611499826114d0565b9050919050565b60006114ab826114d0565b9050919050565b60008115159050919050565b60006114c98261148e565b9050919050565b600073ffffffffffffffffffffffffffffffffffffffff82169050919050565b6000819050919050565b60006115058261150c565b9050919050565b6000611517826114d0565b9050919050565b7f4e487b7100000000000000000000000000000000000000000000000000000000600052601160045260246000fd5b7f4e487b7100000000000000000000000000000000000000000000000000000000600052601260045260246000fd5b7f5072696365206d7573742062652067726561746572207468616e207a65726f00600082015250565b7f4f6e6c79206f776e65722063616e20656e726f6c6c0000000000000000000000600082015250565b7f54686973206973206f6e20746865206d61726b65740000000000000000000000600082015250565b7f4e6f7420656e6f75676820657468657220746f20636f766572206974656d207060008201527f7269636520616e64206d61726b65742066656500000000000000000000000000602082015250565b7f4974656d20646f65736e27742065786973740000000000000000000000000000600082015250565b7f5265656e7472616e637947756172643a207265656e7472616e742063616c6c00600082015250565b7f536f6c64206f7574210000000000000000000000000000000000000000000000600082015250565b6116ca8161148e565b81146116d557600080fd5b50565b6116e1816114b2565b81146116ec57600080fd5b50565b6116f8816114be565b811461170357600080fd5b50565b61170f816114f0565b811461171a57600080fd5b5056fea2646970667358221220b80d510c2c7d9702972b9dad10ef37908871935df05c4121b6682c5ea1f2746a64736f6c63430008040033",
    "linkReferences": {},
    "deployedLinkReferences": {}
}