{
    "contractAddress": "0x4ccd07056d3DA6925B7b528c845186E1dF5a4C10",
    "_format": "hh-sol-artifact-1",
    "contractName": "Marketplace",
    "sourceName": "contracts/Marketplace.sol",
    "abi": [
        {
            "inputs": [
                {
                    "internalType": "uint256",
                    "name": "_feePercent",
                    "type": "uint256"
                }
            ],
            "stateMutability": "nonpayable",
            "type": "constructor"
        },
        {
            "anonymous": false,
            "inputs": [
                {
                    "indexed": false,
                    "internalType": "uint256",
                    "name": "itemId",
                    "type": "uint256"
                },
                {
                    "indexed": false,
                    "internalType": "uint256",
                    "name": "tokenId",
                    "type": "uint256"
                },
                {
                    "indexed": false,
                    "internalType": "uint256",
                    "name": "price",
                    "type": "uint256"
                },
                {
                    "indexed": true,
                    "internalType": "address",
                    "name": "seller",
                    "type": "address"
                },
                {
                    "indexed": true,
                    "internalType": "address",
                    "name": "buyer",
                    "type": "address"
                },
                {
                    "indexed": true,
                    "internalType": "address",
                    "name": "nft",
                    "type": "address"
                }
            ],
            "name": "Bought",
            "type": "event"
        },
        {
            "anonymous": false,
            "inputs": [
                {
                    "indexed": false,
                    "internalType": "uint256",
                    "name": "itemId",
                    "type": "uint256"
                },
                {
                    "indexed": false,
                    "internalType": "uint256",
                    "name": "tokenId",
                    "type": "uint256"
                },
                {
                    "indexed": false,
                    "internalType": "uint256",
                    "name": "price",
                    "type": "uint256"
                },
                {
                    "indexed": true,
                    "internalType": "address",
                    "name": "seller",
                    "type": "address"
                },
                {
                    "indexed": true,
                    "internalType": "address",
                    "name": "nft",
                    "type": "address"
                }
            ],
            "name": "Enrolled",
            "type": "event"
        },
        {
            "inputs": [
                {
                    "internalType": "contract IERC721",
                    "name": "_nft",
                    "type": "address"
                },
                {
                    "internalType": "uint256",
                    "name": "_tokenId",
                    "type": "uint256"
                },
                {
                    "internalType": "uint256",
                    "name": "_price",
                    "type": "uint256"
                }
            ],
            "name": "enroll",
            "outputs": [],
            "stateMutability": "nonpayable",
            "type": "function"
        },
        {
            "inputs": [],
            "name": "feeAccount",
            "outputs": [
                {
                    "internalType": "address payable",
                    "name": "",
                    "type": "address"
                }
            ],
            "stateMutability": "view",
            "type": "function"
        },
        {
            "inputs": [],
            "name": "feePercent",
            "outputs": [
                {
                    "internalType": "uint256",
                    "name": "",
                    "type": "uint256"
                }
            ],
            "stateMutability": "view",
            "type": "function"
        },
        {
            "inputs": [
                {
                    "internalType": "address",
                    "name": "_nft",
                    "type": "address"
                },
                {
                    "internalType": "uint256",
                    "name": "_tokenId",
                    "type": "uint256"
                }
            ],
            "name": "getNftToItemId",
            "outputs": [
                {
                    "internalType": "uint256",
                    "name": "",
                    "type": "uint256"
                }
            ],
            "stateMutability": "view",
            "type": "function"
        },
        {
            "inputs": [
                {
                    "internalType": "uint256",
                    "name": "_itemId",
                    "type": "uint256"
                }
            ],
            "name": "getTotalPrice",
            "outputs": [
                {
                    "internalType": "uint256",
                    "name": "",
                    "type": "uint256"
                }
            ],
            "stateMutability": "view",
            "type": "function"
        },
        {
            "inputs": [],
            "name": "itemCount",
            "outputs": [
                {
                    "internalType": "uint256",
                    "name": "_value",
                    "type": "uint256"
                }
            ],
            "stateMutability": "view",
            "type": "function"
        },
        {
            "inputs": [
                {
                    "internalType": "uint256",
                    "name": "",
                    "type": "uint256"
                }
            ],
            "name": "items",
            "outputs": [
                {
                    "internalType": "uint256",
                    "name": "itemId",
                    "type": "uint256"
                },
                {
                    "internalType": "uint256",
                    "name": "tokenId",
                    "type": "uint256"
                },
                {
                    "internalType": "uint256",
                    "name": "price",
                    "type": "uint256"
                },
                {
                    "internalType": "address payable",
                    "name": "seller",
                    "type": "address"
                },
                {
                    "internalType": "contract IERC721",
                    "name": "nft",
                    "type": "address"
                },
                {
                    "internalType": "bool",
                    "name": "sold",
                    "type": "bool"
                }
            ],
            "stateMutability": "view",
            "type": "function"
        },
        {
            "inputs": [
                {
                    "internalType": "address",
                    "name": "",
                    "type": "address"
                },
                {
                    "internalType": "uint256",
                    "name": "",
                    "type": "uint256"
                }
            ],
            "name": "nftToItemId",
            "outputs": [
                {
                    "internalType": "uint256",
                    "name": "",
                    "type": "uint256"
                }
            ],
            "stateMutability": "view",
            "type": "function"
        },
        {
            "inputs": [
                {
                    "internalType": "uint256",
                    "name": "_itemId",
                    "type": "uint256"
                }
            ],
            "name": "purchase",
            "outputs": [],
            "stateMutability": "payable",
            "type": "function"
        }
    ],
    "bytecode": "0x60c06040523480156200001157600080fd5b50604051620019193803806200191983398181016040528101906200003791906200009c565b60016000819055503373ffffffffffffffffffffffffffffffffffffffff1660808173ffffffffffffffffffffffffffffffffffffffff1660601b815250508060a0818152505050620000ec565b6000815190506200009681620000d2565b92915050565b600060208284031215620000af57600080fd5b6000620000bf8482850162000085565b91505092915050565b6000819050919050565b620000dd81620000c8565b8114620000e957600080fd5b50565b60805160601c60a0516117f662000123600039600081816102a101526109260152600081816102710152610bae01526117f66000f3fe6080604052600436106100865760003560e01c8063bc0da28811610059578063bc0da28814610149578063bfb231d214610172578063ca7dd375146101b4578063d99919dd146101f1578063efef39a11461022e57610086565b80635dcd7d9e1461008b57806365e17c9d146100c85780636bfb0d01146100f35780637fd6f15c1461011e575b600080fd5b34801561009757600080fd5b506100b260048036038101906100ad9190610fe0565b61024a565b6040516100bf919061132f565b60405180910390f35b3480156100d457600080fd5b506100dd61026f565b6040516100ea91906111fd565b60405180910390f35b3480156100ff57600080fd5b50610108610293565b604051610115919061132f565b60405180910390f35b34801561012a57600080fd5b5061013361029f565b604051610140919061132f565b60405180910390f35b34801561015557600080fd5b50610170600480360381019061016b9190611045565b6102c3565b005b34801561017e57600080fd5b5061019960048036038101906101949190611094565b610897565b6040516101ab969594939291906113aa565b60405180910390f35b3480156101c057600080fd5b506101db60048036038101906101d69190611094565b610920565b6040516101e8919061132f565b60405180910390f35b3480156101fd57600080fd5b5061021860048036038101906102139190610fe0565b610983565b604051610225919061132f565b60405180910390f35b61024860048036038101906102439190611094565b6109de565b005b6004602052816000526040600020602052806000526040600020600091509150505481565b7f000000000000000000000000000000000000000000000000000000000000000081565b60028060000154905081565b7f000000000000000000000000000000000000000000000000000000000000000081565b60026000541415610309576040517f08c379a0000000000000000000000000000000000000000000000000000000008152600401610300906112ef565b60405180910390fd5b600260008190555060008111610354576040517f08c379a000000000000000000000000000000000000000000000000000000000815260040161034b9061124f565b60405180910390fd5b8273ffffffffffffffffffffffffffffffffffffffff16636352211e836040518263ffffffff1660e01b815260040161038d919061132f565b60206040518083038186803b1580156103a557600080fd5b505afa1580156103b9573d6000803e3d6000fd5b505050506040513d601f19601f820116820180604052508101906103dd9190610fb7565b73ffffffffffffffffffffffffffffffffffffffff163373ffffffffffffffffffffffffffffffffffffffff161461044a576040517f08c379a00000000000000000000000000000000000000000000000000000000081526004016104419061126f565b60405180910390fd5b82600160006101000a81548173ffffffffffffffffffffffffffffffffffffffff021916908373ffffffffffffffffffffffffffffffffffffffff160217905550600160009054906101000a900473ffffffffffffffffffffffffffffffffffffffff1673ffffffffffffffffffffffffffffffffffffffff166305dcd1ff836040518263ffffffff1660e01b81526004016104e6919061132f565b60206040518083038186803b1580156104fe57600080fd5b505afa158015610512573d6000803e3d6000fd5b505050506040513d601f19601f82011682018060405250810190610536919061101c565b15610576576040517f08c379a000000000000000000000000000000000000000000000000000000000815260040161056d9061128f565b60405180910390fd5b6105806002610f2a565b600061058c6002610f40565b90508373ffffffffffffffffffffffffffffffffffffffff166323b872dd3330866040518463ffffffff1660e01b81526004016105cb93929190611218565b600060405180830381600087803b1580156105e557600080fd5b505af11580156105f9573d6000803e3d6000fd5b505050506040518060c001604052808281526020018481526020018381526020013373ffffffffffffffffffffffffffffffffffffffff1681526020018573ffffffffffffffffffffffffffffffffffffffff168152602001600015158152506003600083815260200190815260200160002060008201518160000155602082015181600101556040820151816002015560608201518160030160006101000a81548173ffffffffffffffffffffffffffffffffffffffff021916908373ffffffffffffffffffffffffffffffffffffffff16021790555060808201518160040160006101000a81548173ffffffffffffffffffffffffffffffffffffffff021916908373ffffffffffffffffffffffffffffffffffffffff16021790555060a08201518160040160146101000a81548160ff0219169083151502179055509050508373ffffffffffffffffffffffffffffffffffffffff163373ffffffffffffffffffffffffffffffffffffffff167f88e7a006baae890b208e60371ee21ec67c56635671c12f5ad27a34a8ee1c6c4d83868660405161079c93929190611373565b60405180910390a380600460008673ffffffffffffffffffffffffffffffffffffffff1673ffffffffffffffffffffffffffffffffffffffff168152602001908152602001600020600085815260200190815260200160002081905550600160009054906101000a900473ffffffffffffffffffffffffffffffffffffffff1673ffffffffffffffffffffffffffffffffffffffff1663a27b467d8460016040518363ffffffff1660e01b815260040161085792919061134a565b600060405180830381600087803b15801561087157600080fd5b505af1158015610885573d6000803e3d6000fd5b50505050506001600081905550505050565b60036020528060005260406000206000915090508060000154908060010154908060020154908060030160009054906101000a900473ffffffffffffffffffffffffffffffffffffffff16908060040160009054906101000a900473ffffffffffffffffffffffffffffffffffffffff16908060040160149054906101000a900460ff16905086565b600060647f00000000000000000000000000000000000000000000000000000000000000006064610951919061141c565b600360008581526020019081526020016000206002015461097291906114a3565b61097c9190611472565b9050919050565b6000600460008473ffffffffffffffffffffffffffffffffffffffff1673ffffffffffffffffffffffffffffffffffffffff168152602001908152602001600020600083815260200190815260200160002054905092915050565b60026000541415610a24576040517f08c379a0000000000000000000000000000000000000000000000000000000008152600401610a1b906112ef565b60405180910390fd5b60026000819055506000610a3782610920565b90506000600360008481526020019081526020016000209050600083118015610a695750610a656002610f40565b8311155b610aa8576040517f08c379a0000000000000000000000000000000000000000000000000000000008152600401610a9f906112cf565b60405180910390fd5b81341015610aeb576040517f08c379a0000000000000000000000000000000000000000000000000000000008152600401610ae2906112af565b60405180910390fd5b8060040160149054906101000a900460ff1615610b3d576040517f08c379a0000000000000000000000000000000000000000000000000000000008152600401610b349061130f565b60405180910390fd5b8060030160009054906101000a900473ffffffffffffffffffffffffffffffffffffffff1673ffffffffffffffffffffffffffffffffffffffff166108fc82600201549081150290604051600060405180830381858888f19350505050158015610bab573d6000803e3d6000fd5b507f000000000000000000000000000000000000000000000000000000000000000073ffffffffffffffffffffffffffffffffffffffff166108fc826002015484610bf691906114fd565b9081150290604051600060405180830381858888f19350505050158015610c21573d6000803e3d6000fd5b5060018160040160146101000a81548160ff0219169083151502179055508060040160009054906101000a900473ffffffffffffffffffffffffffffffffffffffff1673ffffffffffffffffffffffffffffffffffffffff166342842e0e303384600101546040518463ffffffff1660e01b8152600401610ca493929190611218565b600060405180830381600087803b158015610cbe57600080fd5b505af1158015610cd2573d6000803e3d6000fd5b505050506000600460008360040160009054906101000a900473ffffffffffffffffffffffffffffffffffffffff1673ffffffffffffffffffffffffffffffffffffffff1673ffffffffffffffffffffffffffffffffffffffff168152602001908152602001600020600083600101548152602001908152602001600020819055508060040160009054906101000a900473ffffffffffffffffffffffffffffffffffffffff1673ffffffffffffffffffffffffffffffffffffffff163373ffffffffffffffffffffffffffffffffffffffff168260030160009054906101000a900473ffffffffffffffffffffffffffffffffffffffff1673ffffffffffffffffffffffffffffffffffffffff167fd37dad59375a554b19479ac1258ea706da4a48fd73d4cc1b395de5c7d2eb47fe8685600101548660020154604051610e1c93929190611373565b60405180910390a48060040160009054906101000a900473ffffffffffffffffffffffffffffffffffffffff16600160006101000a81548173ffffffffffffffffffffffffffffffffffffffff021916908373ffffffffffffffffffffffffffffffffffffffff160217905550600160009054906101000a900473ffffffffffffffffffffffffffffffffffffffff1673ffffffffffffffffffffffffffffffffffffffff1663a27b467d826001015460006040518363ffffffff1660e01b8152600401610eeb92919061134a565b600060405180830381600087803b158015610f0557600080fd5b505af1158015610f19573d6000803e3d6000fd5b505050505050600160008190555050565b6001816000016000828254019250508190555050565b600081600001549050919050565b600081359050610f5d81611764565b92915050565b600081519050610f7281611764565b92915050565b600081519050610f878161177b565b92915050565b600081359050610f9c81611792565b92915050565b600081359050610fb1816117a9565b92915050565b600060208284031215610fc957600080fd5b6000610fd784828501610f63565b91505092915050565b60008060408385031215610ff357600080fd5b600061100185828601610f4e565b925050602061101285828601610fa2565b9150509250929050565b60006020828403121561102e57600080fd5b600061103c84828501610f78565b91505092915050565b60008060006060848603121561105a57600080fd5b600061106886828701610f8d565b935050602061107986828701610fa2565b925050604061108a86828701610fa2565b9150509250925092565b6000602082840312156110a657600080fd5b60006110b484828501610fa2565b91505092915050565b6110c681611543565b82525050565b6110d581611531565b82525050565b6110e481611555565b82525050565b6110f38161159d565b82525050565b6000611106601f8361140b565b91506111118261161f565b602082019050919050565b600061112960158361140b565b915061113482611648565b602082019050919050565b600061114c60158361140b565b915061115782611671565b602082019050919050565b600061116f60338361140b565b915061117a8261169a565b604082019050919050565b600061119260128361140b565b915061119d826116e9565b602082019050919050565b60006111b5601f8361140b565b91506111c082611712565b602082019050919050565b60006111d860098361140b565b91506111e38261173b565b602082019050919050565b6111f781611593565b82525050565b600060208201905061121260008301846110bd565b92915050565b600060608201905061122d60008301866110cc565b61123a60208301856110cc565b61124760408301846111ee565b949350505050565b60006020820190508181036000830152611268816110f9565b9050919050565b600060208201905081810360008301526112888161111c565b9050919050565b600060208201905081810360008301526112a88161113f565b9050919050565b600060208201905081810360008301526112c881611162565b9050919050565b600060208201905081810360008301526112e881611185565b9050919050565b60006020820190508181036000830152611308816111a8565b9050919050565b60006020820190508181036000830152611328816111cb565b9050919050565b600060208201905061134460008301846111ee565b92915050565b600060408201905061135f60008301856111ee565b61136c60208301846110db565b9392505050565b600060608201905061138860008301866111ee565b61139560208301856111ee565b6113a260408301846111ee565b949350505050565b600060c0820190506113bf60008301896111ee565b6113cc60208301886111ee565b6113d960408301876111ee565b6113e660608301866110bd565b6113f360808301856110ea565b61140060a08301846110db565b979650505050505050565b600082825260208201905092915050565b600061142782611593565b915061143283611593565b9250827fffffffffffffffffffffffffffffffffffffffffffffffffffffffffffffffff03821115611467576114666115c1565b5b828201905092915050565b600061147d82611593565b915061148883611593565b925082611498576114976115f0565b5b828204905092915050565b60006114ae82611593565b91506114b983611593565b9250817fffffffffffffffffffffffffffffffffffffffffffffffffffffffffffffffff04831182151516156114f2576114f16115c1565b5b828202905092915050565b600061150882611593565b915061151383611593565b925082821015611526576115256115c1565b5b828203905092915050565b600061153c82611573565b9050919050565b600061154e82611573565b9050919050565b60008115159050919050565b600061156c82611531565b9050919050565b600073ffffffffffffffffffffffffffffffffffffffff82169050919050565b6000819050919050565b60006115a8826115af565b9050919050565b60006115ba82611573565b9050919050565b7f4e487b7100000000000000000000000000000000000000000000000000000000600052601160045260246000fd5b7f4e487b7100000000000000000000000000000000000000000000000000000000600052601260045260246000fd5b7f5072696365206d7573742062652067726561746572207468616e207a65726f00600082015250565b7f4f6e6c79206f776e65722063616e20656e726f6c6c0000000000000000000000600082015250565b7f54686973206973206f6e20746865206d61726b65740000000000000000000000600082015250565b7f4e6f7420656e6f75676820657468657220746f20636f766572206974656d207060008201527f7269636520616e64206d61726b65742066656500000000000000000000000000602082015250565b7f4974656d20646f65736e27742065786973740000000000000000000000000000600082015250565b7f5265656e7472616e637947756172643a207265656e7472616e742063616c6c00600082015250565b7f536f6c64206f7574210000000000000000000000000000000000000000000000600082015250565b61176d81611531565b811461177857600080fd5b50565b61178481611555565b811461178f57600080fd5b50565b61179b81611561565b81146117a657600080fd5b50565b6117b281611593565b81146117bd57600080fd5b5056fea2646970667358221220b89023c1c0f626845bdea8605da02b0a81d8d66e86915f25692f44a6900c4c7064736f6c63430008040033",
    "linkReferences": {},
    "deployedLinkReferences": {}
}