{
    "contractAddress": "0xb4e14c87Cc0446a8A5E1A6F93e31832f51951412",
    "_format": "hh-sol-artifact-1",
    "contractName": "Marketplace",
    "sourceName": "contracts/Marketplace.sol",
    "abi": [
        {
            "inputs": [
                {
                    "internalType": "uint256",
                    "name": "_feePercent",
                    "type": "uint256"
                }
            ],
            "stateMutability": "nonpayable",
            "type": "constructor"
        },
        {
            "anonymous": false,
            "inputs": [
                {
                    "indexed": false,
                    "internalType": "uint256",
                    "name": "itemId",
                    "type": "uint256"
                },
                {
                    "indexed": false,
                    "internalType": "uint256",
                    "name": "tokenId",
                    "type": "uint256"
                },
                {
                    "indexed": false,
                    "internalType": "uint256",
                    "name": "price",
                    "type": "uint256"
                },
                {
                    "indexed": true,
                    "internalType": "address",
                    "name": "seller",
                    "type": "address"
                },
                {
                    "indexed": true,
                    "internalType": "address",
                    "name": "buyer",
                    "type": "address"
                },
                {
                    "indexed": true,
                    "internalType": "address",
                    "name": "nft",
                    "type": "address"
                }
            ],
            "name": "Bought",
            "type": "event"
        },
        {
            "anonymous": false,
            "inputs": [
                {
                    "indexed": false,
                    "internalType": "uint256",
                    "name": "itemId",
                    "type": "uint256"
                },
                {
                    "indexed": false,
                    "internalType": "uint256",
                    "name": "tokenId",
                    "type": "uint256"
                },
                {
                    "indexed": false,
                    "internalType": "uint256",
                    "name": "price",
                    "type": "uint256"
                },
                {
                    "indexed": true,
                    "internalType": "address",
                    "name": "seller",
                    "type": "address"
                },
                {
                    "indexed": true,
                    "internalType": "address",
                    "name": "nft",
                    "type": "address"
                }
            ],
            "name": "Enrolled",
            "type": "event"
        },
        {
            "inputs": [
                {
                    "internalType": "contract IERC721",
                    "name": "_nft",
                    "type": "address"
                },
                {
                    "internalType": "uint256",
                    "name": "_tokenId",
                    "type": "uint256"
                },
                {
                    "internalType": "uint256",
                    "name": "_price",
                    "type": "uint256"
                }
            ],
            "name": "enroll",
            "outputs": [],
            "stateMutability": "nonpayable",
            "type": "function"
        },
        {
            "inputs": [],
            "name": "feeAccount",
            "outputs": [
                {
                    "internalType": "address payable",
                    "name": "",
                    "type": "address"
                }
            ],
            "stateMutability": "view",
            "type": "function"
        },
        {
            "inputs": [],
            "name": "feePercent",
            "outputs": [
                {
                    "internalType": "uint256",
                    "name": "",
                    "type": "uint256"
                }
            ],
            "stateMutability": "view",
            "type": "function"
        },
        {
            "inputs": [
                {
                    "internalType": "uint256",
                    "name": "_itemId",
                    "type": "uint256"
                }
            ],
            "name": "getItems",
            "outputs": [
                {
                    "components": [
                        {
                            "internalType": "uint256",
                            "name": "itemId",
                            "type": "uint256"
                        },
                        {
                            "internalType": "uint256",
                            "name": "tokenId",
                            "type": "uint256"
                        },
                        {
                            "internalType": "uint256",
                            "name": "price",
                            "type": "uint256"
                        },
                        {
                            "internalType": "address payable",
                            "name": "seller",
                            "type": "address"
                        },
                        {
                            "internalType": "contract IERC721",
                            "name": "nft",
                            "type": "address"
                        },
                        {
                            "internalType": "bool",
                            "name": "sold",
                            "type": "bool"
                        }
                    ],
                    "internalType": "struct Marketplace.Item",
                    "name": "",
                    "type": "tuple"
                }
            ],
            "stateMutability": "view",
            "type": "function"
        },
        {
            "inputs": [
                {
                    "internalType": "address",
                    "name": "_nft",
                    "type": "address"
                },
                {
                    "internalType": "uint256",
                    "name": "_tokenId",
                    "type": "uint256"
                }
            ],
            "name": "getNftToItemId",
            "outputs": [
                {
                    "internalType": "uint256",
                    "name": "",
                    "type": "uint256"
                }
            ],
            "stateMutability": "view",
            "type": "function"
        },
        {
            "inputs": [
                {
                    "internalType": "uint256",
                    "name": "_itemId",
                    "type": "uint256"
                }
            ],
            "name": "getTotalPrice",
            "outputs": [
                {
                    "internalType": "uint256",
                    "name": "",
                    "type": "uint256"
                }
            ],
            "stateMutability": "view",
            "type": "function"
        },
        {
            "inputs": [],
            "name": "itemCount",
            "outputs": [
                {
                    "internalType": "uint256",
                    "name": "_value",
                    "type": "uint256"
                }
            ],
            "stateMutability": "view",
            "type": "function"
        },
        {
            "inputs": [
                {
                    "internalType": "uint256",
                    "name": "",
                    "type": "uint256"
                }
            ],
            "name": "items",
            "outputs": [
                {
                    "internalType": "uint256",
                    "name": "itemId",
                    "type": "uint256"
                },
                {
                    "internalType": "uint256",
                    "name": "tokenId",
                    "type": "uint256"
                },
                {
                    "internalType": "uint256",
                    "name": "price",
                    "type": "uint256"
                },
                {
                    "internalType": "address payable",
                    "name": "seller",
                    "type": "address"
                },
                {
                    "internalType": "contract IERC721",
                    "name": "nft",
                    "type": "address"
                },
                {
                    "internalType": "bool",
                    "name": "sold",
                    "type": "bool"
                }
            ],
            "stateMutability": "view",
            "type": "function"
        },
        {
            "inputs": [
                {
                    "internalType": "address",
                    "name": "",
                    "type": "address"
                },
                {
                    "internalType": "uint256",
                    "name": "",
                    "type": "uint256"
                }
            ],
            "name": "nftToItemId",
            "outputs": [
                {
                    "internalType": "uint256",
                    "name": "",
                    "type": "uint256"
                }
            ],
            "stateMutability": "view",
            "type": "function"
        },
        {
            "inputs": [
                {
                    "internalType": "uint256",
                    "name": "_itemId",
                    "type": "uint256"
                }
            ],
            "name": "purchase",
            "outputs": [],
            "stateMutability": "payable",
            "type": "function"
        }
    ],
    "bytecode": "0x60c06040523480156200001157600080fd5b5060405162001ba938038062001ba983398181016040528101906200003791906200009c565b60016000819055503373ffffffffffffffffffffffffffffffffffffffff1660808173ffffffffffffffffffffffffffffffffffffffff1660601b815250508060a0818152505050620000ec565b6000815190506200009681620000d2565b92915050565b600060208284031215620000af57600080fd5b6000620000bf8482850162000085565b91505092915050565b6000819050919050565b620000dd81620000c8565b8114620000e957600080fd5b50565b60805160601c60a051611a8662000123600039600081816103fb0152610a800152600081816102b90152610d080152611a866000f3fe6080604052600436106100915760003560e01c8063bc0da28811610059578063bc0da28814610191578063bfb231d2146101ba578063ca7dd375146101fc578063d99919dd14610239578063efef39a11461027657610091565b80635dcd7d9e1461009657806365e17c9d146100d35780636bfb0d01146100fe578063796c5e94146101295780637fd6f15c14610166575b600080fd5b3480156100a257600080fd5b506100bd60048036038101906100b8919061119e565b610292565b6040516100ca91906115bf565b60405180910390f35b3480156100df57600080fd5b506100e86102b7565b6040516100f59190611472565b60405180910390f35b34801561010a57600080fd5b506101136102db565b60405161012091906115bf565b60405180910390f35b34801561013557600080fd5b50610150600480360381019061014b9190611252565b6102e7565b60405161015d91906115a4565b60405180910390f35b34801561017257600080fd5b5061017b6103f9565b60405161018891906115bf565b60405180910390f35b34801561019d57600080fd5b506101b860048036038101906101b39190611203565b61041d565b005b3480156101c657600080fd5b506101e160048036038101906101dc9190611252565b6109f1565b6040516101f39695949392919061163a565b60405180910390f35b34801561020857600080fd5b50610223600480360381019061021e9190611252565b610a7a565b60405161023091906115bf565b60405180910390f35b34801561024557600080fd5b50610260600480360381019061025b919061119e565b610add565b60405161026d91906115bf565b60405180910390f35b610290600480360381019061028b9190611252565b610b38565b005b6004602052816000526040600020602052806000526040600020600091509150505481565b7f000000000000000000000000000000000000000000000000000000000000000081565b60028060000154905081565b6102ef6110a8565b600360008381526020019081526020016000206040518060c00160405290816000820154815260200160018201548152602001600282015481526020016003820160009054906101000a900473ffffffffffffffffffffffffffffffffffffffff1673ffffffffffffffffffffffffffffffffffffffff1673ffffffffffffffffffffffffffffffffffffffff1681526020016004820160009054906101000a900473ffffffffffffffffffffffffffffffffffffffff1673ffffffffffffffffffffffffffffffffffffffff1673ffffffffffffffffffffffffffffffffffffffff1681526020016004820160149054906101000a900460ff1615151515815250509050919050565b7f000000000000000000000000000000000000000000000000000000000000000081565b60026000541415610463576040517f08c379a000000000000000000000000000000000000000000000000000000000815260040161045a90611564565b60405180910390fd5b6002600081905550600081116104ae576040517f08c379a00000000000000000000000000000000000000000000000000000000081526004016104a5906114c4565b60405180910390fd5b8273ffffffffffffffffffffffffffffffffffffffff16636352211e836040518263ffffffff1660e01b81526004016104e791906115bf565b60206040518083038186803b1580156104ff57600080fd5b505afa158015610513573d6000803e3d6000fd5b505050506040513d601f19601f820116820180604052508101906105379190611175565b73ffffffffffffffffffffffffffffffffffffffff163373ffffffffffffffffffffffffffffffffffffffff16146105a4576040517f08c379a000000000000000000000000000000000000000000000000000000000815260040161059b906114e4565b60405180910390fd5b82600160006101000a81548173ffffffffffffffffffffffffffffffffffffffff021916908373ffffffffffffffffffffffffffffffffffffffff160217905550600160009054906101000a900473ffffffffffffffffffffffffffffffffffffffff1673ffffffffffffffffffffffffffffffffffffffff166305dcd1ff836040518263ffffffff1660e01b815260040161064091906115bf565b60206040518083038186803b15801561065857600080fd5b505afa15801561066c573d6000803e3d6000fd5b505050506040513d601f19601f8201168201806040525081019061069091906111da565b156106d0576040517f08c379a00000000000000000000000000000000000000000000000000000000081526004016106c790611504565b60405180910390fd5b6106da6002611084565b60006106e6600261109a565b90508373ffffffffffffffffffffffffffffffffffffffff166323b872dd3330866040518463ffffffff1660e01b81526004016107259392919061148d565b600060405180830381600087803b15801561073f57600080fd5b505af1158015610753573d6000803e3d6000fd5b505050506040518060c001604052808281526020018481526020018381526020013373ffffffffffffffffffffffffffffffffffffffff1681526020018573ffffffffffffffffffffffffffffffffffffffff168152602001600015158152506003600083815260200190815260200160002060008201518160000155602082015181600101556040820151816002015560608201518160030160006101000a81548173ffffffffffffffffffffffffffffffffffffffff021916908373ffffffffffffffffffffffffffffffffffffffff16021790555060808201518160040160006101000a81548173ffffffffffffffffffffffffffffffffffffffff021916908373ffffffffffffffffffffffffffffffffffffffff16021790555060a08201518160040160146101000a81548160ff0219169083151502179055509050508373ffffffffffffffffffffffffffffffffffffffff163373ffffffffffffffffffffffffffffffffffffffff167f88e7a006baae890b208e60371ee21ec67c56635671c12f5ad27a34a8ee1c6c4d8386866040516108f693929190611603565b60405180910390a380600460008673ffffffffffffffffffffffffffffffffffffffff1673ffffffffffffffffffffffffffffffffffffffff168152602001908152602001600020600085815260200190815260200160002081905550600160009054906101000a900473ffffffffffffffffffffffffffffffffffffffff1673ffffffffffffffffffffffffffffffffffffffff1663a27b467d8460016040518363ffffffff1660e01b81526004016109b19291906115da565b600060405180830381600087803b1580156109cb57600080fd5b505af11580156109df573d6000803e3d6000fd5b50505050506001600081905550505050565b60036020528060005260406000206000915090508060000154908060010154908060020154908060030160009054906101000a900473ffffffffffffffffffffffffffffffffffffffff16908060040160009054906101000a900473ffffffffffffffffffffffffffffffffffffffff16908060040160149054906101000a900460ff16905086565b600060647f00000000000000000000000000000000000000000000000000000000000000006064610aab91906116ac565b6003600085815260200190815260200160002060020154610acc9190611733565b610ad69190611702565b9050919050565b6000600460008473ffffffffffffffffffffffffffffffffffffffff1673ffffffffffffffffffffffffffffffffffffffff168152602001908152602001600020600083815260200190815260200160002054905092915050565b60026000541415610b7e576040517f08c379a0000000000000000000000000000000000000000000000000000000008152600401610b7590611564565b60405180910390fd5b60026000819055506000610b9182610a7a565b90506000600360008481526020019081526020016000209050600083118015610bc35750610bbf600261109a565b8311155b610c02576040517f08c379a0000000000000000000000000000000000000000000000000000000008152600401610bf990611544565b60405180910390fd5b81341015610c45576040517f08c379a0000000000000000000000000000000000000000000000000000000008152600401610c3c90611524565b60405180910390fd5b8060040160149054906101000a900460ff1615610c97576040517f08c379a0000000000000000000000000000000000000000000000000000000008152600401610c8e90611584565b60405180910390fd5b8060030160009054906101000a900473ffffffffffffffffffffffffffffffffffffffff1673ffffffffffffffffffffffffffffffffffffffff166108fc82600201549081150290604051600060405180830381858888f19350505050158015610d05573d6000803e3d6000fd5b507f000000000000000000000000000000000000000000000000000000000000000073ffffffffffffffffffffffffffffffffffffffff166108fc826002015484610d50919061178d565b9081150290604051600060405180830381858888f19350505050158015610d7b573d6000803e3d6000fd5b5060018160040160146101000a81548160ff0219169083151502179055508060040160009054906101000a900473ffffffffffffffffffffffffffffffffffffffff1673ffffffffffffffffffffffffffffffffffffffff166342842e0e303384600101546040518463ffffffff1660e01b8152600401610dfe9392919061148d565b600060405180830381600087803b158015610e1857600080fd5b505af1158015610e2c573d6000803e3d6000fd5b505050506000600460008360040160009054906101000a900473ffffffffffffffffffffffffffffffffffffffff1673ffffffffffffffffffffffffffffffffffffffff1673ffffffffffffffffffffffffffffffffffffffff168152602001908152602001600020600083600101548152602001908152602001600020819055508060040160009054906101000a900473ffffffffffffffffffffffffffffffffffffffff1673ffffffffffffffffffffffffffffffffffffffff163373ffffffffffffffffffffffffffffffffffffffff168260030160009054906101000a900473ffffffffffffffffffffffffffffffffffffffff1673ffffffffffffffffffffffffffffffffffffffff167fd37dad59375a554b19479ac1258ea706da4a48fd73d4cc1b395de5c7d2eb47fe8685600101548660020154604051610f7693929190611603565b60405180910390a48060040160009054906101000a900473ffffffffffffffffffffffffffffffffffffffff16600160006101000a81548173ffffffffffffffffffffffffffffffffffffffff021916908373ffffffffffffffffffffffffffffffffffffffff160217905550600160009054906101000a900473ffffffffffffffffffffffffffffffffffffffff1673ffffffffffffffffffffffffffffffffffffffff1663a27b467d826001015460006040518363ffffffff1660e01b81526004016110459291906115da565b600060405180830381600087803b15801561105f57600080fd5b505af1158015611073573d6000803e3d6000fd5b505050505050600160008190555050565b6001816000016000828254019250508190555050565b600081600001549050919050565b6040518060c00160405280600081526020016000815260200160008152602001600073ffffffffffffffffffffffffffffffffffffffff168152602001600073ffffffffffffffffffffffffffffffffffffffff1681526020016000151581525090565b60008135905061111b816119f4565b92915050565b600081519050611130816119f4565b92915050565b60008151905061114581611a0b565b92915050565b60008135905061115a81611a22565b92915050565b60008135905061116f81611a39565b92915050565b60006020828403121561118757600080fd5b600061119584828501611121565b91505092915050565b600080604083850312156111b157600080fd5b60006111bf8582860161110c565b92505060206111d085828601611160565b9150509250929050565b6000602082840312156111ec57600080fd5b60006111fa84828501611136565b91505092915050565b60008060006060848603121561121857600080fd5b60006112268682870161114b565b935050602061123786828701611160565b925050604061124886828701611160565b9150509250925092565b60006020828403121561126457600080fd5b600061127284828501611160565b91505092915050565b611284816117d3565b82525050565b611293816117d3565b82525050565b6112a2816117c1565b82525050565b6112b1816117e5565b82525050565b6112c0816117e5565b82525050565b6112cf8161182d565b82525050565b6112de8161182d565b82525050565b60006112f1601f8361169b565b91506112fc826118af565b602082019050919050565b600061131460158361169b565b915061131f826118d8565b602082019050919050565b600061133760158361169b565b915061134282611901565b602082019050919050565b600061135a60338361169b565b91506113658261192a565b604082019050919050565b600061137d60128361169b565b915061138882611979565b602082019050919050565b60006113a0601f8361169b565b91506113ab826119a2565b602082019050919050565b60006113c360098361169b565b91506113ce826119cb565b602082019050919050565b60c0820160008201516113ef6000850182611454565b5060208201516114026020850182611454565b5060408201516114156040850182611454565b506060820151611428606085018261127b565b50608082015161143b60808501826112c6565b5060a082015161144e60a08501826112a8565b50505050565b61145d81611823565b82525050565b61146c81611823565b82525050565b6000602082019050611487600083018461128a565b92915050565b60006060820190506114a26000830186611299565b6114af6020830185611299565b6114bc6040830184611463565b949350505050565b600060208201905081810360008301526114dd816112e4565b9050919050565b600060208201905081810360008301526114fd81611307565b9050919050565b6000602082019050818103600083015261151d8161132a565b9050919050565b6000602082019050818103600083015261153d8161134d565b9050919050565b6000602082019050818103600083015261155d81611370565b9050919050565b6000602082019050818103600083015261157d81611393565b9050919050565b6000602082019050818103600083015261159d816113b6565b9050919050565b600060c0820190506115b960008301846113d9565b92915050565b60006020820190506115d46000830184611463565b92915050565b60006040820190506115ef6000830185611463565b6115fc60208301846112b7565b9392505050565b60006060820190506116186000830186611463565b6116256020830185611463565b6116326040830184611463565b949350505050565b600060c08201905061164f6000830189611463565b61165c6020830188611463565b6116696040830187611463565b611676606083018661128a565b61168360808301856112d5565b61169060a08301846112b7565b979650505050505050565b600082825260208201905092915050565b60006116b782611823565b91506116c283611823565b9250827fffffffffffffffffffffffffffffffffffffffffffffffffffffffffffffffff038211156116f7576116f6611851565b5b828201905092915050565b600061170d82611823565b915061171883611823565b92508261172857611727611880565b5b828204905092915050565b600061173e82611823565b915061174983611823565b9250817fffffffffffffffffffffffffffffffffffffffffffffffffffffffffffffffff048311821515161561178257611781611851565b5b828202905092915050565b600061179882611823565b91506117a383611823565b9250828210156117b6576117b5611851565b5b828203905092915050565b60006117cc82611803565b9050919050565b60006117de82611803565b9050919050565b60008115159050919050565b60006117fc826117c1565b9050919050565b600073ffffffffffffffffffffffffffffffffffffffff82169050919050565b6000819050919050565b60006118388261183f565b9050919050565b600061184a82611803565b9050919050565b7f4e487b7100000000000000000000000000000000000000000000000000000000600052601160045260246000fd5b7f4e487b7100000000000000000000000000000000000000000000000000000000600052601260045260246000fd5b7f5072696365206d7573742062652067726561746572207468616e207a65726f00600082015250565b7f4f6e6c79206f776e65722063616e20656e726f6c6c0000000000000000000000600082015250565b7f54686973206973206f6e20746865206d61726b65740000000000000000000000600082015250565b7f4e6f7420656e6f75676820657468657220746f20636f766572206974656d207060008201527f7269636520616e64206d61726b65742066656500000000000000000000000000602082015250565b7f4974656d20646f65736e27742065786973740000000000000000000000000000600082015250565b7f5265656e7472616e637947756172643a207265656e7472616e742063616c6c00600082015250565b7f536f6c64206f7574210000000000000000000000000000000000000000000000600082015250565b6119fd816117c1565b8114611a0857600080fd5b50565b611a14816117e5565b8114611a1f57600080fd5b50565b611a2b816117f1565b8114611a3657600080fd5b50565b611a4281611823565b8114611a4d57600080fd5b5056fea26469706673582212203a65aa9eba9679c85708aa55d3780a251cdd1e48e5317512fa386e2b9be3c3a164736f6c63430008040033",
    "linkReferences": {},
    "deployedLinkReferences": {}
}