{
    "contractAddress": "0x5eb3Bc0a489C5A8288765d2336659EbCA68FCd00",
    "_format": "hh-sol-artifact-1",
    "contractName": "MusitNFT",
    "sourceName": "contracts/MusitNFT.sol",
    "abi": [
        {
            "inputs": [
                {
                    "internalType": "uint256",
                    "name": "_mintPrice",
                    "type": "uint256"
                }
            ],
            "stateMutability": "nonpayable",
            "type": "constructor"
        },
        {
            "anonymous": false,
            "inputs": [
                {
                    "indexed": true,
                    "internalType": "address",
                    "name": "owner",
                    "type": "address"
                },
                {
                    "indexed": true,
                    "internalType": "address",
                    "name": "approved",
                    "type": "address"
                },
                {
                    "indexed": true,
                    "internalType": "uint256",
                    "name": "tokenId",
                    "type": "uint256"
                }
            ],
            "name": "Approval",
            "type": "event"
        },
        {
            "anonymous": false,
            "inputs": [
                {
                    "indexed": true,
                    "internalType": "address",
                    "name": "owner",
                    "type": "address"
                },
                {
                    "indexed": true,
                    "internalType": "address",
                    "name": "operator",
                    "type": "address"
                },
                {
                    "indexed": false,
                    "internalType": "bool",
                    "name": "approved",
                    "type": "bool"
                }
            ],
            "name": "ApprovalForAll",
            "type": "event"
        },
        {
            "anonymous": false,
            "inputs": [
                {
                    "indexed": false,
                    "internalType": "uint256",
                    "name": "tokenId",
                    "type": "uint256"
                },
                {
                    "indexed": false,
                    "internalType": "string",
                    "name": "tokenURI",
                    "type": "string"
                },
                {
                    "indexed": true,
                    "internalType": "address",
                    "name": "minter",
                    "type": "address"
                }
            ],
            "name": "Minted",
            "type": "event"
        },
        {
            "anonymous": false,
            "inputs": [
                {
                    "indexed": true,
                    "internalType": "address",
                    "name": "previousOwner",
                    "type": "address"
                },
                {
                    "indexed": true,
                    "internalType": "address",
                    "name": "newOwner",
                    "type": "address"
                }
            ],
            "name": "OwnershipTransferred",
            "type": "event"
        },
        {
            "anonymous": false,
            "inputs": [
                {
                    "indexed": true,
                    "internalType": "address",
                    "name": "from",
                    "type": "address"
                },
                {
                    "indexed": true,
                    "internalType": "address",
                    "name": "to",
                    "type": "address"
                },
                {
                    "indexed": true,
                    "internalType": "uint256",
                    "name": "tokenId",
                    "type": "uint256"
                }
            ],
            "name": "Transfer",
            "type": "event"
        },
        {
            "inputs": [
                {
                    "internalType": "address",
                    "name": "to",
                    "type": "address"
                },
                {
                    "internalType": "uint256",
                    "name": "tokenId",
                    "type": "uint256"
                }
            ],
            "name": "approve",
            "outputs": [],
            "stateMutability": "nonpayable",
            "type": "function"
        },
        {
            "inputs": [
                {
                    "internalType": "address",
                    "name": "owner",
                    "type": "address"
                }
            ],
            "name": "balanceOf",
            "outputs": [
                {
                    "internalType": "uint256",
                    "name": "",
                    "type": "uint256"
                }
            ],
            "stateMutability": "view",
            "type": "function"
        },
        {
            "inputs": [
                {
                    "internalType": "uint256",
                    "name": "tokenId",
                    "type": "uint256"
                }
            ],
            "name": "getApproved",
            "outputs": [
                {
                    "internalType": "address",
                    "name": "",
                    "type": "address"
                }
            ],
            "stateMutability": "view",
            "type": "function"
        },
        {
            "inputs": [
                {
                    "internalType": "uint256",
                    "name": "_tokenId",
                    "type": "uint256"
                }
            ],
            "name": "getIsOnMarket",
            "outputs": [
                {
                    "internalType": "bool",
                    "name": "",
                    "type": "bool"
                }
            ],
            "stateMutability": "view",
            "type": "function"
        },
        {
            "inputs": [
                {
                    "internalType": "address",
                    "name": "owner",
                    "type": "address"
                },
                {
                    "internalType": "address",
                    "name": "operator",
                    "type": "address"
                }
            ],
            "name": "isApprovedForAll",
            "outputs": [
                {
                    "internalType": "bool",
                    "name": "",
                    "type": "bool"
                }
            ],
            "stateMutability": "view",
            "type": "function"
        },
        {
            "inputs": [],
            "name": "mintPrice",
            "outputs": [
                {
                    "internalType": "uint256",
                    "name": "",
                    "type": "uint256"
                }
            ],
            "stateMutability": "view",
            "type": "function"
        },
        {
            "inputs": [
                {
                    "internalType": "string",
                    "name": "_tokenURI",
                    "type": "string"
                }
            ],
            "name": "minting",
            "outputs": [
                {
                    "internalType": "uint256",
                    "name": "",
                    "type": "uint256"
                }
            ],
            "stateMutability": "payable",
            "type": "function"
        },
        {
            "inputs": [],
            "name": "name",
            "outputs": [
                {
                    "internalType": "string",
                    "name": "",
                    "type": "string"
                }
            ],
            "stateMutability": "view",
            "type": "function"
        },
        {
            "inputs": [],
            "name": "owner",
            "outputs": [
                {
                    "internalType": "address",
                    "name": "",
                    "type": "address"
                }
            ],
            "stateMutability": "view",
            "type": "function"
        },
        {
            "inputs": [
                {
                    "internalType": "uint256",
                    "name": "tokenId",
                    "type": "uint256"
                }
            ],
            "name": "ownerOf",
            "outputs": [
                {
                    "internalType": "address",
                    "name": "",
                    "type": "address"
                }
            ],
            "stateMutability": "view",
            "type": "function"
        },
        {
            "inputs": [],
            "name": "renounceOwnership",
            "outputs": [],
            "stateMutability": "nonpayable",
            "type": "function"
        },
        {
            "inputs": [
                {
                    "internalType": "address",
                    "name": "from",
                    "type": "address"
                },
                {
                    "internalType": "address",
                    "name": "to",
                    "type": "address"
                },
                {
                    "internalType": "uint256",
                    "name": "tokenId",
                    "type": "uint256"
                }
            ],
            "name": "safeTransferFrom",
            "outputs": [],
            "stateMutability": "nonpayable",
            "type": "function"
        },
        {
            "inputs": [
                {
                    "internalType": "address",
                    "name": "from",
                    "type": "address"
                },
                {
                    "internalType": "address",
                    "name": "to",
                    "type": "address"
                },
                {
                    "internalType": "uint256",
                    "name": "tokenId",
                    "type": "uint256"
                },
                {
                    "internalType": "bytes",
                    "name": "_data",
                    "type": "bytes"
                }
            ],
            "name": "safeTransferFrom",
            "outputs": [],
            "stateMutability": "nonpayable",
            "type": "function"
        },
        {
            "inputs": [
                {
                    "internalType": "address",
                    "name": "operator",
                    "type": "address"
                },
                {
                    "internalType": "bool",
                    "name": "approved",
                    "type": "bool"
                }
            ],
            "name": "setApprovalForAll",
            "outputs": [],
            "stateMutability": "nonpayable",
            "type": "function"
        },
        {
            "inputs": [
                {
                    "internalType": "uint256",
                    "name": "_tokenId",
                    "type": "uint256"
                },
                {
                    "internalType": "bool",
                    "name": "_isOnMarket",
                    "type": "bool"
                }
            ],
            "name": "setIsOnMarket",
            "outputs": [],
            "stateMutability": "nonpayable",
            "type": "function"
        },
        {
            "inputs": [
                {
                    "internalType": "uint256",
                    "name": "_mintPrice",
                    "type": "uint256"
                }
            ],
            "name": "setMintPrice",
            "outputs": [],
            "stateMutability": "nonpayable",
            "type": "function"
        },
        {
            "inputs": [
                {
                    "internalType": "bytes4",
                    "name": "interfaceId",
                    "type": "bytes4"
                }
            ],
            "name": "supportsInterface",
            "outputs": [
                {
                    "internalType": "bool",
                    "name": "",
                    "type": "bool"
                }
            ],
            "stateMutability": "view",
            "type": "function"
        },
        {
            "inputs": [],
            "name": "symbol",
            "outputs": [
                {
                    "internalType": "string",
                    "name": "",
                    "type": "string"
                }
            ],
            "stateMutability": "view",
            "type": "function"
        },
        {
            "inputs": [],
            "name": "tokenCount",
            "outputs": [
                {
                    "internalType": "uint256",
                    "name": "_value",
                    "type": "uint256"
                }
            ],
            "stateMutability": "view",
            "type": "function"
        },
        {
            "inputs": [
                {
                    "internalType": "uint256",
                    "name": "tokenId",
                    "type": "uint256"
                }
            ],
            "name": "tokenURI",
            "outputs": [
                {
                    "internalType": "string",
                    "name": "",
                    "type": "string"
                }
            ],
            "stateMutability": "view",
            "type": "function"
        },
        {
            "inputs": [],
            "name": "totalSupplied",
            "outputs": [
                {
                    "internalType": "uint256",
                    "name": "",
                    "type": "uint256"
                }
            ],
            "stateMutability": "view",
            "type": "function"
        },
        {
            "inputs": [
                {
                    "internalType": "address",
                    "name": "from",
                    "type": "address"
                },
                {
                    "internalType": "address",
                    "name": "to",
                    "type": "address"
                },
                {
                    "internalType": "uint256",
                    "name": "tokenId",
                    "type": "uint256"
                }
            ],
            "name": "transferFrom",
            "outputs": [],
            "stateMutability": "nonpayable",
            "type": "function"
        },
        {
            "inputs": [
                {
                    "internalType": "address",
                    "name": "newOwner",
                    "type": "address"
                }
            ],
            "name": "transferOwnership",
            "outputs": [],
            "stateMutability": "nonpayable",
            "type": "function"
        }
    ],
    "bytecode": "0x60806040523480156200001157600080fd5b50604051620037b0380380620037b083398181016040528101906200003791906200029a565b6040518060400160405280600981526020017f4d75736974204e465400000000000000000000000000000000000000000000008152506040518060400160405280600581526020017f4d555349540000000000000000000000000000000000000000000000000000008152508160009080519060200190620000bb929190620001d3565b508060019080519060200190620000d4929190620001d3565b505050620000f7620000eb6200010560201b60201c565b6200010d60201b60201c565b80600981905550506200034f565b600033905090565b6000600760009054906101000a900473ffffffffffffffffffffffffffffffffffffffff16905081600760006101000a81548173ffffffffffffffffffffffffffffffffffffffff021916908373ffffffffffffffffffffffffffffffffffffffff1602179055508173ffffffffffffffffffffffffffffffffffffffff168173ffffffffffffffffffffffffffffffffffffffff167f8be0079c531659141344cd1fd0a4f28419497f9722a3daafe3b4186f6b6457e060405160405180910390a35050565b828054620001e190620002d0565b90600052602060002090601f01602090048101928262000205576000855562000251565b82601f106200022057805160ff191683800117855562000251565b8280016001018555821562000251579182015b828111156200025057825182559160200191906001019062000233565b5b50905062000260919062000264565b5090565b5b808211156200027f57600081600090555060010162000265565b5090565b600081519050620002948162000335565b92915050565b600060208284031215620002ad57600080fd5b6000620002bd8482850162000283565b91505092915050565b6000819050919050565b60006002820490506001821680620002e957607f821691505b602082108114156200030057620002ff62000306565b5b50919050565b7f4e487b7100000000000000000000000000000000000000000000000000000000600052602260045260246000fd5b6200034081620002c6565b81146200034c57600080fd5b50565b613451806200035f6000396000f3fe6080604052600436106101405760003560e01c806370a08231116100b6578063a27b467d1161006f578063a27b467d14610463578063b88d4fde1461048c578063c87b56dd146104b5578063e985e9c5146104f2578063f2fde38b1461052f578063f4a0a5281461055857610140565b806370a0823114610365578063715018a6146103a25780638da5cb5b146103b957806395d89b41146103e45780639f181b5e1461040f578063a22cb4651461043a57610140565b80630bdc9008116101085780630bdc90081461025057806323b872dd1461028057806342842e0e146102a9578063630fd0ac146102d25780636352211e146102fd5780636817c76c1461033a57610140565b806301ffc9a71461014557806305dcd1ff1461018257806306fdde03146101bf578063081812fc146101ea578063095ea7b314610227575b600080fd5b34801561015157600080fd5b5061016c600480360381019061016791906122e7565b610581565b60405161017991906127d3565b60405180910390f35b34801561018e57600080fd5b506101a960048036038101906101a4919061237a565b610663565b6040516101b691906127d3565b60405180910390f35b3480156101cb57600080fd5b506101d461068d565b6040516101e191906127ee565b60405180910390f35b3480156101f657600080fd5b50610211600480360381019061020c919061237a565b61071f565b60405161021e919061276c565b60405180910390f35b34801561023357600080fd5b5061024e600480360381019061024991906122ab565b6107a4565b005b61026a60048036038101906102659190612339565b6108bc565b6040516102779190612a70565b60405180910390f35b34801561028c57600080fd5b506102a760048036038101906102a291906121a5565b61098e565b005b3480156102b557600080fd5b506102d060048036038101906102cb91906121a5565b6109ee565b005b3480156102de57600080fd5b506102e7610a0e565b6040516102f49190612a70565b60405180910390f35b34801561030957600080fd5b50610324600480360381019061031f919061237a565b610a14565b604051610331919061276c565b60405180910390f35b34801561034657600080fd5b5061034f610ac6565b60405161035c9190612a70565b60405180910390f35b34801561037157600080fd5b5061038c60048036038101906103879190612140565b610acc565b6040516103999190612a70565b60405180910390f35b3480156103ae57600080fd5b506103b7610b84565b005b3480156103c557600080fd5b506103ce610c0c565b6040516103db919061276c565b60405180910390f35b3480156103f057600080fd5b506103f9610c36565b60405161040691906127ee565b60405180910390f35b34801561041b57600080fd5b50610424610cc8565b6040516104319190612a70565b60405180910390f35b34801561044657600080fd5b50610461600480360381019061045c919061226f565b610cd4565b005b34801561046f57600080fd5b5061048a600480360381019061048591906123a3565b610cea565b005b34801561049857600080fd5b506104b360048036038101906104ae91906121f4565b610d19565b005b3480156104c157600080fd5b506104dc60048036038101906104d7919061237a565b610d7b565b6040516104e991906127ee565b60405180910390f35b3480156104fe57600080fd5b5061051960048036038101906105149190612169565b610ecd565b60405161052691906127d3565b60405180910390f35b34801561053b57600080fd5b5061055660048036038101906105519190612140565b610f61565b005b34801561056457600080fd5b5061057f600480360381019061057a919061237a565b611059565b005b60007f80ac58cd000000000000000000000000000000000000000000000000000000007bffffffffffffffffffffffffffffffffffffffffffffffffffffffff1916827bffffffffffffffffffffffffffffffffffffffffffffffffffffffff1916148061064c57507f5b5e139f000000000000000000000000000000000000000000000000000000007bffffffffffffffffffffffffffffffffffffffffffffffffffffffff1916827bffffffffffffffffffffffffffffffffffffffffffffffffffffffff1916145b8061065c575061065b826110df565b5b9050919050565b60006008600083815260200190815260200160002060009054906101000a900460ff169050919050565b60606000805461069c90612cf6565b80601f01602080910402602001604051908101604052809291908181526020018280546106c890612cf6565b80156107155780601f106106ea57610100808354040283529160200191610715565b820191906000526020600020905b8154815290600101906020018083116106f857829003601f168201915b5050505050905090565b600061072a82611149565b610769576040517f08c379a0000000000000000000000000000000000000000000000000000000008152600401610760906129b0565b60405180910390fd5b6004600083815260200190815260200160002060009054906101000a900473ffffffffffffffffffffffffffffffffffffffff169050919050565b60006107af82610a14565b90508073ffffffffffffffffffffffffffffffffffffffff168373ffffffffffffffffffffffffffffffffffffffff161415610820576040517f08c379a000000000000000000000000000000000000000000000000000000000815260040161081790612a10565b60405180910390fd5b8073ffffffffffffffffffffffffffffffffffffffff1661083f6111b5565b73ffffffffffffffffffffffffffffffffffffffff16148061086e575061086d816108686111b5565b610ecd565b5b6108ad576040517f08c379a00000000000000000000000000000000000000000000000000000000081526004016108a4906128f0565b60405180910390fd5b6108b783836111bd565b505050565b60006009543414610902576040517f08c379a00000000000000000000000000000000000000000000000000000000081526004016108f990612a50565b60405180910390fd5b61090c600b611276565b6000610918600b61128c565b9050610924338261129a565b61092e81846112b8565b3373ffffffffffffffffffffffffffffffffffffffff167fc1177815a22ab58cdf6e40a80dfe322e9d00b7977bd78634869752fed8082f568285604051610976929190612a8b565b60405180910390a280600a8190555080915050919050565b61099f6109996111b5565b8261132c565b6109de576040517f08c379a00000000000000000000000000000000000000000000000000000000081526004016109d590612a30565b60405180910390fd5b6109e983838361140a565b505050565b610a0983838360405180602001604052806000815250610d19565b505050565b600a5481565b6000806002600084815260200190815260200160002060009054906101000a900473ffffffffffffffffffffffffffffffffffffffff169050600073ffffffffffffffffffffffffffffffffffffffff168173ffffffffffffffffffffffffffffffffffffffff161415610abd576040517f08c379a0000000000000000000000000000000000000000000000000000000008152600401610ab490612930565b60405180910390fd5b80915050919050565b60095481565b60008073ffffffffffffffffffffffffffffffffffffffff168273ffffffffffffffffffffffffffffffffffffffff161415610b3d576040517f08c379a0000000000000000000000000000000000000000000000000000000008152600401610b3490612910565b60405180910390fd5b600360008373ffffffffffffffffffffffffffffffffffffffff1673ffffffffffffffffffffffffffffffffffffffff168152602001908152602001600020549050919050565b610b8c6111b5565b73ffffffffffffffffffffffffffffffffffffffff16610baa610c0c565b73ffffffffffffffffffffffffffffffffffffffff1614610c00576040517f08c379a0000000000000000000000000000000000000000000000000000000008152600401610bf7906129d0565b60405180910390fd5b610c0a6000611671565b565b6000600760009054906101000a900473ffffffffffffffffffffffffffffffffffffffff16905090565b606060018054610c4590612cf6565b80601f0160208091040260200160405190810160405280929190818152602001828054610c7190612cf6565b8015610cbe5780601f10610c9357610100808354040283529160200191610cbe565b820191906000526020600020905b815481529060010190602001808311610ca157829003601f168201915b5050505050905090565b600b8060000154905081565b610ce6610cdf6111b5565b8383611737565b5050565b806008600084815260200190815260200160002060006101000a81548160ff0219169083151502179055505050565b610d2a610d246111b5565b8361132c565b610d69576040517f08c379a0000000000000000000000000000000000000000000000000000000008152600401610d6090612a30565b60405180910390fd5b610d75848484846118a4565b50505050565b6060610d8682611149565b610dc5576040517f08c379a0000000000000000000000000000000000000000000000000000000008152600401610dbc90612990565b60405180910390fd5b6000600660008481526020019081526020016000208054610de590612cf6565b80601f0160208091040260200160405190810160405280929190818152602001828054610e1190612cf6565b8015610e5e5780601f10610e3357610100808354040283529160200191610e5e565b820191906000526020600020905b815481529060010190602001808311610e4157829003601f168201915b505050505090506000610e6f611900565b9050600081511415610e85578192505050610ec8565b600082511115610eba578082604051602001610ea2929190612748565b60405160208183030381529060405292505050610ec8565b610ec384611917565b925050505b919050565b6000600560008473ffffffffffffffffffffffffffffffffffffffff1673ffffffffffffffffffffffffffffffffffffffff16815260200190815260200160002060008373ffffffffffffffffffffffffffffffffffffffff1673ffffffffffffffffffffffffffffffffffffffff16815260200190815260200160002060009054906101000a900460ff16905092915050565b610f696111b5565b73ffffffffffffffffffffffffffffffffffffffff16610f87610c0c565b73ffffffffffffffffffffffffffffffffffffffff1614610fdd576040517f08c379a0000000000000000000000000000000000000000000000000000000008152600401610fd4906129d0565b60405180910390fd5b600073ffffffffffffffffffffffffffffffffffffffff168173ffffffffffffffffffffffffffffffffffffffff16141561104d576040517f08c379a000000000000000000000000000000000000000000000000000000000815260040161104490612830565b60405180910390fd5b61105681611671565b50565b6110616111b5565b73ffffffffffffffffffffffffffffffffffffffff1661107f610c0c565b73ffffffffffffffffffffffffffffffffffffffff16146110d5576040517f08c379a00000000000000000000000000000000000000000000000000000000081526004016110cc906129d0565b60405180910390fd5b8060098190555050565b60007f01ffc9a7000000000000000000000000000000000000000000000000000000007bffffffffffffffffffffffffffffffffffffffffffffffffffffffff1916827bffffffffffffffffffffffffffffffffffffffffffffffffffffffff1916149050919050565b60008073ffffffffffffffffffffffffffffffffffffffff166002600084815260200190815260200160002060009054906101000a900473ffffffffffffffffffffffffffffffffffffffff1673ffffffffffffffffffffffffffffffffffffffff1614159050919050565b600033905090565b816004600083815260200190815260200160002060006101000a81548173ffffffffffffffffffffffffffffffffffffffff021916908373ffffffffffffffffffffffffffffffffffffffff160217905550808273ffffffffffffffffffffffffffffffffffffffff1661123083610a14565b73ffffffffffffffffffffffffffffffffffffffff167f8c5be1e5ebec7d5bd14f71427d1e84f3dd0314c0f7b2291e5b200ac8c7c3b92560405160405180910390a45050565b6001816000016000828254019250508190555050565b600081600001549050919050565b6112b48282604051806020016040528060008152506119be565b5050565b6112c182611149565b611300576040517f08c379a00000000000000000000000000000000000000000000000000000000081526004016112f790612950565b60405180910390fd5b80600660008481526020019081526020016000209080519060200190611327929190611f64565b505050565b600061133782611149565b611376576040517f08c379a000000000000000000000000000000000000000000000000000000000815260040161136d906128d0565b60405180910390fd5b600061138183610a14565b90508073ffffffffffffffffffffffffffffffffffffffff168473ffffffffffffffffffffffffffffffffffffffff1614806113f057508373ffffffffffffffffffffffffffffffffffffffff166113d88461071f565b73ffffffffffffffffffffffffffffffffffffffff16145b8061140157506114008185610ecd565b5b91505092915050565b8273ffffffffffffffffffffffffffffffffffffffff1661142a82610a14565b73ffffffffffffffffffffffffffffffffffffffff1614611480576040517f08c379a000000000000000000000000000000000000000000000000000000000815260040161147790612850565b60405180910390fd5b600073ffffffffffffffffffffffffffffffffffffffff168273ffffffffffffffffffffffffffffffffffffffff1614156114f0576040517f08c379a00000000000000000000000000000000000000000000000000000000081526004016114e790612890565b60405180910390fd5b6114fb838383611a19565b6115066000826111bd565b6001600360008573ffffffffffffffffffffffffffffffffffffffff1673ffffffffffffffffffffffffffffffffffffffff16815260200190815260200160002060008282546115569190612c0c565b925050819055506001600360008473ffffffffffffffffffffffffffffffffffffffff1673ffffffffffffffffffffffffffffffffffffffff16815260200190815260200160002060008282546115ad9190612b85565b92505081905550816002600083815260200190815260200160002060006101000a81548173ffffffffffffffffffffffffffffffffffffffff021916908373ffffffffffffffffffffffffffffffffffffffff160217905550808273ffffffffffffffffffffffffffffffffffffffff168473ffffffffffffffffffffffffffffffffffffffff167fddf252ad1be2c89b69c2b068fc378daa952ba7f163c4a11628f55a4df523b3ef60405160405180910390a461166c838383611a1e565b505050565b6000600760009054906101000a900473ffffffffffffffffffffffffffffffffffffffff16905081600760006101000a81548173ffffffffffffffffffffffffffffffffffffffff021916908373ffffffffffffffffffffffffffffffffffffffff1602179055508173ffffffffffffffffffffffffffffffffffffffff168173ffffffffffffffffffffffffffffffffffffffff167f8be0079c531659141344cd1fd0a4f28419497f9722a3daafe3b4186f6b6457e060405160405180910390a35050565b8173ffffffffffffffffffffffffffffffffffffffff168373ffffffffffffffffffffffffffffffffffffffff1614156117a6576040517f08c379a000000000000000000000000000000000000000000000000000000000815260040161179d906128b0565b60405180910390fd5b80600560008573ffffffffffffffffffffffffffffffffffffffff1673ffffffffffffffffffffffffffffffffffffffff16815260200190815260200160002060008473ffffffffffffffffffffffffffffffffffffffff1673ffffffffffffffffffffffffffffffffffffffff16815260200190815260200160002060006101000a81548160ff0219169083151502179055508173ffffffffffffffffffffffffffffffffffffffff168373ffffffffffffffffffffffffffffffffffffffff167f17307eab39ab6107e8899845ad3d59bd9653f200f220920489ca2b5937696c318360405161189791906127d3565b60405180910390a3505050565b6118af84848461140a565b6118bb84848484611a23565b6118fa576040517f08c379a00000000000000000000000000000000000000000000000000000000081526004016118f190612810565b60405180910390fd5b50505050565b606060405180602001604052806000815250905090565b606061192282611149565b611961576040517f08c379a0000000000000000000000000000000000000000000000000000000008152600401611958906129f0565b60405180910390fd5b600061196b611900565b9050600081511161198b57604051806020016040528060008152506119b6565b8061199584611bba565b6040516020016119a6929190612748565b6040516020818303038152906040525b915050919050565b6119c88383611d67565b6119d56000848484611a23565b611a14576040517f08c379a0000000000000000000000000000000000000000000000000000000008152600401611a0b90612810565b60405180910390fd5b505050565b505050565b505050565b6000611a448473ffffffffffffffffffffffffffffffffffffffff16611f41565b15611bad578373ffffffffffffffffffffffffffffffffffffffff1663150b7a02611a6d6111b5565b8786866040518563ffffffff1660e01b8152600401611a8f9493929190612787565b602060405180830381600087803b158015611aa957600080fd5b505af1925050508015611ada57506040513d601f19601f82011682018060405250810190611ad79190612310565b60015b611b5d573d8060008114611b0a576040519150601f19603f3d011682016040523d82523d6000602084013e611b0f565b606091505b50600081511415611b55576040517f08c379a0000000000000000000000000000000000000000000000000000000008152600401611b4c90612810565b60405180910390fd5b805181602001fd5b63150b7a0260e01b7bffffffffffffffffffffffffffffffffffffffffffffffffffffffff1916817bffffffffffffffffffffffffffffffffffffffffffffffffffffffff191614915050611bb2565b600190505b949350505050565b60606000821415611c02576040518060400160405280600181526020017f30000000000000000000000000000000000000000000000000000000000000008152509050611d62565b600082905060005b60008214611c34578080611c1d90612d59565b915050600a82611c2d9190612bdb565b9150611c0a565b60008167ffffffffffffffff811115611c76577f4e487b7100000000000000000000000000000000000000000000000000000000600052604160045260246000fd5b6040519080825280601f01601f191660200182016040528015611ca85781602001600182028036833780820191505090505b5090505b60008514611d5b57600182611cc19190612c0c565b9150600a85611cd09190612da2565b6030611cdc9190612b85565b60f81b818381518110611d18577f4e487b7100000000000000000000000000000000000000000000000000000000600052603260045260246000fd5b60200101907effffffffffffffffffffffffffffffffffffffffffffffffffffffffffffff1916908160001a905350600a85611d549190612bdb565b9450611cac565b8093505050505b919050565b600073ffffffffffffffffffffffffffffffffffffffff168273ffffffffffffffffffffffffffffffffffffffff161415611dd7576040517f08c379a0000000000000000000000000000000000000000000000000000000008152600401611dce90612970565b60405180910390fd5b611de081611149565b15611e20576040517f08c379a0000000000000000000000000000000000000000000000000000000008152600401611e1790612870565b60405180910390fd5b611e2c60008383611a19565b6001600360008473ffffffffffffffffffffffffffffffffffffffff1673ffffffffffffffffffffffffffffffffffffffff1681526020019081526020016000206000828254611e7c9190612b85565b92505081905550816002600083815260200190815260200160002060006101000a81548173ffffffffffffffffffffffffffffffffffffffff021916908373ffffffffffffffffffffffffffffffffffffffff160217905550808273ffffffffffffffffffffffffffffffffffffffff16600073ffffffffffffffffffffffffffffffffffffffff167fddf252ad1be2c89b69c2b068fc378daa952ba7f163c4a11628f55a4df523b3ef60405160405180910390a4611f3d60008383611a1e565b5050565b6000808273ffffffffffffffffffffffffffffffffffffffff163b119050919050565b828054611f7090612cf6565b90600052602060002090601f016020900481019282611f925760008555611fd9565b82601f10611fab57805160ff1916838001178555611fd9565b82800160010185558215611fd9579182015b82811115611fd8578251825591602001919060010190611fbd565b5b509050611fe69190611fea565b5090565b5b80821115612003576000816000905550600101611feb565b5090565b600061201a61201584612ae0565b612abb565b90508281526020810184848401111561203257600080fd5b61203d848285612cb4565b509392505050565b600061205861205384612b11565b612abb565b90508281526020810184848401111561207057600080fd5b61207b848285612cb4565b509392505050565b600081359050612092816133bf565b92915050565b6000813590506120a7816133d6565b92915050565b6000813590506120bc816133ed565b92915050565b6000815190506120d1816133ed565b92915050565b600082601f8301126120e857600080fd5b81356120f8848260208601612007565b91505092915050565b600082601f83011261211257600080fd5b8135612122848260208601612045565b91505092915050565b60008135905061213a81613404565b92915050565b60006020828403121561215257600080fd5b600061216084828501612083565b91505092915050565b6000806040838503121561217c57600080fd5b600061218a85828601612083565b925050602061219b85828601612083565b9150509250929050565b6000806000606084860312156121ba57600080fd5b60006121c886828701612083565b93505060206121d986828701612083565b92505060406121ea8682870161212b565b9150509250925092565b6000806000806080858703121561220a57600080fd5b600061221887828801612083565b945050602061222987828801612083565b935050604061223a8782880161212b565b925050606085013567ffffffffffffffff81111561225757600080fd5b612263878288016120d7565b91505092959194509250565b6000806040838503121561228257600080fd5b600061229085828601612083565b92505060206122a185828601612098565b9150509250929050565b600080604083850312156122be57600080fd5b60006122cc85828601612083565b92505060206122dd8582860161212b565b9150509250929050565b6000602082840312156122f957600080fd5b6000612307848285016120ad565b91505092915050565b60006020828403121561232257600080fd5b6000612330848285016120c2565b91505092915050565b60006020828403121561234b57600080fd5b600082013567ffffffffffffffff81111561236557600080fd5b61237184828501612101565b91505092915050565b60006020828403121561238c57600080fd5b600061239a8482850161212b565b91505092915050565b600080604083850312156123b657600080fd5b60006123c48582860161212b565b92505060206123d585828601612098565b9150509250929050565b6123e881612c40565b82525050565b6123f781612c52565b82525050565b600061240882612b42565b6124128185612b58565b9350612422818560208601612cc3565b61242b81612e8f565b840191505092915050565b600061244182612b4d565b61244b8185612b69565b935061245b818560208601612cc3565b61246481612e8f565b840191505092915050565b600061247a82612b4d565b6124848185612b7a565b9350612494818560208601612cc3565b80840191505092915050565b60006124ad603283612b69565b91506124b882612ea0565b604082019050919050565b60006124d0602683612b69565b91506124db82612eef565b604082019050919050565b60006124f3602583612b69565b91506124fe82612f3e565b604082019050919050565b6000612516601c83612b69565b915061252182612f8d565b602082019050919050565b6000612539602483612b69565b915061254482612fb6565b604082019050919050565b600061255c601983612b69565b915061256782613005565b602082019050919050565b600061257f602c83612b69565b915061258a8261302e565b604082019050919050565b60006125a2603883612b69565b91506125ad8261307d565b604082019050919050565b60006125c5602a83612b69565b91506125d0826130cc565b604082019050919050565b60006125e8602983612b69565b91506125f38261311b565b604082019050919050565b600061260b602e83612b69565b91506126168261316a565b604082019050919050565b600061262e602083612b69565b9150612639826131b9565b602082019050919050565b6000612651603183612b69565b915061265c826131e2565b604082019050919050565b6000612674602c83612b69565b915061267f82613231565b604082019050919050565b6000612697602083612b69565b91506126a282613280565b602082019050919050565b60006126ba602f83612b69565b91506126c5826132a9565b604082019050919050565b60006126dd602183612b69565b91506126e8826132f8565b604082019050919050565b6000612700603183612b69565b915061270b82613347565b604082019050919050565b6000612723601183612b69565b915061272e82613396565b602082019050919050565b61274281612caa565b82525050565b6000612754828561246f565b9150612760828461246f565b91508190509392505050565b600060208201905061278160008301846123df565b92915050565b600060808201905061279c60008301876123df565b6127a960208301866123df565b6127b66040830185612739565b81810360608301526127c881846123fd565b905095945050505050565b60006020820190506127e860008301846123ee565b92915050565b600060208201905081810360008301526128088184612436565b905092915050565b60006020820190508181036000830152612829816124a0565b9050919050565b60006020820190508181036000830152612849816124c3565b9050919050565b60006020820190508181036000830152612869816124e6565b9050919050565b6000602082019050818103600083015261288981612509565b9050919050565b600060208201905081810360008301526128a98161252c565b9050919050565b600060208201905081810360008301526128c98161254f565b9050919050565b600060208201905081810360008301526128e981612572565b9050919050565b6000602082019050818103600083015261290981612595565b9050919050565b60006020820190508181036000830152612929816125b8565b9050919050565b60006020820190508181036000830152612949816125db565b9050919050565b60006020820190508181036000830152612969816125fe565b9050919050565b6000602082019050818103600083015261298981612621565b9050919050565b600060208201905081810360008301526129a981612644565b9050919050565b600060208201905081810360008301526129c981612667565b9050919050565b600060208201905081810360008301526129e98161268a565b9050919050565b60006020820190508181036000830152612a09816126ad565b9050919050565b60006020820190508181036000830152612a29816126d0565b9050919050565b60006020820190508181036000830152612a49816126f3565b9050919050565b60006020820190508181036000830152612a6981612716565b9050919050565b6000602082019050612a856000830184612739565b92915050565b6000604082019050612aa06000830185612739565b8181036020830152612ab28184612436565b90509392505050565b6000612ac5612ad6565b9050612ad18282612d28565b919050565b6000604051905090565b600067ffffffffffffffff821115612afb57612afa612e60565b5b612b0482612e8f565b9050602081019050919050565b600067ffffffffffffffff821115612b2c57612b2b612e60565b5b612b3582612e8f565b9050602081019050919050565b600081519050919050565b600081519050919050565b600082825260208201905092915050565b600082825260208201905092915050565b600081905092915050565b6000612b9082612caa565b9150612b9b83612caa565b9250827fffffffffffffffffffffffffffffffffffffffffffffffffffffffffffffffff03821115612bd057612bcf612dd3565b5b828201905092915050565b6000612be682612caa565b9150612bf183612caa565b925082612c0157612c00612e02565b5b828204905092915050565b6000612c1782612caa565b9150612c2283612caa565b925082821015612c3557612c34612dd3565b5b828203905092915050565b6000612c4b82612c8a565b9050919050565b60008115159050919050565b60007fffffffff0000000000000000000000000000000000000000000000000000000082169050919050565b600073ffffffffffffffffffffffffffffffffffffffff82169050919050565b6000819050919050565b82818337600083830152505050565b60005b83811015612ce1578082015181840152602081019050612cc6565b83811115612cf0576000848401525b50505050565b60006002820490506001821680612d0e57607f821691505b60208210811415612d2257612d21612e31565b5b50919050565b612d3182612e8f565b810181811067ffffffffffffffff82111715612d5057612d4f612e60565b5b80604052505050565b6000612d6482612caa565b91507fffffffffffffffffffffffffffffffffffffffffffffffffffffffffffffffff821415612d9757612d96612dd3565b5b600182019050919050565b6000612dad82612caa565b9150612db883612caa565b925082612dc857612dc7612e02565b5b828206905092915050565b7f4e487b7100000000000000000000000000000000000000000000000000000000600052601160045260246000fd5b7f4e487b7100000000000000000000000000000000000000000000000000000000600052601260045260246000fd5b7f4e487b7100000000000000000000000000000000000000000000000000000000600052602260045260246000fd5b7f4e487b7100000000000000000000000000000000000000000000000000000000600052604160045260246000fd5b6000601f19601f8301169050919050565b7f4552433732313a207472616e7366657220746f206e6f6e20455243373231526560008201527f63656976657220696d706c656d656e7465720000000000000000000000000000602082015250565b7f4f776e61626c653a206e6577206f776e657220697320746865207a65726f206160008201527f6464726573730000000000000000000000000000000000000000000000000000602082015250565b7f4552433732313a207472616e736665722066726f6d20696e636f72726563742060008201527f6f776e6572000000000000000000000000000000000000000000000000000000602082015250565b7f4552433732313a20746f6b656e20616c7265616479206d696e74656400000000600082015250565b7f4552433732313a207472616e7366657220746f20746865207a65726f2061646460008201527f7265737300000000000000000000000000000000000000000000000000000000602082015250565b7f4552433732313a20617070726f766520746f2063616c6c657200000000000000600082015250565b7f4552433732313a206f70657261746f7220717565727920666f72206e6f6e657860008201527f697374656e7420746f6b656e0000000000000000000000000000000000000000602082015250565b7f4552433732313a20617070726f76652063616c6c6572206973206e6f74206f7760008201527f6e6572206e6f7220617070726f76656420666f7220616c6c0000000000000000602082015250565b7f4552433732313a2062616c616e636520717565727920666f7220746865207a6560008201527f726f206164647265737300000000000000000000000000000000000000000000602082015250565b7f4552433732313a206f776e657220717565727920666f72206e6f6e657869737460008201527f656e7420746f6b656e0000000000000000000000000000000000000000000000602082015250565b7f45524337323155524953746f726167653a2055524920736574206f66206e6f6e60008201527f6578697374656e7420746f6b656e000000000000000000000000000000000000602082015250565b7f4552433732313a206d696e7420746f20746865207a65726f2061646472657373600082015250565b7f45524337323155524953746f726167653a2055524920717565727920666f722060008201527f6e6f6e6578697374656e7420746f6b656e000000000000000000000000000000602082015250565b7f4552433732313a20617070726f76656420717565727920666f72206e6f6e657860008201527f697374656e7420746f6b656e0000000000000000000000000000000000000000602082015250565b7f4f776e61626c653a2063616c6c6572206973206e6f7420746865206f776e6572600082015250565b7f4552433732314d657461646174613a2055524920717565727920666f72206e6f60008201527f6e6578697374656e7420746f6b656e0000000000000000000000000000000000602082015250565b7f4552433732313a20617070726f76616c20746f2063757272656e74206f776e6560008201527f7200000000000000000000000000000000000000000000000000000000000000602082015250565b7f4552433732313a207472616e736665722063616c6c6572206973206e6f74206f60008201527f776e6572206e6f7220617070726f766564000000000000000000000000000000602082015250565b7f57726f6e672076616c75652073656e742e000000000000000000000000000000600082015250565b6133c881612c40565b81146133d357600080fd5b50565b6133df81612c52565b81146133ea57600080fd5b50565b6133f681612c5e565b811461340157600080fd5b50565b61340d81612caa565b811461341857600080fd5b5056fea2646970667358221220b6d1b38c41bbd1730d84545e7b01d795501c6012e3ee6fbda133b9cf78d6167a64736f6c63430008040033",
    "linkReferences": {},
    "deployedLinkReferences": {}
}