{
    "contractAddress": "0x36d99b361355FF38D1Aa3C9E050afd6BD0585D82",
    "_format": "hh-sol-artifact-1",
    "contractName": "MusitNFT",
    "sourceName": "contracts/MusitNFT.sol",
    "abi": [
        {
            "inputs": [
                {
                    "internalType": "uint256",
                    "name": "_mintPrice",
                    "type": "uint256"
                }
            ],
            "stateMutability": "nonpayable",
            "type": "constructor"
        },
        {
            "anonymous": false,
            "inputs": [
                {
                    "indexed": true,
                    "internalType": "address",
                    "name": "owner",
                    "type": "address"
                },
                {
                    "indexed": true,
                    "internalType": "address",
                    "name": "approved",
                    "type": "address"
                },
                {
                    "indexed": true,
                    "internalType": "uint256",
                    "name": "tokenId",
                    "type": "uint256"
                }
            ],
            "name": "Approval",
            "type": "event"
        },
        {
            "anonymous": false,
            "inputs": [
                {
                    "indexed": true,
                    "internalType": "address",
                    "name": "owner",
                    "type": "address"
                },
                {
                    "indexed": true,
                    "internalType": "address",
                    "name": "operator",
                    "type": "address"
                },
                {
                    "indexed": false,
                    "internalType": "bool",
                    "name": "approved",
                    "type": "bool"
                }
            ],
            "name": "ApprovalForAll",
            "type": "event"
        },
        {
            "anonymous": false,
            "inputs": [
                {
                    "indexed": false,
                    "internalType": "uint256",
                    "name": "tokenId",
                    "type": "uint256"
                },
                {
                    "indexed": false,
                    "internalType": "string",
                    "name": "tokenURI",
                    "type": "string"
                },
                {
                    "indexed": true,
                    "internalType": "address",
                    "name": "minter",
                    "type": "address"
                }
            ],
            "name": "Minted",
            "type": "event"
        },
        {
            "anonymous": false,
            "inputs": [
                {
                    "indexed": true,
                    "internalType": "address",
                    "name": "previousOwner",
                    "type": "address"
                },
                {
                    "indexed": true,
                    "internalType": "address",
                    "name": "newOwner",
                    "type": "address"
                }
            ],
            "name": "OwnershipTransferred",
            "type": "event"
        },
        {
            "anonymous": false,
            "inputs": [
                {
                    "indexed": true,
                    "internalType": "address",
                    "name": "from",
                    "type": "address"
                },
                {
                    "indexed": true,
                    "internalType": "address",
                    "name": "to",
                    "type": "address"
                },
                {
                    "indexed": true,
                    "internalType": "uint256",
                    "name": "tokenId",
                    "type": "uint256"
                }
            ],
            "name": "Transfer",
            "type": "event"
        },
        {
            "inputs": [
                {
                    "internalType": "address",
                    "name": "to",
                    "type": "address"
                },
                {
                    "internalType": "uint256",
                    "name": "tokenId",
                    "type": "uint256"
                }
            ],
            "name": "approve",
            "outputs": [],
            "stateMutability": "nonpayable",
            "type": "function"
        },
        {
            "inputs": [
                {
                    "internalType": "address",
                    "name": "owner",
                    "type": "address"
                }
            ],
            "name": "balanceOf",
            "outputs": [
                {
                    "internalType": "uint256",
                    "name": "",
                    "type": "uint256"
                }
            ],
            "stateMutability": "view",
            "type": "function"
        },
        {
            "inputs": [
                {
                    "internalType": "uint256",
                    "name": "tokenId",
                    "type": "uint256"
                }
            ],
            "name": "getApproved",
            "outputs": [
                {
                    "internalType": "address",
                    "name": "",
                    "type": "address"
                }
            ],
            "stateMutability": "view",
            "type": "function"
        },
        {
            "inputs": [
                {
                    "internalType": "uint256",
                    "name": "_tokenId",
                    "type": "uint256"
                }
            ],
            "name": "getIsOnMarket",
            "outputs": [
                {
                    "internalType": "bool",
                    "name": "",
                    "type": "bool"
                }
            ],
            "stateMutability": "view",
            "type": "function"
        },
        {
            "inputs": [
                {
                    "internalType": "address",
                    "name": "owner",
                    "type": "address"
                },
                {
                    "internalType": "address",
                    "name": "operator",
                    "type": "address"
                }
            ],
            "name": "isApprovedForAll",
            "outputs": [
                {
                    "internalType": "bool",
                    "name": "",
                    "type": "bool"
                }
            ],
            "stateMutability": "view",
            "type": "function"
        },
        {
            "inputs": [],
            "name": "mintPrice",
            "outputs": [
                {
                    "internalType": "uint256",
                    "name": "",
                    "type": "uint256"
                }
            ],
            "stateMutability": "view",
            "type": "function"
        },
        {
            "inputs": [
                {
                    "internalType": "string",
                    "name": "_tokenURI",
                    "type": "string"
                }
            ],
            "name": "minting",
            "outputs": [
                {
                    "internalType": "uint256",
                    "name": "",
                    "type": "uint256"
                }
            ],
            "stateMutability": "payable",
            "type": "function"
        },
        {
            "inputs": [],
            "name": "name",
            "outputs": [
                {
                    "internalType": "string",
                    "name": "",
                    "type": "string"
                }
            ],
            "stateMutability": "view",
            "type": "function"
        },
        {
            "inputs": [],
            "name": "owner",
            "outputs": [
                {
                    "internalType": "address",
                    "name": "",
                    "type": "address"
                }
            ],
            "stateMutability": "view",
            "type": "function"
        },
        {
            "inputs": [
                {
                    "internalType": "uint256",
                    "name": "tokenId",
                    "type": "uint256"
                }
            ],
            "name": "ownerOf",
            "outputs": [
                {
                    "internalType": "address",
                    "name": "",
                    "type": "address"
                }
            ],
            "stateMutability": "view",
            "type": "function"
        },
        {
            "inputs": [],
            "name": "renounceOwnership",
            "outputs": [],
            "stateMutability": "nonpayable",
            "type": "function"
        },
        {
            "inputs": [
                {
                    "internalType": "address",
                    "name": "to",
                    "type": "address"
                },
                {
                    "internalType": "uint256",
                    "name": "tokenId",
                    "type": "uint256"
                }
            ],
            "name": "safeMint",
            "outputs": [],
            "stateMutability": "nonpayable",
            "type": "function"
        },
        {
            "inputs": [
                {
                    "internalType": "address",
                    "name": "from",
                    "type": "address"
                },
                {
                    "internalType": "address",
                    "name": "to",
                    "type": "address"
                },
                {
                    "internalType": "uint256",
                    "name": "tokenId",
                    "type": "uint256"
                }
            ],
            "name": "safeTransferFrom",
            "outputs": [],
            "stateMutability": "nonpayable",
            "type": "function"
        },
        {
            "inputs": [
                {
                    "internalType": "address",
                    "name": "from",
                    "type": "address"
                },
                {
                    "internalType": "address",
                    "name": "to",
                    "type": "address"
                },
                {
                    "internalType": "uint256",
                    "name": "tokenId",
                    "type": "uint256"
                },
                {
                    "internalType": "bytes",
                    "name": "_data",
                    "type": "bytes"
                }
            ],
            "name": "safeTransferFrom",
            "outputs": [],
            "stateMutability": "nonpayable",
            "type": "function"
        },
        {
            "inputs": [
                {
                    "internalType": "address",
                    "name": "operator",
                    "type": "address"
                },
                {
                    "internalType": "bool",
                    "name": "approved",
                    "type": "bool"
                }
            ],
            "name": "setApprovalForAll",
            "outputs": [],
            "stateMutability": "nonpayable",
            "type": "function"
        },
        {
            "inputs": [
                {
                    "internalType": "uint256",
                    "name": "_tokenId",
                    "type": "uint256"
                },
                {
                    "internalType": "bool",
                    "name": "_isOnMarket",
                    "type": "bool"
                }
            ],
            "name": "setIsOnMarket",
            "outputs": [],
            "stateMutability": "nonpayable",
            "type": "function"
        },
        {
            "inputs": [
                {
                    "internalType": "uint256",
                    "name": "_mintPrice",
                    "type": "uint256"
                }
            ],
            "name": "setMintPrice",
            "outputs": [],
            "stateMutability": "nonpayable",
            "type": "function"
        },
        {
            "inputs": [
                {
                    "internalType": "bytes4",
                    "name": "interfaceId",
                    "type": "bytes4"
                }
            ],
            "name": "supportsInterface",
            "outputs": [
                {
                    "internalType": "bool",
                    "name": "",
                    "type": "bool"
                }
            ],
            "stateMutability": "view",
            "type": "function"
        },
        {
            "inputs": [],
            "name": "symbol",
            "outputs": [
                {
                    "internalType": "string",
                    "name": "",
                    "type": "string"
                }
            ],
            "stateMutability": "view",
            "type": "function"
        },
        {
            "inputs": [
                {
                    "internalType": "uint256",
                    "name": "index",
                    "type": "uint256"
                }
            ],
            "name": "tokenByIndex",
            "outputs": [
                {
                    "internalType": "uint256",
                    "name": "",
                    "type": "uint256"
                }
            ],
            "stateMutability": "view",
            "type": "function"
        },
        {
            "inputs": [],
            "name": "tokenCount",
            "outputs": [
                {
                    "internalType": "uint256",
                    "name": "_value",
                    "type": "uint256"
                }
            ],
            "stateMutability": "view",
            "type": "function"
        },
        {
            "inputs": [
                {
                    "internalType": "address",
                    "name": "owner",
                    "type": "address"
                },
                {
                    "internalType": "uint256",
                    "name": "index",
                    "type": "uint256"
                }
            ],
            "name": "tokenOfOwnerByIndex",
            "outputs": [
                {
                    "internalType": "uint256",
                    "name": "",
                    "type": "uint256"
                }
            ],
            "stateMutability": "view",
            "type": "function"
        },
        {
            "inputs": [
                {
                    "internalType": "uint256",
                    "name": "tokenId",
                    "type": "uint256"
                }
            ],
            "name": "tokenURI",
            "outputs": [
                {
                    "internalType": "string",
                    "name": "",
                    "type": "string"
                }
            ],
            "stateMutability": "view",
            "type": "function"
        },
        {
            "inputs": [],
            "name": "totalSupplied",
            "outputs": [
                {
                    "internalType": "uint256",
                    "name": "",
                    "type": "uint256"
                }
            ],
            "stateMutability": "view",
            "type": "function"
        },
        {
            "inputs": [],
            "name": "totalSupply",
            "outputs": [
                {
                    "internalType": "uint256",
                    "name": "",
                    "type": "uint256"
                }
            ],
            "stateMutability": "view",
            "type": "function"
        },
        {
            "inputs": [
                {
                    "internalType": "address",
                    "name": "from",
                    "type": "address"
                },
                {
                    "internalType": "address",
                    "name": "to",
                    "type": "address"
                },
                {
                    "internalType": "uint256",
                    "name": "tokenId",
                    "type": "uint256"
                }
            ],
            "name": "transferFrom",
            "outputs": [],
            "stateMutability": "nonpayable",
            "type": "function"
        },
        {
            "inputs": [
                {
                    "internalType": "address",
                    "name": "newOwner",
                    "type": "address"
                }
            ],
            "name": "transferOwnership",
            "outputs": [],
            "stateMutability": "nonpayable",
            "type": "function"
        }
    ],
    "bytecode": "0x60806040523480156200001157600080fd5b506040516200410b3803806200410b83398181016040528101906200003791906200029a565b6040518060400160405280600981526020017f4d75736974204e465400000000000000000000000000000000000000000000008152506040518060400160405280600581526020017f4d555349540000000000000000000000000000000000000000000000000000008152508160009080519060200190620000bb929190620001d3565b508060019080519060200190620000d4929190620001d3565b505050620000f7620000eb6200010560201b60201c565b6200010d60201b60201c565b80600d81905550506200034f565b600033905090565b6000600b60009054906101000a900473ffffffffffffffffffffffffffffffffffffffff16905081600b60006101000a81548173ffffffffffffffffffffffffffffffffffffffff021916908373ffffffffffffffffffffffffffffffffffffffff1602179055508173ffffffffffffffffffffffffffffffffffffffff168173ffffffffffffffffffffffffffffffffffffffff167f8be0079c531659141344cd1fd0a4f28419497f9722a3daafe3b4186f6b6457e060405160405180910390a35050565b828054620001e190620002d0565b90600052602060002090601f01602090048101928262000205576000855562000251565b82601f106200022057805160ff191683800117855562000251565b8280016001018555821562000251579182015b828111156200025057825182559160200191906001019062000233565b5b50905062000260919062000264565b5090565b5b808211156200027f57600081600090555060010162000265565b5090565b600081519050620002948162000335565b92915050565b600060208284031215620002ad57600080fd5b6000620002bd8482850162000283565b91505092915050565b6000819050919050565b60006002820490506001821680620002e957607f821691505b602082108114156200030057620002ff62000306565b5b50919050565b7f4e487b7100000000000000000000000000000000000000000000000000000000600052602260045260246000fd5b6200034081620002c6565b81146200034c57600080fd5b50565b613dac806200035f6000396000f3fe60806040526004361061019c5760003560e01c80636817c76c116100ec578063a22cb4651161008a578063c87b56dd11610064578063c87b56dd146105df578063e985e9c51461061c578063f2fde38b14610659578063f4a0a528146106825761019c565b8063a22cb46514610564578063a27b467d1461058d578063b88d4fde146105b65761019c565b80638da5cb5b116100c65780638da5cb5b146104ba57806395d89b41146104e55780639f181b5e14610510578063a14481941461053b5761019c565b80636817c76c1461043b57806370a0823114610466578063715018a6146104a35761019c565b806318160ddd1161015957806342842e0e1161013357806342842e0e1461036d5780634f6ccce714610396578063630fd0ac146103d35780636352211e146103fe5761019c565b806318160ddd146102dc57806323b872dd146103075780632f745c59146103305761019c565b806301ffc9a7146101a157806305dcd1ff146101de57806306fdde031461021b578063081812fc14610246578063095ea7b3146102835780630bdc9008146102ac575b600080fd5b3480156101ad57600080fd5b506101c860048036038101906101c39190612b1e565b6106ab565b6040516101d59190613050565b60405180910390f35b3480156101ea57600080fd5b5061020560048036038101906102009190612bb1565b6106bd565b6040516102129190613050565b60405180910390f35b34801561022757600080fd5b506102306106e7565b60405161023d919061306b565b60405180910390f35b34801561025257600080fd5b5061026d60048036038101906102689190612bb1565b610779565b60405161027a9190612fe9565b60405180910390f35b34801561028f57600080fd5b506102aa60048036038101906102a59190612ae2565b6107fe565b005b6102c660048036038101906102c19190612b70565b610916565b6040516102d3919061332d565b60405180910390f35b3480156102e857600080fd5b506102f16109e8565b6040516102fe919061332d565b60405180910390f35b34801561031357600080fd5b5061032e600480360381019061032991906129dc565b6109f5565b005b34801561033c57600080fd5b5061035760048036038101906103529190612ae2565b610a55565b604051610364919061332d565b60405180910390f35b34801561037957600080fd5b50610394600480360381019061038f91906129dc565b610afa565b005b3480156103a257600080fd5b506103bd60048036038101906103b89190612bb1565b610b1a565b6040516103ca919061332d565b60405180910390f35b3480156103df57600080fd5b506103e8610bb1565b6040516103f5919061332d565b60405180910390f35b34801561040a57600080fd5b5061042560048036038101906104209190612bb1565b610bb7565b6040516104329190612fe9565b60405180910390f35b34801561044757600080fd5b50610450610c69565b60405161045d919061332d565b60405180910390f35b34801561047257600080fd5b5061048d60048036038101906104889190612977565b610c6f565b60405161049a919061332d565b60405180910390f35b3480156104af57600080fd5b506104b8610d27565b005b3480156104c657600080fd5b506104cf610daf565b6040516104dc9190612fe9565b60405180910390f35b3480156104f157600080fd5b506104fa610dd9565b604051610507919061306b565b60405180910390f35b34801561051c57600080fd5b50610525610e6b565b604051610532919061332d565b60405180910390f35b34801561054757600080fd5b50610562600480360381019061055d9190612ae2565b610e77565b005b34801561057057600080fd5b5061058b60048036038101906105869190612aa6565b610f01565b005b34801561059957600080fd5b506105b460048036038101906105af9190612bda565b610f17565b005b3480156105c257600080fd5b506105dd60048036038101906105d89190612a2b565b610f46565b005b3480156105eb57600080fd5b5061060660048036038101906106019190612bb1565b610fa8565b604051610613919061306b565b60405180910390f35b34801561062857600080fd5b50610643600480360381019061063e91906129a0565b610fba565b6040516106509190613050565b60405180910390f35b34801561066557600080fd5b50610680600480360381019061067b9190612977565b61104e565b005b34801561068e57600080fd5b506106a960048036038101906106a49190612bb1565b611146565b005b60006106b6826111cc565b9050919050565b6000600c600083815260200190815260200160002060009054906101000a900460ff169050919050565b6060600080546106f6906135b3565b80601f0160208091040260200160405190810160405280929190818152602001828054610722906135b3565b801561076f5780601f106107445761010080835404028352916020019161076f565b820191906000526020600020905b81548152906001019060200180831161075257829003601f168201915b5050505050905090565b600061078482611246565b6107c3576040517f08c379a00000000000000000000000000000000000000000000000000000000081526004016107ba9061324d565b60405180910390fd5b6004600083815260200190815260200160002060009054906101000a900473ffffffffffffffffffffffffffffffffffffffff169050919050565b600061080982610bb7565b90508073ffffffffffffffffffffffffffffffffffffffff168373ffffffffffffffffffffffffffffffffffffffff16141561087a576040517f08c379a0000000000000000000000000000000000000000000000000000000008152600401610871906132ad565b60405180910390fd5b8073ffffffffffffffffffffffffffffffffffffffff166108996112b2565b73ffffffffffffffffffffffffffffffffffffffff1614806108c857506108c7816108c26112b2565b610fba565b5b610907576040517f08c379a00000000000000000000000000000000000000000000000000000000081526004016108fe9061318d565b60405180910390fd5b61091183836112ba565b505050565b6000600d54341461095c576040517f08c379a00000000000000000000000000000000000000000000000000000000081526004016109539061330d565b60405180910390fd5b610966600f611373565b6000610972600f611389565b905061097e3382611397565b61098881846113b5565b3373ffffffffffffffffffffffffffffffffffffffff167fc1177815a22ab58cdf6e40a80dfe322e9d00b7977bd78634869752fed8082f5682856040516109d0929190613348565b60405180910390a280600e8190555080915050919050565b6000600980549050905090565b610a06610a006112b2565b82611429565b610a45576040517f08c379a0000000000000000000000000000000000000000000000000000000008152600401610a3c906132cd565b60405180910390fd5b610a50838383611507565b505050565b6000610a6083610c6f565b8210610aa1576040517f08c379a0000000000000000000000000000000000000000000000000000000008152600401610a989061308d565b60405180910390fd5b600760008473ffffffffffffffffffffffffffffffffffffffff1673ffffffffffffffffffffffffffffffffffffffff168152602001908152602001600020600083815260200190815260200160002054905092915050565b610b1583838360405180602001604052806000815250610f46565b505050565b6000610b246109e8565b8210610b65576040517f08c379a0000000000000000000000000000000000000000000000000000000008152600401610b5c906132ed565b60405180910390fd5b60098281548110610b9f577f4e487b7100000000000000000000000000000000000000000000000000000000600052603260045260246000fd5b90600052602060002001549050919050565b600e5481565b6000806002600084815260200190815260200160002060009054906101000a900473ffffffffffffffffffffffffffffffffffffffff169050600073ffffffffffffffffffffffffffffffffffffffff168173ffffffffffffffffffffffffffffffffffffffff161415610c60576040517f08c379a0000000000000000000000000000000000000000000000000000000008152600401610c57906131cd565b60405180910390fd5b80915050919050565b600d5481565b60008073ffffffffffffffffffffffffffffffffffffffff168273ffffffffffffffffffffffffffffffffffffffff161415610ce0576040517f08c379a0000000000000000000000000000000000000000000000000000000008152600401610cd7906131ad565b60405180910390fd5b600360008373ffffffffffffffffffffffffffffffffffffffff1673ffffffffffffffffffffffffffffffffffffffff168152602001908152602001600020549050919050565b610d2f6112b2565b73ffffffffffffffffffffffffffffffffffffffff16610d4d610daf565b73ffffffffffffffffffffffffffffffffffffffff1614610da3576040517f08c379a0000000000000000000000000000000000000000000000000000000008152600401610d9a9061326d565b60405180910390fd5b610dad600061176e565b565b6000600b60009054906101000a900473ffffffffffffffffffffffffffffffffffffffff16905090565b606060018054610de8906135b3565b80601f0160208091040260200160405190810160405280929190818152602001828054610e14906135b3565b8015610e615780601f10610e3657610100808354040283529160200191610e61565b820191906000526020600020905b815481529060010190602001808311610e4457829003601f168201915b5050505050905090565b600f8060000154905081565b610e7f6112b2565b73ffffffffffffffffffffffffffffffffffffffff16610e9d610daf565b73ffffffffffffffffffffffffffffffffffffffff1614610ef3576040517f08c379a0000000000000000000000000000000000000000000000000000000008152600401610eea9061326d565b60405180910390fd5b610efd8282611397565b5050565b610f13610f0c6112b2565b8383611834565b5050565b80600c600084815260200190815260200160002060006101000a81548160ff0219169083151502179055505050565b610f57610f516112b2565b83611429565b610f96576040517f08c379a0000000000000000000000000000000000000000000000000000000008152600401610f8d906132cd565b60405180910390fd5b610fa2848484846119a1565b50505050565b6060610fb3826119fd565b9050919050565b6000600560008473ffffffffffffffffffffffffffffffffffffffff1673ffffffffffffffffffffffffffffffffffffffff16815260200190815260200160002060008373ffffffffffffffffffffffffffffffffffffffff1673ffffffffffffffffffffffffffffffffffffffff16815260200190815260200160002060009054906101000a900460ff16905092915050565b6110566112b2565b73ffffffffffffffffffffffffffffffffffffffff16611074610daf565b73ffffffffffffffffffffffffffffffffffffffff16146110ca576040517f08c379a00000000000000000000000000000000000000000000000000000000081526004016110c19061326d565b60405180910390fd5b600073ffffffffffffffffffffffffffffffffffffffff168173ffffffffffffffffffffffffffffffffffffffff16141561113a576040517f08c379a0000000000000000000000000000000000000000000000000000000008152600401611131906130cd565b60405180910390fd5b6111438161176e565b50565b61114e6112b2565b73ffffffffffffffffffffffffffffffffffffffff1661116c610daf565b73ffffffffffffffffffffffffffffffffffffffff16146111c2576040517f08c379a00000000000000000000000000000000000000000000000000000000081526004016111b99061326d565b60405180910390fd5b80600d8190555050565b60007f780e9d63000000000000000000000000000000000000000000000000000000007bffffffffffffffffffffffffffffffffffffffffffffffffffffffff1916827bffffffffffffffffffffffffffffffffffffffffffffffffffffffff1916148061123f575061123e82611b4f565b5b9050919050565b60008073ffffffffffffffffffffffffffffffffffffffff166002600084815260200190815260200160002060009054906101000a900473ffffffffffffffffffffffffffffffffffffffff1673ffffffffffffffffffffffffffffffffffffffff1614159050919050565b600033905090565b816004600083815260200190815260200160002060006101000a81548173ffffffffffffffffffffffffffffffffffffffff021916908373ffffffffffffffffffffffffffffffffffffffff160217905550808273ffffffffffffffffffffffffffffffffffffffff1661132d83610bb7565b73ffffffffffffffffffffffffffffffffffffffff167f8c5be1e5ebec7d5bd14f71427d1e84f3dd0314c0f7b2291e5b200ac8c7c3b92560405160405180910390a45050565b6001816000016000828254019250508190555050565b600081600001549050919050565b6113b1828260405180602001604052806000815250611c31565b5050565b6113be82611246565b6113fd576040517f08c379a00000000000000000000000000000000000000000000000000000000081526004016113f4906131ed565b60405180910390fd5b8060066000848152602001908152602001600020908051906020019061142492919061279b565b505050565b600061143482611246565b611473576040517f08c379a000000000000000000000000000000000000000000000000000000000815260040161146a9061316d565b60405180910390fd5b600061147e83610bb7565b90508073ffffffffffffffffffffffffffffffffffffffff168473ffffffffffffffffffffffffffffffffffffffff1614806114ed57508373ffffffffffffffffffffffffffffffffffffffff166114d584610779565b73ffffffffffffffffffffffffffffffffffffffff16145b806114fe57506114fd8185610fba565b5b91505092915050565b8273ffffffffffffffffffffffffffffffffffffffff1661152782610bb7565b73ffffffffffffffffffffffffffffffffffffffff161461157d576040517f08c379a0000000000000000000000000000000000000000000000000000000008152600401611574906130ed565b60405180910390fd5b600073ffffffffffffffffffffffffffffffffffffffff168273ffffffffffffffffffffffffffffffffffffffff1614156115ed576040517f08c379a00000000000000000000000000000000000000000000000000000000081526004016115e49061312d565b60405180910390fd5b6115f8838383611c8c565b6116036000826112ba565b6001600360008573ffffffffffffffffffffffffffffffffffffffff1673ffffffffffffffffffffffffffffffffffffffff168152602001908152602001600020600082825461165391906134c9565b925050819055506001600360008473ffffffffffffffffffffffffffffffffffffffff1673ffffffffffffffffffffffffffffffffffffffff16815260200190815260200160002060008282546116aa9190613442565b92505081905550816002600083815260200190815260200160002060006101000a81548173ffffffffffffffffffffffffffffffffffffffff021916908373ffffffffffffffffffffffffffffffffffffffff160217905550808273ffffffffffffffffffffffffffffffffffffffff168473ffffffffffffffffffffffffffffffffffffffff167fddf252ad1be2c89b69c2b068fc378daa952ba7f163c4a11628f55a4df523b3ef60405160405180910390a4611769838383611c9c565b505050565b6000600b60009054906101000a900473ffffffffffffffffffffffffffffffffffffffff16905081600b60006101000a81548173ffffffffffffffffffffffffffffffffffffffff021916908373ffffffffffffffffffffffffffffffffffffffff1602179055508173ffffffffffffffffffffffffffffffffffffffff168173ffffffffffffffffffffffffffffffffffffffff167f8be0079c531659141344cd1fd0a4f28419497f9722a3daafe3b4186f6b6457e060405160405180910390a35050565b8173ffffffffffffffffffffffffffffffffffffffff168373ffffffffffffffffffffffffffffffffffffffff1614156118a3576040517f08c379a000000000000000000000000000000000000000000000000000000000815260040161189a9061314d565b60405180910390fd5b80600560008573ffffffffffffffffffffffffffffffffffffffff1673ffffffffffffffffffffffffffffffffffffffff16815260200190815260200160002060008473ffffffffffffffffffffffffffffffffffffffff1673ffffffffffffffffffffffffffffffffffffffff16815260200190815260200160002060006101000a81548160ff0219169083151502179055508173ffffffffffffffffffffffffffffffffffffffff168373ffffffffffffffffffffffffffffffffffffffff167f17307eab39ab6107e8899845ad3d59bd9653f200f220920489ca2b5937696c31836040516119949190613050565b60405180910390a3505050565b6119ac848484611507565b6119b884848484611ca1565b6119f7576040517f08c379a00000000000000000000000000000000000000000000000000000000081526004016119ee906130ad565b60405180910390fd5b50505050565b6060611a0882611246565b611a47576040517f08c379a0000000000000000000000000000000000000000000000000000000008152600401611a3e9061322d565b60405180910390fd5b6000600660008481526020019081526020016000208054611a67906135b3565b80601f0160208091040260200160405190810160405280929190818152602001828054611a93906135b3565b8015611ae05780601f10611ab557610100808354040283529160200191611ae0565b820191906000526020600020905b815481529060010190602001808311611ac357829003601f168201915b505050505090506000611af1611e38565b9050600081511415611b07578192505050611b4a565b600082511115611b3c578082604051602001611b24929190612fc5565b60405160208183030381529060405292505050611b4a565b611b4584611e4f565b925050505b919050565b60007f80ac58cd000000000000000000000000000000000000000000000000000000007bffffffffffffffffffffffffffffffffffffffffffffffffffffffff1916827bffffffffffffffffffffffffffffffffffffffffffffffffffffffff19161480611c1a57507f5b5e139f000000000000000000000000000000000000000000000000000000007bffffffffffffffffffffffffffffffffffffffffffffffffffffffff1916827bffffffffffffffffffffffffffffffffffffffffffffffffffffffff1916145b80611c2a5750611c2982611ef6565b5b9050919050565b611c3b8383611f60565b611c486000848484611ca1565b611c87576040517f08c379a0000000000000000000000000000000000000000000000000000000008152600401611c7e906130ad565b60405180910390fd5b505050565b611c9783838361213a565b505050565b505050565b6000611cc28473ffffffffffffffffffffffffffffffffffffffff1661224e565b15611e2b578373ffffffffffffffffffffffffffffffffffffffff1663150b7a02611ceb6112b2565b8786866040518563ffffffff1660e01b8152600401611d0d9493929190613004565b602060405180830381600087803b158015611d2757600080fd5b505af1925050508015611d5857506040513d601f19601f82011682018060405250810190611d559190612b47565b60015b611ddb573d8060008114611d88576040519150601f19603f3d011682016040523d82523d6000602084013e611d8d565b606091505b50600081511415611dd3576040517f08c379a0000000000000000000000000000000000000000000000000000000008152600401611dca906130ad565b60405180910390fd5b805181602001fd5b63150b7a0260e01b7bffffffffffffffffffffffffffffffffffffffffffffffffffffffff1916817bffffffffffffffffffffffffffffffffffffffffffffffffffffffff191614915050611e30565b600190505b949350505050565b606060405180602001604052806000815250905090565b6060611e5a82611246565b611e99576040517f08c379a0000000000000000000000000000000000000000000000000000000008152600401611e909061328d565b60405180910390fd5b6000611ea3611e38565b90506000815111611ec35760405180602001604052806000815250611eee565b80611ecd84612271565b604051602001611ede929190612fc5565b6040516020818303038152906040525b915050919050565b60007f01ffc9a7000000000000000000000000000000000000000000000000000000007bffffffffffffffffffffffffffffffffffffffffffffffffffffffff1916827bffffffffffffffffffffffffffffffffffffffffffffffffffffffff1916149050919050565b600073ffffffffffffffffffffffffffffffffffffffff168273ffffffffffffffffffffffffffffffffffffffff161415611fd0576040517f08c379a0000000000000000000000000000000000000000000000000000000008152600401611fc79061320d565b60405180910390fd5b611fd981611246565b15612019576040517f08c379a00000000000000000000000000000000000000000000000000000000081526004016120109061310d565b60405180910390fd5b61202560008383611c8c565b6001600360008473ffffffffffffffffffffffffffffffffffffffff1673ffffffffffffffffffffffffffffffffffffffff16815260200190815260200160002060008282546120759190613442565b92505081905550816002600083815260200190815260200160002060006101000a81548173ffffffffffffffffffffffffffffffffffffffff021916908373ffffffffffffffffffffffffffffffffffffffff160217905550808273ffffffffffffffffffffffffffffffffffffffff16600073ffffffffffffffffffffffffffffffffffffffff167fddf252ad1be2c89b69c2b068fc378daa952ba7f163c4a11628f55a4df523b3ef60405160405180910390a461213660008383611c9c565b5050565b61214583838361241e565b600073ffffffffffffffffffffffffffffffffffffffff168373ffffffffffffffffffffffffffffffffffffffff1614156121885761218381612423565b6121c7565b8173ffffffffffffffffffffffffffffffffffffffff168373ffffffffffffffffffffffffffffffffffffffff16146121c6576121c5838261246c565b5b5b600073ffffffffffffffffffffffffffffffffffffffff168273ffffffffffffffffffffffffffffffffffffffff16141561220a57612205816125d9565b612249565b8273ffffffffffffffffffffffffffffffffffffffff168273ffffffffffffffffffffffffffffffffffffffff161461224857612247828261271c565b5b5b505050565b6000808273ffffffffffffffffffffffffffffffffffffffff163b119050919050565b606060008214156122b9576040518060400160405280600181526020017f30000000000000000000000000000000000000000000000000000000000000008152509050612419565b600082905060005b600082146122eb5780806122d490613616565b915050600a826122e49190613498565b91506122c1565b60008167ffffffffffffffff81111561232d577f4e487b7100000000000000000000000000000000000000000000000000000000600052604160045260246000fd5b6040519080825280601f01601f19166020018201604052801561235f5781602001600182028036833780820191505090505b5090505b600085146124125760018261237891906134c9565b9150600a85612387919061365f565b60306123939190613442565b60f81b8183815181106123cf577f4e487b7100000000000000000000000000000000000000000000000000000000600052603260045260246000fd5b60200101907effffffffffffffffffffffffffffffffffffffffffffffffffffffffffffff1916908160001a905350600a8561240b9190613498565b9450612363565b8093505050505b919050565b505050565b600980549050600a600083815260200190815260200160002081905550600981908060018154018082558091505060019003906000526020600020016000909190919091505550565b6000600161247984610c6f565b61248391906134c9565b9050600060086000848152602001908152602001600020549050818114612568576000600760008673ffffffffffffffffffffffffffffffffffffffff1673ffffffffffffffffffffffffffffffffffffffff168152602001908152602001600020600084815260200190815260200160002054905080600760008773ffffffffffffffffffffffffffffffffffffffff1673ffffffffffffffffffffffffffffffffffffffff168152602001908152602001600020600084815260200190815260200160002081905550816008600083815260200190815260200160002081905550505b6008600084815260200190815260200160002060009055600760008573ffffffffffffffffffffffffffffffffffffffff1673ffffffffffffffffffffffffffffffffffffffff16815260200190815260200160002060008381526020019081526020016000206000905550505050565b600060016009805490506125ed91906134c9565b90506000600a6000848152602001908152602001600020549050600060098381548110612643577f4e487b7100000000000000000000000000000000000000000000000000000000600052603260045260246000fd5b90600052602060002001549050806009838154811061268b577f4e487b7100000000000000000000000000000000000000000000000000000000600052603260045260246000fd5b906000526020600020018190555081600a600083815260200190815260200160002081905550600a6000858152602001908152602001600020600090556009805480612700577f4e487b7100000000000000000000000000000000000000000000000000000000600052603160045260246000fd5b6001900381819060005260206000200160009055905550505050565b600061272783610c6f565b905081600760008573ffffffffffffffffffffffffffffffffffffffff1673ffffffffffffffffffffffffffffffffffffffff168152602001908152602001600020600083815260200190815260200160002081905550806008600084815260200190815260200160002081905550505050565b8280546127a7906135b3565b90600052602060002090601f0160209004810192826127c95760008555612810565b82601f106127e257805160ff1916838001178555612810565b82800160010185558215612810579182015b8281111561280f5782518255916020019190600101906127f4565b5b50905061281d9190612821565b5090565b5b8082111561283a576000816000905550600101612822565b5090565b600061285161284c8461339d565b613378565b90508281526020810184848401111561286957600080fd5b612874848285613571565b509392505050565b600061288f61288a846133ce565b613378565b9050828152602081018484840111156128a757600080fd5b6128b2848285613571565b509392505050565b6000813590506128c981613d1a565b92915050565b6000813590506128de81613d31565b92915050565b6000813590506128f381613d48565b92915050565b60008151905061290881613d48565b92915050565b600082601f83011261291f57600080fd5b813561292f84826020860161283e565b91505092915050565b600082601f83011261294957600080fd5b813561295984826020860161287c565b91505092915050565b60008135905061297181613d5f565b92915050565b60006020828403121561298957600080fd5b6000612997848285016128ba565b91505092915050565b600080604083850312156129b357600080fd5b60006129c1858286016128ba565b92505060206129d2858286016128ba565b9150509250929050565b6000806000606084860312156129f157600080fd5b60006129ff868287016128ba565b9350506020612a10868287016128ba565b9250506040612a2186828701612962565b9150509250925092565b60008060008060808587031215612a4157600080fd5b6000612a4f878288016128ba565b9450506020612a60878288016128ba565b9350506040612a7187828801612962565b925050606085013567ffffffffffffffff811115612a8e57600080fd5b612a9a8782880161290e565b91505092959194509250565b60008060408385031215612ab957600080fd5b6000612ac7858286016128ba565b9250506020612ad8858286016128cf565b9150509250929050565b60008060408385031215612af557600080fd5b6000612b03858286016128ba565b9250506020612b1485828601612962565b9150509250929050565b600060208284031215612b3057600080fd5b6000612b3e848285016128e4565b91505092915050565b600060208284031215612b5957600080fd5b6000612b67848285016128f9565b91505092915050565b600060208284031215612b8257600080fd5b600082013567ffffffffffffffff811115612b9c57600080fd5b612ba884828501612938565b91505092915050565b600060208284031215612bc357600080fd5b6000612bd184828501612962565b91505092915050565b60008060408385031215612bed57600080fd5b6000612bfb85828601612962565b9250506020612c0c858286016128cf565b9150509250929050565b612c1f816134fd565b82525050565b612c2e8161350f565b82525050565b6000612c3f826133ff565b612c498185613415565b9350612c59818560208601613580565b612c628161374c565b840191505092915050565b6000612c788261340a565b612c828185613426565b9350612c92818560208601613580565b612c9b8161374c565b840191505092915050565b6000612cb18261340a565b612cbb8185613437565b9350612ccb818560208601613580565b80840191505092915050565b6000612ce4602b83613426565b9150612cef8261375d565b604082019050919050565b6000612d07603283613426565b9150612d12826137ac565b604082019050919050565b6000612d2a602683613426565b9150612d35826137fb565b604082019050919050565b6000612d4d602583613426565b9150612d588261384a565b604082019050919050565b6000612d70601c83613426565b9150612d7b82613899565b602082019050919050565b6000612d93602483613426565b9150612d9e826138c2565b604082019050919050565b6000612db6601983613426565b9150612dc182613911565b602082019050919050565b6000612dd9602c83613426565b9150612de48261393a565b604082019050919050565b6000612dfc603883613426565b9150612e0782613989565b604082019050919050565b6000612e1f602a83613426565b9150612e2a826139d8565b604082019050919050565b6000612e42602983613426565b9150612e4d82613a27565b604082019050919050565b6000612e65602e83613426565b9150612e7082613a76565b604082019050919050565b6000612e88602083613426565b9150612e9382613ac5565b602082019050919050565b6000612eab603183613426565b9150612eb682613aee565b604082019050919050565b6000612ece602c83613426565b9150612ed982613b3d565b604082019050919050565b6000612ef1602083613426565b9150612efc82613b8c565b602082019050919050565b6000612f14602f83613426565b9150612f1f82613bb5565b604082019050919050565b6000612f37602183613426565b9150612f4282613c04565b604082019050919050565b6000612f5a603183613426565b9150612f6582613c53565b604082019050919050565b6000612f7d602c83613426565b9150612f8882613ca2565b604082019050919050565b6000612fa0601183613426565b9150612fab82613cf1565b602082019050919050565b612fbf81613567565b82525050565b6000612fd18285612ca6565b9150612fdd8284612ca6565b91508190509392505050565b6000602082019050612ffe6000830184612c16565b92915050565b60006080820190506130196000830187612c16565b6130266020830186612c16565b6130336040830185612fb6565b81810360608301526130458184612c34565b905095945050505050565b60006020820190506130656000830184612c25565b92915050565b600060208201905081810360008301526130858184612c6d565b905092915050565b600060208201905081810360008301526130a681612cd7565b9050919050565b600060208201905081810360008301526130c681612cfa565b9050919050565b600060208201905081810360008301526130e681612d1d565b9050919050565b6000602082019050818103600083015261310681612d40565b9050919050565b6000602082019050818103600083015261312681612d63565b9050919050565b6000602082019050818103600083015261314681612d86565b9050919050565b6000602082019050818103600083015261316681612da9565b9050919050565b6000602082019050818103600083015261318681612dcc565b9050919050565b600060208201905081810360008301526131a681612def565b9050919050565b600060208201905081810360008301526131c681612e12565b9050919050565b600060208201905081810360008301526131e681612e35565b9050919050565b6000602082019050818103600083015261320681612e58565b9050919050565b6000602082019050818103600083015261322681612e7b565b9050919050565b6000602082019050818103600083015261324681612e9e565b9050919050565b6000602082019050818103600083015261326681612ec1565b9050919050565b6000602082019050818103600083015261328681612ee4565b9050919050565b600060208201905081810360008301526132a681612f07565b9050919050565b600060208201905081810360008301526132c681612f2a565b9050919050565b600060208201905081810360008301526132e681612f4d565b9050919050565b6000602082019050818103600083015261330681612f70565b9050919050565b6000602082019050818103600083015261332681612f93565b9050919050565b60006020820190506133426000830184612fb6565b92915050565b600060408201905061335d6000830185612fb6565b818103602083015261336f8184612c6d565b90509392505050565b6000613382613393565b905061338e82826135e5565b919050565b6000604051905090565b600067ffffffffffffffff8211156133b8576133b761371d565b5b6133c18261374c565b9050602081019050919050565b600067ffffffffffffffff8211156133e9576133e861371d565b5b6133f28261374c565b9050602081019050919050565b600081519050919050565b600081519050919050565b600082825260208201905092915050565b600082825260208201905092915050565b600081905092915050565b600061344d82613567565b915061345883613567565b9250827fffffffffffffffffffffffffffffffffffffffffffffffffffffffffffffffff0382111561348d5761348c613690565b5b828201905092915050565b60006134a382613567565b91506134ae83613567565b9250826134be576134bd6136bf565b5b828204905092915050565b60006134d482613567565b91506134df83613567565b9250828210156134f2576134f1613690565b5b828203905092915050565b600061350882613547565b9050919050565b60008115159050919050565b60007fffffffff0000000000000000000000000000000000000000000000000000000082169050919050565b600073ffffffffffffffffffffffffffffffffffffffff82169050919050565b6000819050919050565b82818337600083830152505050565b60005b8381101561359e578082015181840152602081019050613583565b838111156135ad576000848401525b50505050565b600060028204905060018216806135cb57607f821691505b602082108114156135df576135de6136ee565b5b50919050565b6135ee8261374c565b810181811067ffffffffffffffff8211171561360d5761360c61371d565b5b80604052505050565b600061362182613567565b91507fffffffffffffffffffffffffffffffffffffffffffffffffffffffffffffffff82141561365457613653613690565b5b600182019050919050565b600061366a82613567565b915061367583613567565b925082613685576136846136bf565b5b828206905092915050565b7f4e487b7100000000000000000000000000000000000000000000000000000000600052601160045260246000fd5b7f4e487b7100000000000000000000000000000000000000000000000000000000600052601260045260246000fd5b7f4e487b7100000000000000000000000000000000000000000000000000000000600052602260045260246000fd5b7f4e487b7100000000000000000000000000000000000000000000000000000000600052604160045260246000fd5b6000601f19601f8301169050919050565b7f455243373231456e756d657261626c653a206f776e657220696e646578206f7560008201527f74206f6620626f756e6473000000000000000000000000000000000000000000602082015250565b7f4552433732313a207472616e7366657220746f206e6f6e20455243373231526560008201527f63656976657220696d706c656d656e7465720000000000000000000000000000602082015250565b7f4f776e61626c653a206e6577206f776e657220697320746865207a65726f206160008201527f6464726573730000000000000000000000000000000000000000000000000000602082015250565b7f4552433732313a207472616e736665722066726f6d20696e636f72726563742060008201527f6f776e6572000000000000000000000000000000000000000000000000000000602082015250565b7f4552433732313a20746f6b656e20616c7265616479206d696e74656400000000600082015250565b7f4552433732313a207472616e7366657220746f20746865207a65726f2061646460008201527f7265737300000000000000000000000000000000000000000000000000000000602082015250565b7f4552433732313a20617070726f766520746f2063616c6c657200000000000000600082015250565b7f4552433732313a206f70657261746f7220717565727920666f72206e6f6e657860008201527f697374656e7420746f6b656e0000000000000000000000000000000000000000602082015250565b7f4552433732313a20617070726f76652063616c6c6572206973206e6f74206f7760008201527f6e6572206e6f7220617070726f76656420666f7220616c6c0000000000000000602082015250565b7f4552433732313a2062616c616e636520717565727920666f7220746865207a6560008201527f726f206164647265737300000000000000000000000000000000000000000000602082015250565b7f4552433732313a206f776e657220717565727920666f72206e6f6e657869737460008201527f656e7420746f6b656e0000000000000000000000000000000000000000000000602082015250565b7f45524337323155524953746f726167653a2055524920736574206f66206e6f6e60008201527f6578697374656e7420746f6b656e000000000000000000000000000000000000602082015250565b7f4552433732313a206d696e7420746f20746865207a65726f2061646472657373600082015250565b7f45524337323155524953746f726167653a2055524920717565727920666f722060008201527f6e6f6e6578697374656e7420746f6b656e000000000000000000000000000000602082015250565b7f4552433732313a20617070726f76656420717565727920666f72206e6f6e657860008201527f697374656e7420746f6b656e0000000000000000000000000000000000000000602082015250565b7f4f776e61626c653a2063616c6c6572206973206e6f7420746865206f776e6572600082015250565b7f4552433732314d657461646174613a2055524920717565727920666f72206e6f60008201527f6e6578697374656e7420746f6b656e0000000000000000000000000000000000602082015250565b7f4552433732313a20617070726f76616c20746f2063757272656e74206f776e6560008201527f7200000000000000000000000000000000000000000000000000000000000000602082015250565b7f4552433732313a207472616e736665722063616c6c6572206973206e6f74206f60008201527f776e6572206e6f7220617070726f766564000000000000000000000000000000602082015250565b7f455243373231456e756d657261626c653a20676c6f62616c20696e646578206f60008201527f7574206f6620626f756e64730000000000000000000000000000000000000000602082015250565b7f57726f6e672076616c75652073656e742e000000000000000000000000000000600082015250565b613d23816134fd565b8114613d2e57600080fd5b50565b613d3a8161350f565b8114613d4557600080fd5b50565b613d518161351b565b8114613d5c57600080fd5b50565b613d6881613567565b8114613d7357600080fd5b5056fea2646970667358221220edeea846d8fae0ee1fc0c2658e37469d159b1550b3fc7427111107db54a4ecdc64736f6c63430008040033",
    "linkReferences": {},
    "deployedLinkReferences": {}
}