{
    "contractAddress": "0xc5a5C42992dECbae36851359345FE25997F5C42d",
    "_format": "hh-sol-artifact-1",
    "contractName": "MusitNFT",
    "sourceName": "contracts/MusitNFT.sol",
    "abi": [
        {
            "inputs": [
                {
                    "internalType": "uint256",
                    "name": "_mintPrice",
                    "type": "uint256"
                }
            ],
            "stateMutability": "nonpayable",
            "type": "constructor"
        },
        {
            "anonymous": false,
            "inputs": [
                {
                    "indexed": true,
                    "internalType": "address",
                    "name": "owner",
                    "type": "address"
                },
                {
                    "indexed": true,
                    "internalType": "address",
                    "name": "approved",
                    "type": "address"
                },
                {
                    "indexed": true,
                    "internalType": "uint256",
                    "name": "tokenId",
                    "type": "uint256"
                }
            ],
            "name": "Approval",
            "type": "event"
        },
        {
            "anonymous": false,
            "inputs": [
                {
                    "indexed": true,
                    "internalType": "address",
                    "name": "owner",
                    "type": "address"
                },
                {
                    "indexed": true,
                    "internalType": "address",
                    "name": "operator",
                    "type": "address"
                },
                {
                    "indexed": false,
                    "internalType": "bool",
                    "name": "approved",
                    "type": "bool"
                }
            ],
            "name": "ApprovalForAll",
            "type": "event"
        },
        {
            "anonymous": false,
            "inputs": [
                {
                    "indexed": false,
                    "internalType": "uint256",
                    "name": "tokenId",
                    "type": "uint256"
                },
                {
                    "indexed": false,
                    "internalType": "string",
                    "name": "tokenURI",
                    "type": "string"
                },
                {
                    "indexed": true,
                    "internalType": "address",
                    "name": "minter",
                    "type": "address"
                }
            ],
            "name": "Minted",
            "type": "event"
        },
        {
            "anonymous": false,
            "inputs": [
                {
                    "indexed": true,
                    "internalType": "address",
                    "name": "previousOwner",
                    "type": "address"
                },
                {
                    "indexed": true,
                    "internalType": "address",
                    "name": "newOwner",
                    "type": "address"
                }
            ],
            "name": "OwnershipTransferred",
            "type": "event"
        },
        {
            "anonymous": false,
            "inputs": [
                {
                    "indexed": true,
                    "internalType": "address",
                    "name": "from",
                    "type": "address"
                },
                {
                    "indexed": true,
                    "internalType": "address",
                    "name": "to",
                    "type": "address"
                },
                {
                    "indexed": true,
                    "internalType": "uint256",
                    "name": "tokenId",
                    "type": "uint256"
                }
            ],
            "name": "Transfer",
            "type": "event"
        },
        {
            "inputs": [
                {
                    "internalType": "address",
                    "name": "to",
                    "type": "address"
                },
                {
                    "internalType": "uint256",
                    "name": "tokenId",
                    "type": "uint256"
                }
            ],
            "name": "approve",
            "outputs": [],
            "stateMutability": "nonpayable",
            "type": "function"
        },
        {
            "inputs": [
                {
                    "internalType": "address",
                    "name": "owner",
                    "type": "address"
                }
            ],
            "name": "balanceOf",
            "outputs": [
                {
                    "internalType": "uint256",
                    "name": "",
                    "type": "uint256"
                }
            ],
            "stateMutability": "view",
            "type": "function"
        },
        {
            "inputs": [
                {
                    "internalType": "uint256",
                    "name": "tokenId",
                    "type": "uint256"
                }
            ],
            "name": "getApproved",
            "outputs": [
                {
                    "internalType": "address",
                    "name": "",
                    "type": "address"
                }
            ],
            "stateMutability": "view",
            "type": "function"
        },
        {
            "inputs": [
                {
                    "internalType": "address",
                    "name": "owner",
                    "type": "address"
                },
                {
                    "internalType": "address",
                    "name": "operator",
                    "type": "address"
                }
            ],
            "name": "isApprovedForAll",
            "outputs": [
                {
                    "internalType": "bool",
                    "name": "",
                    "type": "bool"
                }
            ],
            "stateMutability": "view",
            "type": "function"
        },
        {
            "inputs": [],
            "name": "mintPrice",
            "outputs": [
                {
                    "internalType": "uint256",
                    "name": "",
                    "type": "uint256"
                }
            ],
            "stateMutability": "view",
            "type": "function"
        },
        {
            "inputs": [
                {
                    "internalType": "string",
                    "name": "_tokenURI",
                    "type": "string"
                }
            ],
            "name": "minting",
            "outputs": [
                {
                    "internalType": "uint256",
                    "name": "",
                    "type": "uint256"
                }
            ],
            "stateMutability": "payable",
            "type": "function"
        },
        {
            "inputs": [],
            "name": "name",
            "outputs": [
                {
                    "internalType": "string",
                    "name": "",
                    "type": "string"
                }
            ],
            "stateMutability": "view",
            "type": "function"
        },
        {
            "inputs": [],
            "name": "owner",
            "outputs": [
                {
                    "internalType": "address",
                    "name": "",
                    "type": "address"
                }
            ],
            "stateMutability": "view",
            "type": "function"
        },
        {
            "inputs": [
                {
                    "internalType": "uint256",
                    "name": "tokenId",
                    "type": "uint256"
                }
            ],
            "name": "ownerOf",
            "outputs": [
                {
                    "internalType": "address",
                    "name": "",
                    "type": "address"
                }
            ],
            "stateMutability": "view",
            "type": "function"
        },
        {
            "inputs": [],
            "name": "renounceOwnership",
            "outputs": [],
            "stateMutability": "nonpayable",
            "type": "function"
        },
        {
            "inputs": [
                {
                    "internalType": "address",
                    "name": "from",
                    "type": "address"
                },
                {
                    "internalType": "address",
                    "name": "to",
                    "type": "address"
                },
                {
                    "internalType": "uint256",
                    "name": "tokenId",
                    "type": "uint256"
                }
            ],
            "name": "safeTransferFrom",
            "outputs": [],
            "stateMutability": "nonpayable",
            "type": "function"
        },
        {
            "inputs": [
                {
                    "internalType": "address",
                    "name": "from",
                    "type": "address"
                },
                {
                    "internalType": "address",
                    "name": "to",
                    "type": "address"
                },
                {
                    "internalType": "uint256",
                    "name": "tokenId",
                    "type": "uint256"
                },
                {
                    "internalType": "bytes",
                    "name": "_data",
                    "type": "bytes"
                }
            ],
            "name": "safeTransferFrom",
            "outputs": [],
            "stateMutability": "nonpayable",
            "type": "function"
        },
        {
            "inputs": [
                {
                    "internalType": "address",
                    "name": "operator",
                    "type": "address"
                },
                {
                    "internalType": "bool",
                    "name": "approved",
                    "type": "bool"
                }
            ],
            "name": "setApprovalForAll",
            "outputs": [],
            "stateMutability": "nonpayable",
            "type": "function"
        },
        {
            "inputs": [
                {
                    "internalType": "uint256",
                    "name": "_mintPrice",
                    "type": "uint256"
                }
            ],
            "name": "setMintPrice",
            "outputs": [],
            "stateMutability": "nonpayable",
            "type": "function"
        },
        {
            "inputs": [
                {
                    "internalType": "bytes4",
                    "name": "interfaceId",
                    "type": "bytes4"
                }
            ],
            "name": "supportsInterface",
            "outputs": [
                {
                    "internalType": "bool",
                    "name": "",
                    "type": "bool"
                }
            ],
            "stateMutability": "view",
            "type": "function"
        },
        {
            "inputs": [],
            "name": "symbol",
            "outputs": [
                {
                    "internalType": "string",
                    "name": "",
                    "type": "string"
                }
            ],
            "stateMutability": "view",
            "type": "function"
        },
        {
            "inputs": [],
            "name": "tokenCount",
            "outputs": [
                {
                    "internalType": "uint256",
                    "name": "_value",
                    "type": "uint256"
                }
            ],
            "stateMutability": "view",
            "type": "function"
        },
        {
            "inputs": [
                {
                    "internalType": "uint256",
                    "name": "tokenId",
                    "type": "uint256"
                }
            ],
            "name": "tokenURI",
            "outputs": [
                {
                    "internalType": "string",
                    "name": "",
                    "type": "string"
                }
            ],
            "stateMutability": "view",
            "type": "function"
        },
        {
            "inputs": [],
            "name": "totalSupplied",
            "outputs": [
                {
                    "internalType": "uint256",
                    "name": "",
                    "type": "uint256"
                }
            ],
            "stateMutability": "view",
            "type": "function"
        },
        {
            "inputs": [
                {
                    "internalType": "address",
                    "name": "from",
                    "type": "address"
                },
                {
                    "internalType": "address",
                    "name": "to",
                    "type": "address"
                },
                {
                    "internalType": "uint256",
                    "name": "tokenId",
                    "type": "uint256"
                }
            ],
            "name": "transferFrom",
            "outputs": [],
            "stateMutability": "nonpayable",
            "type": "function"
        },
        {
            "inputs": [
                {
                    "internalType": "address",
                    "name": "newOwner",
                    "type": "address"
                }
            ],
            "name": "transferOwnership",
            "outputs": [],
            "stateMutability": "nonpayable",
            "type": "function"
        }
    ],
    "bytecode": "0x60806040523480156200001157600080fd5b50604051620036cb380380620036cb83398181016040528101906200003791906200029a565b6040518060400160405280600981526020017f4d75736974204e465400000000000000000000000000000000000000000000008152506040518060400160405280600581526020017f4d555349540000000000000000000000000000000000000000000000000000008152508160009080519060200190620000bb929190620001d3565b508060019080519060200190620000d4929190620001d3565b505050620000f7620000eb6200010560201b60201c565b6200010d60201b60201c565b80600981905550506200034f565b600033905090565b6000600760009054906101000a900473ffffffffffffffffffffffffffffffffffffffff16905081600760006101000a81548173ffffffffffffffffffffffffffffffffffffffff021916908373ffffffffffffffffffffffffffffffffffffffff1602179055508173ffffffffffffffffffffffffffffffffffffffff168173ffffffffffffffffffffffffffffffffffffffff167f8be0079c531659141344cd1fd0a4f28419497f9722a3daafe3b4186f6b6457e060405160405180910390a35050565b828054620001e190620002d0565b90600052602060002090601f01602090048101928262000205576000855562000251565b82601f106200022057805160ff191683800117855562000251565b8280016001018555821562000251579182015b828111156200025057825182559160200191906001019062000233565b5b50905062000260919062000264565b5090565b5b808211156200027f57600081600090555060010162000265565b5090565b600081519050620002948162000335565b92915050565b600060208284031215620002ad57600080fd5b6000620002bd8482850162000283565b91505092915050565b6000819050919050565b60006002820490506001821680620002e957607f821691505b602082108114156200030057620002ff62000306565b5b50919050565b7f4e487b7100000000000000000000000000000000000000000000000000000000600052602260045260246000fd5b6200034081620002c6565b81146200034c57600080fd5b50565b61336c806200035f6000396000f3fe60806040526004361061012a5760003560e01c806370a08231116100ab578063a22cb4651161006f578063a22cb465146103e7578063b88d4fde14610410578063c87b56dd14610439578063e985e9c514610476578063f2fde38b146104b3578063f4a0a528146104dc5761012a565b806370a0823114610312578063715018a61461034f5780638da5cb5b1461036657806395d89b41146103915780639f181b5e146103bc5761012a565b806323b872dd116100f257806323b872dd1461022d57806342842e0e14610256578063630fd0ac1461027f5780636352211e146102aa5780636817c76c146102e75761012a565b806301ffc9a71461012f57806306fdde031461016c578063081812fc14610197578063095ea7b3146101d45780630bdc9008146101fd575b600080fd5b34801561013b57600080fd5b506101566004803603810190610151919061223e565b610505565b60405161016391906126ee565b60405180910390f35b34801561017857600080fd5b506101816105e7565b60405161018e9190612709565b60405180910390f35b3480156101a357600080fd5b506101be60048036038101906101b991906122d1565b610679565b6040516101cb9190612687565b60405180910390f35b3480156101e057600080fd5b506101fb60048036038101906101f69190612202565b6106fe565b005b61021760048036038101906102129190612290565b610816565b604051610224919061298b565b60405180910390f35b34801561023957600080fd5b50610254600480360381019061024f91906120fc565b610914565b005b34801561026257600080fd5b5061027d600480360381019061027891906120fc565b610974565b005b34801561028b57600080fd5b50610294610994565b6040516102a1919061298b565b60405180910390f35b3480156102b657600080fd5b506102d160048036038101906102cc91906122d1565b61099a565b6040516102de9190612687565b60405180910390f35b3480156102f357600080fd5b506102fc610a4c565b604051610309919061298b565b60405180910390f35b34801561031e57600080fd5b5061033960048036038101906103349190612097565b610a52565b604051610346919061298b565b60405180910390f35b34801561035b57600080fd5b50610364610b0a565b005b34801561037257600080fd5b5061037b610b92565b6040516103889190612687565b60405180910390f35b34801561039d57600080fd5b506103a6610bbc565b6040516103b39190612709565b60405180910390f35b3480156103c857600080fd5b506103d1610c4e565b6040516103de919061298b565b60405180910390f35b3480156103f357600080fd5b5061040e600480360381019061040991906121c6565b610c5a565b005b34801561041c57600080fd5b506104376004803603810190610432919061214b565b610c70565b005b34801561044557600080fd5b50610460600480360381019061045b91906122d1565b610cd2565b60405161046d9190612709565b60405180910390f35b34801561048257600080fd5b5061049d600480360381019061049891906120c0565b610e24565b6040516104aa91906126ee565b60405180910390f35b3480156104bf57600080fd5b506104da60048036038101906104d59190612097565b610eb8565b005b3480156104e857600080fd5b5061050360048036038101906104fe91906122d1565b610fb0565b005b60007f80ac58cd000000000000000000000000000000000000000000000000000000007bffffffffffffffffffffffffffffffffffffffffffffffffffffffff1916827bffffffffffffffffffffffffffffffffffffffffffffffffffffffff191614806105d057507f5b5e139f000000000000000000000000000000000000000000000000000000007bffffffffffffffffffffffffffffffffffffffffffffffffffffffff1916827bffffffffffffffffffffffffffffffffffffffffffffffffffffffff1916145b806105e057506105df82611036565b5b9050919050565b6060600080546105f690612c11565b80601f016020809104026020016040519081016040528092919081815260200182805461062290612c11565b801561066f5780601f106106445761010080835404028352916020019161066f565b820191906000526020600020905b81548152906001019060200180831161065257829003601f168201915b5050505050905090565b6000610684826110a0565b6106c3576040517f08c379a00000000000000000000000000000000000000000000000000000000081526004016106ba906128cb565b60405180910390fd5b6004600083815260200190815260200160002060009054906101000a900473ffffffffffffffffffffffffffffffffffffffff169050919050565b60006107098261099a565b90508073ffffffffffffffffffffffffffffffffffffffff168373ffffffffffffffffffffffffffffffffffffffff16141561077a576040517f08c379a00000000000000000000000000000000000000000000000000000000081526004016107719061292b565b60405180910390fd5b8073ffffffffffffffffffffffffffffffffffffffff1661079961110c565b73ffffffffffffffffffffffffffffffffffffffff1614806107c857506107c7816107c261110c565b610e24565b5b610807576040517f08c379a00000000000000000000000000000000000000000000000000000000081526004016107fe9061280b565b60405180910390fd5b6108118383611114565b505050565b6000600954341461085c576040517f08c379a00000000000000000000000000000000000000000000000000000000081526004016108539061296b565b60405180910390fd5b610866600b6111cd565b6000610872600b6111e3565b905061087e33826111f1565b610888818461120f565b60006008600083815260200190815260200160002060006101000a81548160ff0219169083151502179055503373ffffffffffffffffffffffffffffffffffffffff167fc1177815a22ab58cdf6e40a80dfe322e9d00b7977bd78634869752fed8082f5682856040516108fc9291906129a6565b60405180910390a280600a8190555080915050919050565b61092561091f61110c565b82611283565b610964576040517f08c379a000000000000000000000000000000000000000000000000000000000815260040161095b9061294b565b60405180910390fd5b61096f838383611361565b505050565b61098f83838360405180602001604052806000815250610c70565b505050565b600a5481565b6000806002600084815260200190815260200160002060009054906101000a900473ffffffffffffffffffffffffffffffffffffffff169050600073ffffffffffffffffffffffffffffffffffffffff168173ffffffffffffffffffffffffffffffffffffffff161415610a43576040517f08c379a0000000000000000000000000000000000000000000000000000000008152600401610a3a9061284b565b60405180910390fd5b80915050919050565b60095481565b60008073ffffffffffffffffffffffffffffffffffffffff168273ffffffffffffffffffffffffffffffffffffffff161415610ac3576040517f08c379a0000000000000000000000000000000000000000000000000000000008152600401610aba9061282b565b60405180910390fd5b600360008373ffffffffffffffffffffffffffffffffffffffff1673ffffffffffffffffffffffffffffffffffffffff168152602001908152602001600020549050919050565b610b1261110c565b73ffffffffffffffffffffffffffffffffffffffff16610b30610b92565b73ffffffffffffffffffffffffffffffffffffffff1614610b86576040517f08c379a0000000000000000000000000000000000000000000000000000000008152600401610b7d906128eb565b60405180910390fd5b610b9060006115c8565b565b6000600760009054906101000a900473ffffffffffffffffffffffffffffffffffffffff16905090565b606060018054610bcb90612c11565b80601f0160208091040260200160405190810160405280929190818152602001828054610bf790612c11565b8015610c445780601f10610c1957610100808354040283529160200191610c44565b820191906000526020600020905b815481529060010190602001808311610c2757829003601f168201915b5050505050905090565b600b8060000154905081565b610c6c610c6561110c565b838361168e565b5050565b610c81610c7b61110c565b83611283565b610cc0576040517f08c379a0000000000000000000000000000000000000000000000000000000008152600401610cb79061294b565b60405180910390fd5b610ccc848484846117fb565b50505050565b6060610cdd826110a0565b610d1c576040517f08c379a0000000000000000000000000000000000000000000000000000000008152600401610d13906128ab565b60405180910390fd5b6000600660008481526020019081526020016000208054610d3c90612c11565b80601f0160208091040260200160405190810160405280929190818152602001828054610d6890612c11565b8015610db55780601f10610d8a57610100808354040283529160200191610db5565b820191906000526020600020905b815481529060010190602001808311610d9857829003601f168201915b505050505090506000610dc6611857565b9050600081511415610ddc578192505050610e1f565b600082511115610e11578082604051602001610df9929190612663565b60405160208183030381529060405292505050610e1f565b610e1a8461186e565b925050505b919050565b6000600560008473ffffffffffffffffffffffffffffffffffffffff1673ffffffffffffffffffffffffffffffffffffffff16815260200190815260200160002060008373ffffffffffffffffffffffffffffffffffffffff1673ffffffffffffffffffffffffffffffffffffffff16815260200190815260200160002060009054906101000a900460ff16905092915050565b610ec061110c565b73ffffffffffffffffffffffffffffffffffffffff16610ede610b92565b73ffffffffffffffffffffffffffffffffffffffff1614610f34576040517f08c379a0000000000000000000000000000000000000000000000000000000008152600401610f2b906128eb565b60405180910390fd5b600073ffffffffffffffffffffffffffffffffffffffff168173ffffffffffffffffffffffffffffffffffffffff161415610fa4576040517f08c379a0000000000000000000000000000000000000000000000000000000008152600401610f9b9061274b565b60405180910390fd5b610fad816115c8565b50565b610fb861110c565b73ffffffffffffffffffffffffffffffffffffffff16610fd6610b92565b73ffffffffffffffffffffffffffffffffffffffff161461102c576040517f08c379a0000000000000000000000000000000000000000000000000000000008152600401611023906128eb565b60405180910390fd5b8060098190555050565b60007f01ffc9a7000000000000000000000000000000000000000000000000000000007bffffffffffffffffffffffffffffffffffffffffffffffffffffffff1916827bffffffffffffffffffffffffffffffffffffffffffffffffffffffff1916149050919050565b60008073ffffffffffffffffffffffffffffffffffffffff166002600084815260200190815260200160002060009054906101000a900473ffffffffffffffffffffffffffffffffffffffff1673ffffffffffffffffffffffffffffffffffffffff1614159050919050565b600033905090565b816004600083815260200190815260200160002060006101000a81548173ffffffffffffffffffffffffffffffffffffffff021916908373ffffffffffffffffffffffffffffffffffffffff160217905550808273ffffffffffffffffffffffffffffffffffffffff166111878361099a565b73ffffffffffffffffffffffffffffffffffffffff167f8c5be1e5ebec7d5bd14f71427d1e84f3dd0314c0f7b2291e5b200ac8c7c3b92560405160405180910390a45050565b6001816000016000828254019250508190555050565b600081600001549050919050565b61120b828260405180602001604052806000815250611915565b5050565b611218826110a0565b611257576040517f08c379a000000000000000000000000000000000000000000000000000000000815260040161124e9061286b565b60405180910390fd5b8060066000848152602001908152602001600020908051906020019061127e929190611ebb565b505050565b600061128e826110a0565b6112cd576040517f08c379a00000000000000000000000000000000000000000000000000000000081526004016112c4906127eb565b60405180910390fd5b60006112d88361099a565b90508073ffffffffffffffffffffffffffffffffffffffff168473ffffffffffffffffffffffffffffffffffffffff16148061134757508373ffffffffffffffffffffffffffffffffffffffff1661132f84610679565b73ffffffffffffffffffffffffffffffffffffffff16145b8061135857506113578185610e24565b5b91505092915050565b8273ffffffffffffffffffffffffffffffffffffffff166113818261099a565b73ffffffffffffffffffffffffffffffffffffffff16146113d7576040517f08c379a00000000000000000000000000000000000000000000000000000000081526004016113ce9061276b565b60405180910390fd5b600073ffffffffffffffffffffffffffffffffffffffff168273ffffffffffffffffffffffffffffffffffffffff161415611447576040517f08c379a000000000000000000000000000000000000000000000000000000000815260040161143e906127ab565b60405180910390fd5b611452838383611970565b61145d600082611114565b6001600360008573ffffffffffffffffffffffffffffffffffffffff1673ffffffffffffffffffffffffffffffffffffffff16815260200190815260200160002060008282546114ad9190612b27565b925050819055506001600360008473ffffffffffffffffffffffffffffffffffffffff1673ffffffffffffffffffffffffffffffffffffffff16815260200190815260200160002060008282546115049190612aa0565b92505081905550816002600083815260200190815260200160002060006101000a81548173ffffffffffffffffffffffffffffffffffffffff021916908373ffffffffffffffffffffffffffffffffffffffff160217905550808273ffffffffffffffffffffffffffffffffffffffff168473ffffffffffffffffffffffffffffffffffffffff167fddf252ad1be2c89b69c2b068fc378daa952ba7f163c4a11628f55a4df523b3ef60405160405180910390a46115c3838383611975565b505050565b6000600760009054906101000a900473ffffffffffffffffffffffffffffffffffffffff16905081600760006101000a81548173ffffffffffffffffffffffffffffffffffffffff021916908373ffffffffffffffffffffffffffffffffffffffff1602179055508173ffffffffffffffffffffffffffffffffffffffff168173ffffffffffffffffffffffffffffffffffffffff167f8be0079c531659141344cd1fd0a4f28419497f9722a3daafe3b4186f6b6457e060405160405180910390a35050565b8173ffffffffffffffffffffffffffffffffffffffff168373ffffffffffffffffffffffffffffffffffffffff1614156116fd576040517f08c379a00000000000000000000000000000000000000000000000000000000081526004016116f4906127cb565b60405180910390fd5b80600560008573ffffffffffffffffffffffffffffffffffffffff1673ffffffffffffffffffffffffffffffffffffffff16815260200190815260200160002060008473ffffffffffffffffffffffffffffffffffffffff1673ffffffffffffffffffffffffffffffffffffffff16815260200190815260200160002060006101000a81548160ff0219169083151502179055508173ffffffffffffffffffffffffffffffffffffffff168373ffffffffffffffffffffffffffffffffffffffff167f17307eab39ab6107e8899845ad3d59bd9653f200f220920489ca2b5937696c31836040516117ee91906126ee565b60405180910390a3505050565b611806848484611361565b6118128484848461197a565b611851576040517f08c379a00000000000000000000000000000000000000000000000000000000081526004016118489061272b565b60405180910390fd5b50505050565b606060405180602001604052806000815250905090565b6060611879826110a0565b6118b8576040517f08c379a00000000000000000000000000000000000000000000000000000000081526004016118af9061290b565b60405180910390fd5b60006118c2611857565b905060008151116118e2576040518060200160405280600081525061190d565b806118ec84611b11565b6040516020016118fd929190612663565b6040516020818303038152906040525b915050919050565b61191f8383611cbe565b61192c600084848461197a565b61196b576040517f08c379a00000000000000000000000000000000000000000000000000000000081526004016119629061272b565b60405180910390fd5b505050565b505050565b505050565b600061199b8473ffffffffffffffffffffffffffffffffffffffff16611e98565b15611b04578373ffffffffffffffffffffffffffffffffffffffff1663150b7a026119c461110c565b8786866040518563ffffffff1660e01b81526004016119e694939291906126a2565b602060405180830381600087803b158015611a0057600080fd5b505af1925050508015611a3157506040513d601f19601f82011682018060405250810190611a2e9190612267565b60015b611ab4573d8060008114611a61576040519150601f19603f3d011682016040523d82523d6000602084013e611a66565b606091505b50600081511415611aac576040517f08c379a0000000000000000000000000000000000000000000000000000000008152600401611aa39061272b565b60405180910390fd5b805181602001fd5b63150b7a0260e01b7bffffffffffffffffffffffffffffffffffffffffffffffffffffffff1916817bffffffffffffffffffffffffffffffffffffffffffffffffffffffff191614915050611b09565b600190505b949350505050565b60606000821415611b59576040518060400160405280600181526020017f30000000000000000000000000000000000000000000000000000000000000008152509050611cb9565b600082905060005b60008214611b8b578080611b7490612c74565b915050600a82611b849190612af6565b9150611b61565b60008167ffffffffffffffff811115611bcd577f4e487b7100000000000000000000000000000000000000000000000000000000600052604160045260246000fd5b6040519080825280601f01601f191660200182016040528015611bff5781602001600182028036833780820191505090505b5090505b60008514611cb257600182611c189190612b27565b9150600a85611c279190612cbd565b6030611c339190612aa0565b60f81b818381518110611c6f577f4e487b7100000000000000000000000000000000000000000000000000000000600052603260045260246000fd5b60200101907effffffffffffffffffffffffffffffffffffffffffffffffffffffffffffff1916908160001a905350600a85611cab9190612af6565b9450611c03565b8093505050505b919050565b600073ffffffffffffffffffffffffffffffffffffffff168273ffffffffffffffffffffffffffffffffffffffff161415611d2e576040517f08c379a0000000000000000000000000000000000000000000000000000000008152600401611d259061288b565b60405180910390fd5b611d37816110a0565b15611d77576040517f08c379a0000000000000000000000000000000000000000000000000000000008152600401611d6e9061278b565b60405180910390fd5b611d8360008383611970565b6001600360008473ffffffffffffffffffffffffffffffffffffffff1673ffffffffffffffffffffffffffffffffffffffff1681526020019081526020016000206000828254611dd39190612aa0565b92505081905550816002600083815260200190815260200160002060006101000a81548173ffffffffffffffffffffffffffffffffffffffff021916908373ffffffffffffffffffffffffffffffffffffffff160217905550808273ffffffffffffffffffffffffffffffffffffffff16600073ffffffffffffffffffffffffffffffffffffffff167fddf252ad1be2c89b69c2b068fc378daa952ba7f163c4a11628f55a4df523b3ef60405160405180910390a4611e9460008383611975565b5050565b6000808273ffffffffffffffffffffffffffffffffffffffff163b119050919050565b828054611ec790612c11565b90600052602060002090601f016020900481019282611ee95760008555611f30565b82601f10611f0257805160ff1916838001178555611f30565b82800160010185558215611f30579182015b82811115611f2f578251825591602001919060010190611f14565b5b509050611f3d9190611f41565b5090565b5b80821115611f5a576000816000905550600101611f42565b5090565b6000611f71611f6c846129fb565b6129d6565b905082815260208101848484011115611f8957600080fd5b611f94848285612bcf565b509392505050565b6000611faf611faa84612a2c565b6129d6565b905082815260208101848484011115611fc757600080fd5b611fd2848285612bcf565b509392505050565b600081359050611fe9816132da565b92915050565b600081359050611ffe816132f1565b92915050565b60008135905061201381613308565b92915050565b60008151905061202881613308565b92915050565b600082601f83011261203f57600080fd5b813561204f848260208601611f5e565b91505092915050565b600082601f83011261206957600080fd5b8135612079848260208601611f9c565b91505092915050565b6000813590506120918161331f565b92915050565b6000602082840312156120a957600080fd5b60006120b784828501611fda565b91505092915050565b600080604083850312156120d357600080fd5b60006120e185828601611fda565b92505060206120f285828601611fda565b9150509250929050565b60008060006060848603121561211157600080fd5b600061211f86828701611fda565b935050602061213086828701611fda565b925050604061214186828701612082565b9150509250925092565b6000806000806080858703121561216157600080fd5b600061216f87828801611fda565b945050602061218087828801611fda565b935050604061219187828801612082565b925050606085013567ffffffffffffffff8111156121ae57600080fd5b6121ba8782880161202e565b91505092959194509250565b600080604083850312156121d957600080fd5b60006121e785828601611fda565b92505060206121f885828601611fef565b9150509250929050565b6000806040838503121561221557600080fd5b600061222385828601611fda565b925050602061223485828601612082565b9150509250929050565b60006020828403121561225057600080fd5b600061225e84828501612004565b91505092915050565b60006020828403121561227957600080fd5b600061228784828501612019565b91505092915050565b6000602082840312156122a257600080fd5b600082013567ffffffffffffffff8111156122bc57600080fd5b6122c884828501612058565b91505092915050565b6000602082840312156122e357600080fd5b60006122f184828501612082565b91505092915050565b61230381612b5b565b82525050565b61231281612b6d565b82525050565b600061232382612a5d565b61232d8185612a73565b935061233d818560208601612bde565b61234681612daa565b840191505092915050565b600061235c82612a68565b6123668185612a84565b9350612376818560208601612bde565b61237f81612daa565b840191505092915050565b600061239582612a68565b61239f8185612a95565b93506123af818560208601612bde565b80840191505092915050565b60006123c8603283612a84565b91506123d382612dbb565b604082019050919050565b60006123eb602683612a84565b91506123f682612e0a565b604082019050919050565b600061240e602583612a84565b915061241982612e59565b604082019050919050565b6000612431601c83612a84565b915061243c82612ea8565b602082019050919050565b6000612454602483612a84565b915061245f82612ed1565b604082019050919050565b6000612477601983612a84565b915061248282612f20565b602082019050919050565b600061249a602c83612a84565b91506124a582612f49565b604082019050919050565b60006124bd603883612a84565b91506124c882612f98565b604082019050919050565b60006124e0602a83612a84565b91506124eb82612fe7565b604082019050919050565b6000612503602983612a84565b915061250e82613036565b604082019050919050565b6000612526602e83612a84565b915061253182613085565b604082019050919050565b6000612549602083612a84565b9150612554826130d4565b602082019050919050565b600061256c603183612a84565b9150612577826130fd565b604082019050919050565b600061258f602c83612a84565b915061259a8261314c565b604082019050919050565b60006125b2602083612a84565b91506125bd8261319b565b602082019050919050565b60006125d5602f83612a84565b91506125e0826131c4565b604082019050919050565b60006125f8602183612a84565b915061260382613213565b604082019050919050565b600061261b603183612a84565b915061262682613262565b604082019050919050565b600061263e601183612a84565b9150612649826132b1565b602082019050919050565b61265d81612bc5565b82525050565b600061266f828561238a565b915061267b828461238a565b91508190509392505050565b600060208201905061269c60008301846122fa565b92915050565b60006080820190506126b760008301876122fa565b6126c460208301866122fa565b6126d16040830185612654565b81810360608301526126e38184612318565b905095945050505050565b60006020820190506127036000830184612309565b92915050565b600060208201905081810360008301526127238184612351565b905092915050565b60006020820190508181036000830152612744816123bb565b9050919050565b60006020820190508181036000830152612764816123de565b9050919050565b6000602082019050818103600083015261278481612401565b9050919050565b600060208201905081810360008301526127a481612424565b9050919050565b600060208201905081810360008301526127c481612447565b9050919050565b600060208201905081810360008301526127e48161246a565b9050919050565b600060208201905081810360008301526128048161248d565b9050919050565b60006020820190508181036000830152612824816124b0565b9050919050565b60006020820190508181036000830152612844816124d3565b9050919050565b60006020820190508181036000830152612864816124f6565b9050919050565b6000602082019050818103600083015261288481612519565b9050919050565b600060208201905081810360008301526128a48161253c565b9050919050565b600060208201905081810360008301526128c48161255f565b9050919050565b600060208201905081810360008301526128e481612582565b9050919050565b60006020820190508181036000830152612904816125a5565b9050919050565b60006020820190508181036000830152612924816125c8565b9050919050565b60006020820190508181036000830152612944816125eb565b9050919050565b600060208201905081810360008301526129648161260e565b9050919050565b6000602082019050818103600083015261298481612631565b9050919050565b60006020820190506129a06000830184612654565b92915050565b60006040820190506129bb6000830185612654565b81810360208301526129cd8184612351565b90509392505050565b60006129e06129f1565b90506129ec8282612c43565b919050565b6000604051905090565b600067ffffffffffffffff821115612a1657612a15612d7b565b5b612a1f82612daa565b9050602081019050919050565b600067ffffffffffffffff821115612a4757612a46612d7b565b5b612a5082612daa565b9050602081019050919050565b600081519050919050565b600081519050919050565b600082825260208201905092915050565b600082825260208201905092915050565b600081905092915050565b6000612aab82612bc5565b9150612ab683612bc5565b9250827fffffffffffffffffffffffffffffffffffffffffffffffffffffffffffffffff03821115612aeb57612aea612cee565b5b828201905092915050565b6000612b0182612bc5565b9150612b0c83612bc5565b925082612b1c57612b1b612d1d565b5b828204905092915050565b6000612b3282612bc5565b9150612b3d83612bc5565b925082821015612b5057612b4f612cee565b5b828203905092915050565b6000612b6682612ba5565b9050919050565b60008115159050919050565b60007fffffffff0000000000000000000000000000000000000000000000000000000082169050919050565b600073ffffffffffffffffffffffffffffffffffffffff82169050919050565b6000819050919050565b82818337600083830152505050565b60005b83811015612bfc578082015181840152602081019050612be1565b83811115612c0b576000848401525b50505050565b60006002820490506001821680612c2957607f821691505b60208210811415612c3d57612c3c612d4c565b5b50919050565b612c4c82612daa565b810181811067ffffffffffffffff82111715612c6b57612c6a612d7b565b5b80604052505050565b6000612c7f82612bc5565b91507fffffffffffffffffffffffffffffffffffffffffffffffffffffffffffffffff821415612cb257612cb1612cee565b5b600182019050919050565b6000612cc882612bc5565b9150612cd383612bc5565b925082612ce357612ce2612d1d565b5b828206905092915050565b7f4e487b7100000000000000000000000000000000000000000000000000000000600052601160045260246000fd5b7f4e487b7100000000000000000000000000000000000000000000000000000000600052601260045260246000fd5b7f4e487b7100000000000000000000000000000000000000000000000000000000600052602260045260246000fd5b7f4e487b7100000000000000000000000000000000000000000000000000000000600052604160045260246000fd5b6000601f19601f8301169050919050565b7f4552433732313a207472616e7366657220746f206e6f6e20455243373231526560008201527f63656976657220696d706c656d656e7465720000000000000000000000000000602082015250565b7f4f776e61626c653a206e6577206f776e657220697320746865207a65726f206160008201527f6464726573730000000000000000000000000000000000000000000000000000602082015250565b7f4552433732313a207472616e736665722066726f6d20696e636f72726563742060008201527f6f776e6572000000000000000000000000000000000000000000000000000000602082015250565b7f4552433732313a20746f6b656e20616c7265616479206d696e74656400000000600082015250565b7f4552433732313a207472616e7366657220746f20746865207a65726f2061646460008201527f7265737300000000000000000000000000000000000000000000000000000000602082015250565b7f4552433732313a20617070726f766520746f2063616c6c657200000000000000600082015250565b7f4552433732313a206f70657261746f7220717565727920666f72206e6f6e657860008201527f697374656e7420746f6b656e0000000000000000000000000000000000000000602082015250565b7f4552433732313a20617070726f76652063616c6c6572206973206e6f74206f7760008201527f6e6572206e6f7220617070726f76656420666f7220616c6c0000000000000000602082015250565b7f4552433732313a2062616c616e636520717565727920666f7220746865207a6560008201527f726f206164647265737300000000000000000000000000000000000000000000602082015250565b7f4552433732313a206f776e657220717565727920666f72206e6f6e657869737460008201527f656e7420746f6b656e0000000000000000000000000000000000000000000000602082015250565b7f45524337323155524953746f726167653a2055524920736574206f66206e6f6e60008201527f6578697374656e7420746f6b656e000000000000000000000000000000000000602082015250565b7f4552433732313a206d696e7420746f20746865207a65726f2061646472657373600082015250565b7f45524337323155524953746f726167653a2055524920717565727920666f722060008201527f6e6f6e6578697374656e7420746f6b656e000000000000000000000000000000602082015250565b7f4552433732313a20617070726f76656420717565727920666f72206e6f6e657860008201527f697374656e7420746f6b656e0000000000000000000000000000000000000000602082015250565b7f4f776e61626c653a2063616c6c6572206973206e6f7420746865206f776e6572600082015250565b7f4552433732314d657461646174613a2055524920717565727920666f72206e6f60008201527f6e6578697374656e7420746f6b656e0000000000000000000000000000000000602082015250565b7f4552433732313a20617070726f76616c20746f2063757272656e74206f776e6560008201527f7200000000000000000000000000000000000000000000000000000000000000602082015250565b7f4552433732313a207472616e736665722063616c6c6572206973206e6f74206f60008201527f776e6572206e6f7220617070726f766564000000000000000000000000000000602082015250565b7f57726f6e672076616c75652073656e742e000000000000000000000000000000600082015250565b6132e381612b5b565b81146132ee57600080fd5b50565b6132fa81612b6d565b811461330557600080fd5b50565b61331181612b79565b811461331c57600080fd5b50565b61332881612bc5565b811461333357600080fd5b5056fea2646970667358221220bda10244b70b178ce1760b675cfccd0dc451b8db2332bde393997814c59baf4164736f6c63430008040033",
    "linkReferences": {},
    "deployedLinkReferences": {}
}