{
  "_format": "hh-sol-artifact-1",
  "contractName": "MusitNFT",
  "sourceName": "contracts/MusitNFT.sol",
  "contractAddress": "0x39f441ee7df95cBBa9c4ABc635C58444005e74DE",
  "abi": [
    {
      "inputs": [],
      "stateMutability": "nonpayable",
      "type": "constructor"
    },
    {
      "anonymous": false,
      "inputs": [
        {
          "indexed": true,
          "internalType": "address",
          "name": "owner",
          "type": "address"
        },
        {
          "indexed": true,
          "internalType": "address",
          "name": "approved",
          "type": "address"
        },
        {
          "indexed": true,
          "internalType": "uint256",
          "name": "tokenId",
          "type": "uint256"
        }
      ],
      "name": "Approval",
      "type": "event"
    },
    {
      "anonymous": false,
      "inputs": [
        {
          "indexed": true,
          "internalType": "address",
          "name": "owner",
          "type": "address"
        },
        {
          "indexed": true,
          "internalType": "address",
          "name": "operator",
          "type": "address"
        },
        {
          "indexed": false,
          "internalType": "bool",
          "name": "approved",
          "type": "bool"
        }
      ],
      "name": "ApprovalForAll",
      "type": "event"
    },
    {
      "anonymous": false,
      "inputs": [
        {
          "indexed": true,
          "internalType": "uint256",
          "name": "tokenId",
          "type": "uint256"
        },
        {
          "indexed": false,
          "internalType": "string",
          "name": "tokenURI",
          "type": "string"
        }
      ],
      "name": "MintMusitNFT",
      "type": "event"
    },
    {
      "anonymous": false,
      "inputs": [
        {
          "indexed": true,
          "internalType": "address",
          "name": "previousOwner",
          "type": "address"
        },
        {
          "indexed": true,
          "internalType": "address",
          "name": "newOwner",
          "type": "address"
        }
      ],
      "name": "OwnershipTransferred",
      "type": "event"
    },
    {
      "anonymous": false,
      "inputs": [
        {
          "indexed": true,
          "internalType": "address",
          "name": "from",
          "type": "address"
        },
        {
          "indexed": true,
          "internalType": "address",
          "name": "to",
          "type": "address"
        },
        {
          "indexed": true,
          "internalType": "uint256",
          "name": "tokenId",
          "type": "uint256"
        }
      ],
      "name": "Transfer",
      "type": "event"
    },
    {
      "inputs": [
        {
          "internalType": "address",
          "name": "to",
          "type": "address"
        },
        {
          "internalType": "uint256",
          "name": "tokenId",
          "type": "uint256"
        }
      ],
      "name": "approve",
      "outputs": [],
      "stateMutability": "nonpayable",
      "type": "function"
    },
    {
      "inputs": [
        {
          "internalType": "address",
          "name": "owner",
          "type": "address"
        }
      ],
      "name": "balanceOf",
      "outputs": [
        {
          "internalType": "uint256",
          "name": "",
          "type": "uint256"
        }
      ],
      "stateMutability": "view",
      "type": "function"
    },
    {
      "inputs": [
        {
          "internalType": "uint256",
          "name": "tokenId",
          "type": "uint256"
        }
      ],
      "name": "getApproved",
      "outputs": [
        {
          "internalType": "address",
          "name": "",
          "type": "address"
        }
      ],
      "stateMutability": "view",
      "type": "function"
    },
    {
      "inputs": [
        {
          "internalType": "address",
          "name": "owner",
          "type": "address"
        },
        {
          "internalType": "address",
          "name": "operator",
          "type": "address"
        }
      ],
      "name": "isApprovedForAll",
      "outputs": [
        {
          "internalType": "bool",
          "name": "",
          "type": "bool"
        }
      ],
      "stateMutability": "view",
      "type": "function"
    },
    {
      "inputs": [],
      "name": "isMintEnabled",
      "outputs": [
        {
          "internalType": "bool",
          "name": "",
          "type": "bool"
        }
      ],
      "stateMutability": "view",
      "type": "function"
    },
    {
      "inputs": [],
      "name": "maxMintsPerTx",
      "outputs": [
        {
          "internalType": "uint256",
          "name": "",
          "type": "uint256"
        }
      ],
      "stateMutability": "view",
      "type": "function"
    },
    {
      "inputs": [],
      "name": "maxMintsPerWallet",
      "outputs": [
        {
          "internalType": "uint256",
          "name": "",
          "type": "uint256"
        }
      ],
      "stateMutability": "view",
      "type": "function"
    },
    {
      "inputs": [],
      "name": "maxSupply",
      "outputs": [
        {
          "internalType": "uint256",
          "name": "",
          "type": "uint256"
        }
      ],
      "stateMutability": "view",
      "type": "function"
    },
    {
      "inputs": [],
      "name": "mintPrice",
      "outputs": [
        {
          "internalType": "uint256",
          "name": "",
          "type": "uint256"
        }
      ],
      "stateMutability": "view",
      "type": "function"
    },
    {
      "inputs": [
        {
          "internalType": "string",
          "name": "_tokenURI",
          "type": "string"
        }
      ],
      "name": "minting",
      "outputs": [],
      "stateMutability": "payable",
      "type": "function"
    },
    {
      "inputs": [],
      "name": "name",
      "outputs": [
        {
          "internalType": "string",
          "name": "",
          "type": "string"
        }
      ],
      "stateMutability": "view",
      "type": "function"
    },
    {
      "inputs": [],
      "name": "owner",
      "outputs": [
        {
          "internalType": "address",
          "name": "",
          "type": "address"
        }
      ],
      "stateMutability": "view",
      "type": "function"
    },
    {
      "inputs": [
        {
          "internalType": "uint256",
          "name": "tokenId",
          "type": "uint256"
        }
      ],
      "name": "ownerOf",
      "outputs": [
        {
          "internalType": "address",
          "name": "",
          "type": "address"
        }
      ],
      "stateMutability": "view",
      "type": "function"
    },
    {
      "inputs": [],
      "name": "renounceOwnership",
      "outputs": [],
      "stateMutability": "nonpayable",
      "type": "function"
    },
    {
      "inputs": [
        {
          "internalType": "address",
          "name": "from",
          "type": "address"
        },
        {
          "internalType": "address",
          "name": "to",
          "type": "address"
        },
        {
          "internalType": "uint256",
          "name": "tokenId",
          "type": "uint256"
        }
      ],
      "name": "safeTransferFrom",
      "outputs": [],
      "stateMutability": "nonpayable",
      "type": "function"
    },
    {
      "inputs": [
        {
          "internalType": "address",
          "name": "from",
          "type": "address"
        },
        {
          "internalType": "address",
          "name": "to",
          "type": "address"
        },
        {
          "internalType": "uint256",
          "name": "tokenId",
          "type": "uint256"
        },
        {
          "internalType": "bytes",
          "name": "_data",
          "type": "bytes"
        }
      ],
      "name": "safeTransferFrom",
      "outputs": [],
      "stateMutability": "nonpayable",
      "type": "function"
    },
    {
      "inputs": [
        {
          "internalType": "address",
          "name": "operator",
          "type": "address"
        },
        {
          "internalType": "bool",
          "name": "approved",
          "type": "bool"
        }
      ],
      "name": "setApprovalForAll",
      "outputs": [],
      "stateMutability": "nonpayable",
      "type": "function"
    },
    {
      "inputs": [
        {
          "internalType": "bool",
          "name": "_isMintEnabled",
          "type": "bool"
        }
      ],
      "name": "setIsMintEnabled",
      "outputs": [],
      "stateMutability": "nonpayable",
      "type": "function"
    },
    {
      "inputs": [
        {
          "internalType": "uint256",
          "name": "_maxMintPerTx",
          "type": "uint256"
        }
      ],
      "name": "setMaxMintsPerTx",
      "outputs": [],
      "stateMutability": "nonpayable",
      "type": "function"
    },
    {
      "inputs": [
        {
          "internalType": "uint256",
          "name": "_maxMintsPerWallet",
          "type": "uint256"
        }
      ],
      "name": "setMaxMintsPerWallet",
      "outputs": [],
      "stateMutability": "nonpayable",
      "type": "function"
    },
    {
      "inputs": [
        {
          "internalType": "uint256",
          "name": "_maxSupply",
          "type": "uint256"
        }
      ],
      "name": "setMaxSupply",
      "outputs": [],
      "stateMutability": "nonpayable",
      "type": "function"
    },
    {
      "inputs": [
        {
          "internalType": "uint256",
          "name": "_mintPrice",
          "type": "uint256"
        }
      ],
      "name": "setMintPrice",
      "outputs": [],
      "stateMutability": "nonpayable",
      "type": "function"
    },
    {
      "inputs": [
        {
          "internalType": "bytes4",
          "name": "interfaceId",
          "type": "bytes4"
        }
      ],
      "name": "supportsInterface",
      "outputs": [
        {
          "internalType": "bool",
          "name": "",
          "type": "bool"
        }
      ],
      "stateMutability": "view",
      "type": "function"
    },
    {
      "inputs": [],
      "name": "symbol",
      "outputs": [
        {
          "internalType": "string",
          "name": "",
          "type": "string"
        }
      ],
      "stateMutability": "view",
      "type": "function"
    },
    {
      "inputs": [
        {
          "internalType": "uint256",
          "name": "tokenId",
          "type": "uint256"
        }
      ],
      "name": "tokenURI",
      "outputs": [
        {
          "internalType": "string",
          "name": "",
          "type": "string"
        }
      ],
      "stateMutability": "view",
      "type": "function"
    },
    {
      "inputs": [],
      "name": "totalSupplied",
      "outputs": [
        {
          "internalType": "uint256",
          "name": "",
          "type": "uint256"
        }
      ],
      "stateMutability": "view",
      "type": "function"
    },
    {
      "inputs": [
        {
          "internalType": "address",
          "name": "from",
          "type": "address"
        },
        {
          "internalType": "address",
          "name": "to",
          "type": "address"
        },
        {
          "internalType": "uint256",
          "name": "tokenId",
          "type": "uint256"
        }
      ],
      "name": "transferFrom",
      "outputs": [],
      "stateMutability": "nonpayable",
      "type": "function"
    },
    {
      "inputs": [
        {
          "internalType": "address",
          "name": "newOwner",
          "type": "address"
        }
      ],
      "name": "transferOwnership",
      "outputs": [],
      "stateMutability": "nonpayable",
      "type": "function"
    }
  ],
  "bytecode": "0x60806040523480156200001157600080fd5b506040518060400160405280600981526020017f4d75736974204e465400000000000000000000000000000000000000000000008152506040518060400160405280600581526020017f4d55534954000000000000000000000000000000000000000000000000000000815250816000908051906020019062000096929190620001cd565b508060019080519060200190620000af929190620001cd565b505050620000d2620000c6620000ff60201b60201c565b6200010760201b60201c565b670de0b6b3a76400006008819055506014600a819055506002600b819055506001600c81905550620002e2565b600033905090565b6000600760009054906101000a900473ffffffffffffffffffffffffffffffffffffffff16905081600760006101000a81548173ffffffffffffffffffffffffffffffffffffffff021916908373ffffffffffffffffffffffffffffffffffffffff1602179055508173ffffffffffffffffffffffffffffffffffffffff168173ffffffffffffffffffffffffffffffffffffffff167f8be0079c531659141344cd1fd0a4f28419497f9722a3daafe3b4186f6b6457e060405160405180910390a35050565b828054620001db906200027d565b90600052602060002090601f016020900481019282620001ff57600085556200024b565b82601f106200021a57805160ff19168380011785556200024b565b828001600101855582156200024b579182015b828111156200024a5782518255916020019190600101906200022d565b5b5090506200025a91906200025e565b5090565b5b80821115620002795760008160009055506001016200025f565b5090565b600060028204905060018216806200029657607f821691505b60208210811415620002ad57620002ac620002b3565b5b50919050565b7f4e487b7100000000000000000000000000000000000000000000000000000000600052602260045260246000fd5b61395a80620002f26000396000f3fe6080604052600436106101b75760003560e01c806370a08231116100ec578063c87b56dd1161008a578063e985e9c511610064578063e985e9c5146105e9578063f2fde38b14610626578063f4a0a5281461064f578063f516a2e614610678576101b7565b8063c87b56dd14610556578063d5abeb0114610593578063dc30158b146105be576101b7565b806395d89b41116100c657806395d89b41146104b0578063963c3546146104db578063a22cb46514610504578063b88d4fde1461052d576101b7565b806370a0823114610431578063715018a61461046e5780638da5cb5b14610485576101b7565b8063346de50a11610159578063630fd0ac11610133578063630fd0ac146103755780636352211e146103a05780636817c76c146103dd5780636f8b44b014610408576101b7565b8063346de50a146102f857806342842e0e146103235780634de8bcfb1461034c576101b7565b8063095ea7b311610195578063095ea7b3146102615780630bdc90081461028a578063174da4a2146102a657806323b872dd146102cf576101b7565b806301ffc9a7146101bc57806306fdde03146101f9578063081812fc14610224575b600080fd5b3480156101c857600080fd5b506101e360048036038101906101de9190612718565b6106a3565b6040516101f09190612c31565b60405180910390f35b34801561020557600080fd5b5061020e610785565b60405161021b9190612c4c565b60405180910390f35b34801561023057600080fd5b5061024b600480360381019061024691906127ab565b610817565b6040516102589190612bca565b60405180910390f35b34801561026d57600080fd5b50610288600480360381019061028391906126b3565b61089c565b005b6102a4600480360381019061029f919061276a565b6109b4565b005b3480156102b257600080fd5b506102cd60048036038101906102c891906127ab565b610b81565b005b3480156102db57600080fd5b506102f660048036038101906102f191906125ad565b610c07565b005b34801561030457600080fd5b5061030d610c67565b60405161031a9190612c31565b60405180910390f35b34801561032f57600080fd5b5061034a600480360381019061034591906125ad565b610c7a565b005b34801561035857600080fd5b50610373600480360381019061036e91906126ef565b610c9a565b005b34801561038157600080fd5b5061038a610d33565b6040516103979190612f2e565b60405180910390f35b3480156103ac57600080fd5b506103c760048036038101906103c291906127ab565b610d39565b6040516103d49190612bca565b60405180910390f35b3480156103e957600080fd5b506103f2610deb565b6040516103ff9190612f2e565b60405180910390f35b34801561041457600080fd5b5061042f600480360381019061042a91906127ab565b610df1565b005b34801561043d57600080fd5b5061045860048036038101906104539190612548565b610e77565b6040516104659190612f2e565b60405180910390f35b34801561047a57600080fd5b50610483610f2f565b005b34801561049157600080fd5b5061049a610fb7565b6040516104a79190612bca565b60405180910390f35b3480156104bc57600080fd5b506104c5610fe1565b6040516104d29190612c4c565b60405180910390f35b3480156104e757600080fd5b5061050260048036038101906104fd91906127ab565b611073565b005b34801561051057600080fd5b5061052b60048036038101906105269190612677565b6110f9565b005b34801561053957600080fd5b50610554600480360381019061054f91906125fc565b61110f565b005b34801561056257600080fd5b5061057d600480360381019061057891906127ab565b611171565b60405161058a9190612c4c565b60405180910390f35b34801561059f57600080fd5b506105a86112c3565b6040516105b59190612f2e565b60405180910390f35b3480156105ca57600080fd5b506105d36112c9565b6040516105e09190612f2e565b60405180910390f35b3480156105f557600080fd5b50610610600480360381019061060b9190612571565b6112cf565b60405161061d9190612c31565b60405180910390f35b34801561063257600080fd5b5061064d60048036038101906106489190612548565b611363565b005b34801561065b57600080fd5b50610676600480360381019061067191906127ab565b61145b565b005b34801561068457600080fd5b5061068d6114e1565b60405161069a9190612f2e565b60405180910390f35b60007f80ac58cd000000000000000000000000000000000000000000000000000000007bffffffffffffffffffffffffffffffffffffffffffffffffffffffff1916827bffffffffffffffffffffffffffffffffffffffffffffffffffffffff1916148061076e57507f5b5e139f000000000000000000000000000000000000000000000000000000007bffffffffffffffffffffffffffffffffffffffffffffffffffffffff1916827bffffffffffffffffffffffffffffffffffffffffffffffffffffffff1916145b8061077e575061077d826114e7565b5b9050919050565b60606000805461079490613184565b80601f01602080910402602001604051908101604052809291908181526020018280546107c090613184565b801561080d5780601f106107e25761010080835404028352916020019161080d565b820191906000526020600020905b8154815290600101906020018083116107f057829003601f168201915b5050505050905090565b600061082282611551565b610861576040517f08c379a000000000000000000000000000000000000000000000000000000000815260040161085890612e2e565b60405180910390fd5b6004600083815260200190815260200160002060009054906101000a900473ffffffffffffffffffffffffffffffffffffffff169050919050565b60006108a782610d39565b90508073ffffffffffffffffffffffffffffffffffffffff168373ffffffffffffffffffffffffffffffffffffffff161415610918576040517f08c379a000000000000000000000000000000000000000000000000000000000815260040161090f90612eae565b60405180910390fd5b8073ffffffffffffffffffffffffffffffffffffffff166109376115bd565b73ffffffffffffffffffffffffffffffffffffffff1614806109665750610965816109606115bd565b6112cf565b5b6109a5576040517f08c379a000000000000000000000000000000000000000000000000000000000815260040161099c90612d4e565b60405180910390fd5b6109af83836115c5565b505050565b600d60009054906101000a900460ff16610a03576040517f08c379a00000000000000000000000000000000000000000000000000000000081526004016109fa90612e4e565b60405180910390fd5b6008543414610a47576040517f08c379a0000000000000000000000000000000000000000000000000000000008152600401610a3e90612eee565b60405180910390fd5b600a546009541115610a8e576040517f08c379a0000000000000000000000000000000000000000000000000000000008152600401610a8590612f0e565b60405180910390fd5b600b54600f60003373ffffffffffffffffffffffffffffffffffffffff1673ffffffffffffffffffffffffffffffffffffffff168152602001908152602001600020541115610b12576040517f08c379a0000000000000000000000000000000000000000000000000000000008152600401610b0990612dce565b60405180910390fd5b610b1c600e61167e565b6000610b28600e611694565b9050610b3433826116a2565b610b3e81836116c0565b807ff187509bab10aaa430566197a379d21d0b15e1292d3957a948057bc7dc30278283604051610b6e9190612c4c565b60405180910390a2806009819055505050565b610b896115bd565b73ffffffffffffffffffffffffffffffffffffffff16610ba7610fb7565b73ffffffffffffffffffffffffffffffffffffffff1614610bfd576040517f08c379a0000000000000000000000000000000000000000000000000000000008152600401610bf490612e6e565b60405180910390fd5b80600c8190555050565b610c18610c126115bd565b82611734565b610c57576040517f08c379a0000000000000000000000000000000000000000000000000000000008152600401610c4e90612ece565b60405180910390fd5b610c62838383611812565b505050565b600d60009054906101000a900460ff1681565b610c958383836040518060200160405280600081525061110f565b505050565b610ca26115bd565b73ffffffffffffffffffffffffffffffffffffffff16610cc0610fb7565b73ffffffffffffffffffffffffffffffffffffffff1614610d16576040517f08c379a0000000000000000000000000000000000000000000000000000000008152600401610d0d90612e6e565b60405180910390fd5b80600d60006101000a81548160ff02191690831515021790555050565b60095481565b6000806002600084815260200190815260200160002060009054906101000a900473ffffffffffffffffffffffffffffffffffffffff169050600073ffffffffffffffffffffffffffffffffffffffff168173ffffffffffffffffffffffffffffffffffffffff161415610de2576040517f08c379a0000000000000000000000000000000000000000000000000000000008152600401610dd990612d8e565b60405180910390fd5b80915050919050565b60085481565b610df96115bd565b73ffffffffffffffffffffffffffffffffffffffff16610e17610fb7565b73ffffffffffffffffffffffffffffffffffffffff1614610e6d576040517f08c379a0000000000000000000000000000000000000000000000000000000008152600401610e6490612e6e565b60405180910390fd5b80600a8190555050565b60008073ffffffffffffffffffffffffffffffffffffffff168273ffffffffffffffffffffffffffffffffffffffff161415610ee8576040517f08c379a0000000000000000000000000000000000000000000000000000000008152600401610edf90612d6e565b60405180910390fd5b600360008373ffffffffffffffffffffffffffffffffffffffff1673ffffffffffffffffffffffffffffffffffffffff168152602001908152602001600020549050919050565b610f376115bd565b73ffffffffffffffffffffffffffffffffffffffff16610f55610fb7565b73ffffffffffffffffffffffffffffffffffffffff1614610fab576040517f08c379a0000000000000000000000000000000000000000000000000000000008152600401610fa290612e6e565b60405180910390fd5b610fb56000611a79565b565b6000600760009054906101000a900473ffffffffffffffffffffffffffffffffffffffff16905090565b606060018054610ff090613184565b80601f016020809104026020016040519081016040528092919081815260200182805461101c90613184565b80156110695780601f1061103e57610100808354040283529160200191611069565b820191906000526020600020905b81548152906001019060200180831161104c57829003601f168201915b5050505050905090565b61107b6115bd565b73ffffffffffffffffffffffffffffffffffffffff16611099610fb7565b73ffffffffffffffffffffffffffffffffffffffff16146110ef576040517f08c379a00000000000000000000000000000000000000000000000000000000081526004016110e690612e6e565b60405180910390fd5b80600b8190555050565b61110b6111046115bd565b8383611b3f565b5050565b61112061111a6115bd565b83611734565b61115f576040517f08c379a000000000000000000000000000000000000000000000000000000000815260040161115690612ece565b60405180910390fd5b61116b84848484611cac565b50505050565b606061117c82611551565b6111bb576040517f08c379a00000000000000000000000000000000000000000000000000000000081526004016111b290612e0e565b60405180910390fd5b60006006600084815260200190815260200160002080546111db90613184565b80601f016020809104026020016040519081016040528092919081815260200182805461120790613184565b80156112545780601f1061122957610100808354040283529160200191611254565b820191906000526020600020905b81548152906001019060200180831161123757829003601f168201915b505050505090506000611265611d08565b905060008151141561127b5781925050506112be565b6000825111156112b0578082604051602001611298929190612ba6565b604051602081830303815290604052925050506112be565b6112b984611d1f565b925050505b919050565b600a5481565b600c5481565b6000600560008473ffffffffffffffffffffffffffffffffffffffff1673ffffffffffffffffffffffffffffffffffffffff16815260200190815260200160002060008373ffffffffffffffffffffffffffffffffffffffff1673ffffffffffffffffffffffffffffffffffffffff16815260200190815260200160002060009054906101000a900460ff16905092915050565b61136b6115bd565b73ffffffffffffffffffffffffffffffffffffffff16611389610fb7565b73ffffffffffffffffffffffffffffffffffffffff16146113df576040517f08c379a00000000000000000000000000000000000000000000000000000000081526004016113d690612e6e565b60405180910390fd5b600073ffffffffffffffffffffffffffffffffffffffff168173ffffffffffffffffffffffffffffffffffffffff16141561144f576040517f08c379a000000000000000000000000000000000000000000000000000000000815260040161144690612c8e565b60405180910390fd5b61145881611a79565b50565b6114636115bd565b73ffffffffffffffffffffffffffffffffffffffff16611481610fb7565b73ffffffffffffffffffffffffffffffffffffffff16146114d7576040517f08c379a00000000000000000000000000000000000000000000000000000000081526004016114ce90612e6e565b60405180910390fd5b8060088190555050565b600b5481565b60007f01ffc9a7000000000000000000000000000000000000000000000000000000007bffffffffffffffffffffffffffffffffffffffffffffffffffffffff1916827bffffffffffffffffffffffffffffffffffffffffffffffffffffffff1916149050919050565b60008073ffffffffffffffffffffffffffffffffffffffff166002600084815260200190815260200160002060009054906101000a900473ffffffffffffffffffffffffffffffffffffffff1673ffffffffffffffffffffffffffffffffffffffff1614159050919050565b600033905090565b816004600083815260200190815260200160002060006101000a81548173ffffffffffffffffffffffffffffffffffffffff021916908373ffffffffffffffffffffffffffffffffffffffff160217905550808273ffffffffffffffffffffffffffffffffffffffff1661163883610d39565b73ffffffffffffffffffffffffffffffffffffffff167f8c5be1e5ebec7d5bd14f71427d1e84f3dd0314c0f7b2291e5b200ac8c7c3b92560405160405180910390a45050565b6001816000016000828254019250508190555050565b600081600001549050919050565b6116bc828260405180602001604052806000815250611dc6565b5050565b6116c982611551565b611708576040517f08c379a00000000000000000000000000000000000000000000000000000000081526004016116ff90612dae565b60405180910390fd5b8060066000848152602001908152602001600020908051906020019061172f92919061236c565b505050565b600061173f82611551565b61177e576040517f08c379a000000000000000000000000000000000000000000000000000000000815260040161177590612d2e565b60405180910390fd5b600061178983610d39565b90508073ffffffffffffffffffffffffffffffffffffffff168473ffffffffffffffffffffffffffffffffffffffff1614806117f857508373ffffffffffffffffffffffffffffffffffffffff166117e084610817565b73ffffffffffffffffffffffffffffffffffffffff16145b80611809575061180881856112cf565b5b91505092915050565b8273ffffffffffffffffffffffffffffffffffffffff1661183282610d39565b73ffffffffffffffffffffffffffffffffffffffff1614611888576040517f08c379a000000000000000000000000000000000000000000000000000000000815260040161187f90612cae565b60405180910390fd5b600073ffffffffffffffffffffffffffffffffffffffff168273ffffffffffffffffffffffffffffffffffffffff1614156118f8576040517f08c379a00000000000000000000000000000000000000000000000000000000081526004016118ef90612cee565b60405180910390fd5b611903838383611e21565b61190e6000826115c5565b6001600360008573ffffffffffffffffffffffffffffffffffffffff1673ffffffffffffffffffffffffffffffffffffffff168152602001908152602001600020600082825461195e919061309a565b925050819055506001600360008473ffffffffffffffffffffffffffffffffffffffff1673ffffffffffffffffffffffffffffffffffffffff16815260200190815260200160002060008282546119b59190613013565b92505081905550816002600083815260200190815260200160002060006101000a81548173ffffffffffffffffffffffffffffffffffffffff021916908373ffffffffffffffffffffffffffffffffffffffff160217905550808273ffffffffffffffffffffffffffffffffffffffff168473ffffffffffffffffffffffffffffffffffffffff167fddf252ad1be2c89b69c2b068fc378daa952ba7f163c4a11628f55a4df523b3ef60405160405180910390a4611a74838383611e26565b505050565b6000600760009054906101000a900473ffffffffffffffffffffffffffffffffffffffff16905081600760006101000a81548173ffffffffffffffffffffffffffffffffffffffff021916908373ffffffffffffffffffffffffffffffffffffffff1602179055508173ffffffffffffffffffffffffffffffffffffffff168173ffffffffffffffffffffffffffffffffffffffff167f8be0079c531659141344cd1fd0a4f28419497f9722a3daafe3b4186f6b6457e060405160405180910390a35050565b8173ffffffffffffffffffffffffffffffffffffffff168373ffffffffffffffffffffffffffffffffffffffff161415611bae576040517f08c379a0000000000000000000000000000000000000000000000000000000008152600401611ba590612d0e565b60405180910390fd5b80600560008573ffffffffffffffffffffffffffffffffffffffff1673ffffffffffffffffffffffffffffffffffffffff16815260200190815260200160002060008473ffffffffffffffffffffffffffffffffffffffff1673ffffffffffffffffffffffffffffffffffffffff16815260200190815260200160002060006101000a81548160ff0219169083151502179055508173ffffffffffffffffffffffffffffffffffffffff168373ffffffffffffffffffffffffffffffffffffffff167f17307eab39ab6107e8899845ad3d59bd9653f200f220920489ca2b5937696c3183604051611c9f9190612c31565b60405180910390a3505050565b611cb7848484611812565b611cc384848484611e2b565b611d02576040517f08c379a0000000000000000000000000000000000000000000000000000000008152600401611cf990612c6e565b60405180910390fd5b50505050565b606060405180602001604052806000815250905090565b6060611d2a82611551565b611d69576040517f08c379a0000000000000000000000000000000000000000000000000000000008152600401611d6090612e8e565b60405180910390fd5b6000611d73611d08565b90506000815111611d935760405180602001604052806000815250611dbe565b80611d9d84611fc2565b604051602001611dae929190612ba6565b6040516020818303038152906040525b915050919050565b611dd0838361216f565b611ddd6000848484611e2b565b611e1c576040517f08c379a0000000000000000000000000000000000000000000000000000000008152600401611e1390612c6e565b60405180910390fd5b505050565b505050565b505050565b6000611e4c8473ffffffffffffffffffffffffffffffffffffffff16612349565b15611fb5578373ffffffffffffffffffffffffffffffffffffffff1663150b7a02611e756115bd565b8786866040518563ffffffff1660e01b8152600401611e979493929190612be5565b602060405180830381600087803b158015611eb157600080fd5b505af1925050508015611ee257506040513d601f19601f82011682018060405250810190611edf9190612741565b60015b611f65573d8060008114611f12576040519150601f19603f3d011682016040523d82523d6000602084013e611f17565b606091505b50600081511415611f5d576040517f08c379a0000000000000000000000000000000000000000000000000000000008152600401611f5490612c6e565b60405180910390fd5b805181602001fd5b63150b7a0260e01b7bffffffffffffffffffffffffffffffffffffffffffffffffffffffff1916817bffffffffffffffffffffffffffffffffffffffffffffffffffffffff191614915050611fba565b600190505b949350505050565b6060600082141561200a576040518060400160405280600181526020017f3000000000000000000000000000000000000000000000000000000000000000815250905061216a565b600082905060005b6000821461203c578080612025906131e7565b915050600a826120359190613069565b9150612012565b60008167ffffffffffffffff81111561207e577f4e487b7100000000000000000000000000000000000000000000000000000000600052604160045260246000fd5b6040519080825280601f01601f1916602001820160405280156120b05781602001600182028036833780820191505090505b5090505b60008514612163576001826120c9919061309a565b9150600a856120d89190613230565b60306120e49190613013565b60f81b818381518110612120577f4e487b7100000000000000000000000000000000000000000000000000000000600052603260045260246000fd5b60200101907effffffffffffffffffffffffffffffffffffffffffffffffffffffffffffff1916908160001a905350600a8561215c9190613069565b94506120b4565b8093505050505b919050565b600073ffffffffffffffffffffffffffffffffffffffff168273ffffffffffffffffffffffffffffffffffffffff1614156121df576040517f08c379a00000000000000000000000000000000000000000000000000000000081526004016121d690612dee565b60405180910390fd5b6121e881611551565b15612228576040517f08c379a000000000000000000000000000000000000000000000000000000000815260040161221f90612cce565b60405180910390fd5b61223460008383611e21565b6001600360008473ffffffffffffffffffffffffffffffffffffffff1673ffffffffffffffffffffffffffffffffffffffff16815260200190815260200160002060008282546122849190613013565b92505081905550816002600083815260200190815260200160002060006101000a81548173ffffffffffffffffffffffffffffffffffffffff021916908373ffffffffffffffffffffffffffffffffffffffff160217905550808273ffffffffffffffffffffffffffffffffffffffff16600073ffffffffffffffffffffffffffffffffffffffff167fddf252ad1be2c89b69c2b068fc378daa952ba7f163c4a11628f55a4df523b3ef60405160405180910390a461234560008383611e26565b5050565b6000808273ffffffffffffffffffffffffffffffffffffffff163b119050919050565b82805461237890613184565b90600052602060002090601f01602090048101928261239a57600085556123e1565b82601f106123b357805160ff19168380011785556123e1565b828001600101855582156123e1579182015b828111156123e05782518255916020019190600101906123c5565b5b5090506123ee91906123f2565b5090565b5b8082111561240b5760008160009055506001016123f3565b5090565b600061242261241d84612f6e565b612f49565b90508281526020810184848401111561243a57600080fd5b612445848285613142565b509392505050565b600061246061245b84612f9f565b612f49565b90508281526020810184848401111561247857600080fd5b612483848285613142565b509392505050565b60008135905061249a816138c8565b92915050565b6000813590506124af816138df565b92915050565b6000813590506124c4816138f6565b92915050565b6000815190506124d9816138f6565b92915050565b600082601f8301126124f057600080fd5b813561250084826020860161240f565b91505092915050565b600082601f83011261251a57600080fd5b813561252a84826020860161244d565b91505092915050565b6000813590506125428161390d565b92915050565b60006020828403121561255a57600080fd5b60006125688482850161248b565b91505092915050565b6000806040838503121561258457600080fd5b60006125928582860161248b565b92505060206125a38582860161248b565b9150509250929050565b6000806000606084860312156125c257600080fd5b60006125d08682870161248b565b93505060206125e18682870161248b565b92505060406125f286828701612533565b9150509250925092565b6000806000806080858703121561261257600080fd5b60006126208782880161248b565b94505060206126318782880161248b565b935050604061264287828801612533565b925050606085013567ffffffffffffffff81111561265f57600080fd5b61266b878288016124df565b91505092959194509250565b6000806040838503121561268a57600080fd5b60006126988582860161248b565b92505060206126a9858286016124a0565b9150509250929050565b600080604083850312156126c657600080fd5b60006126d48582860161248b565b92505060206126e585828601612533565b9150509250929050565b60006020828403121561270157600080fd5b600061270f848285016124a0565b91505092915050565b60006020828403121561272a57600080fd5b6000612738848285016124b5565b91505092915050565b60006020828403121561275357600080fd5b6000612761848285016124ca565b91505092915050565b60006020828403121561277c57600080fd5b600082013567ffffffffffffffff81111561279657600080fd5b6127a284828501612509565b91505092915050565b6000602082840312156127bd57600080fd5b60006127cb84828501612533565b91505092915050565b6127dd816130ce565b82525050565b6127ec816130e0565b82525050565b60006127fd82612fd0565b6128078185612fe6565b9350612817818560208601613151565b6128208161331d565b840191505092915050565b600061283682612fdb565b6128408185612ff7565b9350612850818560208601613151565b6128598161331d565b840191505092915050565b600061286f82612fdb565b6128798185613008565b9350612889818560208601613151565b80840191505092915050565b60006128a2603283612ff7565b91506128ad8261332e565b604082019050919050565b60006128c5602683612ff7565b91506128d08261337d565b604082019050919050565b60006128e8602583612ff7565b91506128f3826133cc565b604082019050919050565b600061290b601c83612ff7565b91506129168261341b565b602082019050919050565b600061292e602483612ff7565b915061293982613444565b604082019050919050565b6000612951601983612ff7565b915061295c82613493565b602082019050919050565b6000612974602c83612ff7565b915061297f826134bc565b604082019050919050565b6000612997603883612ff7565b91506129a28261350b565b604082019050919050565b60006129ba602a83612ff7565b91506129c58261355a565b604082019050919050565b60006129dd602983612ff7565b91506129e8826135a9565b604082019050919050565b6000612a00602e83612ff7565b9150612a0b826135f8565b604082019050919050565b6000612a23601483612ff7565b9150612a2e82613647565b602082019050919050565b6000612a46602083612ff7565b9150612a5182613670565b602082019050919050565b6000612a69603183612ff7565b9150612a7482613699565b604082019050919050565b6000612a8c602c83612ff7565b9150612a97826136e8565b604082019050919050565b6000612aaf601f83612ff7565b9150612aba82613737565b602082019050919050565b6000612ad2602083612ff7565b9150612add82613760565b602082019050919050565b6000612af5602f83612ff7565b9150612b0082613789565b604082019050919050565b6000612b18602183612ff7565b9150612b23826137d8565b604082019050919050565b6000612b3b603183612ff7565b9150612b4682613827565b604082019050919050565b6000612b5e601183612ff7565b9150612b6982613876565b602082019050919050565b6000612b81600a83612ff7565b9150612b8c8261389f565b602082019050919050565b612ba081613138565b82525050565b6000612bb28285612864565b9150612bbe8284612864565b91508190509392505050565b6000602082019050612bdf60008301846127d4565b92915050565b6000608082019050612bfa60008301876127d4565b612c0760208301866127d4565b612c146040830185612b97565b8181036060830152612c2681846127f2565b905095945050505050565b6000602082019050612c4660008301846127e3565b92915050565b60006020820190508181036000830152612c66818461282b565b905092915050565b60006020820190508181036000830152612c8781612895565b9050919050565b60006020820190508181036000830152612ca7816128b8565b9050919050565b60006020820190508181036000830152612cc7816128db565b9050919050565b60006020820190508181036000830152612ce7816128fe565b9050919050565b60006020820190508181036000830152612d0781612921565b9050919050565b60006020820190508181036000830152612d2781612944565b9050919050565b60006020820190508181036000830152612d4781612967565b9050919050565b60006020820190508181036000830152612d678161298a565b9050919050565b60006020820190508181036000830152612d87816129ad565b9050919050565b60006020820190508181036000830152612da7816129d0565b9050919050565b60006020820190508181036000830152612dc7816129f3565b9050919050565b60006020820190508181036000830152612de781612a16565b9050919050565b60006020820190508181036000830152612e0781612a39565b9050919050565b60006020820190508181036000830152612e2781612a5c565b9050919050565b60006020820190508181036000830152612e4781612a7f565b9050919050565b60006020820190508181036000830152612e6781612aa2565b9050919050565b60006020820190508181036000830152612e8781612ac5565b9050919050565b60006020820190508181036000830152612ea781612ae8565b9050919050565b60006020820190508181036000830152612ec781612b0b565b9050919050565b60006020820190508181036000830152612ee781612b2e565b9050919050565b60006020820190508181036000830152612f0781612b51565b9050919050565b60006020820190508181036000830152612f2781612b74565b9050919050565b6000602082019050612f436000830184612b97565b92915050565b6000612f53612f64565b9050612f5f82826131b6565b919050565b6000604051905090565b600067ffffffffffffffff821115612f8957612f886132ee565b5b612f928261331d565b9050602081019050919050565b600067ffffffffffffffff821115612fba57612fb96132ee565b5b612fc38261331d565b9050602081019050919050565b600081519050919050565b600081519050919050565b600082825260208201905092915050565b600082825260208201905092915050565b600081905092915050565b600061301e82613138565b915061302983613138565b9250827fffffffffffffffffffffffffffffffffffffffffffffffffffffffffffffffff0382111561305e5761305d613261565b5b828201905092915050565b600061307482613138565b915061307f83613138565b92508261308f5761308e613290565b5b828204905092915050565b60006130a582613138565b91506130b083613138565b9250828210156130c3576130c2613261565b5b828203905092915050565b60006130d982613118565b9050919050565b60008115159050919050565b60007fffffffff0000000000000000000000000000000000000000000000000000000082169050919050565b600073ffffffffffffffffffffffffffffffffffffffff82169050919050565b6000819050919050565b82818337600083830152505050565b60005b8381101561316f578082015181840152602081019050613154565b8381111561317e576000848401525b50505050565b6000600282049050600182168061319c57607f821691505b602082108114156131b0576131af6132bf565b5b50919050565b6131bf8261331d565b810181811067ffffffffffffffff821117156131de576131dd6132ee565b5b80604052505050565b60006131f282613138565b91507fffffffffffffffffffffffffffffffffffffffffffffffffffffffffffffffff82141561322557613224613261565b5b600182019050919050565b600061323b82613138565b915061324683613138565b92508261325657613255613290565b5b828206905092915050565b7f4e487b7100000000000000000000000000000000000000000000000000000000600052601160045260246000fd5b7f4e487b7100000000000000000000000000000000000000000000000000000000600052601260045260246000fd5b7f4e487b7100000000000000000000000000000000000000000000000000000000600052602260045260246000fd5b7f4e487b7100000000000000000000000000000000000000000000000000000000600052604160045260246000fd5b6000601f19601f8301169050919050565b7f4552433732313a207472616e7366657220746f206e6f6e20455243373231526560008201527f63656976657220696d706c656d656e7465720000000000000000000000000000602082015250565b7f4f776e61626c653a206e6577206f776e657220697320746865207a65726f206160008201527f6464726573730000000000000000000000000000000000000000000000000000602082015250565b7f4552433732313a207472616e736665722066726f6d20696e636f72726563742060008201527f6f776e6572000000000000000000000000000000000000000000000000000000602082015250565b7f4552433732313a20746f6b656e20616c7265616479206d696e74656400000000600082015250565b7f4552433732313a207472616e7366657220746f20746865207a65726f2061646460008201527f7265737300000000000000000000000000000000000000000000000000000000602082015250565b7f4552433732313a20617070726f766520746f2063616c6c657200000000000000600082015250565b7f4552433732313a206f70657261746f7220717565727920666f72206e6f6e657860008201527f697374656e7420746f6b656e0000000000000000000000000000000000000000602082015250565b7f4552433732313a20617070726f76652063616c6c6572206973206e6f74206f7760008201527f6e6572206e6f7220617070726f76656420666f7220616c6c0000000000000000602082015250565b7f4552433732313a2062616c616e636520717565727920666f7220746865207a6560008201527f726f206164647265737300000000000000000000000000000000000000000000602082015250565b7f4552433732313a206f776e657220717565727920666f72206e6f6e657869737460008201527f656e7420746f6b656e0000000000000000000000000000000000000000000000602082015250565b7f45524337323155524953746f726167653a2055524920736574206f66206e6f6e60008201527f6578697374656e7420746f6b656e000000000000000000000000000000000000602082015250565b7f45786365656420746f74616c20737570706c792e000000000000000000000000600082015250565b7f4552433732313a206d696e7420746f20746865207a65726f2061646472657373600082015250565b7f45524337323155524953746f726167653a2055524920717565727920666f722060008201527f6e6f6e6578697374656e7420746f6b656e000000000000000000000000000000602082015250565b7f4552433732313a20617070726f76656420717565727920666f72206e6f6e657860008201527f697374656e7420746f6b656e0000000000000000000000000000000000000000602082015250565b7f4d696e742073797374656d206973206e6f7420656e61626c6564207965742e00600082015250565b7f4f776e61626c653a2063616c6c6572206973206e6f7420746865206f776e6572600082015250565b7f4552433732314d657461646174613a2055524920717565727920666f72206e6f60008201527f6e6578697374656e7420746f6b656e0000000000000000000000000000000000602082015250565b7f4552433732313a20617070726f76616c20746f2063757272656e74206f776e6560008201527f7200000000000000000000000000000000000000000000000000000000000000602082015250565b7f4552433732313a207472616e736665722063616c6c6572206973206e6f74206f60008201527f776e6572206e6f7220617070726f766564000000000000000000000000000000602082015250565b7f57726f6e672076616c75652073656e742e000000000000000000000000000000600082015250565b7f20536f6c64206f75742100000000000000000000000000000000000000000000600082015250565b6138d1816130ce565b81146138dc57600080fd5b50565b6138e8816130e0565b81146138f357600080fd5b50565b6138ff816130ec565b811461390a57600080fd5b50565b61391681613138565b811461392157600080fd5b5056fea26469706673582212209edebc343e0017c145c5429387a4d3875262570cf0fef8334dd7c490dfd398db64736f6c63430008040033",
  "linkReferences": {},
  "deployedLinkReferences": {}
}