{
    "contractAddress": "0xc6e7DF5E7b4f2A278906862b61205850344D4e7d",
    "_format": "hh-sol-artifact-1",
    "contractName": "MusitNFT",
    "sourceName": "contracts/MusitNFT.sol",
    "abi": [
        {
            "inputs": [],
            "stateMutability": "nonpayable",
            "type": "constructor"
        },
        {
            "anonymous": false,
            "inputs": [
                {
                    "indexed": true,
                    "internalType": "address",
                    "name": "owner",
                    "type": "address"
                },
                {
                    "indexed": true,
                    "internalType": "address",
                    "name": "approved",
                    "type": "address"
                },
                {
                    "indexed": true,
                    "internalType": "uint256",
                    "name": "tokenId",
                    "type": "uint256"
                }
            ],
            "name": "Approval",
            "type": "event"
        },
        {
            "anonymous": false,
            "inputs": [
                {
                    "indexed": true,
                    "internalType": "address",
                    "name": "owner",
                    "type": "address"
                },
                {
                    "indexed": true,
                    "internalType": "address",
                    "name": "operator",
                    "type": "address"
                },
                {
                    "indexed": false,
                    "internalType": "bool",
                    "name": "approved",
                    "type": "bool"
                }
            ],
            "name": "ApprovalForAll",
            "type": "event"
        },
        {
            "anonymous": false,
            "inputs": [
                {
                    "indexed": true,
                    "internalType": "uint256",
                    "name": "tokenId",
                    "type": "uint256"
                },
                {
                    "indexed": false,
                    "internalType": "string",
                    "name": "tokenURI",
                    "type": "string"
                }
            ],
            "name": "MintMusitNFT",
            "type": "event"
        },
        {
            "anonymous": false,
            "inputs": [
                {
                    "indexed": true,
                    "internalType": "address",
                    "name": "previousOwner",
                    "type": "address"
                },
                {
                    "indexed": true,
                    "internalType": "address",
                    "name": "newOwner",
                    "type": "address"
                }
            ],
            "name": "OwnershipTransferred",
            "type": "event"
        },
        {
            "anonymous": false,
            "inputs": [
                {
                    "indexed": true,
                    "internalType": "address",
                    "name": "from",
                    "type": "address"
                },
                {
                    "indexed": true,
                    "internalType": "address",
                    "name": "to",
                    "type": "address"
                },
                {
                    "indexed": true,
                    "internalType": "uint256",
                    "name": "tokenId",
                    "type": "uint256"
                }
            ],
            "name": "Transfer",
            "type": "event"
        },
        {
            "inputs": [
                {
                    "internalType": "address",
                    "name": "to",
                    "type": "address"
                },
                {
                    "internalType": "uint256",
                    "name": "tokenId",
                    "type": "uint256"
                }
            ],
            "name": "approve",
            "outputs": [],
            "stateMutability": "nonpayable",
            "type": "function"
        },
        {
            "inputs": [
                {
                    "internalType": "address",
                    "name": "owner",
                    "type": "address"
                }
            ],
            "name": "balanceOf",
            "outputs": [
                {
                    "internalType": "uint256",
                    "name": "",
                    "type": "uint256"
                }
            ],
            "stateMutability": "view",
            "type": "function"
        },
        {
            "inputs": [
                {
                    "internalType": "uint256",
                    "name": "tokenId",
                    "type": "uint256"
                }
            ],
            "name": "getApproved",
            "outputs": [
                {
                    "internalType": "address",
                    "name": "",
                    "type": "address"
                }
            ],
            "stateMutability": "view",
            "type": "function"
        },
        {
            "inputs": [],
            "name": "getMintsPerWallet",
            "outputs": [
                {
                    "internalType": "uint256",
                    "name": "",
                    "type": "uint256"
                }
            ],
            "stateMutability": "view",
            "type": "function"
        },
        {
            "inputs": [
                {
                    "internalType": "address",
                    "name": "owner",
                    "type": "address"
                },
                {
                    "internalType": "address",
                    "name": "operator",
                    "type": "address"
                }
            ],
            "name": "isApprovedForAll",
            "outputs": [
                {
                    "internalType": "bool",
                    "name": "",
                    "type": "bool"
                }
            ],
            "stateMutability": "view",
            "type": "function"
        },
        {
            "inputs": [],
            "name": "maxMintsPerWallet",
            "outputs": [
                {
                    "internalType": "uint256",
                    "name": "",
                    "type": "uint256"
                }
            ],
            "stateMutability": "view",
            "type": "function"
        },
        {
            "inputs": [],
            "name": "maxSupply",
            "outputs": [
                {
                    "internalType": "uint256",
                    "name": "",
                    "type": "uint256"
                }
            ],
            "stateMutability": "view",
            "type": "function"
        },
        {
            "inputs": [],
            "name": "mintPrice",
            "outputs": [
                {
                    "internalType": "uint256",
                    "name": "",
                    "type": "uint256"
                }
            ],
            "stateMutability": "view",
            "type": "function"
        },
        {
            "inputs": [
                {
                    "internalType": "string",
                    "name": "_tokenURI",
                    "type": "string"
                }
            ],
            "name": "minting",
            "outputs": [
                {
                    "internalType": "uint256",
                    "name": "",
                    "type": "uint256"
                }
            ],
            "stateMutability": "payable",
            "type": "function"
        },
        {
            "inputs": [],
            "name": "name",
            "outputs": [
                {
                    "internalType": "string",
                    "name": "",
                    "type": "string"
                }
            ],
            "stateMutability": "view",
            "type": "function"
        },
        {
            "inputs": [],
            "name": "owner",
            "outputs": [
                {
                    "internalType": "address",
                    "name": "",
                    "type": "address"
                }
            ],
            "stateMutability": "view",
            "type": "function"
        },
        {
            "inputs": [
                {
                    "internalType": "uint256",
                    "name": "tokenId",
                    "type": "uint256"
                }
            ],
            "name": "ownerOf",
            "outputs": [
                {
                    "internalType": "address",
                    "name": "",
                    "type": "address"
                }
            ],
            "stateMutability": "view",
            "type": "function"
        },
        {
            "inputs": [],
            "name": "renounceOwnership",
            "outputs": [],
            "stateMutability": "nonpayable",
            "type": "function"
        },
        {
            "inputs": [
                {
                    "internalType": "address",
                    "name": "from",
                    "type": "address"
                },
                {
                    "internalType": "address",
                    "name": "to",
                    "type": "address"
                },
                {
                    "internalType": "uint256",
                    "name": "tokenId",
                    "type": "uint256"
                }
            ],
            "name": "safeTransferFrom",
            "outputs": [],
            "stateMutability": "nonpayable",
            "type": "function"
        },
        {
            "inputs": [
                {
                    "internalType": "address",
                    "name": "from",
                    "type": "address"
                },
                {
                    "internalType": "address",
                    "name": "to",
                    "type": "address"
                },
                {
                    "internalType": "uint256",
                    "name": "tokenId",
                    "type": "uint256"
                },
                {
                    "internalType": "bytes",
                    "name": "_data",
                    "type": "bytes"
                }
            ],
            "name": "safeTransferFrom",
            "outputs": [],
            "stateMutability": "nonpayable",
            "type": "function"
        },
        {
            "inputs": [
                {
                    "internalType": "address",
                    "name": "operator",
                    "type": "address"
                },
                {
                    "internalType": "bool",
                    "name": "approved",
                    "type": "bool"
                }
            ],
            "name": "setApprovalForAll",
            "outputs": [],
            "stateMutability": "nonpayable",
            "type": "function"
        },
        {
            "inputs": [
                {
                    "internalType": "uint256",
                    "name": "_maxMintsPerWallet",
                    "type": "uint256"
                }
            ],
            "name": "setMaxMintsPerWallet",
            "outputs": [],
            "stateMutability": "nonpayable",
            "type": "function"
        },
        {
            "inputs": [
                {
                    "internalType": "uint256",
                    "name": "_maxSupply",
                    "type": "uint256"
                }
            ],
            "name": "setMaxSupply",
            "outputs": [],
            "stateMutability": "nonpayable",
            "type": "function"
        },
        {
            "inputs": [
                {
                    "internalType": "uint256",
                    "name": "_mintPrice",
                    "type": "uint256"
                }
            ],
            "name": "setMintPrice",
            "outputs": [],
            "stateMutability": "nonpayable",
            "type": "function"
        },
        {
            "inputs": [
                {
                    "internalType": "bytes4",
                    "name": "interfaceId",
                    "type": "bytes4"
                }
            ],
            "name": "supportsInterface",
            "outputs": [
                {
                    "internalType": "bool",
                    "name": "",
                    "type": "bool"
                }
            ],
            "stateMutability": "view",
            "type": "function"
        },
        {
            "inputs": [],
            "name": "symbol",
            "outputs": [
                {
                    "internalType": "string",
                    "name": "",
                    "type": "string"
                }
            ],
            "stateMutability": "view",
            "type": "function"
        },
        {
            "inputs": [],
            "name": "tokenCount",
            "outputs": [
                {
                    "internalType": "uint256",
                    "name": "_value",
                    "type": "uint256"
                }
            ],
            "stateMutability": "view",
            "type": "function"
        },
        {
            "inputs": [
                {
                    "internalType": "uint256",
                    "name": "tokenId",
                    "type": "uint256"
                }
            ],
            "name": "tokenURI",
            "outputs": [
                {
                    "internalType": "string",
                    "name": "",
                    "type": "string"
                }
            ],
            "stateMutability": "view",
            "type": "function"
        },
        {
            "inputs": [],
            "name": "totalSupplied",
            "outputs": [
                {
                    "internalType": "uint256",
                    "name": "",
                    "type": "uint256"
                }
            ],
            "stateMutability": "view",
            "type": "function"
        },
        {
            "inputs": [
                {
                    "internalType": "address",
                    "name": "from",
                    "type": "address"
                },
                {
                    "internalType": "address",
                    "name": "to",
                    "type": "address"
                },
                {
                    "internalType": "uint256",
                    "name": "tokenId",
                    "type": "uint256"
                }
            ],
            "name": "transferFrom",
            "outputs": [],
            "stateMutability": "nonpayable",
            "type": "function"
        },
        {
            "inputs": [
                {
                    "internalType": "address",
                    "name": "newOwner",
                    "type": "address"
                }
            ],
            "name": "transferOwnership",
            "outputs": [],
            "stateMutability": "nonpayable",
            "type": "function"
        }
    ],
    "bytecode": "0x60806040523480156200001157600080fd5b506040518060400160405280600981526020017f4d75736974204e465400000000000000000000000000000000000000000000008152506040518060400160405280600581526020017f4d55534954000000000000000000000000000000000000000000000000000000815250816000908051906020019062000096929190620001c4565b508060019080519060200190620000af929190620001c4565b505050620000d2620000c6620000f660201b60201c565b620000fe60201b60201c565b662386f26fc100006008819055506014600a819055506002600b81905550620002d9565b600033905090565b6000600760009054906101000a900473ffffffffffffffffffffffffffffffffffffffff16905081600760006101000a81548173ffffffffffffffffffffffffffffffffffffffff021916908373ffffffffffffffffffffffffffffffffffffffff1602179055508173ffffffffffffffffffffffffffffffffffffffff168173ffffffffffffffffffffffffffffffffffffffff167f8be0079c531659141344cd1fd0a4f28419497f9722a3daafe3b4186f6b6457e060405160405180910390a35050565b828054620001d29062000274565b90600052602060002090601f016020900481019282620001f6576000855562000242565b82601f106200021157805160ff191683800117855562000242565b8280016001018555821562000242579182015b828111156200024157825182559160200191906001019062000224565b5b50905062000251919062000255565b5090565b5b808211156200027057600081600090555060010162000256565b5090565b600060028204905060018216806200028d57607f821691505b60208210811415620002a457620002a3620002aa565b5b50919050565b7f4e487b7100000000000000000000000000000000000000000000000000000000600052602260045260246000fd5b61377980620002e96000396000f3fe6080604052600436106101815760003560e01c8063715018a6116100d1578063b88d4fde1161008a578063e985e9c511610064578063e985e9c514610575578063f2fde38b146105b2578063f4a0a528146105db578063f516a2e61461060457610181565b8063b88d4fde146104e4578063c87b56dd1461050d578063d5abeb011461054a57610181565b8063715018a6146103fa5780638da5cb5b1461041157806395d89b411461043c578063963c3546146104675780639f181b5e14610490578063a22cb465146104bb57610181565b80632f77ff1f1161013e5780636352211e116101185780636352211e1461032c5780636817c76c146103695780636f8b44b01461039457806370a08231146103bd57610181565b80632f77ff1f146102ad57806342842e0e146102d8578063630fd0ac1461030157610181565b806301ffc9a71461018657806306fdde03146101c3578063081812fc146101ee578063095ea7b31461022b5780630bdc90081461025457806323b872dd14610284575b600080fd5b34801561019257600080fd5b506101ad60048036038101906101a891906125a3565b61062f565b6040516101ba9190612a99565b60405180910390f35b3480156101cf57600080fd5b506101d8610711565b6040516101e59190612ab4565b60405180910390f35b3480156101fa57600080fd5b5061021560048036038101906102109190612636565b6107a3565b6040516102229190612a32565b60405180910390f35b34801561023757600080fd5b50610252600480360381019061024d9190612567565b610828565b005b61026e600480360381019061026991906125f5565b610940565b60405161027b9190612d76565b60405180910390f35b34801561029057600080fd5b506102ab60048036038101906102a69190612461565b610b1a565b005b3480156102b957600080fd5b506102c2610b7a565b6040516102cf9190612d76565b60405180910390f35b3480156102e457600080fd5b506102ff60048036038101906102fa9190612461565b610bc1565b005b34801561030d57600080fd5b50610316610be1565b6040516103239190612d76565b60405180910390f35b34801561033857600080fd5b50610353600480360381019061034e9190612636565b610be7565b6040516103609190612a32565b60405180910390f35b34801561037557600080fd5b5061037e610c99565b60405161038b9190612d76565b60405180910390f35b3480156103a057600080fd5b506103bb60048036038101906103b69190612636565b610c9f565b005b3480156103c957600080fd5b506103e460048036038101906103df91906123fc565b610d25565b6040516103f19190612d76565b60405180910390f35b34801561040657600080fd5b5061040f610ddd565b005b34801561041d57600080fd5b50610426610e65565b6040516104339190612a32565b60405180910390f35b34801561044857600080fd5b50610451610e8f565b60405161045e9190612ab4565b60405180910390f35b34801561047357600080fd5b5061048e60048036038101906104899190612636565b610f21565b005b34801561049c57600080fd5b506104a5610fa7565b6040516104b29190612d76565b60405180910390f35b3480156104c757600080fd5b506104e260048036038101906104dd919061252b565b610fb3565b005b3480156104f057600080fd5b5061050b600480360381019061050691906124b0565b610fc9565b005b34801561051957600080fd5b50610534600480360381019061052f9190612636565b61102b565b6040516105419190612ab4565b60405180910390f35b34801561055657600080fd5b5061055f61117d565b60405161056c9190612d76565b60405180910390f35b34801561058157600080fd5b5061059c60048036038101906105979190612425565b611183565b6040516105a99190612a99565b60405180910390f35b3480156105be57600080fd5b506105d960048036038101906105d491906123fc565b611217565b005b3480156105e757600080fd5b5061060260048036038101906105fd9190612636565b61130f565b005b34801561061057600080fd5b50610619611395565b6040516106269190612d76565b60405180910390f35b60007f80ac58cd000000000000000000000000000000000000000000000000000000007bffffffffffffffffffffffffffffffffffffffffffffffffffffffff1916827bffffffffffffffffffffffffffffffffffffffffffffffffffffffff191614806106fa57507f5b5e139f000000000000000000000000000000000000000000000000000000007bffffffffffffffffffffffffffffffffffffffffffffffffffffffff1916827bffffffffffffffffffffffffffffffffffffffffffffffffffffffff1916145b8061070a57506107098261139b565b5b9050919050565b60606000805461072090612fcc565b80601f016020809104026020016040519081016040528092919081815260200182805461074c90612fcc565b80156107995780601f1061076e57610100808354040283529160200191610799565b820191906000526020600020905b81548152906001019060200180831161077c57829003601f168201915b5050505050905090565b60006107ae82611405565b6107ed576040517f08c379a00000000000000000000000000000000000000000000000000000000081526004016107e490612c96565b60405180910390fd5b6004600083815260200190815260200160002060009054906101000a900473ffffffffffffffffffffffffffffffffffffffff169050919050565b600061083382610be7565b90508073ffffffffffffffffffffffffffffffffffffffff168373ffffffffffffffffffffffffffffffffffffffff1614156108a4576040517f08c379a000000000000000000000000000000000000000000000000000000000815260040161089b90612cf6565b60405180910390fd5b8073ffffffffffffffffffffffffffffffffffffffff166108c3611471565b73ffffffffffffffffffffffffffffffffffffffff1614806108f257506108f1816108ec611471565b611183565b5b610931576040517f08c379a000000000000000000000000000000000000000000000000000000000815260040161092890612bb6565b60405180910390fd5b61093b8383611479565b505050565b60006008543414610986576040517f08c379a000000000000000000000000000000000000000000000000000000000815260040161097d90612d36565b60405180910390fd5b600a5460095411156109cd576040517f08c379a00000000000000000000000000000000000000000000000000000000081526004016109c490612d56565b60405180910390fd5b600b54600d60003373ffffffffffffffffffffffffffffffffffffffff1673ffffffffffffffffffffffffffffffffffffffff168152602001908152602001600020541115610a51576040517f08c379a0000000000000000000000000000000000000000000000000000000008152600401610a4890612c36565b60405180910390fd5b610a5b600c611532565b6000610a67600c611548565b9050610a733382611556565b610a7d8184611574565b807ff187509bab10aaa430566197a379d21d0b15e1292d3957a948057bc7dc30278284604051610aad9190612ab4565b60405180910390a2600d60003373ffffffffffffffffffffffffffffffffffffffff1673ffffffffffffffffffffffffffffffffffffffff1681526020019081526020016000206000815480929190610b059061302f565b91905055508060098190555080915050919050565b610b2b610b25611471565b826115e8565b610b6a576040517f08c379a0000000000000000000000000000000000000000000000000000000008152600401610b6190612d16565b60405180910390fd5b610b758383836116c6565b505050565b6000600d60003373ffffffffffffffffffffffffffffffffffffffff1673ffffffffffffffffffffffffffffffffffffffff16815260200190815260200160002054905090565b610bdc83838360405180602001604052806000815250610fc9565b505050565b60095481565b6000806002600084815260200190815260200160002060009054906101000a900473ffffffffffffffffffffffffffffffffffffffff169050600073ffffffffffffffffffffffffffffffffffffffff168173ffffffffffffffffffffffffffffffffffffffff161415610c90576040517f08c379a0000000000000000000000000000000000000000000000000000000008152600401610c8790612bf6565b60405180910390fd5b80915050919050565b60085481565b610ca7611471565b73ffffffffffffffffffffffffffffffffffffffff16610cc5610e65565b73ffffffffffffffffffffffffffffffffffffffff1614610d1b576040517f08c379a0000000000000000000000000000000000000000000000000000000008152600401610d1290612cb6565b60405180910390fd5b80600a8190555050565b60008073ffffffffffffffffffffffffffffffffffffffff168273ffffffffffffffffffffffffffffffffffffffff161415610d96576040517f08c379a0000000000000000000000000000000000000000000000000000000008152600401610d8d90612bd6565b60405180910390fd5b600360008373ffffffffffffffffffffffffffffffffffffffff1673ffffffffffffffffffffffffffffffffffffffff168152602001908152602001600020549050919050565b610de5611471565b73ffffffffffffffffffffffffffffffffffffffff16610e03610e65565b73ffffffffffffffffffffffffffffffffffffffff1614610e59576040517f08c379a0000000000000000000000000000000000000000000000000000000008152600401610e5090612cb6565b60405180910390fd5b610e63600061192d565b565b6000600760009054906101000a900473ffffffffffffffffffffffffffffffffffffffff16905090565b606060018054610e9e90612fcc565b80601f0160208091040260200160405190810160405280929190818152602001828054610eca90612fcc565b8015610f175780601f10610eec57610100808354040283529160200191610f17565b820191906000526020600020905b815481529060010190602001808311610efa57829003601f168201915b5050505050905090565b610f29611471565b73ffffffffffffffffffffffffffffffffffffffff16610f47610e65565b73ffffffffffffffffffffffffffffffffffffffff1614610f9d576040517f08c379a0000000000000000000000000000000000000000000000000000000008152600401610f9490612cb6565b60405180910390fd5b80600b8190555050565b600c8060000154905081565b610fc5610fbe611471565b83836119f3565b5050565b610fda610fd4611471565b836115e8565b611019576040517f08c379a000000000000000000000000000000000000000000000000000000000815260040161101090612d16565b60405180910390fd5b61102584848484611b60565b50505050565b606061103682611405565b611075576040517f08c379a000000000000000000000000000000000000000000000000000000000815260040161106c90612c76565b60405180910390fd5b600060066000848152602001908152602001600020805461109590612fcc565b80601f01602080910402602001604051908101604052809291908181526020018280546110c190612fcc565b801561110e5780601f106110e35761010080835404028352916020019161110e565b820191906000526020600020905b8154815290600101906020018083116110f157829003601f168201915b50505050509050600061111f611bbc565b9050600081511415611135578192505050611178565b60008251111561116a578082604051602001611152929190612a0e565b60405160208183030381529060405292505050611178565b61117384611bd3565b925050505b919050565b600a5481565b6000600560008473ffffffffffffffffffffffffffffffffffffffff1673ffffffffffffffffffffffffffffffffffffffff16815260200190815260200160002060008373ffffffffffffffffffffffffffffffffffffffff1673ffffffffffffffffffffffffffffffffffffffff16815260200190815260200160002060009054906101000a900460ff16905092915050565b61121f611471565b73ffffffffffffffffffffffffffffffffffffffff1661123d610e65565b73ffffffffffffffffffffffffffffffffffffffff1614611293576040517f08c379a000000000000000000000000000000000000000000000000000000000815260040161128a90612cb6565b60405180910390fd5b600073ffffffffffffffffffffffffffffffffffffffff168173ffffffffffffffffffffffffffffffffffffffff161415611303576040517f08c379a00000000000000000000000000000000000000000000000000000000081526004016112fa90612af6565b60405180910390fd5b61130c8161192d565b50565b611317611471565b73ffffffffffffffffffffffffffffffffffffffff16611335610e65565b73ffffffffffffffffffffffffffffffffffffffff161461138b576040517f08c379a000000000000000000000000000000000000000000000000000000000815260040161138290612cb6565b60405180910390fd5b8060088190555050565b600b5481565b60007f01ffc9a7000000000000000000000000000000000000000000000000000000007bffffffffffffffffffffffffffffffffffffffffffffffffffffffff1916827bffffffffffffffffffffffffffffffffffffffffffffffffffffffff1916149050919050565b60008073ffffffffffffffffffffffffffffffffffffffff166002600084815260200190815260200160002060009054906101000a900473ffffffffffffffffffffffffffffffffffffffff1673ffffffffffffffffffffffffffffffffffffffff1614159050919050565b600033905090565b816004600083815260200190815260200160002060006101000a81548173ffffffffffffffffffffffffffffffffffffffff021916908373ffffffffffffffffffffffffffffffffffffffff160217905550808273ffffffffffffffffffffffffffffffffffffffff166114ec83610be7565b73ffffffffffffffffffffffffffffffffffffffff167f8c5be1e5ebec7d5bd14f71427d1e84f3dd0314c0f7b2291e5b200ac8c7c3b92560405160405180910390a45050565b6001816000016000828254019250508190555050565b600081600001549050919050565b611570828260405180602001604052806000815250611c7a565b5050565b61157d82611405565b6115bc576040517f08c379a00000000000000000000000000000000000000000000000000000000081526004016115b390612c16565b60405180910390fd5b806006600084815260200190815260200160002090805190602001906115e3929190612220565b505050565b60006115f382611405565b611632576040517f08c379a000000000000000000000000000000000000000000000000000000000815260040161162990612b96565b60405180910390fd5b600061163d83610be7565b90508073ffffffffffffffffffffffffffffffffffffffff168473ffffffffffffffffffffffffffffffffffffffff1614806116ac57508373ffffffffffffffffffffffffffffffffffffffff16611694846107a3565b73ffffffffffffffffffffffffffffffffffffffff16145b806116bd57506116bc8185611183565b5b91505092915050565b8273ffffffffffffffffffffffffffffffffffffffff166116e682610be7565b73ffffffffffffffffffffffffffffffffffffffff161461173c576040517f08c379a000000000000000000000000000000000000000000000000000000000815260040161173390612b16565b60405180910390fd5b600073ffffffffffffffffffffffffffffffffffffffff168273ffffffffffffffffffffffffffffffffffffffff1614156117ac576040517f08c379a00000000000000000000000000000000000000000000000000000000081526004016117a390612b56565b60405180910390fd5b6117b7838383611cd5565b6117c2600082611479565b6001600360008573ffffffffffffffffffffffffffffffffffffffff1673ffffffffffffffffffffffffffffffffffffffff16815260200190815260200160002060008282546118129190612ee2565b925050819055506001600360008473ffffffffffffffffffffffffffffffffffffffff1673ffffffffffffffffffffffffffffffffffffffff16815260200190815260200160002060008282546118699190612e5b565b92505081905550816002600083815260200190815260200160002060006101000a81548173ffffffffffffffffffffffffffffffffffffffff021916908373ffffffffffffffffffffffffffffffffffffffff160217905550808273ffffffffffffffffffffffffffffffffffffffff168473ffffffffffffffffffffffffffffffffffffffff167fddf252ad1be2c89b69c2b068fc378daa952ba7f163c4a11628f55a4df523b3ef60405160405180910390a4611928838383611cda565b505050565b6000600760009054906101000a900473ffffffffffffffffffffffffffffffffffffffff16905081600760006101000a81548173ffffffffffffffffffffffffffffffffffffffff021916908373ffffffffffffffffffffffffffffffffffffffff1602179055508173ffffffffffffffffffffffffffffffffffffffff168173ffffffffffffffffffffffffffffffffffffffff167f8be0079c531659141344cd1fd0a4f28419497f9722a3daafe3b4186f6b6457e060405160405180910390a35050565b8173ffffffffffffffffffffffffffffffffffffffff168373ffffffffffffffffffffffffffffffffffffffff161415611a62576040517f08c379a0000000000000000000000000000000000000000000000000000000008152600401611a5990612b76565b60405180910390fd5b80600560008573ffffffffffffffffffffffffffffffffffffffff1673ffffffffffffffffffffffffffffffffffffffff16815260200190815260200160002060008473ffffffffffffffffffffffffffffffffffffffff1673ffffffffffffffffffffffffffffffffffffffff16815260200190815260200160002060006101000a81548160ff0219169083151502179055508173ffffffffffffffffffffffffffffffffffffffff168373ffffffffffffffffffffffffffffffffffffffff167f17307eab39ab6107e8899845ad3d59bd9653f200f220920489ca2b5937696c3183604051611b539190612a99565b60405180910390a3505050565b611b6b8484846116c6565b611b7784848484611cdf565b611bb6576040517f08c379a0000000000000000000000000000000000000000000000000000000008152600401611bad90612ad6565b60405180910390fd5b50505050565b606060405180602001604052806000815250905090565b6060611bde82611405565b611c1d576040517f08c379a0000000000000000000000000000000000000000000000000000000008152600401611c1490612cd6565b60405180910390fd5b6000611c27611bbc565b90506000815111611c475760405180602001604052806000815250611c72565b80611c5184611e76565b604051602001611c62929190612a0e565b6040516020818303038152906040525b915050919050565b611c848383612023565b611c916000848484611cdf565b611cd0576040517f08c379a0000000000000000000000000000000000000000000000000000000008152600401611cc790612ad6565b60405180910390fd5b505050565b505050565b505050565b6000611d008473ffffffffffffffffffffffffffffffffffffffff166121fd565b15611e69578373ffffffffffffffffffffffffffffffffffffffff1663150b7a02611d29611471565b8786866040518563ffffffff1660e01b8152600401611d4b9493929190612a4d565b602060405180830381600087803b158015611d6557600080fd5b505af1925050508015611d9657506040513d601f19601f82011682018060405250810190611d9391906125cc565b60015b611e19573d8060008114611dc6576040519150601f19603f3d011682016040523d82523d6000602084013e611dcb565b606091505b50600081511415611e11576040517f08c379a0000000000000000000000000000000000000000000000000000000008152600401611e0890612ad6565b60405180910390fd5b805181602001fd5b63150b7a0260e01b7bffffffffffffffffffffffffffffffffffffffffffffffffffffffff1916817bffffffffffffffffffffffffffffffffffffffffffffffffffffffff191614915050611e6e565b600190505b949350505050565b60606000821415611ebe576040518060400160405280600181526020017f3000000000000000000000000000000000000000000000000000000000000000815250905061201e565b600082905060005b60008214611ef0578080611ed99061302f565b915050600a82611ee99190612eb1565b9150611ec6565b60008167ffffffffffffffff811115611f32577f4e487b7100000000000000000000000000000000000000000000000000000000600052604160045260246000fd5b6040519080825280601f01601f191660200182016040528015611f645781602001600182028036833780820191505090505b5090505b6000851461201757600182611f7d9190612ee2565b9150600a85611f8c9190613078565b6030611f989190612e5b565b60f81b818381518110611fd4577f4e487b7100000000000000000000000000000000000000000000000000000000600052603260045260246000fd5b60200101907effffffffffffffffffffffffffffffffffffffffffffffffffffffffffffff1916908160001a905350600a856120109190612eb1565b9450611f68565b8093505050505b919050565b600073ffffffffffffffffffffffffffffffffffffffff168273ffffffffffffffffffffffffffffffffffffffff161415612093576040517f08c379a000000000000000000000000000000000000000000000000000000000815260040161208a90612c56565b60405180910390fd5b61209c81611405565b156120dc576040517f08c379a00000000000000000000000000000000000000000000000000000000081526004016120d390612b36565b60405180910390fd5b6120e860008383611cd5565b6001600360008473ffffffffffffffffffffffffffffffffffffffff1673ffffffffffffffffffffffffffffffffffffffff16815260200190815260200160002060008282546121389190612e5b565b92505081905550816002600083815260200190815260200160002060006101000a81548173ffffffffffffffffffffffffffffffffffffffff021916908373ffffffffffffffffffffffffffffffffffffffff160217905550808273ffffffffffffffffffffffffffffffffffffffff16600073ffffffffffffffffffffffffffffffffffffffff167fddf252ad1be2c89b69c2b068fc378daa952ba7f163c4a11628f55a4df523b3ef60405160405180910390a46121f960008383611cda565b5050565b6000808273ffffffffffffffffffffffffffffffffffffffff163b119050919050565b82805461222c90612fcc565b90600052602060002090601f01602090048101928261224e5760008555612295565b82601f1061226757805160ff1916838001178555612295565b82800160010185558215612295579182015b82811115612294578251825591602001919060010190612279565b5b5090506122a291906122a6565b5090565b5b808211156122bf5760008160009055506001016122a7565b5090565b60006122d66122d184612db6565b612d91565b9050828152602081018484840111156122ee57600080fd5b6122f9848285612f8a565b509392505050565b600061231461230f84612de7565b612d91565b90508281526020810184848401111561232c57600080fd5b612337848285612f8a565b509392505050565b60008135905061234e816136e7565b92915050565b600081359050612363816136fe565b92915050565b60008135905061237881613715565b92915050565b60008151905061238d81613715565b92915050565b600082601f8301126123a457600080fd5b81356123b48482602086016122c3565b91505092915050565b600082601f8301126123ce57600080fd5b81356123de848260208601612301565b91505092915050565b6000813590506123f68161372c565b92915050565b60006020828403121561240e57600080fd5b600061241c8482850161233f565b91505092915050565b6000806040838503121561243857600080fd5b60006124468582860161233f565b92505060206124578582860161233f565b9150509250929050565b60008060006060848603121561247657600080fd5b60006124848682870161233f565b93505060206124958682870161233f565b92505060406124a6868287016123e7565b9150509250925092565b600080600080608085870312156124c657600080fd5b60006124d48782880161233f565b94505060206124e58782880161233f565b93505060406124f6878288016123e7565b925050606085013567ffffffffffffffff81111561251357600080fd5b61251f87828801612393565b91505092959194509250565b6000806040838503121561253e57600080fd5b600061254c8582860161233f565b925050602061255d85828601612354565b9150509250929050565b6000806040838503121561257a57600080fd5b60006125888582860161233f565b9250506020612599858286016123e7565b9150509250929050565b6000602082840312156125b557600080fd5b60006125c384828501612369565b91505092915050565b6000602082840312156125de57600080fd5b60006125ec8482850161237e565b91505092915050565b60006020828403121561260757600080fd5b600082013567ffffffffffffffff81111561262157600080fd5b61262d848285016123bd565b91505092915050565b60006020828403121561264857600080fd5b6000612656848285016123e7565b91505092915050565b61266881612f16565b82525050565b61267781612f28565b82525050565b600061268882612e18565b6126928185612e2e565b93506126a2818560208601612f99565b6126ab81613165565b840191505092915050565b60006126c182612e23565b6126cb8185612e3f565b93506126db818560208601612f99565b6126e481613165565b840191505092915050565b60006126fa82612e23565b6127048185612e50565b9350612714818560208601612f99565b80840191505092915050565b600061272d603283612e3f565b915061273882613176565b604082019050919050565b6000612750602683612e3f565b915061275b826131c5565b604082019050919050565b6000612773602583612e3f565b915061277e82613214565b604082019050919050565b6000612796601c83612e3f565b91506127a182613263565b602082019050919050565b60006127b9602483612e3f565b91506127c48261328c565b604082019050919050565b60006127dc601983612e3f565b91506127e7826132db565b602082019050919050565b60006127ff602c83612e3f565b915061280a82613304565b604082019050919050565b6000612822603883612e3f565b915061282d82613353565b604082019050919050565b6000612845602a83612e3f565b9150612850826133a2565b604082019050919050565b6000612868602983612e3f565b9150612873826133f1565b604082019050919050565b600061288b602e83612e3f565b915061289682613440565b604082019050919050565b60006128ae601483612e3f565b91506128b98261348f565b602082019050919050565b60006128d1602083612e3f565b91506128dc826134b8565b602082019050919050565b60006128f4603183612e3f565b91506128ff826134e1565b604082019050919050565b6000612917602c83612e3f565b915061292282613530565b604082019050919050565b600061293a602083612e3f565b91506129458261357f565b602082019050919050565b600061295d602f83612e3f565b9150612968826135a8565b604082019050919050565b6000612980602183612e3f565b915061298b826135f7565b604082019050919050565b60006129a3603183612e3f565b91506129ae82613646565b604082019050919050565b60006129c6601183612e3f565b91506129d182613695565b602082019050919050565b60006129e9600a83612e3f565b91506129f4826136be565b602082019050919050565b612a0881612f80565b82525050565b6000612a1a82856126ef565b9150612a2682846126ef565b91508190509392505050565b6000602082019050612a47600083018461265f565b92915050565b6000608082019050612a62600083018761265f565b612a6f602083018661265f565b612a7c60408301856129ff565b8181036060830152612a8e818461267d565b905095945050505050565b6000602082019050612aae600083018461266e565b92915050565b60006020820190508181036000830152612ace81846126b6565b905092915050565b60006020820190508181036000830152612aef81612720565b9050919050565b60006020820190508181036000830152612b0f81612743565b9050919050565b60006020820190508181036000830152612b2f81612766565b9050919050565b60006020820190508181036000830152612b4f81612789565b9050919050565b60006020820190508181036000830152612b6f816127ac565b9050919050565b60006020820190508181036000830152612b8f816127cf565b9050919050565b60006020820190508181036000830152612baf816127f2565b9050919050565b60006020820190508181036000830152612bcf81612815565b9050919050565b60006020820190508181036000830152612bef81612838565b9050919050565b60006020820190508181036000830152612c0f8161285b565b9050919050565b60006020820190508181036000830152612c2f8161287e565b9050919050565b60006020820190508181036000830152612c4f816128a1565b9050919050565b60006020820190508181036000830152612c6f816128c4565b9050919050565b60006020820190508181036000830152612c8f816128e7565b9050919050565b60006020820190508181036000830152612caf8161290a565b9050919050565b60006020820190508181036000830152612ccf8161292d565b9050919050565b60006020820190508181036000830152612cef81612950565b9050919050565b60006020820190508181036000830152612d0f81612973565b9050919050565b60006020820190508181036000830152612d2f81612996565b9050919050565b60006020820190508181036000830152612d4f816129b9565b9050919050565b60006020820190508181036000830152612d6f816129dc565b9050919050565b6000602082019050612d8b60008301846129ff565b92915050565b6000612d9b612dac565b9050612da78282612ffe565b919050565b6000604051905090565b600067ffffffffffffffff821115612dd157612dd0613136565b5b612dda82613165565b9050602081019050919050565b600067ffffffffffffffff821115612e0257612e01613136565b5b612e0b82613165565b9050602081019050919050565b600081519050919050565b600081519050919050565b600082825260208201905092915050565b600082825260208201905092915050565b600081905092915050565b6000612e6682612f80565b9150612e7183612f80565b9250827fffffffffffffffffffffffffffffffffffffffffffffffffffffffffffffffff03821115612ea657612ea56130a9565b5b828201905092915050565b6000612ebc82612f80565b9150612ec783612f80565b925082612ed757612ed66130d8565b5b828204905092915050565b6000612eed82612f80565b9150612ef883612f80565b925082821015612f0b57612f0a6130a9565b5b828203905092915050565b6000612f2182612f60565b9050919050565b60008115159050919050565b60007fffffffff0000000000000000000000000000000000000000000000000000000082169050919050565b600073ffffffffffffffffffffffffffffffffffffffff82169050919050565b6000819050919050565b82818337600083830152505050565b60005b83811015612fb7578082015181840152602081019050612f9c565b83811115612fc6576000848401525b50505050565b60006002820490506001821680612fe457607f821691505b60208210811415612ff857612ff7613107565b5b50919050565b61300782613165565b810181811067ffffffffffffffff8211171561302657613025613136565b5b80604052505050565b600061303a82612f80565b91507fffffffffffffffffffffffffffffffffffffffffffffffffffffffffffffffff82141561306d5761306c6130a9565b5b600182019050919050565b600061308382612f80565b915061308e83612f80565b92508261309e5761309d6130d8565b5b828206905092915050565b7f4e487b7100000000000000000000000000000000000000000000000000000000600052601160045260246000fd5b7f4e487b7100000000000000000000000000000000000000000000000000000000600052601260045260246000fd5b7f4e487b7100000000000000000000000000000000000000000000000000000000600052602260045260246000fd5b7f4e487b7100000000000000000000000000000000000000000000000000000000600052604160045260246000fd5b6000601f19601f8301169050919050565b7f4552433732313a207472616e7366657220746f206e6f6e20455243373231526560008201527f63656976657220696d706c656d656e7465720000000000000000000000000000602082015250565b7f4f776e61626c653a206e6577206f776e657220697320746865207a65726f206160008201527f6464726573730000000000000000000000000000000000000000000000000000602082015250565b7f4552433732313a207472616e736665722066726f6d20696e636f72726563742060008201527f6f776e6572000000000000000000000000000000000000000000000000000000602082015250565b7f4552433732313a20746f6b656e20616c7265616479206d696e74656400000000600082015250565b7f4552433732313a207472616e7366657220746f20746865207a65726f2061646460008201527f7265737300000000000000000000000000000000000000000000000000000000602082015250565b7f4552433732313a20617070726f766520746f2063616c6c657200000000000000600082015250565b7f4552433732313a206f70657261746f7220717565727920666f72206e6f6e657860008201527f697374656e7420746f6b656e0000000000000000000000000000000000000000602082015250565b7f4552433732313a20617070726f76652063616c6c6572206973206e6f74206f7760008201527f6e6572206e6f7220617070726f76656420666f7220616c6c0000000000000000602082015250565b7f4552433732313a2062616c616e636520717565727920666f7220746865207a6560008201527f726f206164647265737300000000000000000000000000000000000000000000602082015250565b7f4552433732313a206f776e657220717565727920666f72206e6f6e657869737460008201527f656e7420746f6b656e0000000000000000000000000000000000000000000000602082015250565b7f45524337323155524953746f726167653a2055524920736574206f66206e6f6e60008201527f6578697374656e7420746f6b656e000000000000000000000000000000000000602082015250565b7f45786365656420746f74616c20737570706c792e000000000000000000000000600082015250565b7f4552433732313a206d696e7420746f20746865207a65726f2061646472657373600082015250565b7f45524337323155524953746f726167653a2055524920717565727920666f722060008201527f6e6f6e6578697374656e7420746f6b656e000000000000000000000000000000602082015250565b7f4552433732313a20617070726f76656420717565727920666f72206e6f6e657860008201527f697374656e7420746f6b656e0000000000000000000000000000000000000000602082015250565b7f4f776e61626c653a2063616c6c6572206973206e6f7420746865206f776e6572600082015250565b7f4552433732314d657461646174613a2055524920717565727920666f72206e6f60008201527f6e6578697374656e7420746f6b656e0000000000000000000000000000000000602082015250565b7f4552433732313a20617070726f76616c20746f2063757272656e74206f776e6560008201527f7200000000000000000000000000000000000000000000000000000000000000602082015250565b7f4552433732313a207472616e736665722063616c6c6572206973206e6f74206f60008201527f776e6572206e6f7220617070726f766564000000000000000000000000000000602082015250565b7f57726f6e672076616c75652073656e742e000000000000000000000000000000600082015250565b7f20536f6c64206f75742100000000000000000000000000000000000000000000600082015250565b6136f081612f16565b81146136fb57600080fd5b50565b61370781612f28565b811461371257600080fd5b50565b61371e81612f34565b811461372957600080fd5b50565b61373581612f80565b811461374057600080fd5b5056fea2646970667358221220a7b6aeda7565932fafdd897dbefeb1db748b458d76fe2cbff829a309a64a899e64736f6c63430008040033",
    "linkReferences": {},
    "deployedLinkReferences": {}
}