{
    "contractAddress": "0x266DC97A860128F7d58f4EC55B927f492eCD19BD",
    "_format": "hh-sol-artifact-1",
    "contractName": "Subscription",
    "sourceName": "contracts/Subscription.sol",
    "abi": [
        {
            "inputs": [],
            "stateMutability": "nonpayable",
            "type": "constructor"
        },
        {
            "inputs": [
                {
                    "internalType": "enum Subscription.Plans",
                    "name": "plan",
                    "type": "uint8"
                }
            ],
            "name": "buy",
            "outputs": [],
            "stateMutability": "payable",
            "type": "function"
        },
        {
            "inputs": [
                {
                    "internalType": "enum Subscription.Plans",
                    "name": "plan",
                    "type": "uint8"
                }
            ],
            "name": "getDuration",
            "outputs": [
                {
                    "internalType": "uint256",
                    "name": "",
                    "type": "uint256"
                }
            ],
            "stateMutability": "pure",
            "type": "function"
        },
        {
            "inputs": [
                {
                    "internalType": "enum Subscription.Plans",
                    "name": "plan",
                    "type": "uint8"
                }
            ],
            "name": "getPrice",
            "outputs": [
                {
                    "internalType": "uint256",
                    "name": "",
                    "type": "uint256"
                }
            ],
            "stateMutability": "pure",
            "type": "function"
        }
    ],
    "bytecode": "0x608060405234801561001057600080fd5b50336000806101000a81548173ffffffffffffffffffffffffffffffffffffffff021916908373ffffffffffffffffffffffffffffffffffffffff1602179055506107a0806100606000396000f3fe6080604052600436106100345760003560e01c806314107f3c1461003957806337f1e7f214610055578063bbd964f414610092575b600080fd5b610053600480360381019061004e9190610569565b6100cf565b005b34801561006157600080fd5b5061007c60048036038101906100779190610569565b6101ab565b6040516100899190610627565b60405180910390f35b34801561009e57600080fd5b506100b960048036038101906100b49190610569565b610387565b6040516100c69190610627565b60405180910390f35b6100d8816101ab565b3410156100e457600080fd5b60004290506100f282610387565b816100fd9190610653565b600160003373ffffffffffffffffffffffffffffffffffffffff1673ffffffffffffffffffffffffffffffffffffffff1681526020019081526020016000208190555060008054906101000a900473ffffffffffffffffffffffffffffffffffffffff1673ffffffffffffffffffffffffffffffffffffffff166108fc349081150290604051600060405180830381858888f193505050501580156101a6573d6000803e3d6000fd5b505050565b6000600160038111156101e7577f4e487b7100000000000000000000000000000000000000000000000000000000600052602160045260246000fd5b826003811115610220577f4e487b7100000000000000000000000000000000000000000000000000000000600052602160045260246000fd5b141561023657670de0b6b3a76400009050610382565b60026003811115610270577f4e487b7100000000000000000000000000000000000000000000000000000000600052602160045260246000fd5b8260038111156102a9577f4e487b7100000000000000000000000000000000000000000000000000000000600052602160045260246000fd5b14156102bf57671bc16d674ec800009050610382565b6003808111156102f8577f4e487b7100000000000000000000000000000000000000000000000000000000600052602160045260246000fd5b826003811115610331577f4e487b7100000000000000000000000000000000000000000000000000000000600052602160045260246000fd5b1415610347576729a2241af62c00009050610382565b6040517f08c379a0000000000000000000000000000000000000000000000000000000008152600401610379906105e7565b60405180910390fd5b919050565b6000600160038111156103c3577f4e487b7100000000000000000000000000000000000000000000000000000000600052602160045260246000fd5b8260038111156103fc577f4e487b7100000000000000000000000000000000000000000000000000000000600052602160045260246000fd5b141561040d5762278d00905061054f565b60026003811115610447577f4e487b7100000000000000000000000000000000000000000000000000000000600052602160045260246000fd5b826003811115610480577f4e487b7100000000000000000000000000000000000000000000000000000000600052602160045260246000fd5b141561049157624f1a00905061054f565b6003808111156104ca577f4e487b7100000000000000000000000000000000000000000000000000000000600052602160045260246000fd5b826003811115610503577f4e487b7100000000000000000000000000000000000000000000000000000000600052602160045260246000fd5b1415610514576276a700905061054f565b6040517f08c379a000000000000000000000000000000000000000000000000000000000815260040161054690610607565b60405180910390fd5b919050565b6000813590506105638161075a565b92915050565b60006020828403121561057b57600080fd5b600061058984828501610554565b91505092915050565b600061059f601f83610642565b91506105aa826106e2565b602082019050919050565b60006105c2602283610642565b91506105cd8261070b565b604082019050919050565b6105e1816106a9565b82525050565b6000602082019050818103600083015261060081610592565b9050919050565b60006020820190508181036000830152610620816105b5565b9050919050565b600060208201905061063c60008301846105d8565b92915050565b600082825260208201905092915050565b600061065e826106a9565b9150610669836106a9565b9250827fffffffffffffffffffffffffffffffffffffffffffffffffffffffffffffffff0382111561069e5761069d6106b3565b5b828201905092915050565b6000819050919050565b7f4e487b7100000000000000000000000000000000000000000000000000000000600052601160045260246000fd5b7f43616e6e6f742067657420707269636520666f722077726f6e6720706c616e00600082015250565b7f43616e6e6f7420676574206475726174696f6e20666f722077726f6e6720706c60008201527f616e000000000000000000000000000000000000000000000000000000000000602082015250565b6004811061076757600080fd5b5056fea2646970667358221220fc4958db255839c99970ef5112a7d17f8b628a8b9492521d6b3d2fe8c9f41b8a64736f6c63430008040033",
    "linkReferences": {},
    "deployedLinkReferences": {}
}