{
    "contractAddress": "0xe312c9AE10411e64b061d5D3977127ac73051790",
    "_format": "hh-sol-artifact-1",
    "contractName": "Subscription",
    "sourceName": "contracts/Subscription.sol",
    "abi": [
        {
            "inputs": [],
            "stateMutability": "nonpayable",
            "type": "constructor"
        },
        {
            "inputs": [
                {
                    "internalType": "enum Subscription.Plans",
                    "name": "_plan",
                    "type": "uint8"
                }
            ],
            "name": "buy",
            "outputs": [],
            "stateMutability": "payable",
            "type": "function"
        },
        {
            "inputs": [
                {
                    "internalType": "enum Subscription.Plans",
                    "name": "_plan",
                    "type": "uint8"
                }
            ],
            "name": "getDuration",
            "outputs": [
                {
                    "internalType": "uint256",
                    "name": "",
                    "type": "uint256"
                }
            ],
            "stateMutability": "pure",
            "type": "function"
        },
        {
            "inputs": [
                {
                    "internalType": "address",
                    "name": "_user",
                    "type": "address"
                }
            ],
            "name": "getEndAt",
            "outputs": [
                {
                    "internalType": "uint256",
                    "name": "",
                    "type": "uint256"
                }
            ],
            "stateMutability": "view",
            "type": "function"
        },
        {
            "inputs": [
                {
                    "internalType": "address",
                    "name": "_user",
                    "type": "address"
                }
            ],
            "name": "getIsFreeCouponUsed",
            "outputs": [
                {
                    "internalType": "bool",
                    "name": "",
                    "type": "bool"
                }
            ],
            "stateMutability": "view",
            "type": "function"
        },
        {
            "inputs": [
                {
                    "internalType": "enum Subscription.Plans",
                    "name": "_plan",
                    "type": "uint8"
                }
            ],
            "name": "getPrice",
            "outputs": [
                {
                    "internalType": "uint256",
                    "name": "",
                    "type": "uint256"
                }
            ],
            "stateMutability": "pure",
            "type": "function"
        },
        {
            "inputs": [
                {
                    "internalType": "address",
                    "name": "_user",
                    "type": "address"
                },
                {
                    "internalType": "bool",
                    "name": "_change",
                    "type": "bool"
                }
            ],
            "name": "setIsFreeCouponUsed",
            "outputs": [
                {
                    "internalType": "bool",
                    "name": "",
                    "type": "bool"
                }
            ],
            "stateMutability": "nonpayable",
            "type": "function"
        }
    ],
    "bytecode": "0x608060405234801561001057600080fd5b50336000806101000a81548173ffffffffffffffffffffffffffffffffffffffff021916908373ffffffffffffffffffffffffffffffffffffffff160217905550610e8d806100606000396000f3fe6080604052600436106100555760003560e01c8063137cb58e1461005a57806314107f3c1461009757806337f1e7f2146100b3578063bbd964f4146100f0578063c1c288f81461012d578063ff874b0a1461016a575b600080fd5b34801561006657600080fd5b50610081600480360381019061007c9190610aef565b6101a7565b60405161008e9190610c7f565b60405180910390f35b6100b160048036038101906100ac9190610b54565b6101f0565b005b3480156100bf57600080fd5b506100da60048036038101906100d59190610b54565b610550565b6040516100e79190610c7f565b60405180910390f35b3480156100fc57600080fd5b5061011760048036038101906101129190610b54565b6107aa565b6040516101249190610c7f565b60405180910390f35b34801561013957600080fd5b50610154600480360381019061014f9190610b18565b6109fa565b6040516101619190610c04565b60405180910390f35b34801561017657600080fd5b50610191600480360381019061018c9190610aef565b610a5a565b60405161019e9190610c04565b60405180910390f35b6000600160008373ffffffffffffffffffffffffffffffffffffffff1673ffffffffffffffffffffffffffffffffffffffff168152602001908152602001600020549050919050565b6101f981610550565b34101561020557600080fd5b6000600381111561023f577f4e487b7100000000000000000000000000000000000000000000000000000000600052602160045260246000fd5b816003811115610278577f4e487b7100000000000000000000000000000000000000000000000000000000600052602160045260246000fd5b141561030c57600260003373ffffffffffffffffffffffffffffffffffffffff1673ffffffffffffffffffffffffffffffffffffffff16815260200190815260200160002060009054906101000a900460ff161561030b576040517f08c379a000000000000000000000000000000000000000000000000000000000815260040161030290610c5f565b60405180910390fd5b5b42600160003373ffffffffffffffffffffffffffffffffffffffff1673ffffffffffffffffffffffffffffffffffffffff1681526020019081526020016000205411156103b65761035c816107aa565b600160003373ffffffffffffffffffffffffffffffffffffffff1673ffffffffffffffffffffffffffffffffffffffff16815260200190815260200160002060008282546103aa9190610cab565b92505081905550610414565b60004290506103c4826107aa565b816103cf9190610cab565b600160003373ffffffffffffffffffffffffffffffffffffffff1673ffffffffffffffffffffffffffffffffffffffff16815260200190815260200160002081905550505b60008054906101000a900473ffffffffffffffffffffffffffffffffffffffff1673ffffffffffffffffffffffffffffffffffffffff166108fc349081150290604051600060405180830381858888f1935050505015801561047a573d6000803e3d6000fd5b50600060038111156104b5577f4e487b7100000000000000000000000000000000000000000000000000000000600052602160045260246000fd5b8160038111156104ee577f4e487b7100000000000000000000000000000000000000000000000000000000600052602160045260246000fd5b141561054d576001600260003373ffffffffffffffffffffffffffffffffffffffff1673ffffffffffffffffffffffffffffffffffffffff16815260200190815260200160002060006101000a81548160ff0219169083151502179055505b50565b600080600381111561058b577f4e487b7100000000000000000000000000000000000000000000000000000000600052602160045260246000fd5b8260038111156105c4577f4e487b7100000000000000000000000000000000000000000000000000000000600052602160045260246000fd5b14156105d357600090506107a5565b6001600381111561060d577f4e487b7100000000000000000000000000000000000000000000000000000000600052602160045260246000fd5b826003811115610646577f4e487b7100000000000000000000000000000000000000000000000000000000600052602160045260246000fd5b141561065b57662386f26fc1000090506107a5565b60026003811115610695577f4e487b7100000000000000000000000000000000000000000000000000000000600052602160045260246000fd5b8260038111156106ce577f4e487b7100000000000000000000000000000000000000000000000000000000600052602160045260246000fd5b14156106e35766470de4df82000090506107a5565b60038081111561071c577f4e487b7100000000000000000000000000000000000000000000000000000000600052602160045260246000fd5b826003811115610755577f4e487b7100000000000000000000000000000000000000000000000000000000600052602160045260246000fd5b141561076a57666a94d74f43000090506107a5565b6040517f08c379a000000000000000000000000000000000000000000000000000000000815260040161079c90610c1f565b60405180910390fd5b919050565b60008060038111156107e5577f4e487b7100000000000000000000000000000000000000000000000000000000600052602160045260246000fd5b82600381111561081e577f4e487b7100000000000000000000000000000000000000000000000000000000600052602160045260246000fd5b141561082f5762278d0090506109f5565b60016003811115610869577f4e487b7100000000000000000000000000000000000000000000000000000000600052602160045260246000fd5b8260038111156108a2577f4e487b7100000000000000000000000000000000000000000000000000000000600052602160045260246000fd5b14156108b35762278d0090506109f5565b600260038111156108ed577f4e487b7100000000000000000000000000000000000000000000000000000000600052602160045260246000fd5b826003811115610926577f4e487b7100000000000000000000000000000000000000000000000000000000600052602160045260246000fd5b1415610937576276a70090506109f5565b600380811115610970577f4e487b7100000000000000000000000000000000000000000000000000000000600052602160045260246000fd5b8260038111156109a9577f4e487b7100000000000000000000000000000000000000000000000000000000600052602160045260246000fd5b14156109ba5762ed4e0090506109f5565b6040517f08c379a00000000000000000000000000000000000000000000000000000000081526004016109ec90610c3f565b60405180910390fd5b919050565b600081600260008573ffffffffffffffffffffffffffffffffffffffff1673ffffffffffffffffffffffffffffffffffffffff16815260200190815260200160002060006101000a81548160ff0219169083151502179055905092915050565b6000600260008373ffffffffffffffffffffffffffffffffffffffff1673ffffffffffffffffffffffffffffffffffffffff16815260200190815260200160002060009054906101000a900460ff169050919050565b600081359050610abf81610e19565b92915050565b600081359050610ad481610e30565b92915050565b600081359050610ae981610e47565b92915050565b600060208284031215610b0157600080fd5b6000610b0f84828501610ab0565b91505092915050565b60008060408385031215610b2b57600080fd5b6000610b3985828601610ab0565b9250506020610b4a85828601610ac5565b9150509250929050565b600060208284031215610b6657600080fd5b6000610b7484828501610ada565b91505092915050565b610b8681610d13565b82525050565b6000610b99601f83610c9a565b9150610ba482610d78565b602082019050919050565b6000610bbc602283610c9a565b9150610bc782610da1565b604082019050919050565b6000610bdf601b83610c9a565b9150610bea82610df0565b602082019050919050565b610bfe81610d3f565b82525050565b6000602082019050610c196000830184610b7d565b92915050565b60006020820190508181036000830152610c3881610b8c565b9050919050565b60006020820190508181036000830152610c5881610baf565b9050919050565b60006020820190508181036000830152610c7881610bd2565b9050919050565b6000602082019050610c946000830184610bf5565b92915050565b600082825260208201905092915050565b6000610cb682610d3f565b9150610cc183610d3f565b9250827fffffffffffffffffffffffffffffffffffffffffffffffffffffffffffffffff03821115610cf657610cf5610d49565b5b828201905092915050565b6000610d0c82610d1f565b9050919050565b60008115159050919050565b600073ffffffffffffffffffffffffffffffffffffffff82169050919050565b6000819050919050565b7f4e487b7100000000000000000000000000000000000000000000000000000000600052601160045260246000fd5b7f43616e6e6f742067657420707269636520666f722077726f6e6720706c616e00600082015250565b7f43616e6e6f7420676574206475726174696f6e20666f722077726f6e6720706c60008201527f616e000000000000000000000000000000000000000000000000000000000000602082015250565b7f4672656520636f75706f6e20697320616c726561647920757365640000000000600082015250565b610e2281610d01565b8114610e2d57600080fd5b50565b610e3981610d13565b8114610e4457600080fd5b50565b60048110610e5457600080fd5b5056fea26469706673582212208ecf54409f02855fa18a76f5b29c7aaec53afd4bec8999c4c7d81869aa4475bc64736f6c63430008040033",
    "linkReferences": {},
    "deployedLinkReferences": {}
}